{
  "abi": [
    {
      "inputs": [
        {
          "internalType": "address",
          "name": "_routerAddress",
          "type": "address"
        },
        {
          "internalType": "contract IBCHost",
          "name": "_ibcHost",
          "type": "address"
        },
        {
          "internalType": "contract IBCHandler",
          "name": "_ibcHandler",
          "type": "address"
        }
      ],
      "stateMutability": "nonpayable",
      "type": "constructor"
    },
    {
      "inputs": [
        {
          "components": [
            {
              "internalType": "uint64",
              "name": "sequence",
              "type": "uint64"
            },
            {
              "internalType": "string",
              "name": "source_port",
              "type": "string"
            },
            {
              "internalType": "string",
              "name": "source_channel",
              "type": "string"
            },
            {
              "internalType": "string",
              "name": "destination_port",
              "type": "string"
            },
            {
              "internalType": "string",
              "name": "destination_channel",
              "type": "string"
            },
            {
              "internalType": "bytes",
              "name": "data",
              "type": "bytes"
            },
            {
              "components": [
                {
                  "internalType": "uint64",
                  "name": "revision_number",
                  "type": "uint64"
                },
                {
                  "internalType": "uint64",
                  "name": "revision_height",
                  "type": "uint64"
                }
              ],
              "internalType": "struct Height.Data",
              "name": "timeout_height",
              "type": "tuple"
            },
            {
              "internalType": "uint64",
              "name": "timeout_timestamp",
              "type": "uint64"
            }
          ],
          "internalType": "struct Packet.Data",
          "name": "packet",
          "type": "tuple"
        },
        {
          "internalType": "bytes",
          "name": "acknowledgement",
          "type": "bytes"
        },
        {
          "internalType": "address",
          "name": "relayer",
          "type": "address"
        }
      ],
      "name": "onAcknowledgementPacket",
      "outputs": [],
      "stateMutability": "nonpayable",
      "type": "function"
    },
    {
      "inputs": [
        {
          "internalType": "string",
          "name": "portId",
          "type": "string"
        },
        {
          "internalType": "string",
          "name": "channelId",
          "type": "string"
        }
      ],
      "name": "onChanCloseConfirm",
      "outputs": [],
      "stateMutability": "nonpayable",
      "type": "function"
    },
    {
      "inputs": [
        {
          "internalType": "string",
          "name": "portId",
          "type": "string"
        },
        {
          "internalType": "string",
          "name": "channelId",
          "type": "string"
        }
      ],
      "name": "onChanCloseInit",
      "outputs": [],
      "stateMutability": "nonpayable",
      "type": "function"
    },
    {
      "inputs": [
        {
          "internalType": "string",
          "name": "portId",
          "type": "string"
        },
        {
          "internalType": "string",
          "name": "channelId",
          "type": "string"
        },
        {
          "internalType": "string",
          "name": "counterpartyVersion",
          "type": "string"
        }
      ],
      "name": "onChanOpenAck",
      "outputs": [],
      "stateMutability": "nonpayable",
      "type": "function"
    },
    {
      "inputs": [
        {
          "internalType": "string",
          "name": "portId",
          "type": "string"
        },
        {
          "internalType": "string",
          "name": "channelId",
          "type": "string"
        }
      ],
      "name": "onChanOpenConfirm",
      "outputs": [],
      "stateMutability": "nonpayable",
      "type": "function"
    },
    {
      "inputs": [
        {
          "internalType": "enum Channel.Order",
          "name": "",
          "type": "uint8"
        },
        {
          "internalType": "string[]",
          "name": "",
          "type": "string[]"
        },
        {
          "internalType": "string",
          "name": "",
          "type": "string"
        },
        {
          "internalType": "string",
          "name": "channelId",
          "type": "string"
        },
        {
          "components": [
            {
              "internalType": "string",
              "name": "port_id",
              "type": "string"
            },
            {
              "internalType": "string",
              "name": "channel_id",
              "type": "string"
            }
          ],
          "internalType": "struct ChannelCounterparty.Data",
          "name": "",
          "type": "tuple"
        },
        {
          "internalType": "string",
          "name": "",
          "type": "string"
        }
      ],
      "name": "onChanOpenInit",
      "outputs": [],
      "stateMutability": "nonpayable",
      "type": "function"
    },
    {
      "inputs": [
        {
          "internalType": "enum Channel.Order",
          "name": "",
          "type": "uint8"
        },
        {
          "internalType": "string[]",
          "name": "",
          "type": "string[]"
        },
        {
          "internalType": "string",
          "name": "",
          "type": "string"
        },
        {
          "internalType": "string",
          "name": "channelId",
          "type": "string"
        },
        {
          "components": [
            {
              "internalType": "string",
              "name": "port_id",
              "type": "string"
            },
            {
              "internalType": "string",
              "name": "channel_id",
              "type": "string"
            }
          ],
          "internalType": "struct ChannelCounterparty.Data",
          "name": "",
          "type": "tuple"
        },
        {
          "internalType": "string",
          "name": "",
          "type": "string"
        },
        {
          "internalType": "string",
          "name": "",
          "type": "string"
        }
      ],
      "name": "onChanOpenTry",
      "outputs": [],
      "stateMutability": "nonpayable",
      "type": "function"
    },
    {
      "inputs": [
        {
          "components": [
            {
              "internalType": "uint64",
              "name": "sequence",
              "type": "uint64"
            },
            {
              "internalType": "string",
              "name": "source_port",
              "type": "string"
            },
            {
              "internalType": "string",
              "name": "source_channel",
              "type": "string"
            },
            {
              "internalType": "string",
              "name": "destination_port",
              "type": "string"
            },
            {
              "internalType": "string",
              "name": "destination_channel",
              "type": "string"
            },
            {
              "internalType": "bytes",
              "name": "data",
              "type": "bytes"
            },
            {
              "components": [
                {
                  "internalType": "uint64",
                  "name": "revision_number",
                  "type": "uint64"
                },
                {
                  "internalType": "uint64",
                  "name": "revision_height",
                  "type": "uint64"
                }
              ],
              "internalType": "struct Height.Data",
              "name": "timeout_height",
              "type": "tuple"
            },
            {
              "internalType": "uint64",
              "name": "timeout_timestamp",
              "type": "uint64"
            }
          ],
          "internalType": "struct Packet.Data",
          "name": "packet",
          "type": "tuple"
        },
        {
          "internalType": "address",
          "name": "relayer",
          "type": "address"
        }
      ],
      "name": "onRecvPacket",
      "outputs": [
        {
          "internalType": "bytes",
          "name": "acknowledgement",
          "type": "bytes"
        }
      ],
      "stateMutability": "nonpayable",
      "type": "function"
    },
    {
      "inputs": [],
      "name": "routerAddress",
      "outputs": [
        {
          "internalType": "address",
          "name": "",
          "type": "address"
        }
      ],
      "stateMutability": "view",
      "type": "function"
    },
    {
      "inputs": [
        {
          "internalType": "bytes",
          "name": "account",
          "type": "bytes"
        },
        {
          "internalType": "uint128",
          "name": "networkId",
          "type": "uint128"
        },
        {
          "internalType": "bytes",
          "name": "salt",
          "type": "bytes"
        },
        {
          "internalType": "bytes",
          "name": "spawnedProgram",
          "type": "bytes"
        },
        {
          "internalType": "uint128[]",
          "name": "assetIds",
          "type": "uint128[]"
        },
        {
          "internalType": "uint256[]",
          "name": "amounts",
          "type": "uint256[]"
        }
      ],
      "name": "sendProgram",
      "outputs": [],
      "stateMutability": "nonpayable",
      "type": "function"
    },
    {
      "inputs": [],
      "name": "sourceChannel",
      "outputs": [
        {
          "internalType": "string",
          "name": "",
          "type": "string"
        }
      ],
      "stateMutability": "view",
      "type": "function"
    },
    {
      "inputs": [],
      "name": "sourcePort",
      "outputs": [
        {
          "internalType": "string",
          "name": "",
          "type": "string"
        }
      ],
      "stateMutability": "view",
      "type": "function"
    }
  ],
  "bytecode": {
    "object": "0x60806040523480156200001157600080fd5b5060405162001c1038038062001c10833981016040819052620000349162000090565b600480546001600160a01b039485166001600160a01b031991821617909155600180549385169382169390931790925560008054919093169116179055620000e4565b6001600160a01b03811681146200008d57600080fd5b50565b600080600060608486031215620000a657600080fd5b8351620000b38162000077565b6020850151909350620000c68162000077565b6040850151909250620000d98162000077565b809150509250925092565b611b1c80620000f46000396000f3fe608060405234801561001057600080fd5b50600436106100b45760003560e01c8063a113e41111610071578063a113e4111461016e578063c9c9864c14610182578063e74a1ac21461016e578063ea559a421461018a578063ef4776d21461016e578063fb8b532e1461019257600080fd5b80632301c6f5146100b95780633268cc56146100e257806340e705a71461010d57806344dd9638146101225780634942d1ac1461013c578063981389f214610152575b600080fd5b6100cc6100c7366004610972565b6101a0565b6040516100d99190610a13565b60405180910390f35b6004546100f5906001600160a01b031681565b6040516001600160a01b0390911681526020016100d9565b61012061011b366004610c4c565b6102e7565b005b610120610130366004610de2565b50505050505050505050565b61012061014a366004610edd565b505050505050565b610120610160366004610f76565b505050505050505050505050565b61012061017c3660046110c1565b50505050565b6100cc6104e6565b6100cc610574565b61012061017c36600461112c565b60606000808080808073__$42fb3845ba15f249cc8cc72220d41e153f$__63c8c9a6476101d060a08c018c6111a7565b600480546040516001600160e01b031960e087901b1681526102009493926001600160a01b0390921691016111ed565b600060405180830381865af415801561021d573d6000803e3d6000fd5b505050506040513d6000823e601f3d908101601f191682016040526102459190810190611394565b6004805460405163b5881b3f60e01b8152979d50959b50939950919750955093506102d8926001600160a01b039092169163b5881b3f91610290918a9189918b918a918a91016114b6565b6020604051808303816000875af11580156102af573d6000803e3d6000fd5b505050506040513d601f19601f820116820180604052508101906102d3919061157d565b610581565b96505050505050505b92915050565b6004546001600160a01b031633146103465760405162461bcd60e51b815260206004820152601b60248201527f6f6e6c7920726f757465722063616e2073656e64207061636b6574000000000060448201526064015b60405180910390fd5b600073__$42fb3845ba15f249cc8cc72220d41e153f$__63f2044d0973__$42fb3845ba15f249cc8cc72220d41e153f$__635df958f58a8a6040518363ffffffff1660e01b815260040161039b929190611598565b600060405180830381865af41580156103b8573d6000803e3d6000fd5b505050506040513d6000823e601f3d908101601f191682016040526103e091908101906115c3565b604051636bcc3ecb60e01b815273__$42fb3845ba15f249cc8cc72220d41e153f$__90636bcc3ecb90610417908d90600401610a13565b600060405180830381865af4158015610434573d6000803e3d6000fd5b505050506040513d6000823e601f3d908101601f1916820160405261045c91908101906115c3565b888888886040518763ffffffff1660e01b8152600401610481969594939291906115f7565b600060405180830381865af415801561049e573d6000803e3d6000fd5b505050506040513d6000823e601f3d908101601f191682016040526104c691908101906115c3565b90506104dd816104d8426102586116a6565b610615565b50505050505050565b600280546104f3906116c7565b80601f016020809104026020016040519081016040528092919081815260200182805461051f906116c7565b801561056c5780601f106105415761010080835404028352916020019161056c565b820191906000526020600020905b81548152906001019060200180831161054f57829003601f168201915b505050505081565b600380546104f3906116c7565b6040805160018082528183019092526060916000919060208201818036833701905050905082156105e057600160f81b816000815181106105c4576105c46116fb565b60200101906001600160f81b031916908160001a9053506102e1565b600060f81b816000815181106105f8576105f86116fb565b60200101906001600160f81b031916908160001a90535092915050565b60015460405163180010bd60e11b815260009182916001600160a01b0390911690633000217a9061064e906002906003906004016117b5565b600060405180830381865afa15801561066b573d6000803e3d6000fd5b505050506040513d6000823e601f3d908101601f1916820160405261069391908101906118de565b91509150806106d85760405162461bcd60e51b815260206004820152601160248201527018da185b9b995b081b9bdd08199bdd5b99607a1b604482015260640161033d565b60005460408051610100810191829052600154632c120c5b60e11b9092526001600160a01b03928316926340835e449282911663582418b66107216002600361010486016117b5565b602060405180830381865afa15801561073e573d6000803e3d6000fd5b505050506040513d601f19601f8201168201806040525081019061076291906119c6565b6001600160401b031681526020016002805461077d906116c7565b80601f01602080910402602001604051908101604052809291908181526020018280546107a9906116c7565b80156107f65780601f106107cb576101008083540402835291602001916107f6565b820191906000526020600020905b8154815290600101906020018083116107d957829003601f168201915b505050505081526020016003805461080d906116c7565b80601f0160208091040260200160405190810160405280929190818152602001828054610839906116c7565b80156108865780601f1061085b57610100808354040283529160200191610886565b820191906000526020600020905b81548152906001019060200180831161086957829003601f168201915b5050505050815260200185604001516000015181526020018560400151602001518152602001878152602001604051806040016040528060006001600160401b0316815260200160006001600160401b03168152508152602001866001600160401b03168152506040518263ffffffff1660e01b815260040161090991906119ef565b600060405180830381600087803b15801561092357600080fd5b505af1158015610937573d6000803e3d6000fd5b5050505050505050565b6000610120828403121561095457600080fd5b50919050565b6001600160a01b038116811461096f57600080fd5b50565b6000806040838503121561098557600080fd5b82356001600160401b0381111561099b57600080fd5b6109a785828601610941565b92505060208301356109b88161095a565b809150509250929050565b60005b838110156109de5781810151838201526020016109c6565b50506000910152565b600081518084526109ff8160208601602086016109c3565b601f01601f19169290920160200192915050565b602081526000610a2660208301846109e7565b9392505050565b634e487b7160e01b600052604160045260246000fd5b604080519081016001600160401b0381118282101715610a6557610a65610a2d565b60405290565b60405160a081016001600160401b0381118282101715610a6557610a65610a2d565b604051601f8201601f191681016001600160401b0381118282101715610ab557610ab5610a2d565b604052919050565b60006001600160401b03821115610ad657610ad6610a2d565b50601f01601f191660200190565b600082601f830112610af557600080fd5b8135610b08610b0382610abd565b610a8d565b818152846020838601011115610b1d57600080fd5b816020850160208301376000918101602001919091529392505050565b6001600160801b038116811461096f57600080fd5b8035610b5a81610b3a565b919050565b60006001600160401b03821115610b7857610b78610a2d565b5060051b60200190565b600082601f830112610b9357600080fd5b81356020610ba3610b0383610b5f565b82815260059290921b84018101918181019086841115610bc257600080fd5b8286015b84811015610be6578035610bd981610b3a565b8352918301918301610bc6565b509695505050505050565b600082601f830112610c0257600080fd5b81356020610c12610b0383610b5f565b82815260059290921b84018101918181019086841115610c3157600080fd5b8286015b84811015610be65780358352918301918301610c35565b60008060008060008060c08789031215610c6557600080fd5b86356001600160401b0380821115610c7c57600080fd5b610c888a838b01610ae4565b9750610c9660208a01610b4f565b96506040890135915080821115610cac57600080fd5b610cb88a838b01610ae4565b95506060890135915080821115610cce57600080fd5b610cda8a838b01610ae4565b94506080890135915080821115610cf057600080fd5b610cfc8a838b01610b82565b935060a0890135915080821115610d1257600080fd5b50610d1f89828a01610bf1565b9150509295509295509295565b6003811061096f57600080fd5b8035610b5a81610d2c565b60008083601f840112610d5657600080fd5b5081356001600160401b03811115610d6d57600080fd5b6020830191508360208260051b8501011115610d8857600080fd5b9250929050565b60008083601f840112610da157600080fd5b5081356001600160401b03811115610db857600080fd5b602083019150836020828501011115610d8857600080fd5b60006040828403121561095457600080fd5b60008060008060008060008060008060c08b8d031215610e0157600080fd5b610e0a8b610d39565b995060208b01356001600160401b0380821115610e2657600080fd5b610e328e838f01610d44565b909b50995060408d0135915080821115610e4b57600080fd5b610e578e838f01610d8f565b909950975060608d0135915080821115610e7057600080fd5b610e7c8e838f01610d8f565b909750955060808d0135915080821115610e9557600080fd5b610ea18e838f01610dd0565b945060a08d0135915080821115610eb757600080fd5b50610ec48d828e01610d8f565b915080935050809150509295989b9194979a5092959850565b60008060008060008060608789031215610ef657600080fd5b86356001600160401b0380821115610f0d57600080fd5b610f198a838b01610d8f565b90985096506020890135915080821115610f3257600080fd5b610f3e8a838b01610d8f565b90965094506040890135915080821115610f5757600080fd5b50610f6489828a01610d8f565b979a9699509497509295939492505050565b60008060008060008060008060008060008060e08d8f031215610f9857600080fd5b610fa18d610d39565b9b506001600160401b0360208e01351115610fbb57600080fd5b610fcb8e60208f01358f01610d44565b909b5099506001600160401b0360408e01351115610fe857600080fd5b610ff88e60408f01358f01610d8f565b90995097506001600160401b0360608e0135111561101557600080fd5b6110258e60608f01358f01610d8f565b90975095506001600160401b0360808e0135111561104257600080fd5b6110528e60808f01358f01610dd0565b94506001600160401b0360a08e0135111561106c57600080fd5b61107c8e60a08f01358f01610d8f565b90945092506001600160401b0360c08e0135111561109957600080fd5b6110a98e60c08f01358f01610d8f565b81935080925050509295989b509295989b509295989b565b600080600080604085870312156110d757600080fd5b84356001600160401b03808211156110ee57600080fd5b6110fa88838901610d8f565b9096509450602087013591508082111561111357600080fd5b5061112087828801610d8f565b95989497509550505050565b6000806000806060858703121561114257600080fd5b84356001600160401b038082111561115957600080fd5b61116588838901610941565b9550602087013591508082111561117b57600080fd5b5061118887828801610d8f565b909450925050604085013561119c8161095a565b939692955090935050565b6000808335601e198436030181126111be57600080fd5b8301803591506001600160401b038211156111d857600080fd5b602001915036819003821315610d8857600080fd5b6040815282604082015282846060830137600060608483018101919091526001600160a01b03929092166020820152601f909201601f191690910101919050565b600082601f83011261123f57600080fd5b815161124d610b0382610abd565b81815284602083860101111561126257600080fd5b6112738260208301602087016109c3565b949350505050565b60006040828403121561128d57600080fd5b611295610a43565b905081516112a281610b3a565b815260208201516001600160401b038111156112bd57600080fd5b6112c98482850161122e565b60208301525092915050565b600082601f8301126112e657600080fd5b815160206112f6610b0383610b5f565b82815260059290921b8401810191818101908684111561131557600080fd5b8286015b84811015610be657805161132c8161095a565b8352918301918301611319565b600082601f83011261134a57600080fd5b8151602061135a610b0383610b5f565b82815260059290921b8401810191818101908684111561137957600080fd5b8286015b84811015610be6578051835291830191830161137d565b60008060008060008060c087890312156113ad57600080fd5b86516001600160401b03808211156113c457600080fd5b6113d08a838b0161122e565b975060208901519150808211156113e657600080fd5b6113f28a838b0161127b565b9650604089015191508082111561140857600080fd5b6114148a838b0161122e565b9550606089015191508082111561142a57600080fd5b6114368a838b0161122e565b9450608089015191508082111561144c57600080fd5b6114588a838b016112d5565b935060a089015191508082111561146e57600080fd5b50610d1f89828a01611339565b600081518084526020808501945080840160005b838110156114ab5781518752958201959082019060010161148f565b509495945050505050565b60a081526001600160801b0386511660a08201526000602080880151604060c08501526114e660e08501826109e7565b9050838103828501526114f981896109e7565b9050838103604085015261150d81886109e7565b8481036060860152865180825283880192509083019060005b8181101561154b5783516001600160a01b031683529284019291840191600101611526565b5050848103608086015261155f818761147b565b9a9950505050505050505050565b80518015158114610b5a57600080fd5b60006020828403121561158f57600080fd5b610a268261156d565b6040815260006115ab60408301856109e7565b90506001600160801b03831660208301529392505050565b6000602082840312156115d557600080fd5b81516001600160401b038111156115eb57600080fd5b6112738482850161122e565b60c08152600061160a60c08301896109e7565b60208382038185015261161d828a6109e7565b9150838203604085015261163182896109e7565b9150838203606085015261164582886109e7565b8481036080860152865180825282880193509082019060005b818110156116835784516001600160801b03168352938301939183019160010161165e565b505084810360a0860152611697818761147b565b9b9a5050505050505050505050565b808201808211156102e157634e487b7160e01b600052601160045260246000fd5b600181811c908216806116db57607f821691505b60208210810361095457634e487b7160e01b600052602260045260246000fd5b634e487b7160e01b600052603260045260246000fd5b8054600090600181811c908083168061172b57607f831692505b6020808410820361174c57634e487b7160e01b600052602260045260246000fd5b83885260208801828015611767576001811461177d576117a8565b60ff198716825285151560051b820197506117a8565b60008981526020902060005b878110156117a257815484820152908601908401611789565b83019850505b5050505050505092915050565b6040815260006117c86040830185611711565b82810360208401526117da8185611711565b95945050505050565b805160058110610b5a57600080fd5b8051610b5a81610d2c565b60006040828403121561180f57600080fd5b611817610a43565b905081516001600160401b038082111561183057600080fd5b61183c8583860161122e565b8352602084015191508082111561185257600080fd5b506112c98482850161122e565b600082601f83011261187057600080fd5b81516020611880610b0383610b5f565b82815260059290921b8401810191818101908684111561189f57600080fd5b8286015b84811015610be65780516001600160401b038111156118c25760008081fd5b6118d08986838b010161122e565b8452509183019183016118a3565b600080604083850312156118f157600080fd5b82516001600160401b038082111561190857600080fd5b9084019060a0828703121561191c57600080fd5b611924610a6b565b61192d836117e3565b815261193b602084016117f2565b602082015260408301518281111561195257600080fd5b61195e888286016117fd565b60408301525060608301518281111561197657600080fd5b6119828882860161185f565b60608301525060808301518281111561199a57600080fd5b6119a68882860161122e565b60808301525093506119bd9150506020840161156d565b90509250929050565b6000602082840312156119d857600080fd5b81516001600160401b0381168114610a2657600080fd5b60208152611a096020820183516001600160401b03169052565b60006020830151610120806040850152611a276101408501836109e7565b91506040850151601f1980868503016060870152611a4584836109e7565b93506060870151915080868503016080870152611a6284836109e7565b935060808701519150808685030160a0870152611a7f84836109e7565b935060a08701519150808685030160c087015250611a9d83826109e7565b92505060c0850151611ac860e086018280516001600160401b03908116835260209182015116910152565b5060e08501516001600160401b03811685830152509094935050505056fea2646970667358221220f63fadd34198de29b0f7e49c7e4598a94bfe695a4f9c241cbeb584faf945c0df64736f6c63430008150033",
    "linkReferences": {
      "src/libraries/SDK.sol": {
        "SDK": [
          {
            "start": 671,
            "length": 20
          },
          {
            "start": 1086,
            "length": 20
          },
          {
            "start": 1112,
            "length": 20
          },
          {
            "start": 1251,
            "length": 20
          }
        ]
      }
    }
  },
  "methodIdentifiers": {
    "onAcknowledgementPacket((uint64,string,string,string,string,bytes,(uint64,uint64),uint64),bytes,address)": "fb8b532e",
    "onChanCloseConfirm(string,string)": "ef4776d2",
    "onChanCloseInit(string,string)": "e74a1ac2",
    "onChanOpenAck(string,string,string)": "4942d1ac",
    "onChanOpenConfirm(string,string)": "a113e411",
    "onChanOpenInit(uint8,string[],string,string,(string,string),string)": "44dd9638",
    "onChanOpenTry(uint8,string[],string,string,(string,string),string,string)": "981389f2",
    "onRecvPacket((uint64,string,string,string,string,bytes,(uint64,uint64),uint64),address)": "2301c6f5",
    "routerAddress()": "3268cc56",
    "sendProgram(bytes,uint128,bytes,bytes,uint128[],uint256[])": "40e705a7",
    "sourceChannel()": "ea559a42",
    "sourcePort()": "c9c9864c"
  },
  "id": 25
}