{
  "abi": [
    {
      "inputs": [],
      "stateMutability": "nonpayable",
      "type": "constructor"
    },
    {
      "anonymous": false,
      "inputs": [
        {
          "indexed": false,
          "internalType": "address",
          "name": "sender",
          "type": "address"
        },
        {
          "indexed": false,
          "internalType": "uint128",
          "name": "networkId",
          "type": "uint128"
        },
        {
          "indexed": false,
          "internalType": "enum IRouter.BridgeSecurity",
          "name": "security",
          "type": "uint8"
        },
        {
          "indexed": false,
          "internalType": "address[]",
          "name": "owners",
          "type": "address[]"
        }
      ],
      "name": "AddOwners",
      "type": "event"
    },
    {
      "anonymous": false,
      "inputs": [
        {
          "indexed": false,
          "internalType": "uint128",
          "name": "networkId",
          "type": "uint128"
        },
        {
          "indexed": false,
          "internalType": "bytes",
          "name": "user",
          "type": "bytes"
        },
        {
          "indexed": false,
          "internalType": "bytes",
          "name": "salt",
          "type": "bytes"
        },
        {
          "indexed": false,
          "internalType": "address",
          "name": "instance",
          "type": "address"
        }
      ],
      "name": "InstanceCreated",
      "type": "event"
    },
    {
      "anonymous": false,
      "inputs": [
        {
          "indexed": true,
          "internalType": "address",
          "name": "previousOwner",
          "type": "address"
        },
        {
          "indexed": true,
          "internalType": "address",
          "name": "newOwner",
          "type": "address"
        }
      ],
      "name": "OwnershipTransferred",
      "type": "event"
    },
    {
      "anonymous": false,
      "inputs": [
        {
          "indexed": false,
          "internalType": "address",
          "name": "sender",
          "type": "address"
        },
        {
          "indexed": false,
          "internalType": "uint128",
          "name": "networkId",
          "type": "uint128"
        },
        {
          "indexed": false,
          "internalType": "enum IRouter.BridgeSecurity",
          "name": "security",
          "type": "uint8"
        },
        {
          "indexed": false,
          "internalType": "address[]",
          "name": "owners",
          "type": "address[]"
        }
      ],
      "name": "RemoveOwners",
      "type": "event"
    },
    {
      "anonymous": false,
      "inputs": [
        {
          "indexed": false,
          "internalType": "bytes",
          "name": "account",
          "type": "bytes"
        },
        {
          "indexed": false,
          "internalType": "uint128",
          "name": "networkId",
          "type": "uint128"
        },
        {
          "indexed": false,
          "internalType": "enum IRouter.BridgeSecurity",
          "name": "security",
          "type": "uint8"
        },
        {
          "indexed": false,
          "internalType": "bytes",
          "name": "salt",
          "type": "bytes"
        },
        {
          "indexed": false,
          "internalType": "bytes",
          "name": "spawnedProgram",
          "type": "bytes"
        },
        {
          "indexed": false,
          "internalType": "address[]",
          "name": "assetAddresses",
          "type": "address[]"
        },
        {
          "indexed": false,
          "internalType": "uint256[]",
          "name": "amounts",
          "type": "uint256[]"
        }
      ],
      "name": "Spawn",
      "type": "event"
    },
    {
      "inputs": [
        {
          "internalType": "address",
          "name": "",
          "type": "address"
        }
      ],
      "name": "assetIds",
      "outputs": [
        {
          "internalType": "uint256",
          "name": "",
          "type": "uint256"
        }
      ],
      "stateMutability": "view",
      "type": "function"
    },
    {
      "inputs": [
        {
          "internalType": "uint256",
          "name": "",
          "type": "uint256"
        }
      ],
      "name": "assets",
      "outputs": [
        {
          "internalType": "address",
          "name": "",
          "type": "address"
        }
      ],
      "stateMutability": "view",
      "type": "function"
    },
    {
      "inputs": [
        {
          "internalType": "uint128",
          "name": "",
          "type": "uint128"
        },
        {
          "internalType": "enum IRouter.BridgeSecurity",
          "name": "",
          "type": "uint8"
        }
      ],
      "name": "bridges",
      "outputs": [
        {
          "internalType": "address",
          "name": "",
          "type": "address"
        }
      ],
      "stateMutability": "view",
      "type": "function"
    },
    {
      "inputs": [
        {
          "internalType": "address",
          "name": "",
          "type": "address"
        }
      ],
      "name": "bridgesInfo",
      "outputs": [
        {
          "internalType": "uint128",
          "name": "networkId",
          "type": "uint128"
        },
        {
          "internalType": "enum IRouter.BridgeSecurity",
          "name": "security",
          "type": "uint8"
        }
      ],
      "stateMutability": "view",
      "type": "function"
    },
    {
      "inputs": [
        {
          "components": [
            {
              "internalType": "uint128",
              "name": "networkId",
              "type": "uint128"
            },
            {
              "internalType": "bytes",
              "name": "account",
              "type": "bytes"
            }
          ],
          "internalType": "struct IRouter.Origin",
          "name": "origin",
          "type": "tuple"
        },
        {
          "internalType": "bytes",
          "name": "salt",
          "type": "bytes"
        }
      ],
      "name": "createInterpreter",
      "outputs": [
        {
          "internalType": "address payable",
          "name": "",
          "type": "address"
        }
      ],
      "stateMutability": "nonpayable",
      "type": "function"
    },
    {
      "inputs": [
        {
          "internalType": "bytes",
          "name": "account",
          "type": "bytes"
        },
        {
          "internalType": "uint128",
          "name": "networkId",
          "type": "uint128"
        },
        {
          "internalType": "enum IRouter.BridgeSecurity",
          "name": "security",
          "type": "uint8"
        },
        {
          "internalType": "bytes",
          "name": "salt",
          "type": "bytes"
        },
        {
          "internalType": "bytes",
          "name": "spawnedProgram",
          "type": "bytes"
        },
        {
          "internalType": "address[]",
          "name": "assetAddresses",
          "type": "address[]"
        },
        {
          "internalType": "uint128[]",
          "name": "_assetIds",
          "type": "uint128[]"
        },
        {
          "internalType": "uint256[]",
          "name": "amounts",
          "type": "uint256[]"
        }
      ],
      "name": "emitSpawn",
      "outputs": [],
      "stateMutability": "nonpayable",
      "type": "function"
    },
    {
      "inputs": [
        {
          "internalType": "uint256",
          "name": "assetId",
          "type": "uint256"
        }
      ],
      "name": "getAsset",
      "outputs": [
        {
          "internalType": "address",
          "name": "",
          "type": "address"
        }
      ],
      "stateMutability": "view",
      "type": "function"
    },
    {
      "inputs": [
        {
          "internalType": "address",
          "name": "asset",
          "type": "address"
        }
      ],
      "name": "getAssetIdByLocalId",
      "outputs": [
        {
          "internalType": "uint256",
          "name": "",
          "type": "uint256"
        }
      ],
      "stateMutability": "view",
      "type": "function"
    },
    {
      "inputs": [
        {
          "internalType": "uint128",
          "name": "networkId",
          "type": "uint128"
        },
        {
          "internalType": "enum IRouter.BridgeSecurity",
          "name": "security",
          "type": "uint8"
        }
      ],
      "name": "getBridge",
      "outputs": [
        {
          "internalType": "address",
          "name": "",
          "type": "address"
        }
      ],
      "stateMutability": "view",
      "type": "function"
    },
    {
      "inputs": [
        {
          "components": [
            {
              "internalType": "uint128",
              "name": "networkId",
              "type": "uint128"
            },
            {
              "internalType": "bytes",
              "name": "account",
              "type": "bytes"
            }
          ],
          "internalType": "struct IRouter.Origin",
          "name": "origin",
          "type": "tuple"
        },
        {
          "internalType": "bytes",
          "name": "salt",
          "type": "bytes"
        }
      ],
      "name": "getOrCreateInterpreter",
      "outputs": [
        {
          "internalType": "address payable",
          "name": "",
          "type": "address"
        }
      ],
      "stateMutability": "nonpayable",
      "type": "function"
    },
    {
      "inputs": [],
      "name": "owner",
      "outputs": [
        {
          "internalType": "address",
          "name": "",
          "type": "address"
        }
      ],
      "stateMutability": "view",
      "type": "function"
    },
    {
      "inputs": [
        {
          "internalType": "address",
          "name": "assetAddress",
          "type": "address"
        },
        {
          "internalType": "uint128",
          "name": "assetId",
          "type": "uint128"
        }
      ],
      "name": "registerAsset",
      "outputs": [],
      "stateMutability": "nonpayable",
      "type": "function"
    },
    {
      "inputs": [
        {
          "internalType": "address",
          "name": "bridgeAddress",
          "type": "address"
        },
        {
          "internalType": "enum IRouter.BridgeSecurity",
          "name": "security",
          "type": "uint8"
        },
        {
          "internalType": "uint128",
          "name": "networkId",
          "type": "uint128"
        }
      ],
      "name": "registerBridge",
      "outputs": [],
      "stateMutability": "nonpayable",
      "type": "function"
    },
    {
      "inputs": [],
      "name": "renounceOwnership",
      "outputs": [],
      "stateMutability": "nonpayable",
      "type": "function"
    },
    {
      "inputs": [
        {
          "components": [
            {
              "internalType": "uint128",
              "name": "networkId",
              "type": "uint128"
            },
            {
              "internalType": "bytes",
              "name": "account",
              "type": "bytes"
            }
          ],
          "internalType": "struct IRouter.Origin",
          "name": "origin",
          "type": "tuple"
        },
        {
          "internalType": "bytes",
          "name": "salt",
          "type": "bytes"
        },
        {
          "internalType": "bytes",
          "name": "program",
          "type": "bytes"
        },
        {
          "internalType": "address[]",
          "name": "_assets",
          "type": "address[]"
        },
        {
          "internalType": "uint256[]",
          "name": "_amounts",
          "type": "uint256[]"
        }
      ],
      "name": "runProgram",
      "outputs": [
        {
          "internalType": "bool",
          "name": "",
          "type": "bool"
        }
      ],
      "stateMutability": "payable",
      "type": "function"
    },
    {
      "inputs": [
        {
          "internalType": "address",
          "name": "newOwner",
          "type": "address"
        }
      ],
      "name": "transferOwnership",
      "outputs": [],
      "stateMutability": "nonpayable",
      "type": "function"
    },
    {
      "inputs": [
        {
          "internalType": "uint128",
          "name": "assetId",
          "type": "uint128"
        }
      ],
      "name": "unregisterAsset",
      "outputs": [],
      "stateMutability": "nonpayable",
      "type": "function"
    },
    {
      "inputs": [
        {
          "internalType": "address",
          "name": "bridgeAddress",
          "type": "address"
        }
      ],
      "name": "unregisterBridge",
      "outputs": [],
      "stateMutability": "nonpayable",
      "type": "function"
    },
    {
      "inputs": [
        {
          "internalType": "uint128",
          "name": "",
          "type": "uint128"
        },
        {
          "internalType": "bytes",
          "name": "",
          "type": "bytes"
        },
        {
          "internalType": "bytes",
          "name": "",
          "type": "bytes"
        }
      ],
      "name": "userInterpreter",
      "outputs": [
        {
          "internalType": "address",
          "name": "",
          "type": "address"
        }
      ],
      "stateMutability": "view",
      "type": "function"
    }
  ],
  "bytecode": {
    "object": "0x608060405234801561001057600080fd5b5061001a3361001f565b61006f565b600080546001600160a01b038381166001600160a01b0319831681178455604051919092169283917f8be0079c531659141344cd1fd0a4f28419497f9722a3daafe3b4186f6b6457e09190a35050565b612d818061007e6000396000f3fe6080604052600436106200012b5760003560e01c80639289d7ce11620000ad578063d8e8dbc7116200006c578063d8e8dbc71462000416578063dd1d12c81462000447578063eac8f5b8146200046c578063ef6e21e214620004a6578063f2fde38b14620004cb57600080fd5b80639289d7ce1462000345578063a1917c8b146200036a578063b5881b3f146200038f578063cf35bdd014620003b7578063d36fa00214620003f157600080fd5b80634ddabe7911620000fa5780634ddabe791462000238578063715018a614620002a35780637b34c40314620002bb57806388219d8514620003005780638da5cb5b146200032557600080fd5b80630b8efae4146200013057806322c3877914620001575780633cb18ed814620001995780633e69d23314620001e2575b600080fd5b3480156200013d57600080fd5b50620001556200014f3660046200143f565b620004f0565b005b3480156200016457600080fd5b506200017c6200017636600462001489565b62000819565b6040516001600160a01b0390911681526020015b60405180910390f35b348015620001a657600080fd5b50620001d3620001b8366004620014c1565b6001600160a01b031660009081526005602052604090205490565b60405190815260200162000190565b348015620001ef57600080fd5b506200022862000201366004620014c1565b6002602052600090815260409020546001600160801b03811690600160801b900460ff1682565b6040516200019092919062001518565b3480156200024557600080fd5b506200017c6200025736600462001608565b600160209081526000938452604090932082518084018501805192815290850193850193909320925280518082018401805193815290840191909301209152546001600160a01b031681565b348015620002b057600080fd5b50620001556200087f565b348015620002c857600080fd5b506200017c620002da36600462001489565b60036020908152600092835260408084209091529082529020546001600160a01b031681565b3480156200030d57600080fd5b50620001556200031f366004620017ef565b62000897565b3480156200033257600080fd5b506000546001600160a01b03166200017c565b3480156200035257600080fd5b506200015562000364366004620014c1565b62000ac6565b3480156200037757600080fd5b506200017c620003893660046200199d565b62000c13565b620003a6620003a036600462001a08565b62000e57565b604051901515815260200162000190565b348015620003c457600080fd5b506200017c620003d636600462001aea565b6004602052600090815260409020546001600160a01b031681565b348015620003fe57600080fd5b50620001556200041036600462001b04565b62000f21565b3480156200042357600080fd5b50620001d362000435366004620014c1565b60056020526000908152604090205481565b3480156200045457600080fd5b50620001556200046636600462001b33565b62000fc2565b3480156200047957600080fd5b506200017c6200048b36600462001aea565b6000908152600460205260409020546001600160a01b031690565b348015620004b357600080fd5b506200017c620004c53660046200199d565b62001013565b348015620004d857600080fd5b5062000155620004ea366004620014c1565b620010e0565b620004fa6200115f565b6001600160801b0381166000908152600360208190526040822090829085908111156200052b576200052b620014df565b60038111156200053f576200053f620014df565b81526020810191909152604001600020546001600160a01b031614620005c35760405162461bcd60e51b815260206004820152602e60248201527f526f757465723a20746869732074797065206f662062726964676520616c726560448201526d18591e481c9959da5cdd195c995960921b60648201526084015b60405180910390fd5b6001600160a01b038316620006155760405162461bcd60e51b8152602060048201526017602482015276526f757465723a20696e76616c6964206164647265737360481b6044820152606401620005ba565b60006001600160a01b038416600090815260026020526040902054600160801b900460ff1660038111156200064e576200064e620014df565b146200069d5760405162461bcd60e51b815260206004820152601e60248201527f526f757465723a2062726964676520616c726561647920656e61626c656400006044820152606401620005ba565b6000826003811115620006b457620006b4620014df565b03620007295760405162461bcd60e51b815260206004820152603a60248201527f526f757465723a2073686f756c64206e6f742064697361626c6520627269646760448201527f65207768696c65207265676973746572696e67206272696467650000000000006064820152608401620005ba565b6001600160a01b0383166000908152600260205260409020805483919060ff60801b1916600160801b836003811115620007675762000767620014df565b02179055506001600160a01b038316600090815260026020908152604080832080546fffffffffffffffffffffffffffffffff19166001600160801b03861690811790915583526003918290528220859290918590811115620007ce57620007ce620014df565b6003811115620007e257620007e2620014df565b815260200190815260200160002060006101000a8154816001600160a01b0302191690836001600160a01b03160217905550505050565b6001600160801b0382166000908152600360208190526040822090829084908111156200084a576200084a620014df565b60038111156200085e576200085e620014df565b81526020810191909152604001600020546001600160a01b03169392505050565b620008896200115f565b620008956000620011bb565b565b60006200092460405180604001604052808a6001600160801b031681526020018b815250336001600160a01b031663bfa0b1336040518163ffffffff1660e01b8152600401600060405180830381865afa158015620008fa573d6000803e3d6000fd5b505050506040513d6000823e601f3d908101601f1916820160405262000389919081019062001b77565b90506001600160a01b0381163314620009955760405162461bcd60e51b815260206004820152602c60248201527f526f757465723a2073656e646572206973206e6f7420616e20696e746572707260448201526b65746572206164647265737360a01b6064820152608401620005ba565b7f01d874ecc7d5e63dad2769325d6b510b1bb832b25d7f0637ad5dbfd86d5fef4b89898989898988604051620009d2979695949392919062001c62565b60405180910390a16001876003811115620009f157620009f1620014df565b0362000abb576001600160801b038816600090815260036020819052604082209190899081111562000a275762000a27620014df565b600381111562000a3b5762000a3b620014df565b8152602081019190915260409081016000205490516340e705a760e01b81526001600160a01b03909116906340e705a79062000a86908c908c908b908b908a908a9060040162001d26565b600060405180830381600087803b15801562000aa157600080fd5b505af115801562000ab6573d6000803e3d6000fd5b505050505b505050505050505050565b62000ad06200115f565b60006001600160a01b038216600090815260026020526040902054600160801b900460ff16600381111562000b095762000b09620014df565b0362000b585760405162461bcd60e51b815260206004820152601f60248201527f526f757465723a2062726964676520616c72656164792064697361626c6564006044820152606401620005ba565b6001600160a01b0381166000818152600260208181526040808420546001600160801b0381168552600380845291852095855292909152600160801b90910460ff169081111562000bad5762000bad620014df565b600381111562000bc15762000bc1620014df565b81526020808201929092526040908101600090812080546001600160a01b03191690556001600160a01b0393909316835260029091529020805470ffffffffffffffffffffffffffffffffff19169055565b81516001600160801b0316600090815260016020908152604080832091850151905183929162000c439162001dc5565b90815260200160405180910390208360405162000c61919062001dc5565b908152604051908190036020019020546001600160a01b031690508062000e5057600133600090815260026020526040902054600160801b900460ff16600381111562000cb25762000cb2620014df565b1462000d3b5760405162461bcd60e51b815260206004820152604b60248201527f466f72206372656174696e672061206e657720696e7465727072657465722c2060448201527f7468652073656e6465722073686f756c6420626520612064657465726d696e6960648201526a737469632062726964676560a81b608482015260a401620005ba565b83308460405162000d4c90620013ec565b62000d5a9392919062001de3565b604051809103906000f08015801562000d77573d6000803e3d6000fd5b509050806001600086600001516001600160801b03166001600160801b03168152602001908152602001600020856020015160405162000db8919062001dc5565b90815260200160405180910390208460405162000dd6919062001dc5565b908152602001604051809103902060006101000a8154816001600160a01b0302191690836001600160a01b031602179055507f24562b290a84938e23f9c2ac2d61a149ffd77d4d5c8cde577b8f4a5e86e6274b84600001518560200151858460405162000e47949392919062001e43565b60405180910390a15b9392505050565b60008033600090815260026020526040902054600160801b900460ff16600381111562000e885762000e88620014df565b0362000e9357600080fd5b600062000ea1878762000c13565b905062000eb08185856200120b565b604051631d07b32560e31b81526001600160a01b0382169063e83d99289062000ee0908890339060040162001e95565b600060405180830381600087803b15801562000efb57600080fd5b505af115801562000f10573d6000803e3d6000fd5b5060019a9950505050505050505050565b62000f2b6200115f565b6001600160a01b03821662000f7d5760405162461bcd60e51b8152602060048201526017602482015276526f757465723a20696e76616c6964206164647265737360481b6044820152606401620005ba565b6001600160801b0316600081815260046020908152604080832080546001600160a01b039096166001600160a01b031990961686179055938252600590529190912055565b62000fcc6200115f565b6001600160801b0316600081815260046020818152604080842080546001600160a01b031685526005835290842084905593909252905280546001600160a01b0319169055565b81516001600160801b03166000908152600160209081526040808320918501519051839291620010439162001dc5565b90815260200160405180910390208360405162001061919062001dc5565b908152604051908190036020019020546001600160a01b031690508015620010cc5760405162461bcd60e51b815260206004820152601a60248201527f496e74657270726574657220616c7265616479206578697374730000000000006044820152606401620005ba565b620010d8848462000c13565b949350505050565b620010ea6200115f565b6001600160a01b038116620011515760405162461bcd60e51b815260206004820152602660248201527f4f776e61626c653a206e6577206f776e657220697320746865207a65726f206160448201526564647265737360d01b6064820152608401620005ba565b6200115c81620011bb565b50565b6000546001600160a01b03163314620008955760405162461bcd60e51b815260206004820181905260248201527f4f776e61626c653a2063616c6c6572206973206e6f7420746865206f776e65726044820152606401620005ba565b600080546001600160a01b038381166001600160a01b0319831681178455604051919092169283917f8be0079c531659141344cd1fd0a4f28419497f9722a3daafe3b4186f6b6457e09190a35050565b8051825114620012845760405162461bcd60e51b815260206004820152603b60248201527f526f757465723a206173736574206c6973742073697a652073686f756c64206260448201527f6520657175616c20746f20616d6f756e74206c6973742073697a6500000000006064820152608401620005ba565b3415620012fb576040516000906001600160a01b038516903480156108fc029184818181858888f19350505050905080620012f95760405162461bcd60e51b81526020600482015260146024820152732330b4b632b2103a379039b2b7321022ba3432b960611b6044820152606401620005ba565b505b60005b8251811015620013e6578281815181106200131d576200131d62001ec1565b60200260200101516001600160a01b03166323b872dd33868585815181106200134a576200134a62001ec1565b60209081029190910101516040516001600160e01b031960e086901b1681526001600160a01b03938416600482015292909116602483015260448201526064016020604051808303816000875af1158015620013aa573d6000803e3d6000fd5b505050506040513d601f19601f82011682018060405250810190620013d0919062001ed7565b5080620013dd8162001efb565b915050620012fe565b50505050565b610e288062001f2483390190565b80356001600160a01b03811681146200141257600080fd5b919050565b8035600481106200141257600080fd5b80356001600160801b03811681146200141257600080fd5b6000806000606084860312156200145557600080fd5b6200146084620013fa565b9250620014706020850162001417565b9150620014806040850162001427565b90509250925092565b600080604083850312156200149d57600080fd5b620014a88362001427565b9150620014b86020840162001417565b90509250929050565b600060208284031215620014d457600080fd5b62000e5082620013fa565b634e487b7160e01b600052602160045260246000fd5b600481106200151457634e487b7160e01b600052602160045260246000fd5b9052565b6001600160801b03831681526040810162000e506020830184620014f5565b634e487b7160e01b600052604160045260246000fd5b604051601f8201601f1916810167ffffffffffffffff8111828210171562001579576200157962001537565b604052919050565b600067ffffffffffffffff8211156200159e576200159e62001537565b50601f01601f191660200190565b600082601f830112620015be57600080fd5b8135620015d5620015cf8262001581565b6200154d565b818152846020838601011115620015eb57600080fd5b816020850160208301376000918101602001919091529392505050565b6000806000606084860312156200161e57600080fd5b620016298462001427565b9250602084013567ffffffffffffffff808211156200164757600080fd5b6200165587838801620015ac565b935060408601359150808211156200166c57600080fd5b506200167b86828701620015ac565b9150509250925092565b600067ffffffffffffffff821115620016a257620016a262001537565b5060051b60200190565b600082601f830112620016be57600080fd5b81356020620016d1620015cf8362001685565b82815260059290921b84018101918181019086841115620016f157600080fd5b8286015b8481101562001717576200170981620013fa565b8352918301918301620016f5565b509695505050505050565b600082601f8301126200173457600080fd5b8135602062001747620015cf8362001685565b82815260059290921b840181019181810190868411156200176757600080fd5b8286015b8481101562001717576200177f8162001427565b83529183019183016200176b565b600082601f8301126200179f57600080fd5b81356020620017b2620015cf8362001685565b82815260059290921b84018101918181019086841115620017d257600080fd5b8286015b84811015620017175780358352918301918301620017d6565b600080600080600080600080610100898b0312156200180d57600080fd5b883567ffffffffffffffff808211156200182657600080fd5b620018348c838d01620015ac565b99506200184460208c0162001427565b98506200185460408c0162001417565b975060608b01359150808211156200186b57600080fd5b620018798c838d01620015ac565b965060808b01359150808211156200189057600080fd5b6200189e8c838d01620015ac565b955060a08b0135915080821115620018b557600080fd5b620018c38c838d01620016ac565b945060c08b0135915080821115620018da57600080fd5b620018e88c838d0162001722565b935060e08b0135915080821115620018ff57600080fd5b506200190e8b828c016200178d565b9150509295985092959890939650565b6000604082840312156200193157600080fd5b6040516040810167ffffffffffffffff828210818311171562001958576200195862001537565b816040528293506200196a8562001427565b835260208501359150808211156200198157600080fd5b506200199085828601620015ac565b6020830152505092915050565b60008060408385031215620019b157600080fd5b823567ffffffffffffffff80821115620019ca57600080fd5b620019d8868387016200191e565b93506020850135915080821115620019ef57600080fd5b50620019fe85828601620015ac565b9150509250929050565b600080600080600060a0868803121562001a2157600080fd5b853567ffffffffffffffff8082111562001a3a57600080fd5b62001a4889838a016200191e565b9650602088013591508082111562001a5f57600080fd5b62001a6d89838a01620015ac565b9550604088013591508082111562001a8457600080fd5b62001a9289838a01620015ac565b9450606088013591508082111562001aa957600080fd5b62001ab789838a01620016ac565b9350608088013591508082111562001ace57600080fd5b5062001add888289016200178d565b9150509295509295909350565b60006020828403121562001afd57600080fd5b5035919050565b6000806040838503121562001b1857600080fd5b62001b2383620013fa565b9150620014b86020840162001427565b60006020828403121562001b4657600080fd5b62000e508262001427565b60005b8381101562001b6e57818101518382015260200162001b54565b50506000910152565b60006020828403121562001b8a57600080fd5b815167ffffffffffffffff81111562001ba257600080fd5b8201601f8101841362001bb457600080fd5b805162001bc5620015cf8262001581565b81815285602083850101111562001bdb57600080fd5b62001bee82602083016020860162001b51565b95945050505050565b6000815180845262001c1181602086016020860162001b51565b601f01601f19169290920160200192915050565b600081518084526020808501945080840160005b8381101562001c575781518752958201959082019060010162001c39565b509495945050505050565b60e08152600062001c7760e083018a62001bf7565b60206001600160801b038a168185015262001c96604085018a620014f5565b838203606085015262001caa828962001bf7565b9150838203608085015262001cc0828862001bf7565b84810360a0860152865180825282880193509082019060005b8181101562001d005784516001600160a01b03168352938301939183019160010162001cd9565b505084810360c086015262001d16818762001c25565b9c9b505050505050505050505050565b60c08152600062001d3b60c083018962001bf7565b60206001600160801b03808a1682860152848303604086015262001d60838a62001bf7565b9250848303606086015262001d76838962001bf7565b8581036080870152875180825283890194509083019060005b8181101562001daf57855184168352948401949184019160010162001d8f565b505085810360a087015262001d16818862001c25565b6000825162001dd981846020870162001b51565b9190910192915050565b606081526001600160801b038451166060820152600060208501516040608084015262001e1460a084018262001bf7565b6001600160a01b03861660208501528381036040850152905062001e39818562001bf7565b9695505050505050565b6001600160801b038516815260806020820152600062001e67608083018662001bf7565b828103604084015262001e7b818662001bf7565b91505060018060a01b038316606083015295945050505050565b60408152600062001eaa604083018562001bf7565b905060018060a01b03831660208301529392505050565b634e487b7160e01b600052603260045260246000fd5b60006020828403121562001eea57600080fd5b8151801515811462000e5057600080fd5b60006001820162001f1c57634e487b7160e01b600052601160045260246000fd5b506001019056fe60806040523480156200001157600080fd5b5060405162000e2838038062000e288339810160408190526200003491620001ea565b3360008181526003602052604081208054600160ff19909116811790915581546001600160a01b031990811690931790915580549091166001600160a01b038416179055600262000086828262000349565b508251600480546001600160801b0319166001600160801b039092169190911781556020840151849190600590620000bf908262000349565b5090505050505062000415565b634e487b7160e01b600052604160045260246000fd5b604080519081016001600160401b0381118282101715620001075762000107620000cc565b60405290565b604051601f8201601f191681016001600160401b0381118282101715620001385762000138620000cc565b604052919050565b600082601f8301126200015257600080fd5b81516001600160401b038111156200016e576200016e620000cc565b602062000184601f8301601f191682016200010d565b82815285828487010111156200019957600080fd5b60005b83811015620001b95785810183015182820184015282016200019c565b506000928101909101919091529392505050565b80516001600160a01b0381168114620001e557600080fd5b919050565b6000806000606084860312156200020057600080fd5b83516001600160401b03808211156200021857600080fd5b90850190604082880312156200022d57600080fd5b62000237620000e2565b82516001600160801b03811681146200024f57600080fd5b81526020830151828111156200026457600080fd5b620002728982860162000140565b602083015250809550506200028a60208701620001cd565b93506040860151915080821115620002a157600080fd5b50620002b08682870162000140565b9150509250925092565b600181811c90821680620002cf57607f821691505b602082108103620002f057634e487b7160e01b600052602260045260246000fd5b50919050565b601f8211156200034457600081815260208120601f850160051c810160208610156200031f5750805b601f850160051c820191505b8181101562000340578281556001016200032b565b5050505b505050565b81516001600160401b03811115620003655762000365620000cc565b6200037d81620003768454620002ba565b84620002f6565b602080601f831160018114620003b557600084156200039c5750858301515b600019600386901b1c1916600185901b17855562000340565b600085815260208120601f198616915b82811015620003e657888601518255948401946001909101908401620003c5565b5085821015620004055787850151600019600388901b60f8161c191681555b5050505050600190811b01905550565b610a0380620004256000396000f3fe6080604052600436106100745760003560e01c80636c46a2c51161004e5780636c46a2c51461011d578063a9a5e3af1461013f578063bfa0b1331461015f578063e83d99281461018157600080fd5b8063022914a71461008057806302d05d3f146100c55780633268cc56146100fd57600080fd5b3661007b57005b600080fd5b34801561008c57600080fd5b506100b061009b3660046105ef565b60036020526000908152604090205460ff1681565b60405190151581526020015b60405180910390f35b3480156100d157600080fd5b506000546100e5906001600160a01b031681565b6040516001600160a01b0390911681526020016100bc565b34801561010957600080fd5b506001546100e5906001600160a01b031681565b34801561012957600080fd5b5061013d610138366004610658565b6101a1565b005b34801561014b57600080fd5b5061013d61015a366004610658565b610300565b34801561016b57600080fd5b50610174610456565b6040516100bc919061074b565b34801561018d57600080fd5b5061013d61019c36600461075e565b6104e4565b6040516101b09060059061083e565b6040519081900381206001600160601b03193360601b1660208301529060340160405160208183030381529060405280519060200120148061020157503360009081526003602052604090205460ff165b8061020b57503033145b61021457600080fd5b60005b81518110156102fc5760006001600160a01b031682828151811061023d5761023d6108b4565b60200260200101516001600160a01b0316036102a05760405162461bcd60e51b815260206004820152601c60248201527f496e7465727072657465723a20696e76616c696420616464726573730000000060448201526064015b60405180910390fd5b6001600360008484815181106102b8576102b86108b4565b6020908102919091018101516001600160a01b03168252810191909152604001600020805460ff1916911515919091179055806102f4816108ca565b915050610217565b5050565b60405161030f9060059061083e565b6040519081900381206001600160601b03193360601b1660208301529060340160405160208183030381529060405280519060200120148061036057503360009081526003602052604090205460ff165b8061036a57503033145b61037357600080fd5b60005b81518110156102fc5760006001600160a01b031682828151811061039c5761039c6108b4565b60200260200101516001600160a01b0316036103fa5760405162461bcd60e51b815260206004820152601c60248201527f496e7465727072657465723a20696e76616c69642061646472657373000000006044820152606401610297565b600060036000848481518110610412576104126108b4565b6020908102919091018101516001600160a01b03168252810191909152604001600020805460ff19169115159190911790558061044e816108ca565b915050610376565b6002805461046390610804565b80601f016020809104026020016040519081016040528092919081815260200182805461048f90610804565b80156104dc5780601f106104b1576101008083540402835291602001916104dc565b820191906000526020600020905b8154815290600101906020018083116104bf57829003601f168201915b505050505081565b6040516104f39060059061083e565b6040519081900381206001600160601b03193360601b1660208301529060340160405160208183030381529060405280519060200120148061054457503360009081526003602052604090205460ff165b8061054e57503033145b61055757600080fd5b600154604051630bb4cb4760e01b815273__$42fb3845ba15f249cc8cc72220d41e153f$__91630bb4cb479161059f91869186916001600160a01b03169060049081016108f1565b60006040518083038186803b1580156105b757600080fd5b505af41580156105cb573d6000803e3d6000fd5b505050505050565b80356001600160a01b03811681146105ea57600080fd5b919050565b60006020828403121561060157600080fd5b61060a826105d3565b9392505050565b634e487b7160e01b600052604160045260246000fd5b604051601f8201601f1916810167ffffffffffffffff8111828210171561065057610650610611565b604052919050565b6000602080838503121561066b57600080fd5b823567ffffffffffffffff8082111561068357600080fd5b818501915085601f83011261069757600080fd5b8135818111156106a9576106a9610611565b8060051b91506106ba848301610627565b81815291830184019184810190888411156106d457600080fd5b938501935b838510156106f9576106ea856105d3565b825293850193908501906106d9565b98975050505050505050565b6000815180845260005b8181101561072b5760208185018101518683018201520161070f565b506000602082860101526020601f19601f83011685010191505092915050565b60208152600061060a6020830184610705565b6000806040838503121561077157600080fd5b823567ffffffffffffffff8082111561078957600080fd5b818501915085601f83011261079d57600080fd5b81356020828211156107b1576107b1610611565b6107c3601f8301601f19168201610627565b925081835287818386010111156107d957600080fd5b818185018285013760008183850101528295506107f78188016105d3565b9450505050509250929050565b600181811c9082168061081857607f821691505b60208210810361083857634e487b7160e01b600052602260045260246000fd5b50919050565b600080835461084c81610804565b600182811680156108645760018114610879576108a8565b60ff19841687528215158302870194506108a8565b8760005260208060002060005b8581101561089f5781548a820152908401908201610886565b50505082870194505b50929695505050505050565b634e487b7160e01b600052603260045260246000fd5b6000600182016108ea57634e487b7160e01b600052601160045260246000fd5b5060010190565b6080815260006109046080830187610705565b602060018060a01b03808816828601528087166040860152506060848303818601526fffffffffffffffffffffffffffffffff865416835260018087016040848601526000815461095481610804565b80604089015284821660008114610972576001811461098c576109ba565b60ff1983168988015281151560051b8901870193506109ba565b846000528760002060005b838110156109b25781548b82018a0152908701908901610997565b8a0188019450505b50919d9c5050505050505050505050505056fea2646970667358221220fa99c34fb2774b18075150a6ab9c14a2fb5520fcc95b51d729b04f16d0cd1bea64736f6c63430008150033a2646970667358221220b0de9eba5c0830c1fd69a48045777d0a058b199599426adf79b9cf6c04ade1ea64736f6c63430008150033",
    "linkReferences": {
      "src/libraries/SDK.sol": {
        "SDK": [
          {
            "start": 10544,
            "length": 20
          }
        ]
      }
    }
  },
  "methodIdentifiers": {
    "assetIds(address)": "d8e8dbc7",
    "assets(uint256)": "cf35bdd0",
    "bridges(uint128,uint8)": "7b34c403",
    "bridgesInfo(address)": "3e69d233",
    "createInterpreter((uint128,bytes),bytes)": "ef6e21e2",
    "emitSpawn(bytes,uint128,uint8,bytes,bytes,address[],uint128[],uint256[])": "88219d85",
    "getAsset(uint256)": "eac8f5b8",
    "getAssetIdByLocalId(address)": "3cb18ed8",
    "getBridge(uint128,uint8)": "22c38779",
    "getOrCreateInterpreter((uint128,bytes),bytes)": "a1917c8b",
    "owner()": "8da5cb5b",
    "registerAsset(address,uint128)": "d36fa002",
    "registerBridge(address,uint8,uint128)": "0b8efae4",
    "renounceOwnership()": "715018a6",
    "runProgram((uint128,bytes),bytes,bytes,address[],uint256[])": "b5881b3f",
    "transferOwnership(address)": "f2fde38b",
    "unregisterAsset(uint128)": "dd1d12c8",
    "unregisterBridge(address)": "9289d7ce",
    "userInterpreter(uint128,bytes,bytes)": "4ddabe79"
  },
  "id": 27
}