{
  "abi": [
    {
      "inputs": [
        {
          "internalType": "contract IBCHost",
          "name": "host_",
          "type": "address"
        }
      ],
      "stateMutability": "nonpayable",
      "type": "constructor"
    },
    {
      "anonymous": false,
      "inputs": [
        {
          "components": [
            {
              "internalType": "uint64",
              "name": "sequence",
              "type": "uint64"
            },
            {
              "internalType": "string",
              "name": "source_port",
              "type": "string"
            },
            {
              "internalType": "string",
              "name": "source_channel",
              "type": "string"
            },
            {
              "internalType": "string",
              "name": "destination_port",
              "type": "string"
            },
            {
              "internalType": "string",
              "name": "destination_channel",
              "type": "string"
            },
            {
              "internalType": "bytes",
              "name": "data",
              "type": "bytes"
            },
            {
              "components": [
                {
                  "internalType": "uint64",
                  "name": "revision_number",
                  "type": "uint64"
                },
                {
                  "internalType": "uint64",
                  "name": "revision_height",
                  "type": "uint64"
                }
              ],
              "internalType": "struct Height.Data",
              "name": "timeout_height",
              "type": "tuple"
            },
            {
              "internalType": "uint64",
              "name": "timeout_timestamp",
              "type": "uint64"
            }
          ],
          "indexed": false,
          "internalType": "struct Packet.Data",
          "name": "packet",
          "type": "tuple"
        },
        {
          "indexed": false,
          "internalType": "bytes",
          "name": "acknowledgement",
          "type": "bytes"
        }
      ],
      "name": "AcknowledgePacket",
      "type": "event"
    },
    {
      "anonymous": false,
      "inputs": [
        {
          "components": [
            {
              "internalType": "uint64",
              "name": "sequence",
              "type": "uint64"
            },
            {
              "internalType": "string",
              "name": "source_port",
              "type": "string"
            },
            {
              "internalType": "string",
              "name": "source_channel",
              "type": "string"
            },
            {
              "internalType": "string",
              "name": "destination_port",
              "type": "string"
            },
            {
              "internalType": "string",
              "name": "destination_channel",
              "type": "string"
            },
            {
              "internalType": "bytes",
              "name": "data",
              "type": "bytes"
            },
            {
              "components": [
                {
                  "internalType": "uint64",
                  "name": "revision_number",
                  "type": "uint64"
                },
                {
                  "internalType": "uint64",
                  "name": "revision_height",
                  "type": "uint64"
                }
              ],
              "internalType": "struct Height.Data",
              "name": "timeout_height",
              "type": "tuple"
            },
            {
              "internalType": "uint64",
              "name": "timeout_timestamp",
              "type": "uint64"
            }
          ],
          "indexed": false,
          "internalType": "struct Packet.Data",
          "name": "packet",
          "type": "tuple"
        }
      ],
      "name": "RecvPacket",
      "type": "event"
    },
    {
      "anonymous": false,
      "inputs": [
        {
          "components": [
            {
              "internalType": "uint64",
              "name": "sequence",
              "type": "uint64"
            },
            {
              "internalType": "string",
              "name": "source_port",
              "type": "string"
            },
            {
              "internalType": "string",
              "name": "source_channel",
              "type": "string"
            },
            {
              "internalType": "string",
              "name": "destination_port",
              "type": "string"
            },
            {
              "internalType": "string",
              "name": "destination_channel",
              "type": "string"
            },
            {
              "internalType": "bytes",
              "name": "data",
              "type": "bytes"
            },
            {
              "components": [
                {
                  "internalType": "uint64",
                  "name": "revision_number",
                  "type": "uint64"
                },
                {
                  "internalType": "uint64",
                  "name": "revision_height",
                  "type": "uint64"
                }
              ],
              "internalType": "struct Height.Data",
              "name": "timeout_height",
              "type": "tuple"
            },
            {
              "internalType": "uint64",
              "name": "timeout_timestamp",
              "type": "uint64"
            }
          ],
          "indexed": false,
          "internalType": "struct Packet.Data",
          "name": "packet",
          "type": "tuple"
        }
      ],
      "name": "SendPacket",
      "type": "event"
    },
    {
      "anonymous": false,
      "inputs": [
        {
          "indexed": false,
          "internalType": "string",
          "name": "destinationPortId",
          "type": "string"
        },
        {
          "indexed": false,
          "internalType": "string",
          "name": "destinationChannel",
          "type": "string"
        },
        {
          "indexed": false,
          "internalType": "uint64",
          "name": "sequence",
          "type": "uint64"
        },
        {
          "indexed": false,
          "internalType": "bytes",
          "name": "acknowledgement",
          "type": "bytes"
        }
      ],
      "name": "WriteAcknowledgement",
      "type": "event"
    },
    {
      "inputs": [
        {
          "components": [
            {
              "components": [
                {
                  "internalType": "uint64",
                  "name": "sequence",
                  "type": "uint64"
                },
                {
                  "internalType": "string",
                  "name": "source_port",
                  "type": "string"
                },
                {
                  "internalType": "string",
                  "name": "source_channel",
                  "type": "string"
                },
                {
                  "internalType": "string",
                  "name": "destination_port",
                  "type": "string"
                },
                {
                  "internalType": "string",
                  "name": "destination_channel",
                  "type": "string"
                },
                {
                  "internalType": "bytes",
                  "name": "data",
                  "type": "bytes"
                },
                {
                  "components": [
                    {
                      "internalType": "uint64",
                      "name": "revision_number",
                      "type": "uint64"
                    },
                    {
                      "internalType": "uint64",
                      "name": "revision_height",
                      "type": "uint64"
                    }
                  ],
                  "internalType": "struct Height.Data",
                  "name": "timeout_height",
                  "type": "tuple"
                },
                {
                  "internalType": "uint64",
                  "name": "timeout_timestamp",
                  "type": "uint64"
                }
              ],
              "internalType": "struct Packet.Data",
              "name": "packet",
              "type": "tuple"
            },
            {
              "internalType": "bytes",
              "name": "acknowledgement",
              "type": "bytes"
            },
            {
              "internalType": "bytes",
              "name": "proof",
              "type": "bytes"
            },
            {
              "components": [
                {
                  "internalType": "uint64",
                  "name": "revision_number",
                  "type": "uint64"
                },
                {
                  "internalType": "uint64",
                  "name": "revision_height",
                  "type": "uint64"
                }
              ],
              "internalType": "struct Height.Data",
              "name": "proofHeight",
              "type": "tuple"
            }
          ],
          "internalType": "struct IBCMsgs.MsgPacketAcknowledgement",
          "name": "msg_",
          "type": "tuple"
        }
      ],
      "name": "acknowledgePacket",
      "outputs": [],
      "stateMutability": "nonpayable",
      "type": "function"
    },
    {
      "inputs": [
        {
          "internalType": "string",
          "name": "portId",
          "type": "string"
        },
        {
          "internalType": "address",
          "name": "moduleAddress",
          "type": "address"
        }
      ],
      "name": "bindPort",
      "outputs": [],
      "stateMutability": "nonpayable",
      "type": "function"
    },
    {
      "inputs": [
        {
          "components": [
            {
              "internalType": "string",
              "name": "portId",
              "type": "string"
            },
            {
              "internalType": "string",
              "name": "channelId",
              "type": "string"
            },
            {
              "internalType": "bytes",
              "name": "proofInit",
              "type": "bytes"
            },
            {
              "components": [
                {
                  "internalType": "uint64",
                  "name": "revision_number",
                  "type": "uint64"
                },
                {
                  "internalType": "uint64",
                  "name": "revision_height",
                  "type": "uint64"
                }
              ],
              "internalType": "struct Height.Data",
              "name": "proofHeight",
              "type": "tuple"
            }
          ],
          "internalType": "struct IBCMsgs.MsgChannelCloseConfirm",
          "name": "msg_",
          "type": "tuple"
        }
      ],
      "name": "channelCloseConfirm",
      "outputs": [],
      "stateMutability": "nonpayable",
      "type": "function"
    },
    {
      "inputs": [
        {
          "components": [
            {
              "internalType": "string",
              "name": "portId",
              "type": "string"
            },
            {
              "internalType": "string",
              "name": "channelId",
              "type": "string"
            }
          ],
          "internalType": "struct IBCMsgs.MsgChannelCloseInit",
          "name": "msg_",
          "type": "tuple"
        }
      ],
      "name": "channelCloseInit",
      "outputs": [],
      "stateMutability": "nonpayable",
      "type": "function"
    },
    {
      "inputs": [
        {
          "components": [
            {
              "internalType": "string",
              "name": "portId",
              "type": "string"
            },
            {
              "internalType": "string",
              "name": "channelId",
              "type": "string"
            },
            {
              "internalType": "string",
              "name": "counterpartyVersion",
              "type": "string"
            },
            {
              "internalType": "string",
              "name": "counterpartyChannelId",
              "type": "string"
            },
            {
              "internalType": "bytes",
              "name": "proofTry",
              "type": "bytes"
            },
            {
              "components": [
                {
                  "internalType": "uint64",
                  "name": "revision_number",
                  "type": "uint64"
                },
                {
                  "internalType": "uint64",
                  "name": "revision_height",
                  "type": "uint64"
                }
              ],
              "internalType": "struct Height.Data",
              "name": "proofHeight",
              "type": "tuple"
            }
          ],
          "internalType": "struct IBCMsgs.MsgChannelOpenAck",
          "name": "msg_",
          "type": "tuple"
        }
      ],
      "name": "channelOpenAck",
      "outputs": [],
      "stateMutability": "nonpayable",
      "type": "function"
    },
    {
      "inputs": [
        {
          "components": [
            {
              "internalType": "string",
              "name": "portId",
              "type": "string"
            },
            {
              "internalType": "string",
              "name": "channelId",
              "type": "string"
            },
            {
              "internalType": "bytes",
              "name": "proofAck",
              "type": "bytes"
            },
            {
              "components": [
                {
                  "internalType": "uint64",
                  "name": "revision_number",
                  "type": "uint64"
                },
                {
                  "internalType": "uint64",
                  "name": "revision_height",
                  "type": "uint64"
                }
              ],
              "internalType": "struct Height.Data",
              "name": "proofHeight",
              "type": "tuple"
            }
          ],
          "internalType": "struct IBCMsgs.MsgChannelOpenConfirm",
          "name": "msg_",
          "type": "tuple"
        }
      ],
      "name": "channelOpenConfirm",
      "outputs": [],
      "stateMutability": "nonpayable",
      "type": "function"
    },
    {
      "inputs": [
        {
          "components": [
            {
              "internalType": "string",
              "name": "portId",
              "type": "string"
            },
            {
              "components": [
                {
                  "internalType": "enum Channel.State",
                  "name": "state",
                  "type": "uint8"
                },
                {
                  "internalType": "enum Channel.Order",
                  "name": "ordering",
                  "type": "uint8"
                },
                {
                  "components": [
                    {
                      "internalType": "string",
                      "name": "port_id",
                      "type": "string"
                    },
                    {
                      "internalType": "string",
                      "name": "channel_id",
                      "type": "string"
                    }
                  ],
                  "internalType": "struct ChannelCounterparty.Data",
                  "name": "counterparty",
                  "type": "tuple"
                },
                {
                  "internalType": "string[]",
                  "name": "connection_hops",
                  "type": "string[]"
                },
                {
                  "internalType": "string",
                  "name": "version",
                  "type": "string"
                }
              ],
              "internalType": "struct Channel.Data",
              "name": "channel",
              "type": "tuple"
            }
          ],
          "internalType": "struct IBCMsgs.MsgChannelOpenInit",
          "name": "msg_",
          "type": "tuple"
        }
      ],
      "name": "channelOpenInit",
      "outputs": [
        {
          "internalType": "string",
          "name": "",
          "type": "string"
        }
      ],
      "stateMutability": "nonpayable",
      "type": "function"
    },
    {
      "inputs": [
        {
          "components": [
            {
              "internalType": "string",
              "name": "portId",
              "type": "string"
            },
            {
              "internalType": "string",
              "name": "previousChannelId",
              "type": "string"
            },
            {
              "components": [
                {
                  "internalType": "enum Channel.State",
                  "name": "state",
                  "type": "uint8"
                },
                {
                  "internalType": "enum Channel.Order",
                  "name": "ordering",
                  "type": "uint8"
                },
                {
                  "components": [
                    {
                      "internalType": "string",
                      "name": "port_id",
                      "type": "string"
                    },
                    {
                      "internalType": "string",
                      "name": "channel_id",
                      "type": "string"
                    }
                  ],
                  "internalType": "struct ChannelCounterparty.Data",
                  "name": "counterparty",
                  "type": "tuple"
                },
                {
                  "internalType": "string[]",
                  "name": "connection_hops",
                  "type": "string[]"
                },
                {
                  "internalType": "string",
                  "name": "version",
                  "type": "string"
                }
              ],
              "internalType": "struct Channel.Data",
              "name": "channel",
              "type": "tuple"
            },
            {
              "internalType": "string",
              "name": "counterpartyVersion",
              "type": "string"
            },
            {
              "internalType": "bytes",
              "name": "proofInit",
              "type": "bytes"
            },
            {
              "components": [
                {
                  "internalType": "uint64",
                  "name": "revision_number",
                  "type": "uint64"
                },
                {
                  "internalType": "uint64",
                  "name": "revision_height",
                  "type": "uint64"
                }
              ],
              "internalType": "struct Height.Data",
              "name": "proofHeight",
              "type": "tuple"
            }
          ],
          "internalType": "struct IBCMsgs.MsgChannelOpenTry",
          "name": "msg_",
          "type": "tuple"
        }
      ],
      "name": "channelOpenTry",
      "outputs": [
        {
          "internalType": "string",
          "name": "",
          "type": "string"
        }
      ],
      "stateMutability": "nonpayable",
      "type": "function"
    },
    {
      "inputs": [
        {
          "components": [
            {
              "internalType": "string",
              "name": "connectionId",
              "type": "string"
            },
            {
              "internalType": "bytes",
              "name": "clientStateBytes",
              "type": "bytes"
            },
            {
              "components": [
                {
                  "internalType": "string",
                  "name": "identifier",
                  "type": "string"
                },
                {
                  "internalType": "string[]",
                  "name": "features",
                  "type": "string[]"
                }
              ],
              "internalType": "struct Version.Data",
              "name": "version",
              "type": "tuple"
            },
            {
              "internalType": "string",
              "name": "counterpartyConnectionID",
              "type": "string"
            },
            {
              "internalType": "bytes",
              "name": "proofTry",
              "type": "bytes"
            },
            {
              "internalType": "bytes",
              "name": "proofClient",
              "type": "bytes"
            },
            {
              "internalType": "bytes",
              "name": "proofConsensus",
              "type": "bytes"
            },
            {
              "components": [
                {
                  "internalType": "uint64",
                  "name": "revision_number",
                  "type": "uint64"
                },
                {
                  "internalType": "uint64",
                  "name": "revision_height",
                  "type": "uint64"
                }
              ],
              "internalType": "struct Height.Data",
              "name": "proofHeight",
              "type": "tuple"
            },
            {
              "components": [
                {
                  "internalType": "uint64",
                  "name": "revision_number",
                  "type": "uint64"
                },
                {
                  "internalType": "uint64",
                  "name": "revision_height",
                  "type": "uint64"
                }
              ],
              "internalType": "struct Height.Data",
              "name": "consensusHeight",
              "type": "tuple"
            }
          ],
          "internalType": "struct IBCMsgs.MsgConnectionOpenAck",
          "name": "msg_",
          "type": "tuple"
        }
      ],
      "name": "connectionOpenAck",
      "outputs": [],
      "stateMutability": "nonpayable",
      "type": "function"
    },
    {
      "inputs": [
        {
          "components": [
            {
              "internalType": "string",
              "name": "connectionId",
              "type": "string"
            },
            {
              "internalType": "bytes",
              "name": "proofAck",
              "type": "bytes"
            },
            {
              "components": [
                {
                  "internalType": "uint64",
                  "name": "revision_number",
                  "type": "uint64"
                },
                {
                  "internalType": "uint64",
                  "name": "revision_height",
                  "type": "uint64"
                }
              ],
              "internalType": "struct Height.Data",
              "name": "proofHeight",
              "type": "tuple"
            }
          ],
          "internalType": "struct IBCMsgs.MsgConnectionOpenConfirm",
          "name": "msg_",
          "type": "tuple"
        }
      ],
      "name": "connectionOpenConfirm",
      "outputs": [],
      "stateMutability": "nonpayable",
      "type": "function"
    },
    {
      "inputs": [
        {
          "components": [
            {
              "internalType": "string",
              "name": "clientId",
              "type": "string"
            },
            {
              "components": [
                {
                  "internalType": "string",
                  "name": "client_id",
                  "type": "string"
                },
                {
                  "internalType": "string",
                  "name": "connection_id",
                  "type": "string"
                },
                {
                  "components": [
                    {
                      "internalType": "bytes",
                      "name": "key_prefix",
                      "type": "bytes"
                    }
                  ],
                  "internalType": "struct MerklePrefix.Data",
                  "name": "prefix",
                  "type": "tuple"
                }
              ],
              "internalType": "struct Counterparty.Data",
              "name": "counterparty",
              "type": "tuple"
            },
            {
              "internalType": "uint64",
              "name": "delayPeriod",
              "type": "uint64"
            }
          ],
          "internalType": "struct IBCMsgs.MsgConnectionOpenInit",
          "name": "msg_",
          "type": "tuple"
        }
      ],
      "name": "connectionOpenInit",
      "outputs": [
        {
          "internalType": "string",
          "name": "",
          "type": "string"
        }
      ],
      "stateMutability": "nonpayable",
      "type": "function"
    },
    {
      "inputs": [
        {
          "components": [
            {
              "internalType": "string",
              "name": "previousConnectionId",
              "type": "string"
            },
            {
              "components": [
                {
                  "internalType": "string",
                  "name": "client_id",
                  "type": "string"
                },
                {
                  "internalType": "string",
                  "name": "connection_id",
                  "type": "string"
                },
                {
                  "components": [
                    {
                      "internalType": "bytes",
                      "name": "key_prefix",
                      "type": "bytes"
                    }
                  ],
                  "internalType": "struct MerklePrefix.Data",
                  "name": "prefix",
                  "type": "tuple"
                }
              ],
              "internalType": "struct Counterparty.Data",
              "name": "counterparty",
              "type": "tuple"
            },
            {
              "internalType": "uint64",
              "name": "delayPeriod",
              "type": "uint64"
            },
            {
              "internalType": "string",
              "name": "clientId",
              "type": "string"
            },
            {
              "internalType": "bytes",
              "name": "clientStateBytes",
              "type": "bytes"
            },
            {
              "components": [
                {
                  "internalType": "string",
                  "name": "identifier",
                  "type": "string"
                },
                {
                  "internalType": "string[]",
                  "name": "features",
                  "type": "string[]"
                }
              ],
              "internalType": "struct Version.Data[]",
              "name": "counterpartyVersions",
              "type": "tuple[]"
            },
            {
              "internalType": "bytes",
              "name": "proofInit",
              "type": "bytes"
            },
            {
              "internalType": "bytes",
              "name": "proofClient",
              "type": "bytes"
            },
            {
              "internalType": "bytes",
              "name": "proofConsensus",
              "type": "bytes"
            },
            {
              "components": [
                {
                  "internalType": "uint64",
                  "name": "revision_number",
                  "type": "uint64"
                },
                {
                  "internalType": "uint64",
                  "name": "revision_height",
                  "type": "uint64"
                }
              ],
              "internalType": "struct Height.Data",
              "name": "proofHeight",
              "type": "tuple"
            },
            {
              "components": [
                {
                  "internalType": "uint64",
                  "name": "revision_number",
                  "type": "uint64"
                },
                {
                  "internalType": "uint64",
                  "name": "revision_height",
                  "type": "uint64"
                }
              ],
              "internalType": "struct Height.Data",
              "name": "consensusHeight",
              "type": "tuple"
            }
          ],
          "internalType": "struct IBCMsgs.MsgConnectionOpenTry",
          "name": "msg_",
          "type": "tuple"
        }
      ],
      "name": "connectionOpenTry",
      "outputs": [
        {
          "internalType": "string",
          "name": "",
          "type": "string"
        }
      ],
      "stateMutability": "nonpayable",
      "type": "function"
    },
    {
      "inputs": [
        {
          "components": [
            {
              "internalType": "string",
              "name": "clientType",
              "type": "string"
            },
            {
              "components": [
                {
                  "internalType": "uint64",
                  "name": "revision_number",
                  "type": "uint64"
                },
                {
                  "internalType": "uint64",
                  "name": "revision_height",
                  "type": "uint64"
                }
              ],
              "internalType": "struct Height.Data",
              "name": "height",
              "type": "tuple"
            },
            {
              "internalType": "bytes",
              "name": "clientStateBytes",
              "type": "bytes"
            },
            {
              "internalType": "bytes",
              "name": "consensusStateBytes",
              "type": "bytes"
            }
          ],
          "internalType": "struct IBCMsgs.MsgCreateClient",
          "name": "msg_",
          "type": "tuple"
        }
      ],
      "name": "createClient",
      "outputs": [],
      "stateMutability": "nonpayable",
      "type": "function"
    },
    {
      "inputs": [],
      "name": "getHostAddress",
      "outputs": [
        {
          "internalType": "address",
          "name": "",
          "type": "address"
        }
      ],
      "stateMutability": "view",
      "type": "function"
    },
    {
      "inputs": [
        {
          "components": [
            {
              "components": [
                {
                  "internalType": "uint64",
                  "name": "sequence",
                  "type": "uint64"
                },
                {
                  "internalType": "string",
                  "name": "source_port",
                  "type": "string"
                },
                {
                  "internalType": "string",
                  "name": "source_channel",
                  "type": "string"
                },
                {
                  "internalType": "string",
                  "name": "destination_port",
                  "type": "string"
                },
                {
                  "internalType": "string",
                  "name": "destination_channel",
                  "type": "string"
                },
                {
                  "internalType": "bytes",
                  "name": "data",
                  "type": "bytes"
                },
                {
                  "components": [
                    {
                      "internalType": "uint64",
                      "name": "revision_number",
                      "type": "uint64"
                    },
                    {
                      "internalType": "uint64",
                      "name": "revision_height",
                      "type": "uint64"
                    }
                  ],
                  "internalType": "struct Height.Data",
                  "name": "timeout_height",
                  "type": "tuple"
                },
                {
                  "internalType": "uint64",
                  "name": "timeout_timestamp",
                  "type": "uint64"
                }
              ],
              "internalType": "struct Packet.Data",
              "name": "packet",
              "type": "tuple"
            },
            {
              "internalType": "bytes",
              "name": "proof",
              "type": "bytes"
            },
            {
              "components": [
                {
                  "internalType": "uint64",
                  "name": "revision_number",
                  "type": "uint64"
                },
                {
                  "internalType": "uint64",
                  "name": "revision_height",
                  "type": "uint64"
                }
              ],
              "internalType": "struct Height.Data",
              "name": "proofHeight",
              "type": "tuple"
            }
          ],
          "internalType": "struct IBCMsgs.MsgPacketRecv",
          "name": "msg_",
          "type": "tuple"
        }
      ],
      "name": "recvPacket",
      "outputs": [
        {
          "internalType": "bytes",
          "name": "acknowledgement",
          "type": "bytes"
        }
      ],
      "stateMutability": "nonpayable",
      "type": "function"
    },
    {
      "inputs": [
        {
          "internalType": "string",
          "name": "clientType",
          "type": "string"
        },
        {
          "internalType": "contract IClient",
          "name": "client",
          "type": "address"
        }
      ],
      "name": "registerClient",
      "outputs": [],
      "stateMutability": "nonpayable",
      "type": "function"
    },
    {
      "inputs": [
        {
          "components": [
            {
              "internalType": "uint64",
              "name": "sequence",
              "type": "uint64"
            },
            {
              "internalType": "string",
              "name": "source_port",
              "type": "string"
            },
            {
              "internalType": "string",
              "name": "source_channel",
              "type": "string"
            },
            {
              "internalType": "string",
              "name": "destination_port",
              "type": "string"
            },
            {
              "internalType": "string",
              "name": "destination_channel",
              "type": "string"
            },
            {
              "internalType": "bytes",
              "name": "data",
              "type": "bytes"
            },
            {
              "components": [
                {
                  "internalType": "uint64",
                  "name": "revision_number",
                  "type": "uint64"
                },
                {
                  "internalType": "uint64",
                  "name": "revision_height",
                  "type": "uint64"
                }
              ],
              "internalType": "struct Height.Data",
              "name": "timeout_height",
              "type": "tuple"
            },
            {
              "internalType": "uint64",
              "name": "timeout_timestamp",
              "type": "uint64"
            }
          ],
          "internalType": "struct Packet.Data",
          "name": "packet",
          "type": "tuple"
        }
      ],
      "name": "sendPacket",
      "outputs": [],
      "stateMutability": "nonpayable",
      "type": "function"
    },
    {
      "inputs": [
        {
          "internalType": "uint64",
          "name": "expectedTimePerBlock_",
          "type": "uint64"
        }
      ],
      "name": "setExpectedTimePerBlock",
      "outputs": [],
      "stateMutability": "nonpayable",
      "type": "function"
    },
    {
      "inputs": [
        {
          "components": [
            {
              "internalType": "string",
              "name": "clientId",
              "type": "string"
            },
            {
              "internalType": "bytes",
              "name": "header",
              "type": "bytes"
            }
          ],
          "internalType": "struct IBCMsgs.MsgUpdateClient",
          "name": "msg_",
          "type": "tuple"
        }
      ],
      "name": "updateClient",
      "outputs": [],
      "stateMutability": "nonpayable",
      "type": "function"
    },
    {
      "inputs": [
        {
          "internalType": "string",
          "name": "destinationPortId",
          "type": "string"
        },
        {
          "internalType": "string",
          "name": "destinationChannel",
          "type": "string"
        },
        {
          "internalType": "uint64",
          "name": "sequence",
          "type": "uint64"
        },
        {
          "internalType": "bytes",
          "name": "acknowledgement",
          "type": "bytes"
        }
      ],
      "name": "writeAcknowledgement",
      "outputs": [],
      "stateMutability": "nonpayable",
      "type": "function"
    }
  ],
  "bytecode": {
    "object": "0x60806040523480156200001157600080fd5b506040516200396338038062003963833981016040819052620000349162000068565b60008054336001600160a01b031991821617909155600180549091166001600160a01b03929092169190911790556200009a565b6000602082840312156200007b57600080fd5b81516001600160a01b03811681146200009357600080fd5b9392505050565b6138b980620000aa6000396000f3fe608060405234801561001057600080fd5b506004361061012c5760003560e01c80635bd51b62116100ad578063da6cea5511610071578063da6cea5514610266578063dd3469fc14610279578063de3103411461028c578063eb238c771461029f578063ec6260a9146102ba57600080fd5b80635bd51b62146102075780636a728f2c1461021a578063a06cb3a21461022d578063b531861f14610240578063b56e79de1461025357600080fd5b8063256c4199116100f4578063256c4199146101a857806325cbc3a6146101bb57806327184c13146101ce57806340835e44146101e157806359f37976146101f457600080fd5b806301c6400f146101315780630c8273ff1461015a578063117e886a1461016f57806318c1987014610182578063236ebd7014610195575b600080fd5b61014461013f3660046119f4565b6102cd565b6040516101519190611ae5565b60405180910390f35b61016d610168366004611b17565b610361565b005b61016d61017d366004611b6b565b6103d8565b61016d610190366004611c04565b6104c5565b6101446101a3366004611c5a565b610559565b61016d6101b6366004611cd2565b610895565b61016d6101c9366004611ea0565b61097f565b61016d6101dc366004611ed4565b610a35565b61016d6101ef366004611eef565b610a76565b61016d610202366004611b17565b610c35565b61016d610215366004611ea0565b610de5565b61016d610228366004611f2a565b610e9b565b61016d61023b36600461202c565b610edf565b61016d61024e36600461216f565b610f95565b61016d6102613660046122da565b610fd9565b61016d610274366004612387565b6111a3565b610144610287366004612494565b6111e7565b61014461029a3660046125a3565b6113f2565b6001546040516001600160a01b039091168152602001610151565b6101446102c8366004612748565b61143b565b600154604051636046ff5160e01b815260609173__$d2998ad92d6d164d0ff62dc6312debcf9c$__91636046ff5191610316916001600160a01b03909116908690600401612849565b600060405180830381865af4158015610333573d6000803e3d6000fd5b505050506040513d6000823e601f3d908101601f1916820160405261035b91908101906128e1565b92915050565b600154604051634f55a57160e11b815273__$5245e2692f8a05b84f3dc44447464dd1d1$__91639eab4ae2916103a5916001600160a01b03169085906004016129c4565b60006040518083038186803b1580156103bd57600080fd5b505af41580156103d1573d6000803e3d6000fd5b5050505050565b6103e0611533565b60015460405163012b86d760e51b81526001600160a01b039091169063be3d6e929073__$e8d25bfa17c0068737354d2e5fba1521b0$__90632570dae09061042c908790600401611ae5565b600060405180830381865af4158015610449573d6000803e3d6000fd5b505050506040513d6000823e601f3d908101601f1916820160405261047191908101906128e1565b836040518363ffffffff1660e01b815260040161048f929190612a64565b600060405180830381600087803b1580156104a957600080fd5b505af11580156104bd573d6000803e3d6000fd5b505050505050565b6000546001600160a01b031633146104dc57600080fd5b600154604051632b37b7c160e01b815273__$5245e2692f8a05b84f3dc44447464dd1d1$__91632b37b7c191610524916001600160a01b031690879087908790600401612a8e565b60006040518083038186803b15801561053c57600080fd5b505af4158015610550573d6000803e3d6000fd5b50505050505050565b6060600061060161056a8480612ac5565b610578906060810190612ae6565b8080601f0160208091040260200160405190810160405280939291908181526020018383808284376000920191909152506105b99250879150819050612ac5565b6105c7906080810190612ae6565b8080601f01602080910402602001604051908101604052809392919081815260200183838082843760009201919091525061154c92505050565b90506001600160a01b038116632301c6f561061c8580612ac5565b336040518363ffffffff1660e01b815260040161063a929190612c33565b6000604051808303816000875af1158015610659573d6000803e3d6000fd5b505050506040513d6000823e601f3d908101601f1916820160405261068191908101906128e1565b60015460405163b5d6d6f960e01b815291935073__$b830fd9902b29bf6ded5318e0d5ed5429e$__9163b5d6d6f9916106ca916001600160a01b03909116908790600401612c66565b60006040518083038186803b1580156106e257600080fd5b505af41580156106f6573d6000803e3d6000fd5b5050505060008251111561084f5760015473__$b830fd9902b29bf6ded5318e0d5ed5429e$__90630badf100906001600160a01b03166107368680612ac5565b610744906060810190612ae6565b61074e8880612ac5565b61075c906080810190612ae6565b6107668a80612ac5565b610774906020810190611ed4565b896040518863ffffffff1660e01b81526004016107979796959493929190612cd3565b60006040518083038186803b1580156107af57600080fd5b505af41580156107c3573d6000803e3d6000fd5b507f39b14668930c816f244f4073c0fdf459d3dd73ae571b57b3efe8205919472d2a92506107f5915085905080612ac5565b610803906060810190612ae6565b61080d8680612ac5565b61081b906080810190612ae6565b6108258880612ac5565b610833906020810190611ed4565b8760405161084696959493929190612d3c565b60405180910390a15b7f346f4351ee865d86a679d00f3995f0520f803d3a227604af08430e26e9345a7a61087a8480612ac5565b6040516108879190612d93565b60405180910390a150919050565b600154604051632bc1fa8f60e21b815273__$b830fd9902b29bf6ded5318e0d5ed5429e$__9163af07ea3c916108d9916001600160a01b0316908590600401612da6565b60006040518083038186803b1580156108f157600080fd5b505af4158015610905573d6000803e3d6000fd5b505050506109168160000151611656565b6001600160a01b0316634942d1ac8260000151836020015184604001516040518463ffffffff1660e01b815260040161095193929190612e7b565b600060405180830381600087803b15801561096b57600080fd5b505af11580156103d1573d6000803e3d6000fd5b60015460405163aa9208a760e01b815273__$b830fd9902b29bf6ded5318e0d5ed5429e$__9163aa9208a7916109c3916001600160a01b0316908590600401612f31565b60006040518083038186803b1580156109db57600080fd5b505af41580156109ef573d6000803e3d6000fd5b50505050610a008160000151611656565b815160208301516040516377a3bb6960e11b81526001600160a01b03939093169263ef4776d292610951929091600401612f55565b610a3d611533565b6001546040516327184c1360e01b81526001600160401b03831660048201526001600160a01b03909116906327184c1390602401610951565b6001546001600160a01b0316632d46858f73__$e8d25bfa17c0068737354d2e5fba1521b0$__633bc3339f610aae6020860186612ae6565b610abb6040880188612ae6565b6040518563ffffffff1660e01b8152600401610ada9493929190612f7a565b600060405180830381865af4158015610af7573d6000803e3d6000fd5b505050506040513d6000823e601f3d908101601f19168201604052610b1f91908101906128e1565b336040518363ffffffff1660e01b8152600401610b3d929190612a64565b602060405180830381865afa158015610b5a573d6000803e3d6000fd5b505050506040513d601f19601f82011682018060405250810190610b7e9190612fb1565b610b8757600080fd5b6001546040516305245c5360e11b815273__$b830fd9902b29bf6ded5318e0d5ed5429e$__91630a48b8a691610bcb916001600160a01b0316908590600401612fcc565b60006040518083038186803b158015610be357600080fd5b505af4158015610bf7573d6000803e3d6000fd5b505050507fe701f25bda8992b211749f81adb9a8ea6e8cf8a3c9f2e29ed496e6c5f059154c81604051610c2a9190612d93565b60405180910390a150565b6000610ca1610c448380612ac5565b610c52906020810190612ae6565b8080601f016020809104026020016040519081016040528093929190818152602001838380828437600092019190915250610c939250869150819050612ac5565b6105c7906040810190612ae6565b90506001600160a01b03811663fb8b532e610cbc8480612ac5565b610cc96020860186612ae6565b336040518563ffffffff1660e01b8152600401610ce99493929190612ff0565b600060405180830381600087803b158015610d0357600080fd5b505af1158015610d17573d6000803e3d6000fd5b5050600154604051637696464d60e11b815273__$b830fd9902b29bf6ded5318e0d5ed5429e$__935063ed2c8c9a9250610d5f916001600160a01b0316908690600401613030565b60006040518083038186803b158015610d7757600080fd5b505af4158015610d8b573d6000803e3d6000fd5b507f47471450765e6e1b0b055ba2a1de04d4ce71f778c92b306e725083eb120dfd899250610dbd915084905080612ac5565b610dca6020850185612ae6565b604051610dd9939291906130c7565b60405180910390a15050565b6001546040516361cf046960e11b815273__$b830fd9902b29bf6ded5318e0d5ed5429e$__9163c39e08d291610e29916001600160a01b0316908590600401612f31565b60006040518083038186803b158015610e4157600080fd5b505af4158015610e55573d6000803e3d6000fd5b50505050610e668160000151611656565b8151602083015160405163a113e41160e01b81526001600160a01b03939093169263a113e41192610951929091600401612f55565b600154604051630d8aadf760e11b815273__$d2998ad92d6d164d0ff62dc6312debcf9c$__91631b155bee916103a5916001600160a01b03169085906004016130ed565b60015460405163d24b868760e01b815273__$b830fd9902b29bf6ded5318e0d5ed5429e$__9163d24b868791610f23916001600160a01b031690859060040161318d565b60006040518083038186803b158015610f3b57600080fd5b505af4158015610f4f573d6000803e3d6000fd5b50505050610f608160000151611656565b815160208301516040516373a50d6160e11b81526001600160a01b03939093169263e74a1ac292610951929091600401612f55565b60015460405163477a78db60e11b815273__$d2998ad92d6d164d0ff62dc6312debcf9c$__91638ef4f1b6916103a5916001600160a01b0316908590600401613234565b600154604051633bc3339f60e01b81526001600160a01b0390911690632d46858f9073__$e8d25bfa17c0068737354d2e5fba1521b0$__90633bc3339f9061102b908c908c908c908c90600401612f7a565b600060405180830381865af4158015611048573d6000803e3d6000fd5b505050506040513d6000823e601f3d908101601f1916820160405261107091908101906128e1565b336040518363ffffffff1660e01b815260040161108e929190612a64565b602060405180830381865afa1580156110ab573d6000803e3d6000fd5b505050506040513d601f19601f820116820180604052508101906110cf9190612fb1565b6110d857600080fd5b600154604051620badf160e81b815273__$b830fd9902b29bf6ded5318e0d5ed5429e$__91630badf10091611127916001600160a01b0316908b908b908b908b908b908b908b90600401613370565b60006040518083038186803b15801561113f57600080fd5b505af4158015611153573d6000803e3d6000fd5b505050507f39b14668930c816f244f4073c0fdf459d3dd73ae571b57b3efe8205919472d2a8787878787878760405161119297969594939291906133db565b60405180910390a150505050505050565b600154604051630854414f60e41b815273__$5245e2692f8a05b84f3dc44447464dd1d1$__9163854414f0916103a5916001600160a01b0316908590600401613426565b6001546040516320d98d5360e01b815260609160009173__$b830fd9902b29bf6ded5318e0d5ed5429e$__916320d98d5391611231916001600160a01b0316908790600401613521565b600060405180830381865af415801561124e573d6000803e3d6000fd5b505050506040513d6000823e601f3d908101601f1916820160405261127691908101906128e1565b905060006112878460000151611656565b6020808601519081015160608201518751604080850151608090950151905163089bb2c760e31b81529596506001600160a01b038716956344dd9638956112d5959493928a92600401613567565b600060405180830381600087803b1580156112ef57600080fd5b505af1158015611303573d6000803e3d6000fd5b50506001548651604051633bc3339f60e01b81526001600160a01b03909216935063be3d6e92925073__$e8d25bfa17c0068737354d2e5fba1521b0$__91633bc3339f91611355918890600401612f55565b600060405180830381865af4158015611372573d6000803e3d6000fd5b505050506040513d6000823e601f3d908101601f1916820160405261139a91908101906128e1565b836040518363ffffffff1660e01b81526004016113b8929190612a64565b600060405180830381600087803b1580156113d257600080fd5b505af11580156113e6573d6000803e3d6000fd5b50939695505050505050565b6001546040516321392f7b60e11b815260609173__$d2998ad92d6d164d0ff62dc6312debcf9c$__916342725ef691610316916001600160a01b0390911690869060040161361d565b600154604051632c754d2b60e21b815260609160009173__$b830fd9902b29bf6ded5318e0d5ed5429e$__9163b1d534ac91611485916001600160a01b0316908790600401613766565b600060405180830381865af41580156114a2573d6000803e3d6000fd5b505050506040513d6000823e601f3d908101601f191682016040526114ca91908101906128e1565b905060006114db8460000151611656565b6040808601516020810151606080830151895184860151608090950151928b01519551634c09c4f960e11b81529697506001600160a01b0388169663981389f2966112d596939492938b9390929091906004016137cc565b6000546001600160a01b0316331461154a57600080fd5b565b600154604051633bc3339f60e01b8152600091829182916001600160a01b03169063ace6cfb79073__$e8d25bfa17c0068737354d2e5fba1521b0$__90633bc3339f9061159f908a908a90600401612f55565b600060405180830381865af41580156115bc573d6000803e3d6000fd5b505050506040513d6000823e601f3d908101601f191682016040526115e491908101906128e1565b6040518263ffffffff1660e01b81526004016116009190611ae5565b6040805180830381865afa15801561161c573d6000803e3d6000fd5b505050506040513d601f19601f82011682018060405250810190611640919061384e565b915091508061164e57600080fd5b509392505050565b60015460405163012b86d760e51b8152600091829182916001600160a01b03169063ace6cfb79073__$e8d25bfa17c0068737354d2e5fba1521b0$__90632570dae0906116a7908990600401611ae5565b600060405180830381865af41580156116c4573d6000803e3d6000fd5b505050506040513d6000823e601f3d908101601f191682016040526116ec91908101906128e1565b6040518263ffffffff1660e01b81526004016117089190611ae5565b6040805180830381865afa158015611724573d6000803e3d6000fd5b505050506040513d601f19601f82011682018060405250810190611748919061384e565b915091508061175657600080fd5b5092915050565b634e487b7160e01b600052604160045260246000fd5b604051606081016001600160401b03811182821017156117955761179561175d565b60405290565b604051602081016001600160401b03811182821017156117955761179561175d565b604080519081016001600160401b03811182821017156117955761179561175d565b60405160c081016001600160401b03811182821017156117955761179561175d565b60405161012081016001600160401b03811182821017156117955761179561175d565b60405160a081016001600160401b03811182821017156117955761179561175d565b60405161016081016001600160401b03811182821017156117955761179561175d565b604051601f8201601f191681016001600160401b03811182821017156118915761189161175d565b604052919050565b60006001600160401b038211156118b2576118b261175d565b50601f01601f191660200190565b600082601f8301126118d157600080fd5b81356118e46118df82611899565b611869565b8181528460208386010111156118f957600080fd5b816020850160208301376000918101602001919091529392505050565b60006060828403121561192857600080fd5b611930611773565b905081356001600160401b038082111561194957600080fd5b611955858386016118c0565b8352602084013591508082111561196b57600080fd5b611977858386016118c0565b6020840152604084013591508082111561199057600080fd5b90830190602082860312156119a457600080fd5b6119ac61179b565b8235828111156119bb57600080fd5b6119c7878286016118c0565b825250604084015250909392505050565b80356001600160401b03811681146119ef57600080fd5b919050565b600060208284031215611a0657600080fd5b81356001600160401b0380821115611a1d57600080fd5b9083019060608286031215611a3157600080fd5b611a39611773565b823582811115611a4857600080fd5b611a54878286016118c0565b825250602083013582811115611a6957600080fd5b611a7587828601611916565b602083015250611a87604084016119d8565b604082015295945050505050565b60005b83811015611ab0578181015183820152602001611a98565b50506000910152565b60008151808452611ad1816020860160208601611a95565b601f01601f19169290920160200192915050565b602081526000611af86020830184611ab9565b9392505050565b600060a08284031215611b1157600080fd5b50919050565b600060208284031215611b2957600080fd5b81356001600160401b03811115611b3f57600080fd5b611b4b84828501611aff565b949350505050565b6001600160a01b0381168114611b6857600080fd5b50565b60008060408385031215611b7e57600080fd5b82356001600160401b03811115611b9457600080fd5b611ba0858286016118c0565b9250506020830135611bb181611b53565b809150509250929050565b60008083601f840112611bce57600080fd5b5081356001600160401b03811115611be557600080fd5b602083019150836020828501011115611bfd57600080fd5b9250929050565b600080600060408486031215611c1957600080fd5b83356001600160401b03811115611c2f57600080fd5b611c3b86828701611bbc565b9094509250506020840135611c4f81611b53565b809150509250925092565b600060208284031215611c6c57600080fd5b81356001600160401b03811115611c8257600080fd5b820160808185031215611af857600080fd5b600060408284031215611ca657600080fd5b611cae6117bd565b9050611cb9826119d8565b8152611cc7602083016119d8565b602082015292915050565b600060208284031215611ce457600080fd5b81356001600160401b0380821115611cfb57600080fd5b9083019060e08286031215611d0f57600080fd5b611d176117df565b823582811115611d2657600080fd5b611d32878286016118c0565b825250602083013582811115611d4757600080fd5b611d53878286016118c0565b602083015250604083013582811115611d6b57600080fd5b611d77878286016118c0565b604083015250606083013582811115611d8f57600080fd5b611d9b878286016118c0565b606083015250608083013582811115611db357600080fd5b611dbf878286016118c0565b608083015250611dd28660a08501611c94565b60a082015295945050505050565b600060a08284031215611df257600080fd5b604051608081016001600160401b038282108183111715611e1557611e1561175d565b816040528293508435915080821115611e2d57600080fd5b611e39868387016118c0565b83526020850135915080821115611e4f57600080fd5b611e5b868387016118c0565b60208401526040850135915080821115611e7457600080fd5b50611e81858286016118c0565b604083015250611e948460608501611c94565b60608201525092915050565b600060208284031215611eb257600080fd5b81356001600160401b03811115611ec857600080fd5b611b4b84828501611de0565b600060208284031215611ee657600080fd5b611af8826119d8565b600060208284031215611f0157600080fd5b81356001600160401b03811115611f1757600080fd5b82016101208185031215611af857600080fd5b600060208284031215611f3c57600080fd5b81356001600160401b0380821115611f5357600080fd5b9083019060808286031215611f6757600080fd5b611f6f611773565b823582811115611f7e57600080fd5b611f8a878286016118c0565b825250602083013582811115611f9f57600080fd5b611fab878286016118c0565b602083015250611a878660408501611c94565b600060408284031215611fd057600080fd5b611fd86117bd565b905081356001600160401b0380821115611ff157600080fd5b611ffd858386016118c0565b8352602084013591508082111561201357600080fd5b50612020848285016118c0565b60208301525092915050565b60006020828403121561203e57600080fd5b81356001600160401b0381111561205457600080fd5b611b4b84828501611fbe565b60006001600160401b038211156120795761207961175d565b5060051b60200190565b600082601f83011261209457600080fd5b813560206120a46118df83612060565b82815260059290921b840181019181810190868411156120c357600080fd5b8286015b848110156121025780356001600160401b038111156120e65760008081fd5b6120f48986838b01016118c0565b8452509183019183016120c7565b509695505050505050565b60006040828403121561211f57600080fd5b6121276117bd565b905081356001600160401b038082111561214057600080fd5b61214c858386016118c0565b8352602084013591508082111561216257600080fd5b5061202084828501612083565b60006020828403121561218157600080fd5b81356001600160401b038082111561219857600080fd5b9083019061016082860312156121ad57600080fd5b6121b5611801565b8235828111156121c457600080fd5b6121d0878286016118c0565b8252506020830135828111156121e557600080fd5b6121f1878286016118c0565b60208301525060408301358281111561220957600080fd5b6122158782860161210d565b60408301525060608301358281111561222d57600080fd5b612239878286016118c0565b60608301525060808301358281111561225157600080fd5b61225d878286016118c0565b60808301525060a08301358281111561227557600080fd5b612281878286016118c0565b60a08301525060c08301358281111561229957600080fd5b6122a5878286016118c0565b60c0830152506122b88660e08501611c94565b60e08201526122cb866101208501611c94565b61010082015295945050505050565b60008060008060008060006080888a0312156122f557600080fd5b87356001600160401b038082111561230c57600080fd5b6123188b838c01611bbc565b909950975060208a013591508082111561233157600080fd5b61233d8b838c01611bbc565b909750955085915061235160408b016119d8565b945060608a013591508082111561236757600080fd5b506123748a828b01611bbc565b989b979a50959850939692959293505050565b60006020828403121561239957600080fd5b81356001600160401b038111156123af57600080fd5b820160408185031215611af857600080fd5b8035600581106119ef57600080fd5b8035600381106119ef57600080fd5b600060a082840312156123f157600080fd5b6123f9611824565b9050612404826123c1565b8152612412602083016123d0565b602082015260408201356001600160401b038082111561243157600080fd5b61243d85838601611fbe565b6040840152606084013591508082111561245657600080fd5b61246285838601612083565b6060840152608084013591508082111561247b57600080fd5b50612488848285016118c0565b60808301525092915050565b6000602082840312156124a657600080fd5b81356001600160401b03808211156124bd57600080fd5b90830190604082860312156124d157600080fd5b6124d96117bd565b8235828111156124e857600080fd5b6124f4878286016118c0565b82525060208301358281111561250957600080fd5b612515878286016123df565b60208301525095945050505050565b600082601f83011261253557600080fd5b813560206125456118df83612060565b82815260059290921b8401810191818101908684111561256457600080fd5b8286015b848110156121025780356001600160401b038111156125875760008081fd5b6125958986838b010161210d565b845250918301918301612568565b6000602082840312156125b557600080fd5b81356001600160401b03808211156125cc57600080fd5b908301906101a082860312156125e157600080fd5b6125e9611846565b8235828111156125f857600080fd5b612604878286016118c0565b82525060208301358281111561261957600080fd5b61262587828601611916565b602083015250612637604084016119d8565b604082015260608301358281111561264e57600080fd5b61265a878286016118c0565b60608301525060808301358281111561267257600080fd5b61267e878286016118c0565b60808301525060a08301358281111561269657600080fd5b6126a287828601612524565b60a08301525060c0830135828111156126ba57600080fd5b6126c6878286016118c0565b60c08301525060e0830135828111156126de57600080fd5b6126ea878286016118c0565b60e083015250610100808401358381111561270457600080fd5b612710888287016118c0565b828401525050610120915061272786838501611c94565b82820152612739866101608501611c94565b61014082015295945050505050565b60006020828403121561275a57600080fd5b81356001600160401b038082111561277157600080fd5b9083019060e0828603121561278557600080fd5b61278d6117df565b82358281111561279c57600080fd5b6127a8878286016118c0565b8252506020830135828111156127bd57600080fd5b6127c9878286016118c0565b6020830152506040830135828111156127e157600080fd5b611d77878286016123df565b60008151606084526128026060850182611ab9565b90506020830151848203602086015261281b8282611ab9565b9150506040830151848203604086015280519050602082526128406020830182611ab9565b95945050505050565b60018060a01b038316815260406020820152600082516060604084015261287360a0840182611ab9565b90506020840151603f1984830301606085015261289082826127ed565b9150506001600160401b036040850151166080840152809150509392505050565b60006128bf6118df84611899565b90508281528383830111156128d357600080fd5b611af8836020830184611a95565b6000602082840312156128f357600080fd5b81516001600160401b0381111561290957600080fd5b8201601f8101841361291a57600080fd5b611b4b848251602084016128b1565b6000808335601e1984360301811261294057600080fd5b83016020810192503590506001600160401b0381111561295f57600080fd5b803603821315611bfd57600080fd5b81835281816020850137506000828201602090810191909152601f909101601f19169091010190565b6001600160401b03806129a9836119d8565b168352806129b9602084016119d8565b166020840152505050565b6001600160a01b03831681526040602082015260006129e38380612929565b60a060408501526129f860e08501828461296e565b915050612a0b6060840160208601612997565b612a186060850185612929565b603f19808685030160a0870152612a3084838561296e565b9350612a3f6080880188612929565b93509150808685030160c087015250612a5983838361296e565b979650505050505050565b604081526000612a776040830185611ab9565b905060018060a01b03831660208301529392505050565b600060018060a01b03808716835260606020840152612ab160608401868861296e565b915080841660408401525095945050505050565b6000823561011e19833603018112612adc57600080fd5b9190910192915050565b6000808335601e19843603018112612afd57600080fd5b8301803591506001600160401b03821115612b1757600080fd5b602001915036819003821315611bfd57600080fd5b6000610120612b4b84612b3e856119d8565b6001600160401b03169052565b612b586020840184612929565b826020870152612b6b838701828461296e565b92505050612b7c6040840184612929565b8583036040870152612b8f83828461296e565b92505050612ba06060840184612929565b8583036060870152612bb383828461296e565b92505050612bc46080840184612929565b8583036080870152612bd783828461296e565b92505050612be860a0840184612929565b85830360a0870152612bfb83828461296e565b92505050612c0f60c0850160c08501612997565b610100612c1d8185016119d8565b6001600160401b03169401939093525090919050565b604081526000612a776040830185612b2c565b6000823561011e19833603018112612c5d57600080fd5b90910192915050565b6001600160a01b0383168152604060208201526000612c858380612c46565b60806040840152612c9960c0840182612b2c565b9050612ca86020850185612929565b848303603f19016060860152612cbf83828461296e565b92505050611b4b6080840160408601612997565b6001600160a01b038816815260a060208201819052600090612cf8908301888a61296e565b8281036040840152612d0b81878961296e565b90506001600160401b03851660608401528281036080840152612d2e8185611ab9565b9a9950505050505050505050565b608081526000612d5060808301888a61296e565b8281036020840152612d6381878961296e565b90506001600160401b03851660408401528281036060840152612d868185611ab9565b9998505050505050505050565b602081526000611af86020830184612b2c565b60018060a01b0383168152604060208201526000825160e06040840152612dd1610120840182611ab9565b90506020840151603f1980858403016060860152612def8383611ab9565b92506040860151915080858403016080860152612e0c8383611ab9565b925060608601519150808584030160a0860152612e298383611ab9565b925060808601519150808584030160c086015250612e478282611ab9565b91505060a0840151612e7260e085018280516001600160401b03908116835260209182015116910152565b50949350505050565b606081526000612e8e6060830186611ab9565b8281036020840152612ea08186611ab9565b90508281036040840152612eb48185611ab9565b9695505050505050565b6000815160a08452612ed360a0850182611ab9565b905060208301518482036020860152612eec8282611ab9565b91505060408301518482036040860152612f068282611ab9565b915050606083015161164e606086018280516001600160401b03908116835260209182015116910152565b6001600160a01b0383168152604060208201819052600090611b4b90830184612ebe565b604081526000612f686040830185611ab9565b82810360208401526128408185611ab9565b604081526000612f8e60408301868861296e565b8281036020840152612a5981858761296e565b805180151581146119ef57600080fd5b600060208284031215612fc357600080fd5b611af882612fa1565b6001600160a01b0383168152604060208201819052600090611b4b90830184612b2c565b6060815260006130036060830187612b2c565b828103602084015261301681868861296e565b91505060018060a01b038316604083015295945050505050565b6001600160a01b038316815260406020820152600061304f8380612c46565b60a0604084015261306360e0840182612b2c565b90506130726020850185612929565b603f198086850301606087015261308a84838561296e565b93506130996040880188612929565b9350915080868503016080870152506130b383838361296e565b92505050611b4b60a0840160608601612997565b6040815260006130da6040830186612b2c565b8281036020840152612eb481858761296e565b60018060a01b038316815260406020820152600082516080604084015261311760c0840182611ab9565b90506020840151603f198483030160608501526131348282611ab9565b9150506040840151612e72608085018280516001600160401b03908116835260209182015116910152565b60008151604084526131746040850182611ab9565b9050602083015184820360208601526128408282611ab9565b6001600160a01b0383168152604060208201819052600090611b4b9083018461315f565b600081518084526020808501808196508360051b8101915082860160005b858110156131f95782840389526131e7848351611ab9565b988501989350908401906001016131cf565b5091979650505050505050565b600081516040845261321b6040850182611ab9565b90506020830151848203602086015261284082826131b1565b60018060a01b038316815260406020820152600082516101608060408501526132616101a0850183611ab9565b91506020850151603f198086850301606087015261327f8483611ab9565b9350604087015191508086850301608087015261329c8483613206565b935060608701519150808685030160a08701526132b98483611ab9565b935060808701519150808685030160c08701526132d68483611ab9565b935060a08701519150808685030160e08701526132f38483611ab9565b935060c087015191506101008187860301818801526133128584611ab9565b60e089015180516001600160401b039081166101208b01526020820151166101408a015290955092505b870151915061336590508583018280516001600160401b03908116835260209182015116910152565b509095945050505050565b6001600160a01b038916815260a060208201819052600090613395908301898b61296e565b82810360408401526133a881888a61296e565b90506001600160401b038616606084015282810360808401526133cc81858761296e565b9b9a5050505050505050505050565b6080815260006133ef60808301898b61296e565b828103602084015261340281888a61296e565b90506001600160401b03861660408401528281036060840152612d2e81858761296e565b6001600160a01b03831681526040602082015260006134458380612929565b60408085015261345960808501828461296e565b9150506134696020850185612929565b848303603f19016060860152612a5983828461296e565b634e487b7160e01b600052602160045260246000fd5b600381106134a6576134a6613480565b9052565b60008151600581106134be576134be613480565b8084525060208201516134d46020850182613496565b50604082015160a060408501526134ee60a085018261315f565b90506060830151848203606086015261350782826131b1565b915050608083015184820360808601526128408282611ab9565b60018060a01b0383168152604060208201526000825160408084015261354a6080840182611ab9565b90506020840151603f19848303016060850152612eb482826134aa565b6135718188613496565b60c06020820152600061358760c08301886131b1565b82810360408401526135998188611ab9565b905082810360608401526135ad8187611ab9565b905082810360808401526135c1818661315f565b905082810360a0840152612d868185611ab9565b600081518084526020808501808196508360051b8101915082860160005b858110156131f957828403895261360b848351613206565b988501989350908401906001016135f3565b60018060a01b038316815260406020820152600082516101a080604085015261364a6101e0850183611ab9565b91506020850151603f198086850301606087015261366884836127ed565b93506040870151915061368660808701836001600160401b03169052565b60608701519150808685030160a08701526136a18483611ab9565b935060808701519150808685030160c08701526136be8483611ab9565b935060a08701519150808685030160e08701526136db84836135d5565b935060c087015191506101008187860301818801526136fa8584611ab9565b945060e088015192506101208288870301818901526137198685611ab9565b955081890151935061014091508288870301828901526137398685611ab9565b9089015180516001600160401b039081166101608b01526020820151166101808a0152909550925061333c565b60018060a01b0383168152604060208201526000825160e06040840152613791610120840182611ab9565b90506020840151603f19808584030160608601526137af8383611ab9565b92506040860151915080858403016080860152612e0c83836134aa565b6137d68189613496565b60e0602082015260006137ec60e08301896131b1565b82810360408401526137fe8189611ab9565b905082810360608401526138128188611ab9565b90508281036080840152613826818761315f565b905082810360a084015261383a8186611ab9565b905082810360c0840152612d2e8185611ab9565b6000806040838503121561386157600080fd5b825161386c81611b53565b915061387a60208401612fa1565b9050925092905056fea264697066735822122058bda86a9ccf2212e07bcab80db20a3d62a9dfaba37bf9bedfa1415379c1eb3664736f6c63430008150033",
    "linkReferences": {
      "src/ibc/core/IBCChannel.sol": {
        "IBCChannel": [
          {
            "start": 1856,
            "length": 20
          },
          {
            "start": 1971,
            "length": 20
          },
          {
            "start": 2385,
            "length": 20
          },
          {
            "start": 2619,
            "length": 20
          },
          {
            "start": 3139,
            "length": 20
          },
          {
            "start": 3541,
            "length": 20
          },
          {
            "start": 3745,
            "length": 20
          },
          {
            "start": 3995,
            "length": 20
          },
          {
            "start": 4499,
            "length": 20
          },
          {
            "start": 4777,
            "length": 20
          },
          {
            "start": 5373,
            "length": 20
          }
        ]
      },
      "src/ibc/core/IBCClient.sol": {
        "IBCClient": [
          {
            "start": 1053,
            "length": 20
          },
          {
            "start": 1432,
            "length": 20
          },
          {
            "start": 4703,
            "length": 20
          }
        ]
      },
      "src/ibc/core/IBCConnection.sol": {
        "IBCConnection": [
          {
            "start": 908,
            "length": 20
          },
          {
            "start": 3927,
            "length": 20
          },
          {
            "start": 4177,
            "length": 20
          },
          {
            "start": 5297,
            "length": 20
          }
        ]
      },
      "src/ibc/core/IBCIdentifier.sol": {
        "IBCIdentifier": [
          {
            "start": 1198,
            "length": 20
          },
          {
            "start": 2867,
            "length": 20
          },
          {
            "start": 4263,
            "length": 20
          },
          {
            "start": 5079,
            "length": 20
          },
          {
            "start": 5663,
            "length": 20
          },
          {
            "start": 5929,
            "length": 20
          }
        ]
      }
    }
  },
  "methodIdentifiers": {
    "acknowledgePacket(((uint64,string,string,string,string,bytes,(uint64,uint64),uint64),bytes,bytes,(uint64,uint64)))": "59f37976",
    "bindPort(string,address)": "117e886a",
    "channelCloseConfirm((string,string,bytes,(uint64,uint64)))": "25cbc3a6",
    "channelCloseInit((string,string))": "a06cb3a2",
    "channelOpenAck((string,string,string,string,bytes,(uint64,uint64)))": "256c4199",
    "channelOpenConfirm((string,string,bytes,(uint64,uint64)))": "5bd51b62",
    "channelOpenInit((string,(uint8,uint8,(string,string),string[],string)))": "dd3469fc",
    "channelOpenTry((string,string,(uint8,uint8,(string,string),string[],string),string,bytes,(uint64,uint64)))": "ec6260a9",
    "connectionOpenAck((string,bytes,(string,string[]),string,bytes,bytes,bytes,(uint64,uint64),(uint64,uint64)))": "b531861f",
    "connectionOpenConfirm((string,bytes,(uint64,uint64)))": "6a728f2c",
    "connectionOpenInit((string,(string,string,(bytes)),uint64))": "01c6400f",
    "connectionOpenTry((string,(string,string,(bytes)),uint64,string,bytes,(string,string[])[],bytes,bytes,bytes,(uint64,uint64),(uint64,uint64)))": "de310341",
    "createClient((string,(uint64,uint64),bytes,bytes))": "0c8273ff",
    "getHostAddress()": "eb238c77",
    "recvPacket(((uint64,string,string,string,string,bytes,(uint64,uint64),uint64),bytes,(uint64,uint64)))": "236ebd70",
    "registerClient(string,address)": "18c19870",
    "sendPacket((uint64,string,string,string,string,bytes,(uint64,uint64),uint64))": "40835e44",
    "setExpectedTimePerBlock(uint64)": "27184c13",
    "updateClient((string,bytes))": "da6cea55",
    "writeAcknowledgement(string,string,uint64,bytes)": "b56e79de"
  },
  "id": 31
}