{
  "abi": [
    {
      "inputs": [
        {
          "internalType": "bytes",
          "name": "program",
          "type": "bytes"
        },
        {
          "internalType": "uint64",
          "name": "pos",
          "type": "uint64"
        }
      ],
      "name": "_handleInterpreterOrigin",
      "outputs": [
        {
          "internalType": "bytes",
          "name": "originInterpreter",
          "type": "bytes"
        },
        {
          "internalType": "uint64",
          "name": "newPos",
          "type": "uint64"
        }
      ],
      "stateMutability": "pure",
      "type": "function"
    },
    {
      "inputs": [
        {
          "internalType": "bytes",
          "name": "program",
          "type": "bytes"
        },
        {
          "internalType": "uint64",
          "name": "pos",
          "type": "uint64"
        }
      ],
      "name": "_handleUserOrigin",
      "outputs": [
        {
          "internalType": "address",
          "name": "account",
          "type": "address"
        },
        {
          "internalType": "uint128",
          "name": "networkId",
          "type": "uint128"
        },
        {
          "internalType": "uint64",
          "name": "newPos",
          "type": "uint64"
        }
      ],
      "stateMutability": "view",
      "type": "function"
    },
    {
      "inputs": [
        {
          "internalType": "uint128",
          "name": "n",
          "type": "uint128"
        }
      ],
      "name": "generateAbsolute",
      "outputs": [
        {
          "internalType": "bytes",
          "name": "absolute",
          "type": "bytes"
        }
      ],
      "stateMutability": "pure",
      "type": "function"
    },
    {
      "inputs": [
        {
          "internalType": "bytes",
          "name": "_account",
          "type": "bytes"
        }
      ],
      "name": "generateAccount",
      "outputs": [
        {
          "internalType": "bytes",
          "name": "account",
          "type": "bytes"
        }
      ],
      "stateMutability": "pure",
      "type": "function"
    },
    {
      "inputs": [
        {
          "internalType": "bytes",
          "name": "_assetId",
          "type": "bytes"
        },
        {
          "internalType": "bytes",
          "name": "_balance",
          "type": "bytes"
        }
      ],
      "name": "generateAsset",
      "outputs": [
        {
          "internalType": "bytes",
          "name": "asset",
          "type": "bytes"
        }
      ],
      "stateMutability": "pure",
      "type": "function"
    },
    {
      "inputs": [
        {
          "internalType": "bytes",
          "name": "assetId",
          "type": "bytes"
        },
        {
          "internalType": "bytes",
          "name": "balance",
          "type": "bytes"
        }
      ],
      "name": "generateAssetAmount",
      "outputs": [
        {
          "internalType": "bytes",
          "name": "assetAmount",
          "type": "bytes"
        }
      ],
      "stateMutability": "pure",
      "type": "function"
    },
    {
      "inputs": [
        {
          "internalType": "bytes",
          "name": "globalId",
          "type": "bytes"
        }
      ],
      "name": "generateAssetIdByGlobalId",
      "outputs": [
        {
          "internalType": "bytes",
          "name": "assetId",
          "type": "bytes"
        }
      ],
      "stateMutability": "pure",
      "type": "function"
    },
    {
      "inputs": [
        {
          "internalType": "bytes",
          "name": "local",
          "type": "bytes"
        }
      ],
      "name": "generateAssetIdByLocalId",
      "outputs": [
        {
          "internalType": "bytes",
          "name": "assetId",
          "type": "bytes"
        }
      ],
      "stateMutability": "pure",
      "type": "function"
    },
    {
      "inputs": [
        {
          "internalType": "bytes",
          "name": "absolute",
          "type": "bytes"
        }
      ],
      "name": "generateBalanceByAbsolute",
      "outputs": [
        {
          "internalType": "bytes",
          "name": "balance",
          "type": "bytes"
        }
      ],
      "stateMutability": "pure",
      "type": "function"
    },
    {
      "inputs": [
        {
          "internalType": "bytes",
          "name": "ratio",
          "type": "bytes"
        }
      ],
      "name": "generateBalanceByRatio",
      "outputs": [
        {
          "internalType": "bytes",
          "name": "balance",
          "type": "bytes"
        }
      ],
      "stateMutability": "pure",
      "type": "function"
    },
    {
      "inputs": [
        {
          "internalType": "bytes",
          "name": "_unit",
          "type": "bytes"
        }
      ],
      "name": "generateBalanceByUnit",
      "outputs": [
        {
          "internalType": "bytes",
          "name": "balance",
          "type": "bytes"
        }
      ],
      "stateMutability": "pure",
      "type": "function"
    },
    {
      "inputs": [
        {
          "internalType": "uint32",
          "name": "position",
          "type": "uint32"
        },
        {
          "internalType": "bytes",
          "name": "_bindingValue",
          "type": "bytes"
        }
      ],
      "name": "generateBinding",
      "outputs": [
        {
          "internalType": "bytes",
          "name": "binding",
          "type": "bytes"
        }
      ],
      "stateMutability": "pure",
      "type": "function"
    },
    {
      "inputs": [
        {
          "internalType": "bytes",
          "name": "_assetAmount",
          "type": "bytes"
        }
      ],
      "name": "generateBindingValueByAssetAmount",
      "outputs": [
        {
          "internalType": "bytes",
          "name": "bindingValue",
          "type": "bytes"
        }
      ],
      "stateMutability": "pure",
      "type": "function"
    },
    {
      "inputs": [
        {
          "internalType": "bytes",
          "name": "_globalId",
          "type": "bytes"
        }
      ],
      "name": "generateBindingValueByGlobalId",
      "outputs": [
        {
          "internalType": "bytes",
          "name": "bindingValue",
          "type": "bytes"
        }
      ],
      "stateMutability": "pure",
      "type": "function"
    },
    {
      "inputs": [
        {
          "internalType": "bytes[]",
          "name": "_bindings",
          "type": "bytes[]"
        }
      ],
      "name": "generateBindings",
      "outputs": [
        {
          "internalType": "bytes",
          "name": "bindings",
          "type": "bytes"
        }
      ],
      "stateMutability": "pure",
      "type": "function"
    },
    {
      "inputs": [
        {
          "internalType": "bytes",
          "name": "_payload",
          "type": "bytes"
        },
        {
          "internalType": "bytes",
          "name": "_bindings",
          "type": "bytes"
        }
      ],
      "name": "generateCall",
      "outputs": [
        {
          "internalType": "bytes",
          "name": "call",
          "type": "bytes"
        }
      ],
      "stateMutability": "pure",
      "type": "function"
    },
    {
      "inputs": [
        {
          "internalType": "uint128",
          "name": "_globalId",
          "type": "uint128"
        }
      ],
      "name": "generateGlobalId",
      "outputs": [
        {
          "internalType": "bytes",
          "name": "globalId",
          "type": "bytes"
        }
      ],
      "stateMutability": "pure",
      "type": "function"
    },
    {
      "inputs": [
        {
          "internalType": "bytes",
          "name": "interpreterOrigin",
          "type": "bytes"
        },
        {
          "internalType": "bytes",
          "name": "userOrigin",
          "type": "bytes"
        },
        {
          "internalType": "bytes",
          "name": "_salt",
          "type": "bytes"
        },
        {
          "internalType": "bytes",
          "name": "_spawnedProgram",
          "type": "bytes"
        },
        {
          "internalType": "uint128[]",
          "name": "assetIds",
          "type": "uint128[]"
        },
        {
          "internalType": "uint256[]",
          "name": "amounts",
          "type": "uint256[]"
        }
      ],
      "name": "generateIBCSpawn",
      "outputs": [
        {
          "internalType": "bytes",
          "name": "spawn",
          "type": "bytes"
        }
      ],
      "stateMutability": "pure",
      "type": "function"
    },
    {
      "inputs": [
        {
          "internalType": "bytes",
          "name": "_call",
          "type": "bytes"
        }
      ],
      "name": "generateInstructionByCall",
      "outputs": [
        {
          "internalType": "bytes",
          "name": "instruction",
          "type": "bytes"
        }
      ],
      "stateMutability": "pure",
      "type": "function"
    },
    {
      "inputs": [
        {
          "internalType": "bytes",
          "name": "_query",
          "type": "bytes"
        }
      ],
      "name": "generateInstructionByQuery",
      "outputs": [
        {
          "internalType": "bytes",
          "name": "instruction",
          "type": "bytes"
        }
      ],
      "stateMutability": "pure",
      "type": "function"
    },
    {
      "inputs": [
        {
          "internalType": "bytes",
          "name": "_spawn",
          "type": "bytes"
        }
      ],
      "name": "generateInstructionBySpawn",
      "outputs": [
        {
          "internalType": "bytes",
          "name": "instruction",
          "type": "bytes"
        }
      ],
      "stateMutability": "pure",
      "type": "function"
    },
    {
      "inputs": [
        {
          "internalType": "bytes",
          "name": "_transfer",
          "type": "bytes"
        }
      ],
      "name": "generateInstructionByTransfer",
      "outputs": [
        {
          "internalType": "bytes",
          "name": "instruction",
          "type": "bytes"
        }
      ],
      "stateMutability": "pure",
      "type": "function"
    },
    {
      "inputs": [
        {
          "internalType": "bytes[]",
          "name": "_instructions",
          "type": "bytes[]"
        }
      ],
      "name": "generateInstructions",
      "outputs": [
        {
          "internalType": "bytes",
          "name": "instructions",
          "type": "bytes"
        }
      ],
      "stateMutability": "pure",
      "type": "function"
    },
    {
      "inputs": [
        {
          "internalType": "bytes",
          "name": "account",
          "type": "bytes"
        }
      ],
      "name": "generateInterpreterOrigin",
      "outputs": [
        {
          "internalType": "bytes",
          "name": "interpreterOrigin",
          "type": "bytes"
        }
      ],
      "stateMutability": "pure",
      "type": "function"
    },
    {
      "inputs": [
        {
          "internalType": "bytes",
          "name": "_localId",
          "type": "bytes"
        }
      ],
      "name": "generateLocalId",
      "outputs": [
        {
          "internalType": "bytes",
          "name": "localId",
          "type": "bytes"
        }
      ],
      "stateMutability": "pure",
      "type": "function"
    },
    {
      "inputs": [
        {
          "internalType": "uint128",
          "name": "_network",
          "type": "uint128"
        }
      ],
      "name": "generateNetwork",
      "outputs": [
        {
          "internalType": "bytes",
          "name": "network",
          "type": "bytes"
        }
      ],
      "stateMutability": "pure",
      "type": "function"
    },
    {
      "inputs": [
        {
          "internalType": "bytes",
          "name": "_tag",
          "type": "bytes"
        },
        {
          "internalType": "bytes",
          "name": "_instructions",
          "type": "bytes"
        }
      ],
      "name": "generateProgram",
      "outputs": [
        {
          "internalType": "bytes",
          "name": "program",
          "type": "bytes"
        }
      ],
      "stateMutability": "pure",
      "type": "function"
    },
    {
      "inputs": [
        {
          "internalType": "uint128",
          "name": "nominator",
          "type": "uint128"
        },
        {
          "internalType": "uint128",
          "name": "denominator",
          "type": "uint128"
        }
      ],
      "name": "generateRatio",
      "outputs": [
        {
          "internalType": "bytes",
          "name": "ratio",
          "type": "bytes"
        }
      ],
      "stateMutability": "pure",
      "type": "function"
    },
    {
      "inputs": [
        {
          "internalType": "uint32",
          "name": "_relayer",
          "type": "uint32"
        }
      ],
      "name": "generateRelayer",
      "outputs": [
        {
          "internalType": "bytes",
          "name": "relayer",
          "type": "bytes"
        }
      ],
      "stateMutability": "pure",
      "type": "function"
    },
    {
      "inputs": [
        {
          "internalType": "uint32",
          "name": "_result",
          "type": "uint32"
        }
      ],
      "name": "generateResult",
      "outputs": [
        {
          "internalType": "bytes",
          "name": "result",
          "type": "bytes"
        }
      ],
      "stateMutability": "pure",
      "type": "function"
    },
    {
      "inputs": [
        {
          "internalType": "bytes",
          "name": "_salt",
          "type": "bytes"
        }
      ],
      "name": "generateSalt",
      "outputs": [
        {
          "internalType": "bytes",
          "name": "salt",
          "type": "bytes"
        }
      ],
      "stateMutability": "pure",
      "type": "function"
    },
    {
      "inputs": [
        {
          "internalType": "uint32",
          "name": "_self",
          "type": "uint32"
        }
      ],
      "name": "generateSelf",
      "outputs": [
        {
          "internalType": "bytes",
          "name": "self",
          "type": "bytes"
        }
      ],
      "stateMutability": "pure",
      "type": "function"
    },
    {
      "inputs": [
        {
          "internalType": "bytes",
          "name": "_network",
          "type": "bytes"
        },
        {
          "internalType": "int32",
          "name": "_security",
          "type": "int32"
        },
        {
          "internalType": "bytes",
          "name": "_salt",
          "type": "bytes"
        },
        {
          "internalType": "bytes",
          "name": "_spawnedProgram",
          "type": "bytes"
        },
        {
          "internalType": "bytes[]",
          "name": "_assets",
          "type": "bytes[]"
        }
      ],
      "name": "generateSpawn",
      "outputs": [
        {
          "internalType": "bytes",
          "name": "spawn",
          "type": "bytes"
        }
      ],
      "stateMutability": "pure",
      "type": "function"
    },
    {
      "inputs": [
        {
          "internalType": "bytes",
          "name": "_account",
          "type": "bytes"
        },
        {
          "internalType": "bytes[]",
          "name": "_assets",
          "type": "bytes[]"
        }
      ],
      "name": "generateTransferByAccount",
      "outputs": [
        {
          "internalType": "bytes",
          "name": "transfer",
          "type": "bytes"
        }
      ],
      "stateMutability": "pure",
      "type": "function"
    },
    {
      "inputs": [
        {
          "internalType": "uint128",
          "name": "n",
          "type": "uint128"
        }
      ],
      "name": "generateUint128",
      "outputs": [
        {
          "internalType": "bytes",
          "name": "u128",
          "type": "bytes"
        }
      ],
      "stateMutability": "pure",
      "type": "function"
    },
    {
      "inputs": [
        {
          "internalType": "uint128",
          "name": "integer",
          "type": "uint128"
        },
        {
          "internalType": "bytes",
          "name": "ratio",
          "type": "bytes"
        }
      ],
      "name": "generateUnit",
      "outputs": [
        {
          "internalType": "bytes",
          "name": "unit",
          "type": "bytes"
        }
      ],
      "stateMutability": "pure",
      "type": "function"
    },
    {
      "inputs": [
        {
          "internalType": "bytes",
          "name": "account",
          "type": "bytes"
        },
        {
          "internalType": "uint128",
          "name": "networkId",
          "type": "uint128"
        }
      ],
      "name": "generateUserOrigin",
      "outputs": [
        {
          "internalType": "bytes",
          "name": "userOrigin",
          "type": "bytes"
        }
      ],
      "stateMutability": "pure",
      "type": "function"
    }
  ],
  "bytecode": {
    "object": "0x613f6661003a600b82828239805160001a60731461002d57634e487b7160e01b600052600060045260246000fd5b30600052607381538281f3fe73000000000000000000000000000000000000000030146080604052600436106102475760003560e01c80638d26e7a511610145578063b7fd90e3116100c2578063d60490c511610086578063d60490c5146103d7578063e0a5115714610352578063f0cbe21b1461024c578063f2044d0914610468578063fc4dd5511461047b57600080fd5b8063b7fd90e31461024c578063be8ba65a14610423578063c85da9801461033f578063c8c9a64714610436578063c97833fe146102e357600080fd5b80639d020ae8116101095780639d020ae8146102e3578063a0c9e1a8146103b1578063a247e221146103ea578063a3538ebb146103fd578063b20e9e7d1461041057600080fd5b80638d26e7a5146102e35780638e6f4bac146103c45780639170895d146102755780639a6cd52b146103d75780639a80b004146103b157600080fd5b806338f89c82116101d35780636da598ce116101975780636da598ce1461038b5780637bde48fe1461035257806382f9f334146102e35780638425e70f1461039e5780638af4b9ef146103b157600080fd5b806338f89c821461033f57806339d2b0f914610352578063572b6dde146102e35780635df958f5146103655780636bcc3ecb1461037857600080fd5b8063263a02111161021a578063263a0211146102bd578063313ff843146102d0578063321ffbe8146102e357806333abe1601461024c578063344e6dfc146102f657600080fd5b80630522ecab1461024c5780630ad6a684146102755780630bb4cb47146102885780631ea6b5c6146102aa575b600080fd5b61025f61025a366004613085565b61049c565b60405161026c919061312e565b60405180910390f35b61025f610283366004613141565b6104f2565b81801561029457600080fd5b506102a86102a33660046131a9565b610530565b005b61025f6102b8366004613141565b610692565b61025f6102cb366004613274565b6106a0565b61025f6102de366004613336565b610706565b61025f6102f1366004613141565b6107b7565b61030961030436600461338f565b6107c5565b604080516001600160a01b0390941684526001600160801b0390921660208401526001600160401b03169082015260600161026c565b61025f61034d366004613141565b61081d565b61025f610360366004613141565b61082b565b61025f6103733660046133e8565b610838565b61025f610386366004613141565b61086e565b61025f610399366004613435565b610888565b61025f6103ac366004613274565b6108a2565b61025f6103bf36600461348c565b6108bc565b61025f6103d23660046134a7565b6108d3565b61025f6103e5366004613274565b6109bf565b61025f6103f836600461356e565b6109fd565b61025f61040b36600461356e565b610a69565b61025f61041e3660046135a2565b610acf565b61025f6104313660046135be565b610ae6565b81801561044257600080fd5b506104566104513660046135e8565b610b17565b60405161026c96959493929190613674565b61025f6104763660046137fb565b610d15565b61048e61048936600461338f565b610e50565b60405161026c9291906138ef565b60606104aa60016002610eae565b6104b384610ed6565b6104be600280610eae565b6104c785610ed6565b6040516020016104da949392919061391a565b60405160208183030381529060405290505b92915050565b606061050060036002610eae565b61050983610ed6565b60405160200161051a929190613971565b6040516020818303038152906040529050919050565b60006105418560016002600061104d565b9050600061054f868361115b565b92509050600061056c876001600160401b03808616908516611195565b905061057882846139b6565b9250610587876002808661104d565b9250610593878461115b565b9350915060006105a383856139b6565b90505b806001600160401b0316846001600160401b03161015610688576105ce88600160028761104d565b93506105da888561115b565b94509250600080806105ec878c6112a4565b919950945090925090508161061c5760405162461bcd60e51b8152600401610613906139d6565b60405180910390fd5b6000196001600160401b038416016106415761063a8b888c8c611396565b9650610680565b6001196001600160401b0384160161065f5761063a8b888b8b611603565b6002196001600160401b038416016106805761067d8b888c8c611858565b96505b5050506105a6565b5050505050505050565b606061050060056002610eae565b60606001600160401b03604083901c16826106bd60016000610eae565b6106c683611a5c565b6106d260026000610eae565b6106db84611a5c565b6040516020016106ee949392919061391a565b60405160208183030381529060405292505050919050565b606061071460016002610eae565b61071d84610ed6565b60405160200161072e929190613971565b604051602081830303815290604052905060005b82518110156107b0578161075860036002610eae565b61077a85848151811061076d5761076d613a17565b6020026020010151610ed6565b60405160200161078c93929190613a2d565b604051602081830303815290604052915080806107a890613a70565b915050610742565b5092915050565b606061050060016002610eae565b6000806000806107d5868661115b565b955090506107e786600160028861104d565b94506107f38686611a67565b95509350610804866002808861104d565b94506108108686611ab9565b9497909650939450505050565b606061050060046002610eae565b6060610500600280610eae565b606061084660016002610eae565b610857610852856107b7565b610ed6565b610862600280610eae565b6104c7610852866109bf565b606061087c60016002610eae565b610509610852846107b7565b606061089660016002610eae565b6104b3610852856106a0565b60606108b060016002610eae565b610509610852846106a0565b60606108ca60016000610eae565b61050983611af4565b60606108e160016002610eae565b6108ea87610ed6565b6108f660026000610eae565b6108ff88611b05565b61090b60036002610eae565b61091489610ed6565b61092060046002610eae565b6109298a610ed6565b604051602001610940989796959493929190613a89565b604051602081830303815290604052905060005b82518110156109b5578161096a60056002610eae565b61097f85848151811061076d5761076d613a17565b60405160200161099193929190613a2d565b604051602081830303815290604052915080806109ad90613a70565b915050610954565b5095945050505050565b60606109cd60016002610eae565b6105096109d9846106a0565b6040516020016109e99190613b2e565b604051602081830303815290604052610ed6565b606060005b8251811015610a635781610a1860016002610eae565b610a2d85848151811061076d5761076d613a17565b604051602001610a3f93929190613a2d565b60405160208183030381529060405291508080610a5b90613a70565b915050610a02565b50919050565b606060005b8251811015610a635781610a8460016002610eae565b610a9985848151811061076d5761076d613a17565b604051602001610aab93929190613a2d565b60405160208183030381529060405291508080610ac790613a70565b915050610a6e565b6060610add60016000610eae565b6104b384611af4565b6060610af460016002610eae565b610b00610852856106a0565b610b0b600280610eae565b6104c7610852866106a0565b604080518082019091526000815260606020820181905290606080606080600080610b468a600160028461104d565b9050610b528a82610e50565b9098509050610b648a6002808461104d565b9050600080610b738c846107c5565b6040516bffffffffffffffffffffffff19606085901b16602082015290955090935090915060340160408051601f1981840301815291905260208a01526001600160801b0382168952610bca8c600360028661104d565b9250610bd68c84611b10565b9097509250610be98c600460028661104d565b9250610bf58c84611b6e565b9098509250610c088c600560028661104d565b92506000610c178d858e611b7d565b91505060005b815151811015610cf7578151805182908110610c3b57610c3b613a17565b60200260200101516001600160a01b031663a9059cbb8e84604001518481518110610c6857610c68613a17565b60200260200101516040518363ffffffff1660e01b8152600401610ca19291906001600160a01b03929092168252602082015260400190565b6020604051808303816000875af1158015610cc0573d6000803e3d6000fd5b505050506040513d601f19601f82011682018060405250810190610ce49190613b4a565b5080610cef81613a70565b915050610c1d565b50806000015196508060400151955050505050509295509295509295565b6060610d2360016002610eae565b610d2c88610ed6565b610d37600280610eae565b610d4089610ed6565b610d4c60036002610eae565b610d586108528b6107b7565b610d6460046002610eae565b610d6d8b610ed6565b604051602001610d84989796959493929190613a89565b604051602081830303815290604052905060005b8351811015610e45576000610dc86102f1868481518110610dbb57610dbb613a17565b60200260200101516108a2565b90506000610df58261025a610360888781518110610de857610de8613a17565b60200260200101516109bf565b905083610e0460056002610eae565b610e0d83610ed6565b604051602001610e1f93929190613a2d565b604051602081830303815290604052935050508080610e3d90613a70565b915050610d98565b509695505050505050565b6060600080610e5f858561115b565b94509050610e7185600160028761104d565b9350610e7d858561115b565b94509050610e98856001600160401b03808716908416611195565b9250610ea481856139b6565b9150509250929050565b60606807fffffffffffffff8600384901b1682176000610ecd82611d65565b95945050505050565b60606000610ee48351611a5c565b9050600081518451610ef69190613b6c565b6001600160401b03811115610f0d57610f0d612fa8565b6040519080825280601f01601f191660200182016040528015610f37576020820181803683370190505b50905060005b8251816001600160401b03161015610fb95782816001600160401b031681518110610f6a57610f6a613a17565b602001015160f81c60f81b82826001600160401b031681518110610f9057610f90613a17565b60200101906001600160f81b031916908160001a90535080610fb181613b7f565b915050610f3d565b5060005b8451816001600160401b031610156110455784816001600160401b031681518110610fea57610fea613a17565b602001015160f81c60f81b828451836001600160401b031661100c9190613b6c565b8151811061101c5761101c613a17565b60200101906001600160f81b031916908160001a9053508061103d81613b7f565b915050610fbd565b509392505050565b60008060008061105d85896112a4565b9196509194509092509050826110855760405162461bcd60e51b8152600401610613906139d6565b866001600160401b0316826001600160401b0316146110e65760405162461bcd60e51b815260206004820152601760248201527f6669656c642076616c69646174696f6e206661696c65640000000000000000006044820152606401610613565b8560068111156110f8576110f8613a01565b81600681111561110a5761110a613a01565b146111505760405162461bcd60e51b81526020600482015260166024820152751d1e5c19481d985b1a59185d1a5bdb8819985a5b195960521b6044820152606401610613565b505050949350505050565b600080600061116a8486611ebf565b9450925090508061118d5760405162461bcd60e51b815260040161061390613ba5565b509250929050565b6060816111a381601f613b6c565b10156111e25760405162461bcd60e51b815260206004820152600e60248201526d736c6963655f6f766572666c6f7760901b6044820152606401610613565b6111ec8284613b6c565b845110156112305760405162461bcd60e51b8152602060048201526011602482015270736c6963655f6f75744f66426f756e647360781b6044820152606401610613565b60608215801561124f5760405191506000825260208201604052611299565b6040519150601f8416801560200281840101858101878315602002848b0101015b81831015611288578051835260209283019201611270565b5050858452601f01601f1916604052505b5090505b9392505050565b60008060008060008060006112b98989611edc565b925092509250826112d957506000955093508492506006915061138d9050565b600381901c671fffffffffffffff16600782166006811061130d57600084600060069850985098509850505050505061138d565b6000816001600160401b0316600681111561132a5761132a613a01565b9050600381600681111561134057611340613a01565b148061135d5750600481600681111561135b5761135b613a01565b145b1561137c5760008560006006995099509950995050505050505061138d565b600199509397509095509193505050505b92959194509250565b6000806113a3868661115b565b95509050600080806113b5888a6112a4565b919a50919450909250905060016001600160401b03831614806113e15750816001600160401b03166002145b6114215760405162461bcd60e51b81526020600482015260116024820152701a5b9d985b1a59081ad95e48199a595b19607a1b6044820152606401610613565b8261143e5760405162461bcd60e51b8152600401610613906139d6565b6000826001600160401b03166001036114645761145b8a8a611a67565b995090506114d3565b826001600160401b031660020361149a5761147f898b611ebf565b909a5095509350611490858a6139b6565b95508790506114d3565b60405162461bcd60e51b815260206004820152600e60248201526d1b9bc81d985b1a5908199a595b1960921b6044820152606401610613565b6114e18a600360028c61104d565b985061150760405180606001604052806060815260200160608152602001606081525090565b6115128b8b8a611b7d565b909750905060005b8151518110156115f457815180518290811061153857611538613a17565b60200260200101516001600160a01b031663a9059cbb848460400151848151811061156557611565613a17565b60200260200101516040518363ffffffff1660e01b815260040161159e9291906001600160a01b03929092168252602082015260400190565b6020604051808303816000875af11580156115bd573d6000803e3d6000fd5b505050506040513d601f19601f820116820180604052508101906115e19190613b4a565b50806115ec81613a70565b91505061151a565b50505050505050949350505050565b6000806000806060806116168a8a612086565b949d509298509096509450925090506116338a600560028c61104d565b985061165960405180606001604052806060815260200160608152602001606081525090565b858a6001600160401b0316101561167b576116758b8b8b611b7d565b90975090505b6040516322c3877960e01b81526000906001600160a01b038b16906322c38779906116ac9089908990600401613bfe565b602060405180830381865afa1580156116c9573d6000803e3d6000fd5b505050506040513d601f19601f820116820180604052508101906116ed9190613c1b565b905060005b8251518110156117cc57825180518290811061171057611710613a17565b60200260200101516001600160a01b031663a9059cbb838560400151848151811061173d5761173d613a17565b60200260200101516040518363ffffffff1660e01b81526004016117769291906001600160a01b03929092168252602082015260400190565b6020604051808303816000875af1158015611795573d6000803e3d6000fd5b505050506040513d601f19601f820116820180604052508101906117b99190613b4a565b50806117c481613a70565b9150506116f2565b50896001600160a01b03166388219d858a6020015188888888886000015189602001518a604001516040518963ffffffff1660e01b8152600401611817989796959493929190613c71565b600060405180830381600087803b15801561183157600080fd5b505af1158015611845573d6000803e3d6000fd5b5050505050505050505050949350505050565b600080611865868661115b565b95509050600061187582876139b6565b6001600160401b0316905061188e87600160028961104d565b955061189a878761115b565b9650915060006118b7886001600160401b03808a16908616611195565b905060606118c584896139b6565b975082886001600160401b03161015611972576118e5896002808b61104d565b97506118f1898961115b565b985093506000611901858a6139b6565b905060005b816001600160401b03168a6001600160401b0316101561196f57600060606119318d8d888e8e612139565b9d50909250905061194c8661194685856139b6565b836121d2565b95506001815161195c9190613d32565b61196690846139b6565b92505050611906565b50505b6000828060200190518101906119889190613c1b565b90506119a4602080855161199c9190613d52565b859190611195565b9150600080826001600160a01b0316846040516119c19190613b2e565b6000604051808303816000865af19150503d80600081146119fe576040519150601f19603f3d011682016040523d82523d6000602084013e611a03565b606091505b509150915081611a4c5760405162461bcd60e51b8152602060048201526014602482015273195c9c9bdc8818d85b1b1a5b99c81d185c99d95d60621b6044820152606401610613565b50989a9950505050505050505050565b60606104ec82611d65565b6000806000611a76858561115b565b94509050611a8885600160028761104d565b9350611a94858561115b565b94509050610e98611ab2866001600160401b03808816908516611195565b6014015190565b600080600080611ac9868661115b565b95509150611adb86600160028861104d565b9450611ae78686612354565b9097909650945050505050565b60606104ec8263ffffffff16611d65565b60606104ec826123e8565b6060600080611b1f858561115b565b94509050611b3185600160028761104d565b9350611b3d858561115b565b94509050611b4b81856139b6565b9150611b64856001600160401b03808716908416611195565b9250509250929050565b6060600080610e7d858561115b565b6000611ba360405180606001604052806060815260200160608152602001606081525090565b6000611baf868661115b565b955090506000611bbf82876139b6565b6001600160401b031690506000611bd8888884896123f6565b9050806001600160401b03811115611bf257611bf2612fa8565b604051908082528060200260200182016040528015611c1b578160200160208202803683370190505b508452806001600160401b03811115611c3657611c36612fa8565b604051908082528060200260200182016040528015611c5f578160200160208202803683370190505b506020850152806001600160401b03811115611c7d57611c7d612fa8565b604051908082528060200260200182016040528015611ca6578160200160208202803683370190505b50604085015260005b82886001600160401b03161015611d5657611ccb898989612437565b8851805186908110611cdf57611cdf613a17565b6020026020010189602001518681518110611cfc57611cfc613a17565b602002602001018a604001518781518110611d1957611d19613a17565b60209081029190910101939093526001600160801b039093169091526001600160a01b0390921690529750611d4f600182613b6c565b9050611caf565b87955050505050935093915050565b60608160015b607f826001600160401b03161115611da1576007826001600160401b0316901c9150600181611d9a91906139b6565b9050611d6b565b6000816001600160401b03166001600160401b03811115611dc457611dc4612fa8565b6040519080825280601f01601f191660200182016040528015611dee576020820181803683370190505b50905084925060005b826001600160401b0316816001600160401b03161015611e705783607f1660801760f81b82826001600160401b031681518110611e3657611e36613a17565b60200101906001600160f81b031916908160001a9053506007846001600160401b0316901c93508080611e6890613b7f565b915050611df7565b50607f60f81b81611e82600185613d32565b6001600160401b031681518110611e9b57611e9b613a17565b0160200180519091166001600160f81b03191690600082901a905350949350505050565b6000806000611ece8585612489565b9250925092505b9250925092565b60008060008060005b600a6001600160401b0382161015611fd2578551611f0388836139b6565b6001600160401b031610611f235760008760009450945094505050611ed5565b600086611f30838a6139b6565b6001600160401b031681518110611f4957611f49613a17565b016020015160f81c9050607f8116611f62836007613d65565b60ff82166001600160401b03919091161b939093179260808216600003611fbd576000836001600160401b0316118015611f9d575060ff8116155b15611fb657600089600096509650965050505050611ed5565b5050611fd2565b50508080611fca90613b7f565b915050611ee5565b600a6001600160401b03821610611ff55760008760009450945094505050611ed5565b6120016001600a613d32565b6001600160401b0316816001600160401b03160361205f57600186612026838a6139b6565b6001600160401b03168151811061203f5761203f613a17565b016020015160f81c111561205f5760008760009450945094505050611ed5565b600161206b82896139b6565b6120769060016139b6565b8394509450945050509250925092565b600080600080606080600061209b898961115b565b985090506120a981896139b6565b6001600160401b031695506120c289600160028b61104d565b97506120ce8989611ab9565b985094506120e089600260008b61104d565b97506120ec8989612520565b985093506120fe89600360028b61104d565b975061210a8989611b10565b9850925061211c89600460028b61104d565b97506121288989611b6e565b9a9699509497509295509093915050565b6000606060008060006121508a600160028c61104d565b985061215c8a8a61115b565b9950915061216e8a600160008c61104d565b985061217a898b612578565b909a5063ffffffff1695509050806121a45760405162461bcd60e51b815260040161061390613ba5565b6121b18a6002808c61104d565b98506121bf8a8a89896125c8565b959b909a50949850939650505050505050565b606060006001835186516121e69190613b6c565b6121f09190613d52565b6001600160401b0381111561220757612207612fa8565b6040519080825280601f01601f191660200182016040528015612231576020820181803683370190505b5090506000805b865181101561234957856001600160401b031681146122a95786818151811061226357612263613a17565b01602001516001600160f81b0319168361227d8484613b6c565b8151811061228d5761228d613a17565b60200101906001600160f81b031916908160001a905350612337565b60005b8551811015612328578583815181106122c7576122c7613a17565b01602001516001600160f81b031916846122e18585613b6c565b815181106122f1576122f1613a17565b60200101906001600160f81b031916908160001a9053508261231281613a70565b935050808061232090613a70565b9150506122ac565b50612334600183613d52565b91505b8061234181613a70565b915050612238565b509095945050505050565b600080600080612364868661115b565b9550905061237686600160008861104d565b945060006123848688612841565b909750909350905061239a87600260008961104d565b955060006123a88789612841565b90965090945090506001600160401b03808216906123d190841668010000000000000000613d90565b6123db9190613db3565b9550505050509250929050565b60606104ec8260030b611d65565b60005b82846001600160401b0316101561242f57612415858584612437565b9650612428925060019150839050613b6c565b90506123f9565b949350505050565b60008060008061244b87600160028961104d565b9550612458878787612870565b9750909450925061246c876002808961104d565b9550612479878588612a4f565b9498939750955092935090915050565b60008060008060008061249c8888611edc565b925092509250826124b85750600094509250839150611ed59050565b816001600160401b03168183016001600160401b031610156124e55750600094509250839150611ed59050565b86516124f183836139b6565b6001600160401b031611156125115750600094509250839150611ed59050565b60019891975095509350505050565b6000806000806125308587612c61565b9094509092509050816125555760405162461bcd60e51b8152600401610613906139d6565b8063ffffffff16600381111561256d5761256d613a01565b935050509250929050565b60008060008060008061258b8888611edc565b925092509250826125a75750600094509250839150611ed59050565b67ffffffff000000008116156125115750600094509250839150611ed59050565b606060008060008060006125dc898b611ebf565b909a509094509250836126015760405162461bcd60e51b815260040161061390613ba5565b61260b898b6112a4565b919b5091955092509050836126325760405162461bcd60e51b8152600401610613906139d6565b806001600160401b03166001036126845761264d898b611ebf565b909a50909450925061265f838a6139b6565b60408051306020820152919650015b6040516020818303038152906040529550612834565b806001600160401b03166002036126cd5761269f898b611ebf565b909a5090945092506126b1838a6139b6565b604080516001600160a01b038b1660208201529196500161266e565b60036001600160401b0382161461283457806001600160401b03166004036127255760006126fc8b8b8a612c70565b604080516020810184905291985091925001604051602081830303815290604052965050612834565b806001600160401b03166005036127ec576000806127438c8c612cd8565b604051631d591eb760e31b81526001600160801b03929092166004830181905290985091506001600160a01b038a169063eac8f5b890602401602060405180830381865afa158015612799573d6000803e3d6000fd5b505050506040513d601f19601f820116820180604052508101906127bd9190613c1b565b604080516001600160a01b03831660208201529193500160405160208183030381529060405297505050612834565b60405162461bcd60e51b815260206004820152601860248201527f77726f6e672062696e64696e672076616c7565207479706500000000000000006044820152606401610613565b5050505094509492505050565b6000806000806000806128548888611edc565b925092509250826125115750600094509250839150611ed59050565b600080600080612880878761115b565b9650905060008080612892898b6112a4565b919b50919450909250905060016001600160401b03831614806128be5750816001600160401b03166002145b6128fe5760405162461bcd60e51b81526020600482015260116024820152701a5b9d985b1a59081ad95e48199a595b19607a1b6044820152606401610613565b8261291b5760405162461bcd60e51b8152600401610613906139d6565b816001600160401b03166001036129b3576129368a8a612cd8565b604051631d591eb760e31b81526001600160801b038316600482015291975095506001600160a01b0389169063eac8f5b890602401602060405180830381865afa158015612988573d6000803e3d6000fd5b505050506040513d601f19601f820116820180604052508101906129ac9190613c1b565b9650612a42565b816001600160401b031660020361149a576129ce8a8a612d18565b60405163079631db60e31b81526001600160a01b03808416600483015292995090965090891690633cb18ed890602401602060405180830381865afa158015612a1b573d6000803e3d6000fd5b505050506040513d601f19601f82011682018060405250810190612a3f9190613dd3565b95505b5050505093509350939050565b600080600080600080612a62878a611ebf565b909850909450925083612a875760405162461bcd60e51b815260040161061390613ba5565b612a91878a6112a4565b919950919550909250905083612ab95760405162461bcd60e51b8152600401610613906139d6565b6002816006811115612acd57612acd613a01565b14612b265760405162461bcd60e51b8152602060048201526024808201527f6465636f64652074797065206973206e6f7420656d626564646564206d6573736044820152636167657360e01b6064820152608401610613565b816001600160401b0316600103612bd557600080612b448b8a612d80565b6040516370a0823160e01b81523060048201529099509193509150819083906001600160a01b038d16906370a0823190602401602060405180830381865afa158015612b94573d6000803e3d6000fd5b505050506040513d601f19601f82011682018060405250810190612bb89190613dd3565b612bc29190613dec565b612bcc9190613e03565b97505050612c55565b816001600160401b0316600203612bfa57612bf08988612deb565b9096509450612c55565b816001600160401b0316600303612c1657612bf089888a612e2e565b60405162461bcd60e51b8152602060048201526014602482015273756e6b6e6f776e2062616c616e6365207479706560601b6044820152606401610613565b50505050935093915050565b6000806000611ece8585612f49565b600080600080600080612c83898961115b565b98509350612c9589600160028b61104d565b9750600080612ca58b8b8b612870565b9b509092509050612cb98b6002808d61104d565b9950612cc68b838c612a4f565b909c909b509950505050505050505050565b600080600080600080612ceb888861115b565b97509350612cfd88600160028a61104d565b9650612d098888612354565b90999098509650505050505050565b600080600080600080612d2b888861115b565b97509350612d3d88600160028a61104d565b9650612d49888861115b565b97509350612d67611ab2896001600160401b03808b16908816611195565b9550612d7384886139b6565b9450505050509250929050565b600080600080612d90868661115b565b95509050612da286600160028861104d565b9450612dae8686612354565b95506001600160801b03169350612dc8866002808861104d565b9450612dd48686612354565b94976001600160801b039091169650939450505050565b6000806000612dfa858561115b565b94509050612e0c85600160028761104d565b9350612e188585612354565b6001600160801b03909116969095509350505050565b6000806000612e3d868661115b565b95509050612e4f86600160028861104d565b94506000612e5d8787612354565b96509050612e6e876002808961104d565b9550600080612e7d8989612d80565b8097508193508294505050506000876001600160a01b031663313ce5676040518163ffffffff1660e01b8152600401602060405180830381865afa158015612ec9573d6000803e3d6000fd5b505050506040513d601f19601f82011682018060405250810190612eed9190613e25565b60ff16905081612efe82600a613f24565b612f089085613dec565b612f129190613e03565b612f1d82600a613f24565b612f30906001600160801b038716613dec565b612f3a9190613b6c565b96505050505050935093915050565b600080600080600080612f5c8888611edc565b92509250925082612f785750600094509250839150611ed59050565b6001603f82901c166000036125115767ffffffff000000008116156125115750600094509250839150611ed59050565b634e487b7160e01b600052604160045260246000fd5b604080519081016001600160401b0381118282101715612fe057612fe0612fa8565b60405290565b604051601f8201601f191681016001600160401b038111828210171561300e5761300e612fa8565b604052919050565b600082601f83011261302757600080fd5b81356001600160401b0381111561304057613040612fa8565b613053601f8201601f1916602001612fe6565b81815284602083860101111561306857600080fd5b816020850160208301376000918101602001919091529392505050565b6000806040838503121561309857600080fd5b82356001600160401b03808211156130af57600080fd5b6130bb86838701613016565b935060208501359150808211156130d157600080fd5b50610ea485828601613016565b60005b838110156130f95781810151838201526020016130e1565b50506000910152565b6000815180845261311a8160208601602086016130de565b601f01601f19169290920160200192915050565b60208152600061129d6020830184613102565b60006020828403121561315357600080fd5b81356001600160401b0381111561316957600080fd5b61242f84828501613016565b6001600160a01b038116811461318a57600080fd5b50565b80356001600160801b03811681146131a457600080fd5b919050565b600080600080608085870312156131bf57600080fd5b84356001600160401b03808211156131d657600080fd5b6131e288838901613016565b9550602087013591506131f482613175565b90935060408601359061320682613175565b9092506060860135908082111561321c57600080fd5b908601906040828903121561323057600080fd5b613238612fbe565b6132418361318d565b815260208301358281111561325557600080fd5b6132618a828601613016565b6020830152509598949750929550505050565b60006020828403121561328657600080fd5b61129d8261318d565b60006001600160401b038211156132a8576132a8612fa8565b5060051b60200190565b600082601f8301126132c357600080fd5b813560206132d86132d38361328f565b612fe6565b82815260059290921b840181019181810190868411156132f757600080fd5b8286015b84811015610e455780356001600160401b0381111561331a5760008081fd5b6133288986838b0101613016565b8452509183019183016132fb565b6000806040838503121561334957600080fd5b82356001600160401b038082111561336057600080fd5b61336c86838701613016565b9350602085013591508082111561338257600080fd5b50610ea4858286016132b2565b600080604083850312156133a257600080fd5b82356001600160401b03808211156133b957600080fd5b6133c586838701613016565b93506020850135915080821682146133dc57600080fd5b50809150509250929050565b600080604083850312156133fb57600080fd5b82356001600160401b0381111561341157600080fd5b61341d85828601613016565b92505061342c6020840161318d565b90509250929050565b6000806040838503121561344857600080fd5b6134518361318d565b915060208301356001600160401b0381111561346c57600080fd5b610ea485828601613016565b803563ffffffff811681146131a457600080fd5b60006020828403121561349e57600080fd5b61129d82613478565b600080600080600060a086880312156134bf57600080fd5b85356001600160401b03808211156134d657600080fd5b6134e289838a01613016565b9650602088013591508160030b82146134fa57600080fd5b9094506040870135908082111561351057600080fd5b61351c89838a01613016565b9450606088013591508082111561353257600080fd5b61353e89838a01613016565b9350608088013591508082111561355457600080fd5b50613561888289016132b2565b9150509295509295909350565b60006020828403121561358057600080fd5b81356001600160401b0381111561359657600080fd5b61242f848285016132b2565b600080604083850312156135b557600080fd5b61345183613478565b600080604083850312156135d157600080fd5b6135da8361318d565b915061342c6020840161318d565b600080604083850312156135fb57600080fd5b82356001600160401b0381111561361157600080fd5b61361d85828601613016565b925050602083013561362e81613175565b809150509250929050565b600081518084526020808501945080840160005b838110156136695781518752958201959082019060010161364d565b509495945050505050565b60c08152600061368760c0830189613102565b6020838203818501526001600160801b038951168252808901516040828401526136b46040840182613102565b92505083820360408501526136c98289613102565b915083820360608501526136dd8288613102565b8481036080860152865180825282880193509082019060005b8181101561371b5784516001600160a01b0316835293830193918301916001016136f6565b505084810360a086015261372f8187613639565b9b9a5050505050505050505050565b600082601f83011261374f57600080fd5b8135602061375f6132d38361328f565b82815260059290921b8401810191818101908684111561377e57600080fd5b8286015b84811015610e45576137938161318d565b8352918301918301613782565b600082601f8301126137b157600080fd5b813560206137c16132d38361328f565b82815260059290921b840181019181810190868411156137e057600080fd5b8286015b84811015610e4557803583529183019183016137e4565b60008060008060008060c0878903121561381457600080fd5b86356001600160401b038082111561382b57600080fd5b6138378a838b01613016565b9750602089013591508082111561384d57600080fd5b6138598a838b01613016565b9650604089013591508082111561386f57600080fd5b61387b8a838b01613016565b9550606089013591508082111561389157600080fd5b61389d8a838b01613016565b945060808901359150808211156138b357600080fd5b6138bf8a838b0161373e565b935060a08901359150808211156138d557600080fd5b506138e289828a016137a0565b9150509295509295509295565b6040815260006139026040830185613102565b90506001600160401b03831660208301529392505050565b6000855161392c818460208a016130de565b855190830190613940818360208a016130de565b85519101906139538183602089016130de565b84519101906139668183602088016130de565b019695505050505050565b600083516139838184602088016130de565b8351908301906139978183602088016130de565b01949350505050565b634e487b7160e01b600052601160045260246000fd5b6001600160401b038181168382160190808211156107b0576107b06139a0565b602080825260119082015270191958dbd919481ad95e4819985a5b1959607a1b604082015260600190565b634e487b7160e01b600052602160045260246000fd5b634e487b7160e01b600052603260045260246000fd5b60008451613a3f8184602089016130de565b845190830190613a538183602089016130de565b8451910190613a668183602088016130de565b0195945050505050565b600060018201613a8257613a826139a0565b5060010190565b600089516020613a9c8285838f016130de565b8a5191840191613aaf8184848f016130de565b8a51920191613ac18184848e016130de565b8951920191613ad38184848d016130de565b8851920191613ae58184848c016130de565b8751920191613af78184848b016130de565b8651920191613b098184848a016130de565b8551920191613b1b81848489016130de565b919091019b9a5050505050505050505050565b60008251613b408184602087016130de565b9190910192915050565b600060208284031215613b5c57600080fd5b8151801515811461129d57600080fd5b808201808211156104ec576104ec6139a0565b60006001600160401b03808316818103613b9b57613b9b6139a0565b6001019392505050565b6020808252601e908201527f6465636f646520656d626564646564206d657373616765206661696c65640000604082015260600190565b60048110613bfa57634e487b7160e01b600052602160045260246000fd5b9052565b6001600160801b03831681526040810161129d6020830184613bdc565b600060208284031215613c2d57600080fd5b815161129d81613175565b600081518084526020808501945080840160005b838110156136695781516001600160801b031687529582019590820190600101613c4c565b6000610100808352613c858184018c613102565b905060206001600160801b038b1681850152613ca4604085018b613bdc565b8382036060850152613cb6828a613102565b91508382036080850152613cca8289613102565b84810360a0860152875180825282890193509082019060005b81811015613d085784516001600160a01b031683529383019391830191600101613ce3565b505084810360c0860152613d1c8188613c38565b9250505082810360e084015261372f8185613639565b6001600160401b038281168282160390808211156107b0576107b06139a0565b818103818111156104ec576104ec6139a0565b6001600160401b03818116838216028082169190828114613d8857613d886139a0565b505092915050565b6001600160801b03818116838216028082169190828114613d8857613d886139a0565b6001600160801b038181168382160190808211156107b0576107b06139a0565b600060208284031215613de557600080fd5b5051919050565b80820281158282048414176104ec576104ec6139a0565b600082613e2057634e487b7160e01b600052601260045260246000fd5b500490565b600060208284031215613e3757600080fd5b815160ff8116811461129d57600080fd5b600181815b8085111561118d578160001904821115613e6957613e696139a0565b80851615613e7657918102915b93841c9390800290613e4d565b600082613e92575060016104ec565b81613e9f575060006104ec565b8160018114613eb55760028114613ebf57613edb565b60019150506104ec565b60ff841115613ed057613ed06139a0565b50506001821b6104ec565b5060208310610133831016604e8410600b8410161715613efe575081810a6104ec565b613f088383613e48565b8060001904821115613f1c57613f1c6139a0565b029392505050565b600061129d8383613e8356fea264697066735822122001779439e79525d38d388a525c30ba3135ab678e841b31053787c7690d89040864736f6c63430008150033",
    "linkReferences": {}
  },
  "methodIdentifiers": {
    "_handleInterpreterOrigin(bytes,uint64)": "fc4dd551",
    "_handleUserOrigin(bytes,uint64)": "344e6dfc",
    "decodeIBCSpawn(bytes,address)": "c8c9a647",
    "generateAbsolute(uint128)": "9a6cd52b",
    "generateAccount(bytes)": "8d26e7a5",
    "generateAsset(bytes,bytes)": "33abe160",
    "generateAssetAmount(bytes,bytes)": "0522ecab",
    "generateAssetIdByGlobalId(bytes)": "572b6dde",
    "generateAssetIdByLocalId(bytes)": "39d2b0f9",
    "generateBalanceByAbsolute(bytes)": "e0a51157",
    "generateBalanceByRatio(bytes)": "321ffbe8",
    "generateBalanceByUnit(bytes)": "0ad6a684",
    "generateBinding(uint32,bytes)": "b20e9e7d",
    "generateBindingValueByAssetAmount(bytes)": "c85da980",
    "generateBindingValueByGlobalId(bytes)": "1ea6b5c6",
    "generateBindings(bytes[])": "a3538ebb",
    "generateCall(bytes,bytes)": "b7fd90e3",
    "generateGlobalId(uint128)": "8425e70f",
    "generateIBCSpawn(bytes,bytes,bytes,bytes,uint128[],uint256[])": "f2044d09",
    "generateInstructionByCall(bytes)": "9170895d",
    "generateInstructionByQuery(bytes)": "38f89c82",
    "generateInstructionBySpawn(bytes)": "7bde48fe",
    "generateInstructionByTransfer(bytes)": "c97833fe",
    "generateInstructions(bytes[])": "a247e221",
    "generateInterpreterOrigin(bytes)": "6bcc3ecb",
    "generateLocalId(bytes)": "82f9f334",
    "generateNetwork(uint128)": "d60490c5",
    "generateProgram(bytes,bytes)": "f0cbe21b",
    "generateRatio(uint128,uint128)": "be8ba65a",
    "generateRelayer(uint32)": "9a80b004",
    "generateResult(uint32)": "a0c9e1a8",
    "generateSalt(bytes)": "9d020ae8",
    "generateSelf(uint32)": "8af4b9ef",
    "generateSpawn(bytes,int32,bytes,bytes,bytes[])": "8e6f4bac",
    "generateTransferByAccount(bytes,bytes[])": "313ff843",
    "generateUint128(uint128)": "263a0211",
    "generateUnit(uint128,bytes)": "6da598ce",
    "generateUserOrigin(bytes,uint128)": "5df958f5",
    "interpretProgram(bytes,address,address,IRouter.Origin)": "0bb4cb47"
  },
  "id": 58
}