{
  "abi": [
    {
      "inputs": [
        {
          "components": [
            {
              "internalType": "uint128",
              "name": "networkId",
              "type": "uint128"
            },
            {
              "internalType": "bytes",
              "name": "account",
              "type": "bytes"
            }
          ],
          "internalType": "struct IRouter.Origin",
          "name": "_origin",
          "type": "tuple"
        },
        {
          "internalType": "address",
          "name": "_routerAddress",
          "type": "address"
        },
        {
          "internalType": "bytes",
          "name": "_salt",
          "type": "bytes"
        }
      ],
      "stateMutability": "nonpayable",
      "type": "constructor"
    },
    {
      "inputs": [
        {
          "internalType": "address[]",
          "name": "newOwners",
          "type": "address[]"
        }
      ],
      "name": "addOwners",
      "outputs": [],
      "stateMutability": "nonpayable",
      "type": "function"
    },
    {
      "inputs": [],
      "name": "creator",
      "outputs": [
        {
          "internalType": "address",
          "name": "",
          "type": "address"
        }
      ],
      "stateMutability": "view",
      "type": "function"
    },
    {
      "inputs": [
        {
          "internalType": "bytes",
          "name": "program",
          "type": "bytes"
        },
        {
          "internalType": "address",
          "name": "relayer",
          "type": "address"
        }
      ],
      "name": "interpret",
      "outputs": [],
      "stateMutability": "nonpayable",
      "type": "function"
    },
    {
      "inputs": [
        {
          "internalType": "address",
          "name": "",
          "type": "address"
        }
      ],
      "name": "owners",
      "outputs": [
        {
          "internalType": "bool",
          "name": "",
          "type": "bool"
        }
      ],
      "stateMutability": "view",
      "type": "function"
    },
    {
      "inputs": [
        {
          "internalType": "address[]",
          "name": "newOwners",
          "type": "address[]"
        }
      ],
      "name": "removeOwners",
      "outputs": [],
      "stateMutability": "nonpayable",
      "type": "function"
    },
    {
      "inputs": [],
      "name": "routerAddress",
      "outputs": [
        {
          "internalType": "address",
          "name": "",
          "type": "address"
        }
      ],
      "stateMutability": "view",
      "type": "function"
    },
    {
      "inputs": [],
      "name": "salt",
      "outputs": [
        {
          "internalType": "bytes",
          "name": "",
          "type": "bytes"
        }
      ],
      "stateMutability": "view",
      "type": "function"
    },
    {
      "stateMutability": "payable",
      "type": "receive"
    }
  ],
  "bytecode": {
    "object": "0x60806040523480156200001157600080fd5b5060405162000e2838038062000e288339810160408190526200003491620001ea565b3360008181526003602052604081208054600160ff19909116811790915581546001600160a01b031990811690931790915580549091166001600160a01b038416179055600262000086828262000349565b508251600480546001600160801b0319166001600160801b039092169190911781556020840151849190600590620000bf908262000349565b5090505050505062000415565b634e487b7160e01b600052604160045260246000fd5b604080519081016001600160401b0381118282101715620001075762000107620000cc565b60405290565b604051601f8201601f191681016001600160401b0381118282101715620001385762000138620000cc565b604052919050565b600082601f8301126200015257600080fd5b81516001600160401b038111156200016e576200016e620000cc565b602062000184601f8301601f191682016200010d565b82815285828487010111156200019957600080fd5b60005b83811015620001b95785810183015182820184015282016200019c565b506000928101909101919091529392505050565b80516001600160a01b0381168114620001e557600080fd5b919050565b6000806000606084860312156200020057600080fd5b83516001600160401b03808211156200021857600080fd5b90850190604082880312156200022d57600080fd5b62000237620000e2565b82516001600160801b03811681146200024f57600080fd5b81526020830151828111156200026457600080fd5b620002728982860162000140565b602083015250809550506200028a60208701620001cd565b93506040860151915080821115620002a157600080fd5b50620002b08682870162000140565b9150509250925092565b600181811c90821680620002cf57607f821691505b602082108103620002f057634e487b7160e01b600052602260045260246000fd5b50919050565b601f8211156200034457600081815260208120601f850160051c810160208610156200031f5750805b601f850160051c820191505b8181101562000340578281556001016200032b565b5050505b505050565b81516001600160401b03811115620003655762000365620000cc565b6200037d81620003768454620002ba565b84620002f6565b602080601f831160018114620003b557600084156200039c5750858301515b600019600386901b1c1916600185901b17855562000340565b600085815260208120601f198616915b82811015620003e657888601518255948401946001909101908401620003c5565b5085821015620004055787850151600019600388901b60f8161c191681555b5050505050600190811b01905550565b610a0380620004256000396000f3fe6080604052600436106100745760003560e01c80636c46a2c51161004e5780636c46a2c51461011d578063a9a5e3af1461013f578063bfa0b1331461015f578063e83d99281461018157600080fd5b8063022914a71461008057806302d05d3f146100c55780633268cc56146100fd57600080fd5b3661007b57005b600080fd5b34801561008c57600080fd5b506100b061009b3660046105ef565b60036020526000908152604090205460ff1681565b60405190151581526020015b60405180910390f35b3480156100d157600080fd5b506000546100e5906001600160a01b031681565b6040516001600160a01b0390911681526020016100bc565b34801561010957600080fd5b506001546100e5906001600160a01b031681565b34801561012957600080fd5b5061013d610138366004610658565b6101a1565b005b34801561014b57600080fd5b5061013d61015a366004610658565b610300565b34801561016b57600080fd5b50610174610456565b6040516100bc919061074b565b34801561018d57600080fd5b5061013d61019c36600461075e565b6104e4565b6040516101b09060059061083e565b6040519081900381206001600160601b03193360601b1660208301529060340160405160208183030381529060405280519060200120148061020157503360009081526003602052604090205460ff165b8061020b57503033145b61021457600080fd5b60005b81518110156102fc5760006001600160a01b031682828151811061023d5761023d6108b4565b60200260200101516001600160a01b0316036102a05760405162461bcd60e51b815260206004820152601c60248201527f496e7465727072657465723a20696e76616c696420616464726573730000000060448201526064015b60405180910390fd5b6001600360008484815181106102b8576102b86108b4565b6020908102919091018101516001600160a01b03168252810191909152604001600020805460ff1916911515919091179055806102f4816108ca565b915050610217565b5050565b60405161030f9060059061083e565b6040519081900381206001600160601b03193360601b1660208301529060340160405160208183030381529060405280519060200120148061036057503360009081526003602052604090205460ff165b8061036a57503033145b61037357600080fd5b60005b81518110156102fc5760006001600160a01b031682828151811061039c5761039c6108b4565b60200260200101516001600160a01b0316036103fa5760405162461bcd60e51b815260206004820152601c60248201527f496e7465727072657465723a20696e76616c69642061646472657373000000006044820152606401610297565b600060036000848481518110610412576104126108b4565b6020908102919091018101516001600160a01b03168252810191909152604001600020805460ff19169115159190911790558061044e816108ca565b915050610376565b6002805461046390610804565b80601f016020809104026020016040519081016040528092919081815260200182805461048f90610804565b80156104dc5780601f106104b1576101008083540402835291602001916104dc565b820191906000526020600020905b8154815290600101906020018083116104bf57829003601f168201915b505050505081565b6040516104f39060059061083e565b6040519081900381206001600160601b03193360601b1660208301529060340160405160208183030381529060405280519060200120148061054457503360009081526003602052604090205460ff165b8061054e57503033145b61055757600080fd5b600154604051630bb4cb4760e01b815273__$42fb3845ba15f249cc8cc72220d41e153f$__91630bb4cb479161059f91869186916001600160a01b03169060049081016108f1565b60006040518083038186803b1580156105b757600080fd5b505af41580156105cb573d6000803e3d6000fd5b505050505050565b80356001600160a01b03811681146105ea57600080fd5b919050565b60006020828403121561060157600080fd5b61060a826105d3565b9392505050565b634e487b7160e01b600052604160045260246000fd5b604051601f8201601f1916810167ffffffffffffffff8111828210171561065057610650610611565b604052919050565b6000602080838503121561066b57600080fd5b823567ffffffffffffffff8082111561068357600080fd5b818501915085601f83011261069757600080fd5b8135818111156106a9576106a9610611565b8060051b91506106ba848301610627565b81815291830184019184810190888411156106d457600080fd5b938501935b838510156106f9576106ea856105d3565b825293850193908501906106d9565b98975050505050505050565b6000815180845260005b8181101561072b5760208185018101518683018201520161070f565b506000602082860101526020601f19601f83011685010191505092915050565b60208152600061060a6020830184610705565b6000806040838503121561077157600080fd5b823567ffffffffffffffff8082111561078957600080fd5b818501915085601f83011261079d57600080fd5b81356020828211156107b1576107b1610611565b6107c3601f8301601f19168201610627565b925081835287818386010111156107d957600080fd5b818185018285013760008183850101528295506107f78188016105d3565b9450505050509250929050565b600181811c9082168061081857607f821691505b60208210810361083857634e487b7160e01b600052602260045260246000fd5b50919050565b600080835461084c81610804565b600182811680156108645760018114610879576108a8565b60ff19841687528215158302870194506108a8565b8760005260208060002060005b8581101561089f5781548a820152908401908201610886565b50505082870194505b50929695505050505050565b634e487b7160e01b600052603260045260246000fd5b6000600182016108ea57634e487b7160e01b600052601160045260246000fd5b5060010190565b6080815260006109046080830187610705565b602060018060a01b03808816828601528087166040860152506060848303818601526fffffffffffffffffffffffffffffffff865416835260018087016040848601526000815461095481610804565b80604089015284821660008114610972576001811461098c576109ba565b60ff1983168988015281151560051b8901870193506109ba565b846000528760002060005b838110156109b25781548b82018a0152908701908901610997565b8a0188019450505b50919d9c5050505050505050505050505056fea2646970667358221220fa99c34fb2774b18075150a6ab9c14a2fb5520fcc95b51d729b04f16d0cd1bea64736f6c63430008150033",
    "linkReferences": {
      "src/libraries/SDK.sol": {
        "SDK": [
          {
            "start": 2446,
            "length": 20
          }
        ]
      }
    }
  },
  "methodIdentifiers": {
    "addOwners(address[])": "6c46a2c5",
    "creator()": "02d05d3f",
    "interpret(bytes,address)": "e83d9928",
    "owners(address)": "022914a7",
    "removeOwners(address[])": "a9a5e3af",
    "routerAddress()": "3268cc56",
    "salt()": "bfa0b133"
  },
  "id": 26
}