{
  "abi": [
    {
      "inputs": [],
      "stateMutability": "nonpayable",
      "type": "constructor"
    },
    {
      "anonymous": false,
      "inputs": [
        {
          "indexed": false,
          "internalType": "string",
          "name": "",
          "type": "string"
        }
      ],
      "name": "GeneratedChannelIdentifier",
      "type": "event"
    },
    {
      "anonymous": false,
      "inputs": [
        {
          "indexed": false,
          "internalType": "string",
          "name": "",
          "type": "string"
        }
      ],
      "name": "GeneratedClientIdentifier",
      "type": "event"
    },
    {
      "anonymous": false,
      "inputs": [
        {
          "indexed": false,
          "internalType": "string",
          "name": "",
          "type": "string"
        }
      ],
      "name": "GeneratedConnectionIdentifier",
      "type": "event"
    },
    {
      "inputs": [
        {
          "internalType": "bytes",
          "name": "name",
          "type": "bytes"
        },
        {
          "internalType": "address",
          "name": "addr",
          "type": "address"
        }
      ],
      "name": "authenticateCapability",
      "outputs": [
        {
          "internalType": "bool",
          "name": "",
          "type": "bool"
        }
      ],
      "stateMutability": "view",
      "type": "function"
    },
    {
      "inputs": [
        {
          "internalType": "bytes",
          "name": "name",
          "type": "bytes"
        },
        {
          "internalType": "address",
          "name": "addr",
          "type": "address"
        }
      ],
      "name": "claimCapability",
      "outputs": [],
      "stateMutability": "nonpayable",
      "type": "function"
    },
    {
      "inputs": [
        {
          "internalType": "string",
          "name": "portId",
          "type": "string"
        },
        {
          "internalType": "string",
          "name": "channelId",
          "type": "string"
        },
        {
          "internalType": "uint64",
          "name": "sequence",
          "type": "uint64"
        }
      ],
      "name": "deletePacketCommitment",
      "outputs": [],
      "stateMutability": "nonpayable",
      "type": "function"
    },
    {
      "inputs": [],
      "name": "generateChannelIdentifier",
      "outputs": [
        {
          "internalType": "string",
          "name": "",
          "type": "string"
        }
      ],
      "stateMutability": "nonpayable",
      "type": "function"
    },
    {
      "inputs": [
        {
          "internalType": "string",
          "name": "clientType",
          "type": "string"
        }
      ],
      "name": "generateClientIdentifier",
      "outputs": [
        {
          "internalType": "string",
          "name": "",
          "type": "string"
        }
      ],
      "stateMutability": "nonpayable",
      "type": "function"
    },
    {
      "inputs": [],
      "name": "generateConnectionIdentifier",
      "outputs": [
        {
          "internalType": "string",
          "name": "",
          "type": "string"
        }
      ],
      "stateMutability": "nonpayable",
      "type": "function"
    },
    {
      "inputs": [
        {
          "internalType": "string",
          "name": "portId",
          "type": "string"
        },
        {
          "internalType": "string",
          "name": "channelId",
          "type": "string"
        }
      ],
      "name": "getChannel",
      "outputs": [
        {
          "components": [
            {
              "internalType": "enum Channel.State",
              "name": "state",
              "type": "uint8"
            },
            {
              "internalType": "enum Channel.Order",
              "name": "ordering",
              "type": "uint8"
            },
            {
              "components": [
                {
                  "internalType": "string",
                  "name": "port_id",
                  "type": "string"
                },
                {
                  "internalType": "string",
                  "name": "channel_id",
                  "type": "string"
                }
              ],
              "internalType": "struct ChannelCounterparty.Data",
              "name": "counterparty",
              "type": "tuple"
            },
            {
              "internalType": "string[]",
              "name": "connection_hops",
              "type": "string[]"
            },
            {
              "internalType": "string",
              "name": "version",
              "type": "string"
            }
          ],
          "internalType": "struct Channel.Data",
          "name": "channel",
          "type": "tuple"
        },
        {
          "internalType": "bool",
          "name": "",
          "type": "bool"
        }
      ],
      "stateMutability": "view",
      "type": "function"
    },
    {
      "inputs": [
        {
          "internalType": "string",
          "name": "clientType",
          "type": "string"
        }
      ],
      "name": "getClientImpl",
      "outputs": [
        {
          "internalType": "address",
          "name": "",
          "type": "address"
        },
        {
          "internalType": "bool",
          "name": "",
          "type": "bool"
        }
      ],
      "stateMutability": "view",
      "type": "function"
    },
    {
      "inputs": [
        {
          "internalType": "string",
          "name": "clientId",
          "type": "string"
        }
      ],
      "name": "getClientState",
      "outputs": [
        {
          "internalType": "bytes",
          "name": "",
          "type": "bytes"
        },
        {
          "internalType": "bool",
          "name": "",
          "type": "bool"
        }
      ],
      "stateMutability": "view",
      "type": "function"
    },
    {
      "inputs": [
        {
          "internalType": "string",
          "name": "clientId",
          "type": "string"
        }
      ],
      "name": "getClientType",
      "outputs": [
        {
          "internalType": "string",
          "name": "",
          "type": "string"
        }
      ],
      "stateMutability": "view",
      "type": "function"
    },
    {
      "inputs": [
        {
          "internalType": "string",
          "name": "connectionId",
          "type": "string"
        }
      ],
      "name": "getConnection",
      "outputs": [
        {
          "components": [
            {
              "internalType": "string",
              "name": "client_id",
              "type": "string"
            },
            {
              "components": [
                {
                  "internalType": "string",
                  "name": "identifier",
                  "type": "string"
                },
                {
                  "internalType": "string[]",
                  "name": "features",
                  "type": "string[]"
                }
              ],
              "internalType": "struct Version.Data[]",
              "name": "versions",
              "type": "tuple[]"
            },
            {
              "internalType": "enum ConnectionEnd.State",
              "name": "state",
              "type": "uint8"
            },
            {
              "components": [
                {
                  "internalType": "string",
                  "name": "client_id",
                  "type": "string"
                },
                {
                  "internalType": "string",
                  "name": "connection_id",
                  "type": "string"
                },
                {
                  "components": [
                    {
                      "internalType": "bytes",
                      "name": "key_prefix",
                      "type": "bytes"
                    }
                  ],
                  "internalType": "struct MerklePrefix.Data",
                  "name": "prefix",
                  "type": "tuple"
                }
              ],
              "internalType": "struct Counterparty.Data",
              "name": "counterparty",
              "type": "tuple"
            },
            {
              "internalType": "uint64",
              "name": "delay_period",
              "type": "uint64"
            }
          ],
          "internalType": "struct ConnectionEnd.Data",
          "name": "connection",
          "type": "tuple"
        },
        {
          "internalType": "bool",
          "name": "",
          "type": "bool"
        }
      ],
      "stateMutability": "view",
      "type": "function"
    },
    {
      "inputs": [
        {
          "internalType": "string",
          "name": "clientId",
          "type": "string"
        },
        {
          "components": [
            {
              "internalType": "uint64",
              "name": "revision_number",
              "type": "uint64"
            },
            {
              "internalType": "uint64",
              "name": "revision_height",
              "type": "uint64"
            }
          ],
          "internalType": "struct Height.Data",
          "name": "height",
          "type": "tuple"
        }
      ],
      "name": "getConsensusState",
      "outputs": [
        {
          "internalType": "bytes",
          "name": "",
          "type": "bytes"
        },
        {
          "internalType": "bool",
          "name": "",
          "type": "bool"
        }
      ],
      "stateMutability": "view",
      "type": "function"
    },
    {
      "inputs": [],
      "name": "getExpectedTimePerBlock",
      "outputs": [
        {
          "internalType": "uint64",
          "name": "",
          "type": "uint64"
        }
      ],
      "stateMutability": "view",
      "type": "function"
    },
    {
      "inputs": [],
      "name": "getIBCModule",
      "outputs": [
        {
          "internalType": "address",
          "name": "",
          "type": "address"
        }
      ],
      "stateMutability": "view",
      "type": "function"
    },
    {
      "inputs": [
        {
          "internalType": "bytes",
          "name": "name",
          "type": "bytes"
        }
      ],
      "name": "getModuleOwner",
      "outputs": [
        {
          "internalType": "address",
          "name": "",
          "type": "address"
        },
        {
          "internalType": "bool",
          "name": "",
          "type": "bool"
        }
      ],
      "stateMutability": "view",
      "type": "function"
    },
    {
      "inputs": [
        {
          "internalType": "string",
          "name": "portId",
          "type": "string"
        },
        {
          "internalType": "string",
          "name": "channelId",
          "type": "string"
        }
      ],
      "name": "getNextSequenceAck",
      "outputs": [
        {
          "internalType": "uint64",
          "name": "",
          "type": "uint64"
        }
      ],
      "stateMutability": "view",
      "type": "function"
    },
    {
      "inputs": [
        {
          "internalType": "string",
          "name": "portId",
          "type": "string"
        },
        {
          "internalType": "string",
          "name": "channelId",
          "type": "string"
        }
      ],
      "name": "getNextSequenceRecv",
      "outputs": [
        {
          "internalType": "uint64",
          "name": "",
          "type": "uint64"
        }
      ],
      "stateMutability": "view",
      "type": "function"
    },
    {
      "inputs": [
        {
          "internalType": "string",
          "name": "portId",
          "type": "string"
        },
        {
          "internalType": "string",
          "name": "channelId",
          "type": "string"
        }
      ],
      "name": "getNextSequenceSend",
      "outputs": [
        {
          "internalType": "uint64",
          "name": "",
          "type": "uint64"
        }
      ],
      "stateMutability": "view",
      "type": "function"
    },
    {
      "inputs": [
        {
          "internalType": "string",
          "name": "portId",
          "type": "string"
        },
        {
          "internalType": "string",
          "name": "channelId",
          "type": "string"
        },
        {
          "internalType": "uint64",
          "name": "sequence",
          "type": "uint64"
        }
      ],
      "name": "getPacketAcknowledgementCommitment",
      "outputs": [
        {
          "internalType": "bytes32",
          "name": "",
          "type": "bytes32"
        },
        {
          "internalType": "bool",
          "name": "",
          "type": "bool"
        }
      ],
      "stateMutability": "view",
      "type": "function"
    },
    {
      "inputs": [
        {
          "internalType": "string",
          "name": "portId",
          "type": "string"
        },
        {
          "internalType": "string",
          "name": "channelId",
          "type": "string"
        },
        {
          "internalType": "uint64",
          "name": "sequence",
          "type": "uint64"
        }
      ],
      "name": "getPacketCommitment",
      "outputs": [
        {
          "internalType": "bytes32",
          "name": "",
          "type": "bytes32"
        },
        {
          "internalType": "bool",
          "name": "",
          "type": "bool"
        }
      ],
      "stateMutability": "view",
      "type": "function"
    },
    {
      "inputs": [
        {
          "internalType": "string",
          "name": "clientId",
          "type": "string"
        },
        {
          "components": [
            {
              "internalType": "uint64",
              "name": "revision_number",
              "type": "uint64"
            },
            {
              "internalType": "uint64",
              "name": "revision_height",
              "type": "uint64"
            }
          ],
          "internalType": "struct Height.Data",
          "name": "height",
          "type": "tuple"
        }
      ],
      "name": "getProcessedHeight",
      "outputs": [
        {
          "internalType": "uint256",
          "name": "",
          "type": "uint256"
        },
        {
          "internalType": "bool",
          "name": "",
          "type": "bool"
        }
      ],
      "stateMutability": "view",
      "type": "function"
    },
    {
      "inputs": [
        {
          "internalType": "string",
          "name": "clientId",
          "type": "string"
        },
        {
          "components": [
            {
              "internalType": "uint64",
              "name": "revision_number",
              "type": "uint64"
            },
            {
              "internalType": "uint64",
              "name": "revision_height",
              "type": "uint64"
            }
          ],
          "internalType": "struct Height.Data",
          "name": "height",
          "type": "tuple"
        }
      ],
      "name": "getProcessedTime",
      "outputs": [
        {
          "internalType": "uint256",
          "name": "",
          "type": "uint256"
        },
        {
          "internalType": "bool",
          "name": "",
          "type": "bool"
        }
      ],
      "stateMutability": "view",
      "type": "function"
    },
    {
      "inputs": [
        {
          "internalType": "string",
          "name": "portId",
          "type": "string"
        },
        {
          "internalType": "string",
          "name": "channelId",
          "type": "string"
        },
        {
          "internalType": "uint64",
          "name": "sequence",
          "type": "uint64"
        }
      ],
      "name": "hasPacketReceipt",
      "outputs": [
        {
          "internalType": "bool",
          "name": "",
          "type": "bool"
        }
      ],
      "stateMutability": "view",
      "type": "function"
    },
    {
      "inputs": [
        {
          "internalType": "bytes",
          "name": "acknowledgement",
          "type": "bytes"
        }
      ],
      "name": "makePacketAcknowledgementCommitment",
      "outputs": [
        {
          "internalType": "bytes32",
          "name": "",
          "type": "bytes32"
        }
      ],
      "stateMutability": "pure",
      "type": "function"
    },
    {
      "inputs": [
        {
          "components": [
            {
              "internalType": "uint64",
              "name": "sequence",
              "type": "uint64"
            },
            {
              "internalType": "string",
              "name": "source_port",
              "type": "string"
            },
            {
              "internalType": "string",
              "name": "source_channel",
              "type": "string"
            },
            {
              "internalType": "string",
              "name": "destination_port",
              "type": "string"
            },
            {
              "internalType": "string",
              "name": "destination_channel",
              "type": "string"
            },
            {
              "internalType": "bytes",
              "name": "data",
              "type": "bytes"
            },
            {
              "components": [
                {
                  "internalType": "uint64",
                  "name": "revision_number",
                  "type": "uint64"
                },
                {
                  "internalType": "uint64",
                  "name": "revision_height",
                  "type": "uint64"
                }
              ],
              "internalType": "struct Height.Data",
              "name": "timeout_height",
              "type": "tuple"
            },
            {
              "internalType": "uint64",
              "name": "timeout_timestamp",
              "type": "uint64"
            }
          ],
          "internalType": "struct Packet.Data",
          "name": "packet",
          "type": "tuple"
        }
      ],
      "name": "makePacketCommitment",
      "outputs": [
        {
          "internalType": "bytes32",
          "name": "",
          "type": "bytes32"
        }
      ],
      "stateMutability": "pure",
      "type": "function"
    },
    {
      "inputs": [],
      "name": "onlyIBCModule",
      "outputs": [],
      "stateMutability": "view",
      "type": "function"
    },
    {
      "inputs": [
        {
          "internalType": "string",
          "name": "portId",
          "type": "string"
        },
        {
          "internalType": "string",
          "name": "channelId",
          "type": "string"
        },
        {
          "components": [
            {
              "internalType": "enum Channel.State",
              "name": "state",
              "type": "uint8"
            },
            {
              "internalType": "enum Channel.Order",
              "name": "ordering",
              "type": "uint8"
            },
            {
              "components": [
                {
                  "internalType": "string",
                  "name": "port_id",
                  "type": "string"
                },
                {
                  "internalType": "string",
                  "name": "channel_id",
                  "type": "string"
                }
              ],
              "internalType": "struct ChannelCounterparty.Data",
              "name": "counterparty",
              "type": "tuple"
            },
            {
              "internalType": "string[]",
              "name": "connection_hops",
              "type": "string[]"
            },
            {
              "internalType": "string",
              "name": "version",
              "type": "string"
            }
          ],
          "internalType": "struct Channel.Data",
          "name": "channel",
          "type": "tuple"
        }
      ],
      "name": "setChannel",
      "outputs": [],
      "stateMutability": "nonpayable",
      "type": "function"
    },
    {
      "inputs": [
        {
          "internalType": "string",
          "name": "clientType",
          "type": "string"
        },
        {
          "internalType": "address",
          "name": "clientImpl",
          "type": "address"
        }
      ],
      "name": "setClientImpl",
      "outputs": [],
      "stateMutability": "nonpayable",
      "type": "function"
    },
    {
      "inputs": [
        {
          "internalType": "string",
          "name": "clientId",
          "type": "string"
        },
        {
          "internalType": "bytes",
          "name": "clientStateBytes",
          "type": "bytes"
        }
      ],
      "name": "setClientState",
      "outputs": [],
      "stateMutability": "nonpayable",
      "type": "function"
    },
    {
      "inputs": [
        {
          "internalType": "string",
          "name": "clientId",
          "type": "string"
        },
        {
          "internalType": "string",
          "name": "clientType",
          "type": "string"
        }
      ],
      "name": "setClientType",
      "outputs": [],
      "stateMutability": "nonpayable",
      "type": "function"
    },
    {
      "inputs": [
        {
          "internalType": "string",
          "name": "connectionId",
          "type": "string"
        },
        {
          "components": [
            {
              "internalType": "string",
              "name": "client_id",
              "type": "string"
            },
            {
              "components": [
                {
                  "internalType": "string",
                  "name": "identifier",
                  "type": "string"
                },
                {
                  "internalType": "string[]",
                  "name": "features",
                  "type": "string[]"
                }
              ],
              "internalType": "struct Version.Data[]",
              "name": "versions",
              "type": "tuple[]"
            },
            {
              "internalType": "enum ConnectionEnd.State",
              "name": "state",
              "type": "uint8"
            },
            {
              "components": [
                {
                  "internalType": "string",
                  "name": "client_id",
                  "type": "string"
                },
                {
                  "internalType": "string",
                  "name": "connection_id",
                  "type": "string"
                },
                {
                  "components": [
                    {
                      "internalType": "bytes",
                      "name": "key_prefix",
                      "type": "bytes"
                    }
                  ],
                  "internalType": "struct MerklePrefix.Data",
                  "name": "prefix",
                  "type": "tuple"
                }
              ],
              "internalType": "struct Counterparty.Data",
              "name": "counterparty",
              "type": "tuple"
            },
            {
              "internalType": "uint64",
              "name": "delay_period",
              "type": "uint64"
            }
          ],
          "internalType": "struct ConnectionEnd.Data",
          "name": "connection",
          "type": "tuple"
        }
      ],
      "name": "setConnection",
      "outputs": [],
      "stateMutability": "nonpayable",
      "type": "function"
    },
    {
      "inputs": [
        {
          "internalType": "string",
          "name": "clientId",
          "type": "string"
        },
        {
          "components": [
            {
              "internalType": "uint64",
              "name": "revision_number",
              "type": "uint64"
            },
            {
              "internalType": "uint64",
              "name": "revision_height",
              "type": "uint64"
            }
          ],
          "internalType": "struct Height.Data",
          "name": "height",
          "type": "tuple"
        },
        {
          "internalType": "bytes",
          "name": "consensusStateBytes",
          "type": "bytes"
        }
      ],
      "name": "setConsensusState",
      "outputs": [],
      "stateMutability": "nonpayable",
      "type": "function"
    },
    {
      "inputs": [
        {
          "internalType": "uint64",
          "name": "expectedTimePerBlock_",
          "type": "uint64"
        }
      ],
      "name": "setExpectedTimePerBlock",
      "outputs": [],
      "stateMutability": "nonpayable",
      "type": "function"
    },
    {
      "inputs": [
        {
          "internalType": "address",
          "name": "ibcModule_",
          "type": "address"
        }
      ],
      "name": "setIBCModule",
      "outputs": [],
      "stateMutability": "nonpayable",
      "type": "function"
    },
    {
      "inputs": [
        {
          "internalType": "string",
          "name": "portId",
          "type": "string"
        },
        {
          "internalType": "string",
          "name": "channelId",
          "type": "string"
        },
        {
          "internalType": "uint64",
          "name": "sequence",
          "type": "uint64"
        }
      ],
      "name": "setNextSequenceAck",
      "outputs": [],
      "stateMutability": "nonpayable",
      "type": "function"
    },
    {
      "inputs": [
        {
          "internalType": "string",
          "name": "portId",
          "type": "string"
        },
        {
          "internalType": "string",
          "name": "channelId",
          "type": "string"
        },
        {
          "internalType": "uint64",
          "name": "sequence",
          "type": "uint64"
        }
      ],
      "name": "setNextSequenceRecv",
      "outputs": [],
      "stateMutability": "nonpayable",
      "type": "function"
    },
    {
      "inputs": [
        {
          "internalType": "string",
          "name": "portId",
          "type": "string"
        },
        {
          "internalType": "string",
          "name": "channelId",
          "type": "string"
        },
        {
          "internalType": "uint64",
          "name": "sequence",
          "type": "uint64"
        }
      ],
      "name": "setNextSequenceSend",
      "outputs": [],
      "stateMutability": "nonpayable",
      "type": "function"
    },
    {
      "inputs": [
        {
          "internalType": "string",
          "name": "portId",
          "type": "string"
        },
        {
          "internalType": "string",
          "name": "channelId",
          "type": "string"
        },
        {
          "internalType": "uint64",
          "name": "sequence",
          "type": "uint64"
        },
        {
          "internalType": "bytes",
          "name": "acknowledgement",
          "type": "bytes"
        }
      ],
      "name": "setPacketAcknowledgementCommitment",
      "outputs": [],
      "stateMutability": "nonpayable",
      "type": "function"
    },
    {
      "inputs": [
        {
          "internalType": "string",
          "name": "portId",
          "type": "string"
        },
        {
          "internalType": "string",
          "name": "channelId",
          "type": "string"
        },
        {
          "internalType": "uint64",
          "name": "sequence",
          "type": "uint64"
        },
        {
          "components": [
            {
              "internalType": "uint64",
              "name": "sequence",
              "type": "uint64"
            },
            {
              "internalType": "string",
              "name": "source_port",
              "type": "string"
            },
            {
              "internalType": "string",
              "name": "source_channel",
              "type": "string"
            },
            {
              "internalType": "string",
              "name": "destination_port",
              "type": "string"
            },
            {
              "internalType": "string",
              "name": "destination_channel",
              "type": "string"
            },
            {
              "internalType": "bytes",
              "name": "data",
              "type": "bytes"
            },
            {
              "components": [
                {
                  "internalType": "uint64",
                  "name": "revision_number",
                  "type": "uint64"
                },
                {
                  "internalType": "uint64",
                  "name": "revision_height",
                  "type": "uint64"
                }
              ],
              "internalType": "struct Height.Data",
              "name": "timeout_height",
              "type": "tuple"
            },
            {
              "internalType": "uint64",
              "name": "timeout_timestamp",
              "type": "uint64"
            }
          ],
          "internalType": "struct Packet.Data",
          "name": "packet",
          "type": "tuple"
        }
      ],
      "name": "setPacketCommitment",
      "outputs": [],
      "stateMutability": "nonpayable",
      "type": "function"
    },
    {
      "inputs": [
        {
          "internalType": "string",
          "name": "portId",
          "type": "string"
        },
        {
          "internalType": "string",
          "name": "channelId",
          "type": "string"
        },
        {
          "internalType": "uint64",
          "name": "sequence",
          "type": "uint64"
        }
      ],
      "name": "setPacketReceipt",
      "outputs": [],
      "stateMutability": "nonpayable",
      "type": "function"
    },
    {
      "inputs": [
        {
          "internalType": "string",
          "name": "clientId",
          "type": "string"
        },
        {
          "components": [
            {
              "internalType": "uint64",
              "name": "revision_number",
              "type": "uint64"
            },
            {
              "internalType": "uint64",
              "name": "revision_height",
              "type": "uint64"
            }
          ],
          "internalType": "struct Height.Data",
          "name": "height",
          "type": "tuple"
        },
        {
          "internalType": "uint256",
          "name": "processedHeight",
          "type": "uint256"
        }
      ],
      "name": "setProcessedHeight",
      "outputs": [],
      "stateMutability": "nonpayable",
      "type": "function"
    },
    {
      "inputs": [
        {
          "internalType": "string",
          "name": "clientId",
          "type": "string"
        },
        {
          "components": [
            {
              "internalType": "uint64",
              "name": "revision_number",
              "type": "uint64"
            },
            {
              "internalType": "uint64",
              "name": "revision_height",
              "type": "uint64"
            }
          ],
          "internalType": "struct Height.Data",
          "name": "height",
          "type": "tuple"
        },
        {
          "internalType": "uint256",
          "name": "processedTime",
          "type": "uint256"
        }
      ],
      "name": "setProcessedTime",
      "outputs": [],
      "stateMutability": "nonpayable",
      "type": "function"
    }
  ],
  "bytecode": {
    "object": "0x608060405234801561001057600080fd5b50600f80546001600160a01b0319163317905561508d806100326000396000f3fe608060405234801561001057600080fd5b506004361061025e5760003560e01c806378338a1711610146578063bfe7aa66116100c3578063ddc090dd11610087578063ddc090dd1461059e578063e211bb06146105b1578063ec75d829146105c4578063f2a47da3146105dc578063f81cc9e1146105ef578063ff1717451461060257600080fd5b8063bfe7aa6614610542578063c040ff7514610555578063c48baca414610568578063d836028f1461057b578063d9e73f501461059657600080fd5b80639d0b76501161010a5780639d0b7650146104c4578063abadb184146104d7578063ace6cfb7146104ea578063b7ccdc571461051c578063be3d6e921461052f57600080fd5b806378338a171461046557806384515f5d146104785780638a8896581461048b57806394dcb4c61461049e5780639760630e146104b157600080fd5b80632dbe1450116101df578063582418b6116101a3578063582418b6146103e55780635a9afac3146103f857806361fc5e7b1461040b5780636cf44bf41461041e57806371f56c591461043f57806376c81c421461045257600080fd5b80632dbe14501461036b5780633000217a1461037e5780633564d5501461039f5780634e08c6f3146103b257806353ccd1c8146103dd57600080fd5b806322c995361161022657806322c99536146102e157806324fe5ee81461030157806327184c131461031457806327711a69146103275780632d46858f1461034857600080fd5b80630838f56d146102635780631172938a1461027857806312a68750146102a55780631649a4f7146102c65780631e742f32146102ce575b600080fd5b610276610271366004613a11565b610615565b005b61028b610286366004613a94565b6106f9565b604080519283529015156020830152015b60405180910390f35b6102b86102b3366004613db6565b610789565b60405190815260200161029c565b610276610891565b6102766102dc366004613e01565b6108aa565b6102f46102ef366004613e1c565b6108e3565b60405161029c9190613ead565b61027661030f366004613ec0565b6109ac565b610276610322366004613f40565b610a1c565b61033a610335366004613e1c565b610a51565b60405161029c92919061402d565b61035b610356366004614134565b610f53565b604051901515815260200161029c565b6102766103793660046143df565b611013565b61039161038c366004613a11565b6112be565b60405161029c9291906144dc565b6102766103ad366004614633565b611683565b6103c56103c0366004613a11565b611819565b6040516001600160401b03909116815260200161029c565b6102f461186e565b6103c56103f3366004613a11565b61193c565b61035b610406366004613ec0565b611950565b61028b610419366004613ec0565b6119ba565b61043161042c366004613a94565b611a63565b60405161029c929190614754565b61028b61044d366004613ec0565b611b90565b610431610460366004613e1c565b611bd7565b610276610473366004613a11565b611cc2565b6102f4610486366004613e1c565b611dd8565b6102b8610499366004614778565b611e8b565b6102766104ac366004613ec0565b611e9d565b6102766104bf3660046147ac565b611f41565b6102766104d2366004614134565b611f9f565b6102766104e53660046147ac565b612071565b6104fd6104f8366004613e1c565b61208c565b604080516001600160a01b03909316835290151560208301520161029c565b61027661052a366004614808565b612115565b61027661053d366004614134565b612164565b6104fd610550366004613e1c565b612266565b61028b610563366004613a94565b6122d1565b6102766105763660046148a0565b6122e8565b6010546040516001600160a01b03909116815260200161029c565b6102f461241a565b6102766105ac366004613ec0565b6124db565b6103c56105bf366004613a11565b6124f6565b601054600160a01b90046001600160401b03166103c5565b6102766105ea366004613ec0565b61250a565b6102766105fd366004614924565b6125e2565b610276610610366004613ec0565b6126c6565b61061d610891565b8181600386866040516106319291906149d1565b9081526020016040518091039020918261064c929190614a64565b50818160405161065d9291906149d1565b604051809103902060008073__$e8d25bfa17c0068737354d2e5fba1521b0$__63c7ddc60688886040518363ffffffff1660e01b81526004016106a1929190614b4c565b602060405180830381865af41580156106be573d6000803e3d6000fd5b505050506040513d601f19601f820116820180604052508101906106e29190614b60565b815260208101919091526040016000205550505050565b6000806000600686866040516107109291906149d1565b908152604051908190036020019020600061076161073336889003880188614b79565b602081015190516fffffffffffffffff000000000000000060409190911b166001600160401b039091161790565b6001600160801b03168152602081019190915260400160002054968715159650945050505050565b600060028260e001518360c00151600001518460c001516020015160028660a001516040516107b89190614b95565b602060405180830381855afa1580156107d5573d6000803e3d6000fd5b5050506040513d601f19601f820116820180604052508101906107f89190614b60565b6040516001600160c01b031960c095861b8116602083015293851b841660288201529190931b9091166030820152603881019190915260580160408051601f198184030181529082905261084b91614b95565b602060405180830381855afa158015610868573d6000803e3d6000fd5b5050506040513d601f19601f8201168201806040525081019061088b9190614b60565b92915050565b6010546001600160a01b031633146108a857600080fd5b565b600f546001600160a01b031633146108c157600080fd5b601080546001600160a01b0319166001600160a01b0392909216919091179055565b60606108ed610891565b600e5460009084908490610909906001600160401b031661279b565b60405160200161091b93929190614bb1565b60408051601f19818403018152919052600e80549192506001600160401b0390911690600061094983614bf7565b91906101000a8154816001600160401b0302191690836001600160401b03160217905550507f601bfcc455d5d4d7738f8c6ac232e0d7cc9c31dab811f1d87c100af0b7fc3a208160405161099d9190613ead565b60405180910390a19392505050565b6109b4610891565b80600b86866040516109c79291906149d1565b908152602001604051809103902084846040516109e59291906149d1565b90815260405190819003602001902080546001600160401b039290921667ffffffffffffffff199092169190911790555050505050565b610a24610891565b601080546001600160401b03909216600160a01b0267ffffffffffffffff60a01b19909216919091179055565b610a596137ef565b600060078484604051610a6d9291906149d1565b908152604051908190036020019020600060078686604051610a909291906149d1565b9081526040519081900360200190206002015460ff166003811115610ab757610ab7613fb0565b1415816040518060a0016040529081600082018054610ad5906149e1565b80601f0160208091040260200160405190810160405280929190818152602001828054610b01906149e1565b8015610b4e5780601f10610b2357610100808354040283529160200191610b4e565b820191906000526020600020905b815481529060010190602001808311610b3157829003601f168201915b5050505050815260200160018201805480602002602001604051908101604052809291908181526020016000905b82821015610d195783829060005260206000209060020201604051806040016040529081600082018054610baf906149e1565b80601f0160208091040260200160405190810160405280929190818152602001828054610bdb906149e1565b8015610c285780601f10610bfd57610100808354040283529160200191610c28565b820191906000526020600020905b815481529060010190602001808311610c0b57829003601f168201915b5050505050815260200160018201805480602002602001604051908101604052809291908181526020016000905b82821015610d02578382906000526020600020018054610c75906149e1565b80601f0160208091040260200160405190810160405280929190818152602001828054610ca1906149e1565b8015610cee5780601f10610cc357610100808354040283529160200191610cee565b820191906000526020600020905b815481529060010190602001808311610cd157829003601f168201915b505050505081526020019060010190610c56565b505050508152505081526020019060010190610b7c565b50505090825250600282015460209091019060ff166003811115610d3f57610d3f613fb0565b6003811115610d5057610d50613fb0565b815260200160038201604051806060016040529081600082018054610d74906149e1565b80601f0160208091040260200160405190810160405280929190818152602001828054610da0906149e1565b8015610ded5780601f10610dc257610100808354040283529160200191610ded565b820191906000526020600020905b815481529060010190602001808311610dd057829003601f168201915b50505050508152602001600182018054610e06906149e1565b80601f0160208091040260200160405190810160405280929190818152602001828054610e32906149e1565b8015610e7f5780601f10610e5457610100808354040283529160200191610e7f565b820191906000526020600020905b815481529060010190602001808311610e6257829003601f168201915b5050505050815260200160028201604051806020016040529081600082018054610ea8906149e1565b80601f0160208091040260200160405190810160405280929190818152602001828054610ed4906149e1565b8015610f215780601f10610ef657610100808354040283529160200191610f21565b820191906000526020600020905b815481529060010190602001808311610f0457829003601f168201915b505050919092525050509052508152600691909101546001600160401b031660209091015293509150505b9250929050565b6000610f5d610891565b60005b600d8585604051610f729291906149d1565b9081526040519081900360200190205463ffffffff8216101561100657826001600160a01b0316600d8686604051610fab9291906149d1565b90815260200160405180910390208263ffffffff1681548110610fd057610fd0614c1d565b6000918252602090912001546001600160a01b031603610ff457600191505061100c565b80610ffe81614c33565b915050610f60565b50600090505b9392505050565b61101b610891565b805160405160079061102e908590614b95565b908152604051908190036020019020906110489082614c4c565b50806040015160078360405161105e9190614b95565b908152604051908190036020019020600201805460ff1916600183600381111561108a5761108a613fb0565b021790555080608001516007836040516110a49190614b95565b90815260405190819003602001812060060180546001600160401b039390931667ffffffffffffffff19909316929092179091556007906110e6908490614b95565b908152602001604051809103902060010160006111039190613822565b60005b8160200151518160ff1610156111b1576007836040516111269190614b95565b908152602001604051809103902060010182602001518260ff168151811061115057611150614c1d565b602090810291909101810151825460018101845560009384529190922082516002909202019081906111829082614c4c565b50602082810151805161119b9260018501920190613846565b50505080806111a990614d0b565b915050611106565b5080606001516007836040516111c79190614b95565b908152604051908190036020019020815160039091019081906111ea9082614c4c565b50602082015160018201906111ff9082614c4c565b5060408201518051600283019081906112189082614c4c565b505050905050611227816128f3565b8051906020012060008073__$e8d25bfa17c0068737354d2e5fba1521b0$__63a9dd3eb3866040518263ffffffff1660e01b81526004016112689190613ead565b602060405180830381865af4158015611285573d6000803e3d6000fd5b505050506040513d601f19601f820116820180604052508101906112a99190614b60565b81526020810191909152604001600020555050565b6112c661389c565b6000600886866040516112da9291906149d1565b908152602001604051809103902084846040516112f89291906149d1565b90815260405190819003602001902060006008888860405161131b9291906149d1565b908152602001604051809103902086866040516113399291906149d1565b9081526040519081900360200190205460ff16600481111561135d5761135d613fb0565b6040805160a0810190915283549290911415918390829060ff16600481111561138857611388613fb0565b600481111561139957611399613fb0565b81528154602090910190610100900460ff1660028111156113bc576113bc613fb0565b60028111156113cd576113cd613fb0565b8152602001600182016040518060400160405290816000820180546113f1906149e1565b80601f016020809104026020016040519081016040528092919081815260200182805461141d906149e1565b801561146a5780601f1061143f5761010080835404028352916020019161146a565b820191906000526020600020905b81548152906001019060200180831161144d57829003601f168201915b50505050508152602001600182018054611483906149e1565b80601f01602080910402602001604051908101604052809291908181526020018280546114af906149e1565b80156114fc5780601f106114d1576101008083540402835291602001916114fc565b820191906000526020600020905b8154815290600101906020018083116114df57829003601f168201915b505050505081525050815260200160038201805480602002602001604051908101604052809291908181526020016000905b828210156115da57838290600052602060002001805461154d906149e1565b80601f0160208091040260200160405190810160405280929190818152602001828054611579906149e1565b80156115c65780601f1061159b576101008083540402835291602001916115c6565b820191906000526020600020905b8154815290600101906020018083116115a957829003601f168201915b50505050508152602001906001019061152e565b5050505081526020016004820180546115f2906149e1565b80601f016020809104026020016040519081016040528092919081815260200182805461161e906149e1565b801561166b5780601f106116405761010080835404028352916020019161166b565b820191906000526020600020905b81548152906001019060200180831161164e57829003601f168201915b50505050508152505091509150915094509492505050565b61168b610891565b8060088460405161169c9190614b95565b9081526020016040518091039020836040516116b89190614b95565b90815260405190819003602001902081518154829060ff191660018360048111156116e5576116e5613fb0565b021790555060208201518154829061ff00191661010083600281111561170d5761170d613fb0565b0217905550604082015180516001830190819061172a9082614c4c565b506020820151600182019061173f9082614c4c565b5050506060820151805161175d916003840191602090910190613846565b50608082015160048201906117729082614c4c565b5090505061177f8161295b565b8051906020012060008073__$e8d25bfa17c0068737354d2e5fba1521b0$__63c6c9159c87876040518363ffffffff1660e01b81526004016117c2929190614d2a565b602060405180830381865af41580156117df573d6000803e3d6000fd5b505050506040513d601f19601f820116820180604052508101906118039190614b60565b8152602081019190915260400160002055505050565b6000600b858560405161182d9291906149d1565b9081526020016040518091039020838360405161184b9291906149d1565b908152604051908190036020019020546001600160401b03169050949350505050565b6060611878610891565b600e5460009061189790600160801b90046001600160401b031661279b565b6040516020016118a79190614d4f565b60408051808303601f19018152919052600e8054919250600160801b9091046001600160401b03169060106118db83614bf7565b91906101000a8154816001600160401b0302191690836001600160401b03160217905550507f01fb9b8778b6fb840b058bb971dea3ba81c167b010a0216afe600826884f9ba78160405161192f9190613ead565b60405180910390a1919050565b60006009858560405161182d9291906149d1565b6000600c86866040516119649291906149d1565b908152602001604051809103902084846040516119829291906149d1565b908152604080519182900360209081019092206001600160401b0385166000908152925290205460ff16600114905095945050505050565b600080600080600073__$e8d25bfa17c0068737354d2e5fba1521b0$__63dae1b0f88b8b8b8b8b6040518663ffffffff1660e01b8152600401611a01959493929190614d7f565b602060405180830381865af4158015611a1e573d6000803e3d6000fd5b505050506040513d601f19601f82011682018060405250810190611a429190614b60565b81526020810191909152604001600020549889151598509650505050505050565b6060600080611a7a61073336869003860186614b79565b905060048686604051611a8e9291906149d1565b9081526040805191829003602090810183206001600160801b0385166000908152915290812091600490611ac5908a908a906149d1565b90815260408051602092819003830190206001600160801b0386166000908152925290208054611af4906149e1565b905011818054611b03906149e1565b80601f0160208091040260200160405190810160405280929190818152602001828054611b2f906149e1565b8015611b7c5780601f10611b5157610100808354040283529160200191611b7c565b820191906000526020600020905b815481529060010190602001808311611b5f57829003601f168201915b505050505091509250925050935093915050565b600080600080600073__$e8d25bfa17c0068737354d2e5fba1521b0$__63e334f11b8b8b8b8b8b6040518663ffffffff1660e01b8152600401611a01959493929190614d7f565b6060600060038484604051611bed9291906149d1565b9081526020016040518091039020600060038686604051611c0f9291906149d1565b90815260200160405180910390208054611c28906149e1565b905011818054611c37906149e1565b80601f0160208091040260200160405190810160405280929190818152602001828054611c63906149e1565b8015611cb05780601f10611c8557610100808354040283529160200191611cb0565b820191906000526020600020905b815481529060010190602001808311611c9357829003601f168201915b50505050509150915091509250929050565b611cca610891565b60028484604051611cdc9291906149d1565b90815260200160405180910390208054611cf5906149e1565b159050611d495760405162461bcd60e51b815260206004820152601760248201527f636c69656e74496420616c72656164792065786973747300000000000000000060448201526064015b60405180910390fd5b80611da25760405162461bcd60e51b815260206004820152602360248201527f636c69656e7454797065206d757374206e6f7420626520656d70747920737472604482015262696e6760e81b6064820152608401611d40565b818160028686604051611db69291906149d1565b90815260200160405180910390209182611dd1929190614a64565b5050505050565b606060028383604051611dec9291906149d1565b90815260200160405180910390208054611e05906149e1565b80601f0160208091040260200160405190810160405280929190818152602001828054611e31906149e1565b8015611e7e5780601f10611e5357610100808354040283529160200191611e7e565b820191906000526020600020905b815481529060010190602001808311611e6157829003601f168201915b5050505050905092915050565b600060028260405161084b9190614b95565b611ea5610891565b60008073__$e8d25bfa17c0068737354d2e5fba1521b0$__63dae1b0f888888888886040518663ffffffff1660e01b8152600401611ee7959493929190614d7f565b602060405180830381865af4158015611f04573d6000803e3d6000fd5b505050506040513d601f19601f82011682018060405250810190611f289190614b60565b8152602001908152602001600020600090555050505050565b611f49610891565b8060058585604051611f5c9291906149d1565b9081526040519081900360200190206000611f7f61073336879003870187614b79565b6001600160801b0316815260208101919091526040016000205550505050565b611fa7610891565b60006001600160a01b031660018484604051611fc49291906149d1565b908152604051908190036020019020546001600160a01b03161461202a5760405162461bcd60e51b815260206004820152601960248201527f636c69656e74496d706c20616c726561647920657869737473000000000000006044820152606401611d40565b806001848460405161203d9291906149d1565b90815260405190819003602001902080546001600160a01b03929092166001600160a01b0319909216919091179055505050565b612079610891565b8060068585604051611f5c9291906149d1565b600080600d84846040516120a19291906149d1565b908152604051908190036020019020546000036120c357506000905080610f4c565b600d84846040516120d59291906149d1565b90815260200160405180910390206000815481106120f5576120f5614c1d565b6000918252602090912001546001600160a01b0316946001945092505050565b61211d610891565b61212681610789565b60008073__$e8d25bfa17c0068737354d2e5fba1521b0$__63dae1b0f88888886040518463ffffffff1660e01b81526004016106a193929190614dc2565b61216c610891565b60005b600d84846040516121819291906149d1565b9081526040519081900360200190205463ffffffff8216101561221057816001600160a01b0316600d85856040516121ba9291906149d1565b90815260200160405180910390208263ffffffff16815481106121df576121df614c1d565b6000918252602090912001546001600160a01b0316036121fe57600080fd5b8061220881614c33565b91505061216f565b50600d83836040516122239291906149d1565b90815260405160209181900382019020805460018101825560009182529190200180546001600160a01b0319166001600160a01b03929092169190911790555050565b6000806001848460405161227b9291906149d1565b908152604051908190036020018120546001600160a01b0316906000906001906122a890889088906149d1565b908152604051908190036020019020549193506001600160a01b03909116141590509250929050565b6000806000600586866040516107109291906149d1565b6122f0610891565b8181600487876040516123049291906149d1565b908152604051908190036020019020600061232761073336899003890189614b79565b6001600160801b0316815260208101919091526040016000209161234c919083614a64565b50818160405161235d9291906149d1565b60405190819003902060008073__$e8d25bfa17c0068737354d2e5fba1521b0$__637af6aa78898961239260208b018b613f40565b6123a260408c0160208d01613f40565b6040518563ffffffff1660e01b81526004016123c19493929190614e01565b602060405180830381865af41580156123de573d6000803e3d6000fd5b505050506040513d601f19601f820116820180604052508101906124029190614b60565b81526020810191909152604001600020555050505050565b6060612424610891565b600e5460009061244390600160401b90046001600160401b031661279b565b6040516020016124539190614e36565b60408051808303601f19018152919052600e8054919250600160401b9091046001600160401b031690600861248783614bf7565b91906101000a8154816001600160401b0302191690836001600160401b03160217905550507fbcf8ae1e9272e040280c9adfc8033bb831043a9959e37ef4af1f7e8ded16321b8160405161192f9190613ead565b6124e3610891565b80600986866040516109c79291906149d1565b6000600a858560405161182d9291906149d1565b612512610891565b6001600c86866040516125269291906149d1565b908152602001604051809103902084846040516125449291906149d1565b90815260408051602092819003830181206001600160401b038616600090815290845291909120805460ff191660ff9490941693909317909255600160f81b908201526021016040516020818303038152906040528051906020012060008073__$e8d25bfa17c0068737354d2e5fba1521b0$__6383c28eac89898989896040518663ffffffff1660e01b81526004016123c1959493929190614d7f565b6125ea610891565b61262982828080601f016020809104026020016040519081016040528093929190818152602001838380828437600092019190915250611e8b92505050565b60008073__$e8d25bfa17c0068737354d2e5fba1521b0$__63e334f11b8b8b8b8b8b6040518663ffffffff1660e01b815260040161266b959493929190614d7f565b602060405180830381865af4158015612688573d6000803e3d6000fd5b505050506040513d601f19601f820116820180604052508101906126ac9190614b60565b815260208101919091526040016000205550505050505050565b6126ce610891565b80600a86866040516126e19291906149d1565b908152602001604051809103902084846040516126ff9291906149d1565b90815260405160209181900382018120805467ffffffffffffffff19166001600160401b0394909416939093179092556001600160c01b031960c084901b16908201526028016040516020818303038152906040528051906020012060008073__$e8d25bfa17c0068737354d2e5fba1521b0$__63fceb03ab898989896040518563ffffffff1660e01b81526004016123c19493929190614e69565b6060816001600160401b03166000036127cb5750506040805180820190915260018152600360fc1b602082015290565b8160005b6001600160401b038216156127fe57806127e881614bf7565b91506127f79050600a83614e90565b91506127cf565b6000816001600160401b03166001600160401b0381111561282157612821613ae8565b6040519080825280601f01601f19166020018201604052801561284b576020820181803683370190505b509050815b6001600160401b038616156128ea5761286a600182614ec4565b90506000612879600a88614e90565b61288490600a614ee4565b61288e9088614ec4565b612899906030614f0f565b905060008160f81b90508084846001600160401b0316815181106128bf576128bf614c1d565b60200101906001600160f81b031916908160001a9053506128e1600a89614e90565b97505050612850565b50949350505050565b60606000612900836129ba565b6001600160401b0381111561291757612917613ae8565b6040519080825280601f01601f191660200182016040528015612941576020820181803683370190505b509050600061295284602084612acd565b82525092915050565b6060600061296883612c83565b6001600160401b0381111561297f5761297f613ae8565b6040519080825280601f01601f1916602001820160405280156129a9576020820181803683370190505b509050600061295284602084612d6d565b60008060006129cd846000015151612f18565b6129d8906001614f28565b6129e29083614f28565b9150600090505b836020015151811015612a4d57612a24612a1f85602001518381518110612a1257612a12614c1d565b6020026020010151612f2d565b612f18565b612a2f906001614f28565b612a399083614f28565b915080612a4581614f3b565b9150506129e9565b612a65612a5d8560400151612fb2565b60030b613037565b612a70906001614f28565b612a7a9083614f28565b9150612a8c612a1f8560600151613063565b612a97906001614f28565b612aa19083614f28565b9150612ab084608001516130d5565b612abb906001614f28565b612ac59083614f28565b949350505050565b82515160009083908190839015612b1457612aec6001600284886130e9565b612af69083614f28565b9150612b0787600001518387613109565b612b119083614f28565b91505b60208701515115612b8f575060005b866020015151811015612b8f57612b3d60028084886130e9565b612b479083614f28565b9150612b7187602001518281518110612b6257612b62614c1d565b60200260200101518387613116565b612b7b9083614f28565b915080612b8781614f3b565b915050612b23565b86604001516003811115612ba557612ba5613fb0565b15612bee57612bb86003600084886130e9565b612bc29083614f28565b91506000612bd38860400151612fb2565b9050612be08184886131d7565b612bea9084614f28565b9250505b612bfc6004600284886130e9565b612c069083614f28565b9150612c17876060015183876131e4565b612c219083614f28565b915086608001516001600160401b0316600014612c6e57612c466005600084886130e9565b612c509083614f28565b9150612c6187608001518387613246565b612c6b9083614f28565b91505b612c788383614f54565b979650505050505050565b6000806000612c98612a5d856000015161325c565b612ca3906001614f28565b612cad9083614f28565b9150612cbf612a5d8560200151613302565b612cca906001614f28565b612cd49083614f28565b9150612ce6612a1f8560400151613366565b612cf1906001614f28565b612cfb9083614f28565b9150600090505b836060015151811015612d5f57612d3684606001518281518110612d2857612d28614c1d565b602002602001015151612f18565b612d41906001614f28565b612d4b9083614f28565b915080612d5781614f3b565b915050612d02565b612ab0846080015151612f18565b82516000908390819083906004811115612d8957612d89613fb0565b15612dd257612d9c6001600084886130e9565b612da69083614f28565b91506000612db7886000015161325c565b9050612dc48184886131d7565b612dce9084614f28565b9250505b86602001516002811115612de857612de8613fb0565b15612e3157612dfb6002600084886130e9565b612e059083614f28565b91506000612e168860200151613302565b9050612e238184886131d7565b612e2d9084614f28565b9250505b612e3f6003600284886130e9565b612e499083614f28565b9150612e5a8760400151838761339c565b612e649083614f28565b9150866060015151600014612ee4575060005b866060015151811015612ee457612e926004600284886130e9565b612e9c9083614f28565b9150612ec687606001518281518110612eb757612eb7614c1d565b60200260200101518387613109565b612ed09083614f28565b915080612edc81614f3b565b915050612e77565b60808701515115612c6e57612efd6005600284886130e9565b612f079083614f28565b9150612c6187608001518387613109565b6000612f23826133fe565b61088b9083614f28565b6000806000612f40846000015151612f18565b612f4b906001614f28565b612f559083614f28565b9150600090505b836020015151811015612fab57612f8284602001518281518110612d2857612d28614c1d565b612f8d906001614f28565b612f979083614f28565b915080612fa381614f3b565b915050612f5c565b5092915050565b600080826003811115612fc757612fc7613fb0565b03612fd457506000919050565b6001826003811115612fe857612fe8613fb0565b03612ff557506001919050565b600282600381111561300957613009613fb0565b0361301657506002919050565b600382600381111561302a5761302a613fb0565b0361025e57506003919050565b6000808260070b121561304c5750600a919050565b61088b826001600160401b03166133fe565b919050565b600080613074836000015151612f18565b61307f906001614f28565b6130899082614f28565b9050613099836020015151612f18565b6130a4906001614f28565b6130ae9082614f28565b90506130c0612a1f846040015161341b565b6130cb906001614f28565b61100c9082614f28565b600061088b826001600160401b03166133fe565b60006008850260078516176130ff81858561342c565b9695505050505050565b6000612ac584848461346f565b600082808261312487612f2d565b6001600160401b0381111561313b5761313b613ae8565b6040519080825280601f01601f191660200182016040528015613165576020820181803683370190505b509050808560006131788a6020856134ba565b905061318581868a61342c565b61318f9086614f28565b94506131af61319f846020614f28565b6131a98785614f28565b8361356d565b6131b98186614f28565b9450606093506131c98686614f54565b9a9950505050505050505050565b6000612ac58484846135ec565b60008280826131f287613063565b6001600160401b0381111561320957613209613ae8565b6040519080825280601f01601f191660200182016040528015613233576020820181803683370190505b509050808560006131788a60208561360c565b6000612ac5846001600160401b0316848461342c565b60008082600481111561327157613271613fb0565b0361327e57506000919050565b600182600481111561329257613292613fb0565b0361329f57506001919050565b60028260048111156132b3576132b3613fb0565b036132c057506002919050565b60038260048111156132d4576132d4613fb0565b036132e157506003919050565b60048260048111156132f5576132f5613fb0565b0361025e57506004919050565b60008082600281111561331757613317613fb0565b0361332457506000919050565b600182600281111561333857613338613fb0565b0361334557506001919050565b600282600281111561335957613359613fb0565b0361025e57506002919050565b600080613377836000015151612f18565b613382906001614f28565b61338c9082614f28565b90506130c0836020015151612f18565b60008280826133aa87613366565b6001600160401b038111156133c1576133c1613ae8565b6040519080825280601f01601f1916602001820160405280156133eb576020820181803683370190505b509050808560006131788a6020856136d0565b60071c600060015b821561088b5760079290921c91600101613406565b6000806130c0836000015151612f18565b600080828401607f86165b600787901c1561345f578060801782535060079590951c9460019182019101607f8616613437565b8082535050600101949350505050565b82516000908161348082868661342c565b905060008186018501602088015b848310156134ad57805160001a8253600192830192918201910161348e565b50612c7890508183614f28565b82515160009083908190839015613501576134d96001600284886130e9565b6134e39083614f28565b91506134f487600001518387613109565b6134fe9083614f28565b91505b60208701515115612c6e575060005b866020015151811015612c6e5761352a60028084886130e9565b6135349083614f28565b915061354f87602001518281518110612eb757612eb7614c1d565b6135599083614f28565b91508061356581614f3b565b915050613510565b8060000361357a57505050565b60208111156135b35782518252613592602083614f28565b915061359f602084614f28565b92506135ac602082614f54565b905061357a565b600060016135c2836020614f54565b6135ce9061010061504b565b6135d89190614f54565b935183518516941916939093179091525050565b6000836136036001600160401b038216858561342c565b95945050505050565b8251516000908390819015613651576136296001600283876130e9565b6136339082614f28565b905061364486600001518286613109565b61364e9082614f28565b90505b602086015151156136915761366960028083876130e9565b6136739082614f28565b905061368486602001518286613109565b61368e9082614f28565b90505b61369f6003600283876130e9565b6136a99082614f28565b90506136ba86604001518286613752565b6136c49082614f28565b90506130ff8282614f54565b8251516000908390819015613715576136ed6001600283876130e9565b6136f79082614f28565b905061370886600001518286613109565b6137129082614f28565b90505b602086015151156137485761372d60028083876130e9565b6137379082614f28565b90506136ba86602001518286613109565b6130ff8282614f54565b60008280826137608761341b565b6001600160401b0381111561377757613777613ae8565b6040519080825280601f01601f1916602001820160405280156137a1576020820181803683370190505b5090506000819050600086905060006131788a6020868251516000908390819015613748576137d46001600283876130e9565b6137de9082614f28565b90506136ba8660000151828661346f565b6040805160a08101825260608082526020820152908101600081526020016138156138e7565b8152600060209091015290565b5080546000825560020290600052602060002090810190613843919061391b565b50565b82805482825590600052602060002090810192821561388c579160200282015b8281111561388c578251829061387c9082614c4c565b5091602001919060010190613866565b50613898929150613946565b5090565b6040805160a081019091528060008152602001600081526020016138d3604051806040016040528060608152602001606081525090565b815260200160608152602001606081525090565b604051806060016040528060608152602001606081526020016139166040518060200160405280606081525090565b905290565b8082111561389857600061392f8282613963565b61393d60018301600061399d565b5060020161391b565b8082111561389857600061395a8282613963565b50600101613946565b50805461396f906149e1565b6000825580601f1061397f575050565b601f01602090049060005260206000209081019061384391906139bb565b50805460008255906000526020600020908101906138439190613946565b5b8082111561389857600081556001016139bc565b60008083601f8401126139e257600080fd5b5081356001600160401b038111156139f957600080fd5b602083019150836020828501011115610f4c57600080fd5b60008060008060408587031215613a2757600080fd5b84356001600160401b0380821115613a3e57600080fd5b613a4a888389016139d0565b90965094506020870135915080821115613a6357600080fd5b50613a70878288016139d0565b95989497509550505050565b600060408284031215613a8e57600080fd5b50919050565b600080600060608486031215613aa957600080fd5b83356001600160401b03811115613abf57600080fd5b613acb868287016139d0565b9094509250613adf90508560208601613a7c565b90509250925092565b634e487b7160e01b600052604160045260246000fd5b604080519081016001600160401b0381118282101715613b2057613b20613ae8565b60405290565b60405161010081016001600160401b0381118282101715613b2057613b20613ae8565b604051606081016001600160401b0381118282101715613b2057613b20613ae8565b604051602081016001600160401b0381118282101715613b2057613b20613ae8565b60405160a081016001600160401b0381118282101715613b2057613b20613ae8565b604051601f8201601f191681016001600160401b0381118282101715613bd757613bd7613ae8565b604052919050565b80356001600160401b038116811461305e57600080fd5b600082601f830112613c0757600080fd5b81356001600160401b03811115613c2057613c20613ae8565b613c33601f8201601f1916602001613baf565b818152846020838601011115613c4857600080fd5b816020850160208301376000918101602001919091529392505050565b600060408284031215613c7757600080fd5b613c7f613afe565b9050613c8a82613bdf565b8152613c9860208301613bdf565b602082015292915050565b60006101208284031215613cb657600080fd5b613cbe613b26565b9050613cc982613bdf565b815260208201356001600160401b0380821115613ce557600080fd5b613cf185838601613bf6565b60208401526040840135915080821115613d0a57600080fd5b613d1685838601613bf6565b60408401526060840135915080821115613d2f57600080fd5b613d3b85838601613bf6565b60608401526080840135915080821115613d5457600080fd5b613d6085838601613bf6565b608084015260a0840135915080821115613d7957600080fd5b50613d8684828501613bf6565b60a083015250613d998360c08401613c65565b60c0820152613dab6101008301613bdf565b60e082015292915050565b600060208284031215613dc857600080fd5b81356001600160401b03811115613dde57600080fd5b612ac584828501613ca3565b80356001600160a01b038116811461305e57600080fd5b600060208284031215613e1357600080fd5b61100c82613dea565b60008060208385031215613e2f57600080fd5b82356001600160401b03811115613e4557600080fd5b613e51858286016139d0565b90969095509350505050565b60005b83811015613e78578181015183820152602001613e60565b50506000910152565b60008151808452613e99816020860160208601613e5d565b601f01601f19169290920160200192915050565b60208152600061100c6020830184613e81565b600080600080600060608688031215613ed857600080fd5b85356001600160401b0380821115613eef57600080fd5b613efb89838a016139d0565b90975095506020880135915080821115613f1457600080fd5b50613f21888289016139d0565b9094509250613f34905060408701613bdf565b90509295509295909350565b600060208284031215613f5257600080fd5b61100c82613bdf565b600081518084526020808501808196508360051b8101915082860160005b85811015613fa3578284038952613f91848351613e81565b98850198935090840190600101613f79565b5091979650505050505050565b634e487b7160e01b600052602160045260246000fd5b60048110613fd657613fd6613fb0565b9052565b6000815160608452613fef6060850182613e81565b9050602083015184820360208601526140088282613e81565b9150506040830151848203604086015280519050602082526136036020830182613e81565b60006040808352845160a08285015261404960e0850182613e81565b9050602080870151603f19808785030160608801528382518086528486019150848160051b870101858501945060005b828110156140c957878203601f19018452855180518a845261409d8b850182613e81565b91890151848303858b01529190506140b58183613f5b565b978901979589019593505050600101614079565b50968b0151966140dc60808b0189613fc6565b60608c01519750838a82030160a08b01526140f78189613fda565b975050505050506080870151915061411a60c08601836001600160401b03169052565b82935061412a8186018715159052565b5050509392505050565b60008060006040848603121561414957600080fd5b83356001600160401b0381111561415f57600080fd5b61416b868287016139d0565b9094509250613adf905060208501613dea565b60006001600160401b0382111561419757614197613ae8565b5060051b60200190565b600082601f8301126141b257600080fd5b813560206141c76141c28361417e565b613baf565b82815260059290921b840181019181810190868411156141e657600080fd5b8286015b848110156142255780356001600160401b038111156142095760008081fd5b6142178986838b0101613bf6565b8452509183019183016141ea565b509695505050505050565b600082601f83011261424157600080fd5b813560206142516141c28361417e565b82815260059290921b8401810191818101908684111561427057600080fd5b8286015b848110156142255780356001600160401b03808211156142945760008081fd5b908801906040828b03601f19018113156142ae5760008081fd5b6142b6613afe565b87840135838111156142c85760008081fd5b6142d68d8a83880101613bf6565b8252509083013590828211156142ec5760008081fd5b6142fa8c89848701016141a1565b818901528652505050918301918301614274565b80356004811061305e57600080fd5b60006060828403121561432f57600080fd5b614337613b49565b905081356001600160401b038082111561435057600080fd5b61435c85838601613bf6565b8352602084013591508082111561437257600080fd5b61437e85838601613bf6565b6020840152604084013591508082111561439757600080fd5b90830190602082860312156143ab57600080fd5b6143b3613b6b565b8235828111156143c257600080fd5b6143ce87828601613bf6565b825250604084015250909392505050565b600080604083850312156143f257600080fd5b82356001600160401b038082111561440957600080fd5b61441586838701613bf6565b9350602085013591508082111561442b57600080fd5b9084019060a0828703121561443f57600080fd5b614447613b8d565b82358281111561445657600080fd5b61446288828601613bf6565b82525060208301358281111561447757600080fd5b61448388828601614230565b6020830152506144956040840161430e565b60408201526060830135828111156144ac57600080fd5b6144b88882860161431d565b6060830152506144ca60808401613bdf565b60808201528093505050509250929050565b6040815260008351600581106144f4576144f4613fb0565b604083015260208401516003811061450e5761450e613fb0565b80606084015250604084015160a060808401528051604060e0850152614538610120850182613e81565b90506020820151915060df19848203016101008501526145588183613e81565b9150506060850151603f19808584030160a08601526145778383613f5b565b925060808701519150808584030160c0860152506145958282613e81565b9250505061100c602083018415159052565b80356005811061305e57600080fd5b80356003811061305e57600080fd5b6000604082840312156145d757600080fd5b6145df613afe565b905081356001600160401b03808211156145f857600080fd5b61460485838601613bf6565b8352602084013591508082111561461a57600080fd5b5061462784828501613bf6565b60208301525092915050565b60008060006060848603121561464857600080fd5b83356001600160401b038082111561465f57600080fd5b61466b87838801613bf6565b9450602086013591508082111561468157600080fd5b61468d87838801613bf6565b935060408601359150808211156146a357600080fd5b9085019060a082880312156146b757600080fd5b6146bf613b8d565b6146c8836145a7565b81526146d6602084016145b6565b60208201526040830135828111156146ed57600080fd5b6146f9898286016145c5565b60408301525060608301358281111561471157600080fd5b61471d898286016141a1565b60608301525060808301358281111561473557600080fd5b61474189828601613bf6565b6080830152508093505050509250925092565b6040815260006147676040830185613e81565b905082151560208301529392505050565b60006020828403121561478a57600080fd5b81356001600160401b038111156147a057600080fd5b612ac584828501613bf6565b600080600080608085870312156147c257600080fd5b84356001600160401b038111156147d857600080fd5b6147e4878288016139d0565b90955093506147f890508660208701613a7c565b9396929550929360600135925050565b6000806000806080858703121561481e57600080fd5b84356001600160401b038082111561483557600080fd5b61484188838901613bf6565b9550602087013591508082111561485757600080fd5b61486388838901613bf6565b945061487160408801613bdf565b9350606087013591508082111561488757600080fd5b5061489487828801613ca3565b91505092959194509250565b6000806000806000608086880312156148b857600080fd5b85356001600160401b03808211156148cf57600080fd5b6148db89838a016139d0565b90975095508591506148f08960208a01613a7c565b9450606088013591508082111561490657600080fd5b50614913888289016139d0565b969995985093965092949392505050565b60008060008060008060006080888a03121561493f57600080fd5b87356001600160401b038082111561495657600080fd5b6149628b838c016139d0565b909950975060208a013591508082111561497b57600080fd5b6149878b838c016139d0565b909750955085915061499b60408b01613bdf565b945060608a01359150808211156149b157600080fd5b506149be8a828b016139d0565b989b979a50959850939692959293505050565b8183823760009101908152919050565b600181811c908216806149f557607f821691505b602082108103613a8e57634e487b7160e01b600052602260045260246000fd5b601f821115614a5f57600081815260208120601f850160051c81016020861015614a3c5750805b601f850160051c820191505b81811015614a5b57828155600101614a48565b5050505b505050565b6001600160401b03831115614a7b57614a7b613ae8565b614a8f83614a8983546149e1565b83614a15565b6000601f841160018114614ac35760008515614aab5750838201355b600019600387901b1c1916600186901b178355611dd1565b600083815260209020601f19861690835b82811015614af45786850135825560209485019460019092019101614ad4565b5086821015614b115760001960f88860031b161c19848701351681555b505060018560011b0183555050505050565b81835281816020850137506000828201602090810191909152601f909101601f19169091010190565b602081526000612ac5602083018486614b23565b600060208284031215614b7257600080fd5b5051919050565b600060408284031215614b8b57600080fd5b61100c8383613c65565b60008251614ba7818460208701613e5d565b9190910192915050565b828482376000838201602d60f81b81528351614bd4816001840160208801613e5d565b0160010195945050505050565b634e487b7160e01b600052601160045260246000fd5b60006001600160401b03808316818103614c1357614c13614be1565b6001019392505050565b634e487b7160e01b600052603260045260246000fd5b600063ffffffff808316818103614c1357614c13614be1565b81516001600160401b03811115614c6557614c65613ae8565b614c7981614c7384546149e1565b84614a15565b602080601f831160018114614cae5760008415614c965750858301515b600019600386901b1c1916600185901b178555614a5b565b600085815260208120601f198616915b82811015614cdd57888601518255948401946001909101908401614cbe565b5085821015614cfb5787850151600019600388901b60f8161c191681555b5050505050600190811b01905550565b600060ff821660ff8103614d2157614d21614be1565b60010192915050565b604081526000614d3d6040830185613e81565b82810360208401526136038185613e81565b676368616e6e656c2d60c01b815260008251614d72816008850160208701613e5d565b9190910160080192915050565b606081526000614d93606083018789614b23565b8281036020840152614da6818688614b23565b9150506001600160401b03831660408301529695505050505050565b606081526000614dd56060830186613e81565b8281036020840152614de78186613e81565b9150506001600160401b0383166040830152949350505050565b606081526000614e15606083018688614b23565b6001600160401b039485166020840152929093166040909101529392505050565b6a636f6e6e656374696f6e2d60a81b815260008251614e5c81600b850160208701613e5d565b91909101600b0192915050565b604081526000614e7d604083018688614b23565b8281036020840152612c78818587614b23565b60006001600160401b0380841680614eb857634e487b7160e01b600052601260045260246000fd5b92169190910492915050565b6001600160401b03828116828216039080821115612fab57612fab614be1565b6001600160401b03818116838216028082169190828114614f0757614f07614be1565b505092915050565b60ff818116838216019081111561088b5761088b614be1565b8082018082111561088b5761088b614be1565b600060018201614f4d57614f4d614be1565b5060010190565b8181038181111561088b5761088b614be1565b600181815b80851115614fa2578160001904821115614f8857614f88614be1565b80851615614f9557918102915b93841c9390800290614f6c565b509250929050565b600082614fb95750600161088b565b81614fc65750600061088b565b8160018114614fdc5760028114614fe657615002565b600191505061088b565b60ff841115614ff757614ff7614be1565b50506001821b61088b565b5060208310610133831016604e8410600b8410161715615025575081810a61088b565b61502f8383614f67565b806000190482111561504357615043614be1565b029392505050565b600061100c8383614faa56fea264697066735822122070bdb83c53f2e378508e900e955a520910fbd0c6b9b325691705c70690ffeed464736f6c63430008150033",
    "linkReferences": {
      "src/ibc/core/IBCIdentifier.sol": {
        "IBCIdentifier": [
          {
            "start": 1692,
            "length": 20
          },
          {
            "start": 4709,
            "length": 20
          },
          {
            "start": 6077,
            "length": 20
          },
          {
            "start": 6646,
            "length": 20
          },
          {
            "start": 7116,
            "length": 20
          },
          {
            "start": 7900,
            "length": 20
          },
          {
            "start": 8541,
            "length": 20
          },
          {
            "start": 9117,
            "length": 20
          },
          {
            "start": 9687,
            "length": 20
          },
          {
            "start": 9824,
            "length": 20
          },
          {
            "start": 10130,
            "length": 20
          }
        ]
      }
    }
  },
  "methodIdentifiers": {
    "authenticateCapability(bytes,address)": "2d46858f",
    "claimCapability(bytes,address)": "be3d6e92",
    "deletePacketCommitment(string,string,uint64)": "94dcb4c6",
    "generateChannelIdentifier()": "53ccd1c8",
    "generateClientIdentifier(string)": "22c99536",
    "generateConnectionIdentifier()": "d9e73f50",
    "getChannel(string,string)": "3000217a",
    "getClientImpl(string)": "bfe7aa66",
    "getClientState(string)": "76c81c42",
    "getClientType(string)": "84515f5d",
    "getConnection(string)": "27711a69",
    "getConsensusState(string,(uint64,uint64))": "6cf44bf4",
    "getExpectedTimePerBlock()": "ec75d829",
    "getIBCModule()": "d836028f",
    "getModuleOwner(bytes)": "ace6cfb7",
    "getNextSequenceAck(string,string)": "4e08c6f3",
    "getNextSequenceRecv(string,string)": "e211bb06",
    "getNextSequenceSend(string,string)": "582418b6",
    "getPacketAcknowledgementCommitment(string,string,uint64)": "71f56c59",
    "getPacketCommitment(string,string,uint64)": "61fc5e7b",
    "getProcessedHeight(string,(uint64,uint64))": "1172938a",
    "getProcessedTime(string,(uint64,uint64))": "c040ff75",
    "hasPacketReceipt(string,string,uint64)": "5a9afac3",
    "makePacketAcknowledgementCommitment(bytes)": "8a889658",
    "makePacketCommitment((uint64,string,string,string,string,bytes,(uint64,uint64),uint64))": "12a68750",
    "onlyIBCModule()": "1649a4f7",
    "setChannel(string,string,(uint8,uint8,(string,string),string[],string))": "3564d550",
    "setClientImpl(string,address)": "9d0b7650",
    "setClientState(string,bytes)": "0838f56d",
    "setClientType(string,string)": "78338a17",
    "setConnection(string,(string,(string,string[])[],uint8,(string,string,(bytes)),uint64))": "2dbe1450",
    "setConsensusState(string,(uint64,uint64),bytes)": "c48baca4",
    "setExpectedTimePerBlock(uint64)": "27184c13",
    "setIBCModule(address)": "1e742f32",
    "setNextSequenceAck(string,string,uint64)": "24fe5ee8",
    "setNextSequenceRecv(string,string,uint64)": "ff171745",
    "setNextSequenceSend(string,string,uint64)": "ddc090dd",
    "setPacketAcknowledgementCommitment(string,string,uint64,bytes)": "f81cc9e1",
    "setPacketCommitment(string,string,uint64,(uint64,string,string,string,string,bytes,(uint64,uint64),uint64))": "b7ccdc57",
    "setPacketReceipt(string,string,uint64)": "f2a47da3",
    "setProcessedHeight(string,(uint64,uint64),uint256)": "abadb184",
    "setProcessedTime(string,(uint64,uint64),uint256)": "9760630e"
  },
  "id": 33
}