{
  "abi": [
    {
      "inputs": [
        {
          "internalType": "contract IBCHost",
          "name": "",
          "type": "address"
        },
        {
          "internalType": "string",
          "name": "",
          "type": "string"
        },
        {
          "internalType": "bytes",
          "name": "clientStateBytes",
          "type": "bytes"
        },
        {
          "internalType": "bytes",
          "name": "headerBytes",
          "type": "bytes"
        }
      ],
      "name": "checkHeaderAndUpdateState",
      "outputs": [
        {
          "internalType": "bytes",
          "name": "newClientStateBytes",
          "type": "bytes"
        },
        {
          "internalType": "bytes",
          "name": "newConsensusStateBytes",
          "type": "bytes"
        },
        {
          "components": [
            {
              "internalType": "uint64",
              "name": "revision_number",
              "type": "uint64"
            },
            {
              "internalType": "uint64",
              "name": "revision_height",
              "type": "uint64"
            }
          ],
          "internalType": "struct Height.Data",
          "name": "height",
          "type": "tuple"
        }
      ],
      "stateMutability": "pure",
      "type": "function"
    },
    {
      "inputs": [
        {
          "internalType": "contract IBCHost",
          "name": "host",
          "type": "address"
        },
        {
          "internalType": "string",
          "name": "clientId",
          "type": "string"
        }
      ],
      "name": "getClientState",
      "outputs": [
        {
          "components": [
            {
              "components": [
                {
                  "internalType": "uint64",
                  "name": "revision_number",
                  "type": "uint64"
                },
                {
                  "internalType": "uint64",
                  "name": "revision_height",
                  "type": "uint64"
                }
              ],
              "internalType": "struct Height.Data",
              "name": "latest_height",
              "type": "tuple"
            }
          ],
          "internalType": "struct IbcLightclientsMockV1ClientState.Data",
          "name": "clientState",
          "type": "tuple"
        },
        {
          "internalType": "bool",
          "name": "found",
          "type": "bool"
        }
      ],
      "stateMutability": "view",
      "type": "function"
    },
    {
      "inputs": [
        {
          "internalType": "contract IBCHost",
          "name": "host",
          "type": "address"
        },
        {
          "internalType": "string",
          "name": "clientId",
          "type": "string"
        },
        {
          "components": [
            {
              "internalType": "uint64",
              "name": "revision_number",
              "type": "uint64"
            },
            {
              "internalType": "uint64",
              "name": "revision_height",
              "type": "uint64"
            }
          ],
          "internalType": "struct Height.Data",
          "name": "height",
          "type": "tuple"
        }
      ],
      "name": "getConsensusState",
      "outputs": [
        {
          "components": [
            {
              "internalType": "uint64",
              "name": "timestamp",
              "type": "uint64"
            }
          ],
          "internalType": "struct IbcLightclientsMockV1ConsensusState.Data",
          "name": "consensusState",
          "type": "tuple"
        },
        {
          "internalType": "bool",
          "name": "found",
          "type": "bool"
        }
      ],
      "stateMutability": "view",
      "type": "function"
    },
    {
      "inputs": [
        {
          "internalType": "contract IBCHost",
          "name": "host",
          "type": "address"
        },
        {
          "internalType": "string",
          "name": "clientId",
          "type": "string"
        }
      ],
      "name": "getLatestHeight",
      "outputs": [
        {
          "components": [
            {
              "internalType": "uint64",
              "name": "revision_number",
              "type": "uint64"
            },
            {
              "internalType": "uint64",
              "name": "revision_height",
              "type": "uint64"
            }
          ],
          "internalType": "struct Height.Data",
          "name": "",
          "type": "tuple"
        },
        {
          "internalType": "bool",
          "name": "",
          "type": "bool"
        }
      ],
      "stateMutability": "view",
      "type": "function"
    },
    {
      "inputs": [
        {
          "internalType": "contract IBCHost",
          "name": "host",
          "type": "address"
        },
        {
          "internalType": "string",
          "name": "clientId",
          "type": "string"
        },
        {
          "components": [
            {
              "internalType": "uint64",
              "name": "revision_number",
              "type": "uint64"
            },
            {
              "internalType": "uint64",
              "name": "revision_height",
              "type": "uint64"
            }
          ],
          "internalType": "struct Height.Data",
          "name": "height",
          "type": "tuple"
        }
      ],
      "name": "getTimestampAtHeight",
      "outputs": [
        {
          "internalType": "uint64",
          "name": "",
          "type": "uint64"
        },
        {
          "internalType": "bool",
          "name": "",
          "type": "bool"
        }
      ],
      "stateMutability": "view",
      "type": "function"
    },
    {
      "inputs": [
        {
          "internalType": "contract IBCHost",
          "name": "host",
          "type": "address"
        },
        {
          "internalType": "string",
          "name": "clientId",
          "type": "string"
        },
        {
          "components": [
            {
              "internalType": "uint64",
              "name": "revision_number",
              "type": "uint64"
            },
            {
              "internalType": "uint64",
              "name": "revision_height",
              "type": "uint64"
            }
          ],
          "internalType": "struct Height.Data",
          "name": "height",
          "type": "tuple"
        },
        {
          "internalType": "bytes",
          "name": "",
          "type": "bytes"
        },
        {
          "internalType": "bytes",
          "name": "proof",
          "type": "bytes"
        },
        {
          "internalType": "string",
          "name": "",
          "type": "string"
        },
        {
          "internalType": "string",
          "name": "",
          "type": "string"
        },
        {
          "internalType": "bytes",
          "name": "channelBytes",
          "type": "bytes"
        }
      ],
      "name": "verifyChannelState",
      "outputs": [
        {
          "internalType": "bool",
          "name": "",
          "type": "bool"
        }
      ],
      "stateMutability": "view",
      "type": "function"
    },
    {
      "inputs": [
        {
          "internalType": "contract IBCHost",
          "name": "host",
          "type": "address"
        },
        {
          "internalType": "string",
          "name": "clientId",
          "type": "string"
        },
        {
          "components": [
            {
              "internalType": "uint64",
              "name": "revision_number",
              "type": "uint64"
            },
            {
              "internalType": "uint64",
              "name": "revision_height",
              "type": "uint64"
            }
          ],
          "internalType": "struct Height.Data",
          "name": "height",
          "type": "tuple"
        },
        {
          "internalType": "string",
          "name": "",
          "type": "string"
        },
        {
          "components": [
            {
              "internalType": "uint64",
              "name": "revision_number",
              "type": "uint64"
            },
            {
              "internalType": "uint64",
              "name": "revision_height",
              "type": "uint64"
            }
          ],
          "internalType": "struct Height.Data",
          "name": "",
          "type": "tuple"
        },
        {
          "internalType": "bytes",
          "name": "",
          "type": "bytes"
        },
        {
          "internalType": "bytes",
          "name": "proof",
          "type": "bytes"
        },
        {
          "internalType": "bytes",
          "name": "consensusStateBytes",
          "type": "bytes"
        }
      ],
      "name": "verifyClientConsensusState",
      "outputs": [
        {
          "internalType": "bool",
          "name": "",
          "type": "bool"
        }
      ],
      "stateMutability": "view",
      "type": "function"
    },
    {
      "inputs": [
        {
          "internalType": "contract IBCHost",
          "name": "host",
          "type": "address"
        },
        {
          "internalType": "string",
          "name": "clientId",
          "type": "string"
        },
        {
          "components": [
            {
              "internalType": "uint64",
              "name": "revision_number",
              "type": "uint64"
            },
            {
              "internalType": "uint64",
              "name": "revision_height",
              "type": "uint64"
            }
          ],
          "internalType": "struct Height.Data",
          "name": "height",
          "type": "tuple"
        },
        {
          "internalType": "bytes",
          "name": "",
          "type": "bytes"
        },
        {
          "internalType": "string",
          "name": "",
          "type": "string"
        },
        {
          "internalType": "bytes",
          "name": "proof",
          "type": "bytes"
        },
        {
          "internalType": "bytes",
          "name": "clientStateBytes",
          "type": "bytes"
        }
      ],
      "name": "verifyClientState",
      "outputs": [
        {
          "internalType": "bool",
          "name": "",
          "type": "bool"
        }
      ],
      "stateMutability": "view",
      "type": "function"
    },
    {
      "inputs": [
        {
          "internalType": "contract IBCHost",
          "name": "host",
          "type": "address"
        },
        {
          "internalType": "string",
          "name": "clientId",
          "type": "string"
        },
        {
          "components": [
            {
              "internalType": "uint64",
              "name": "revision_number",
              "type": "uint64"
            },
            {
              "internalType": "uint64",
              "name": "revision_height",
              "type": "uint64"
            }
          ],
          "internalType": "struct Height.Data",
          "name": "height",
          "type": "tuple"
        },
        {
          "internalType": "bytes",
          "name": "",
          "type": "bytes"
        },
        {
          "internalType": "bytes",
          "name": "proof",
          "type": "bytes"
        },
        {
          "internalType": "string",
          "name": "",
          "type": "string"
        },
        {
          "internalType": "bytes",
          "name": "connectionBytes",
          "type": "bytes"
        }
      ],
      "name": "verifyConnectionState",
      "outputs": [
        {
          "internalType": "bool",
          "name": "",
          "type": "bool"
        }
      ],
      "stateMutability": "view",
      "type": "function"
    },
    {
      "inputs": [
        {
          "internalType": "contract IBCHost",
          "name": "host",
          "type": "address"
        },
        {
          "internalType": "string",
          "name": "clientId",
          "type": "string"
        },
        {
          "components": [
            {
              "internalType": "uint64",
              "name": "revision_number",
              "type": "uint64"
            },
            {
              "internalType": "uint64",
              "name": "revision_height",
              "type": "uint64"
            }
          ],
          "internalType": "struct Height.Data",
          "name": "height",
          "type": "tuple"
        },
        {
          "internalType": "uint64",
          "name": "",
          "type": "uint64"
        },
        {
          "internalType": "uint64",
          "name": "",
          "type": "uint64"
        },
        {
          "internalType": "bytes",
          "name": "",
          "type": "bytes"
        },
        {
          "internalType": "bytes",
          "name": "proof",
          "type": "bytes"
        },
        {
          "internalType": "string",
          "name": "",
          "type": "string"
        },
        {
          "internalType": "string",
          "name": "",
          "type": "string"
        },
        {
          "internalType": "uint64",
          "name": "",
          "type": "uint64"
        },
        {
          "internalType": "bytes",
          "name": "acknowledgement",
          "type": "bytes"
        }
      ],
      "name": "verifyPacketAcknowledgement",
      "outputs": [
        {
          "internalType": "bool",
          "name": "",
          "type": "bool"
        }
      ],
      "stateMutability": "view",
      "type": "function"
    },
    {
      "inputs": [
        {
          "internalType": "contract IBCHost",
          "name": "host",
          "type": "address"
        },
        {
          "internalType": "string",
          "name": "clientId",
          "type": "string"
        },
        {
          "components": [
            {
              "internalType": "uint64",
              "name": "revision_number",
              "type": "uint64"
            },
            {
              "internalType": "uint64",
              "name": "revision_height",
              "type": "uint64"
            }
          ],
          "internalType": "struct Height.Data",
          "name": "height",
          "type": "tuple"
        },
        {
          "internalType": "uint64",
          "name": "",
          "type": "uint64"
        },
        {
          "internalType": "uint64",
          "name": "",
          "type": "uint64"
        },
        {
          "internalType": "bytes",
          "name": "",
          "type": "bytes"
        },
        {
          "internalType": "bytes",
          "name": "proof",
          "type": "bytes"
        },
        {
          "internalType": "string",
          "name": "",
          "type": "string"
        },
        {
          "internalType": "string",
          "name": "",
          "type": "string"
        },
        {
          "internalType": "uint64",
          "name": "",
          "type": "uint64"
        },
        {
          "internalType": "bytes32",
          "name": "commitmentBytes",
          "type": "bytes32"
        }
      ],
      "name": "verifyPacketCommitment",
      "outputs": [
        {
          "internalType": "bool",
          "name": "",
          "type": "bool"
        }
      ],
      "stateMutability": "view",
      "type": "function"
    }
  ],
  "bytecode": {
    "object": "0x608060405234801561001057600080fd5b50612868806100206000396000f3fe608060405234801561001057600080fd5b50600436106100a95760003560e01c8063a8432fa111610071578063a8432fa114610141578063c9f13d2614610154578063dd8dd65f14610167578063fe01775014610199578063fe4391fd146101ba578063ff33b3e6146101dc57600080fd5b806354596a36146100ae5780638eaa4a38146100d65780639e6671bd146100e9578063a0aaade7146100fc578063a65a0aba1461010f575b600080fd5b6100c16100bc366004611d87565b6101fd565b60405190151581526020015b60405180910390f35b6100c16100e4366004611edf565b610324565b6100c16100f7366004611fe6565b610422565b6100c161010a3660046120da565b61051f565b61012261011d366004612215565b6105d1565b604080516001600160401b0390931683529015156020830152016100cd565b6100c161014f366004611fe6565b61060a565b6100c1610162366004612273565b6106a9565b61017a610175366004612215565b610748565b6040805192516001600160401b031683529015156020830152016100cd565b6101ac6101a736600461236f565b610803565b6040516100cd9291906123bc565b6101cd6101c83660046123ef565b610861565b6040516100cd939291906124d7565b6101ef6101ea36600461236f565b610a27565b6040516100cd929190612522565b6000808c6001600160a01b0316636cf44bf48d8d6040518363ffffffff1660e01b815260040161022e929190612547565b600060405180830381865afa15801561024b573d6000803e3d6000fd5b505050506040513d6000823e601f3d908101601f19168201604052610273919081019061257f565b9150508061029c5760405162461bcd60e51b815260040161029390612611565b60405180910390fd5b6102a587610aea565b60405163115112cb60e31b81526001600160a01b038f1690638a889658906102d1908790600401612648565b602060405180830381865afa1580156102ee573d6000803e3d6000fd5b505050506040513d601f19601f82011682018060405250810190610312919061265b565b149d9c50505050505050505050505050565b600080896001600160a01b0316636cf44bf48a8a6040518363ffffffff1660e01b8152600401610355929190612547565b600060405180830381865afa158015610372573d6000803e3d6000fd5b505050506040513d6000823e601f3d908101601f1916820160405261039a919081019061257f565b915050806103ba5760405162461bcd60e51b815260040161029390612611565b6103c384610aea565b6002846040516103d39190612674565b602060405180830381855afa1580156103f0573d6000803e3d6000fd5b5050506040513d601f19601f82011682018060405250810190610413919061265b565b149a9950505050505050505050565b600080886001600160a01b0316636cf44bf489896040518363ffffffff1660e01b8152600401610453929190612547565b600060405180830381865afa158015610470573d6000803e3d6000fd5b505050506040513d6000823e601f3d908101601f19168201604052610498919081019061257f565b915050806104b85760405162461bcd60e51b815260040161029390612611565b6104c184610aea565b6002846040516104d19190612674565b602060405180830381855afa1580156104ee573d6000803e3d6000fd5b5050506040513d601f19601f82011682018060405250810190610511919061265b565b149998505050505050505050565b6000808c6001600160a01b0316636cf44bf48d8d6040518363ffffffff1660e01b8152600401610550929190612547565b600060405180830381865afa15801561056d573d6000803e3d6000fd5b505050506040513d6000823e601f3d908101601f19168201604052610595919081019061257f565b915050806105b55760405162461bcd60e51b815260040161029390612611565b6105be87610aea565b9092149c9b505050505050505050505050565b6000806000806105e2878787610748565b91509150806105f957600080935093505050610602565b50519150600190505b935093915050565b600080886001600160a01b0316636cf44bf489896040518363ffffffff1660e01b815260040161063b929190612547565b600060405180830381865afa158015610658573d6000803e3d6000fd5b505050506040513d6000823e601f3d908101601f19168201604052610680919081019061257f565b915050806106a05760405162461bcd60e51b815260040161029390612611565b6104c185610aea565b600080896001600160a01b0316636cf44bf48a8a6040518363ffffffff1660e01b81526004016106da929190612547565b600060405180830381865afa1580156106f7573d6000803e3d6000fd5b505050506040513d6000823e601f3d908101601f1916820160405261071f919081019061257f565b9150508061073f5760405162461bcd60e51b815260040161029390612611565b6103c386610aea565b60408051602081019091526000815260006060856001600160a01b0316636cf44bf486866040518363ffffffff1660e01b8152600401610789929190612547565b600060405180830381865afa1580156107a6573d6000803e3d6000fd5b505050506040513d6000823e601f3d908101601f191682016040526107ce919081019061257f565b92509050816107e1575060009050610602565b6107f66107ed82610b45565b60200151610b70565b9660019650945050505050565b604080518082019091526000808252602082015260008060006108268686610a27565b915091508061085157505060408051808201909152600080825260208201819052909250905061085a565b50519150600190505b9250929050565b60608061087e604080518082019091526000808252602082015290565b600061089d604051806040016040528060608152602001606081525090565b60408051808201909152606080825260208201526108ba88610b45565b91506040516020016108fd907f2f6962632e6c69676874636c69656e74732e6d6f636b2e76312e436c69656e74815264537461746560d81b602082015260250190565b60408051601f19818403018152908290528051602091820120845190926109249201612674565b604051602081830303815290604052805190602001201461097d5760405162461bcd60e51b8152602060048201526013602482015272696e76616c696420636c69656e74207479706560681b6044820152606401610293565b600061098c8360200151610b8e565b905061099788610bb7565b825191965094506109a9908690610ca8565b156109b2578481525b6109bb81610d03565b836020018190525060405180606001604052806028815260200161280b60289139825260408051602081019091526001600160401b03851681526109fe90610d6b565b6020830152610a0c83610dca565b610a1583610dca565b96509650505050509450945094915050565b604080516060810182526000602082018181529282015290815260006060846001600160a01b03166376c81c42856040518263ffffffff1660e01b8152600401610a719190612648565b600060405180830381865afa158015610a8e573d6000803e3d6000fd5b505050506040513d6000823e601f3d908101601f19168201604052610ab6919081019061257f565b9250905081610ac957506000905061085a565b610ade610ad582610b45565b60200151610b8e565b95600195509350505050565b60008151602014610b3d5760405162461bcd60e51b815260206004820152601b60248201527f63616e6e6f7420636f6e7665727420696e746f206164647265737300000000006044820152606401610293565b506020015190565b60408051808201909152606080825260208201526000610b686020848551610e29565b509392505050565b6040805160208101909152600081526000610b686020848551610fc5565b60408051606081018252600060208201818152928201529081526000610b68602084855161105a565b6040805180820190915260008082526020820152600080610bd784610b45565b604080517f2f6962632e6c69676874636c69656e74732e6d6f636b2e76312e48656164657260208201529192500160408051601f1981840301815290829052805160209182012083519092610c2c9201612674565b6040516020818303038152906040528051906020012014610c855760405162461bcd60e51b8152602060048201526013602482015272696e76616c696420686561646572207479706560681b6044820152606401610293565b6000610c9482602001516110fa565b805160209091015190969095509350505050565b805182516000916001600160401b0390811691161180610cfa5750815183516001600160401b039081169116148015610cfa575081602001516001600160401b031683602001516001600160401b0316115b90505b92915050565b60606000610d108361112c565b6001600160401b03811115610d2757610d27611c50565b6040519080825280601f01601f191660200182016040528015610d51576020820181803683370190505b5090506000610d6284602084611160565b82525092915050565b60606000610d78836111ad565b6001600160401b03811115610d8f57610d8f611c50565b6040519080825280601f01601f191660200182016040528015610db9576020820181803683370190505b5090506000610d62846020846111bd565b60606000610dd783611207565b6001600160401b03811115610dee57610dee611c50565b6040519080825280601f01601f191660200182016040528015610e18576020820181803683370190505b5090506000610d628460208461123d565b60408051808201909152606080825260208201526000610e5c604051806040016040528060608152602001606081525090565b610e64611c16565b6000808089805b610e758a836126a6565b811015610fb357610e86818c61129e565b91965094509250610e9783826126a6565b905084600103610ebe57610ead818c89896112e9565b610eb790826126a6565b9050610e6b565b84600203610ed257610ead818c898961135a565b6001846005811115610ee657610ee66126b9565b03610f09576000610ef7828d61139f565b9150610f05905081836126a6565b9150505b6005846005811115610f1d57610f1d6126b9565b03610f40576000610f2e828d6113be565b9150610f3c905081836126a6565b9150505b6000846005811115610f5457610f546126b9565b03610f77576000610f65828d6113d0565b9150610f73905081836126a6565b9150505b6002846005811115610f8b57610f8b6126b9565b03610fae576000610f9c828d6114b9565b9150610faa905081836126a6565b9150505b610e6b565b50949a97995096975050505050505050565b60408051602081019091526000815260408051602081019091526000808252906000808088805b610ff689836126a6565b81101561104957611007818b61129e565b9196509450925061101883826126a6565b90508460010361103e5761102d818b8861157b565b61103790826126a6565b9050610fec565b61102d84828c6115a2565b509399969850959650505050505050565b60408051606081018252600060208201818152928201529081526000611096604080516060810182526000602082018181529282015290815290565b6000808088805b6110a789836126a6565b811015611049576110b8818b61129e565b919650945092506110c983826126a6565b9050846001036110ef576110de818b88611658565b6110e890826126a6565b905061109d565b6110de84828c6115a2565b60408051608081018252600091810182815260608201839052815260208101919091526000610b686020848551611673565b60008061114461113f846000015161172f565b611763565b61114f9060016126a6565b61115990826126a6565b9392505050565b60008280611172600160028387611778565b61117c90826126a6565b905061118d8660000151828661178e565b61119790826126a6565b90506111a382826126cf565b9695505050505050565b600080611144836000015161184f565b8251600090839081906001600160401b0316156111fd576111e2600160008387611778565b6111ec90826126a6565b905061118d86600001518286611863565b6111a382826126cf565b600080611218836000015151611763565b6112239060016126a6565b61122d90826126a6565b9050611144836020015151611763565b6000828061124f600160028387611778565b61125990826126a6565b905061126a86600001518286611879565b61127490826126a6565b90506112836002808387611778565b61128d90826126a6565b905061118d86602001518286611882565b60008060008060006112b087876113d0565b9150915060008260071660058111156112cb576112cb6126b9565b905060006112da6008856126e2565b99919850919650945050505050565b60008060006112f887876118d8565b91509150611304851590565b1561132757600184815b6020020181815161131f91906126a6565b90525061134e565b81855260208401511561134e57600184815b6020020181815161134a91906126cf565b9052505b9150505b949350505050565b600080600061136987876118e9565b91509150611375851590565b1561138457600184600261130e565b6020850182905260408401511561134e576001846002611339565b6000806000806113b186866008611902565b9097909650945050505050565b6000806000806113b186866004611902565b6000806000806000602086516113e691906126a6565b96860196905060805b608081166080036114ac5786880382116114335762461bcd60e51b6000526020600452600f6024526e6c656e677468206f766572666c6f7760881b60445260536000fd5b875160005b602081106080841660801416156114a557888a0384116114825762461bcd60e51b6000526020600452600f6024526e6c656e677468206f766572666c6f7760881b60445260536000fd5b6001998a019982821a607f8116600788021b979097179695810195935001611438565b50506113ef565b5091969095509350505050565b606060008060006114ca86866113d0565b915091506000826001600160401b038111156114e8576114e8611c50565b6040519080825280601f01601f191660200182016040528015611512576020820181803683370190505b50905060006020875161152591906126a6565b90508084611533858b6126a6565b61153d91906126a6565b111561154b5761154b612704565b86880183016020830161155f82828861196f565b8361156a87876126a6565b975097505050505050509250929050565b600080600061158a86866119ee565b6001600160401b039091168552925050509392505050565b600060018460058111156115b8576115b86126b9565b036115c557506008611159565b60058460058111156115d9576115d96126b9565b036115e657506004611159565b60008460058111156115fa576115fa6126b9565b0361161557600061160b84846113d0565b9250611159915050565b6002846005811115611629576116296126b9565b1461163357600080fd5b60008061164085856113d0565b909250905061164f82826126a6565b92505050611159565b600080600061166786866119fe565b94525091949350505050565b6040805160808101825260009181018281526060820183905281526020810191909152604080516080810182526000918101828152606082018390528152602081018290526000808088805b6116c989836126a6565b811015611049576116da818b61129e565b919650945092506116eb83826126a6565b90508460010361171157611700818b88611658565b61170a90826126a6565b90506116bf565b8460020361172457611700818b88611a5c565b61170084828c6115a2565b60008061173f836000015161184f565b61174a9060016126a6565b61175490826126a6565b9050611144836020015161184f565b600061176e82611a86565b610cfd90836126a6565b600060088502600785161761134e818585611aa3565b600082808261179c8761172f565b6001600160401b038111156117b3576117b3611c50565b6040519080825280601f01601f1916602001820160405280156117dd576020820181803683370190505b509050808560006117f08a602085611ae6565b90506117fd81868a611aa3565b61180790866126a6565b94506118276118178460206126a6565b61182187856126a6565b8361196f565b61183181866126a6565b94506060935061184186866126cf565b9a9950505050505050505050565b6000610cfd826001600160401b0316611a86565b6000611352846001600160401b03168484611aa3565b60006113528484845b825160009081611893828686611aa3565b905060008186018501602088015b848310156118c057805160001a825360019283019291820191016118a1565b506118cd905081836126a6565b979650505050505050565b606060008060006113b186866114b9565b606060006118f784846114b9565b915091509250929050565b6000806000806020865161191691906126a6565b90508061192386896126a6565b111561193157611931612704565b6000878701975087515b868210156119605780821a826008021b8417935060018901985060018201915061193b565b50919794965093945050505050565b8060000361197c57505050565b60208111156119b557825182526119946020836126a6565b91506119a16020846126a6565b92506119ae6020826126cf565b905061197c565b600060016119c48360206126cf565b6119d0906101006127fe565b6119da91906126cf565b935183518516941916939093179091525050565b6000806000806113b186866113d0565b60408051808201909152600080825260208201526000838180611a2183876113d0565b9092509050611a3081846126a6565b92506000611a3f848885611b6f565b50905080611a4d83856126a6565b95509550505050509250929050565b6000806000611a6b86866119ee565b6001600160401b039091166020860152925050509392505050565b60071c600060015b8215610cfd5760079290921c91600101611a8e565b600080828401607f86165b600787901c15611ad6578060801782535060079590951c9460019182019101607f8616611aae565b8082535050600101949350505050565b8251600090839081906001600160401b031615611b3357611b0b600160008387611778565b611b1590826126a6565b9050611b2686600001518286611863565b611b3090826126a6565b90505b60208601516001600160401b0316156111fd57611b54600260008387611778565b611b5e90826126a6565b905061118d86602001518286611863565b60408051808201909152600080825260208201526000611b9f604080518082019091526000808252602082015290565b6000808088805b611bb089836126a6565b81101561104957611bc1818b61129e565b91965094509250611bd283826126a6565b905084600103611bf857611be7818b8861157b565b611bf190826126a6565b9050611ba6565b84600203611c0b57611be7818b88611a5c565b611be784828c6115a2565b60405180606001604052806003906020820280368337509192915050565b80356001600160a01b0381168114611c4b57600080fd5b919050565b634e487b7160e01b600052604160045260246000fd5b604051601f8201601f191681016001600160401b0381118282101715611c8e57611c8e611c50565b604052919050565b60006001600160401b03821115611caf57611caf611c50565b50601f01601f191660200190565b600082601f830112611cce57600080fd5b8135611ce1611cdc82611c96565b611c66565b818152846020838601011115611cf657600080fd5b816020850160208301376000918101602001919091529392505050565b80356001600160401b0381168114611c4b57600080fd5b600060408284031215611d3c57600080fd5b604051604081018181106001600160401b0382111715611d5e57611d5e611c50565b604052905080611d6d83611d13565b8152611d7b60208401611d13565b60208201525092915050565b60008060008060008060008060008060006101808c8e031215611da957600080fd5b611db28c611c34565b9a506001600160401b038060208e01351115611dcd57600080fd5b611ddd8e60208f01358f01611cbd565b9a50611dec8e60408f01611d2a565b9950611dfa60808e01611d13565b9850611e0860a08e01611d13565b97508060c08e01351115611e1b57600080fd5b611e2b8e60c08f01358f01611cbd565b96508060e08e01351115611e3e57600080fd5b611e4e8e60e08f01358f01611cbd565b9550806101008e01351115611e6257600080fd5b611e738e6101008f01358f01611cbd565b9450806101208e01351115611e8757600080fd5b611e988e6101208f01358f01611cbd565b9350611ea76101408e01611d13565b9250806101608e01351115611ebb57600080fd5b50611ecd8d6101608e01358e01611cbd565b90509295989b509295989b9093969950565b600080600080600080600080610140898b031215611efc57600080fd5b611f0589611c34565b975060208901356001600160401b0380821115611f2157600080fd5b611f2d8c838d01611cbd565b9850611f3c8c60408d01611d2a565b975060808b0135915080821115611f5257600080fd5b611f5e8c838d01611cbd565b9650611f6d8c60a08d01611d2a565b955060e08b0135915080821115611f8357600080fd5b611f8f8c838d01611cbd565b94506101008b0135915080821115611fa657600080fd5b611fb28c838d01611cbd565b93506101208b0135915080821115611fc957600080fd5b50611fd68b828c01611cbd565b9150509295985092959890939650565b6000806000806000806000610100888a03121561200257600080fd5b61200b88611c34565b965060208801356001600160401b038082111561202757600080fd5b6120338b838c01611cbd565b97506120428b60408c01611d2a565b965060808a013591508082111561205857600080fd5b6120648b838c01611cbd565b955060a08a013591508082111561207a57600080fd5b6120868b838c01611cbd565b945060c08a013591508082111561209c57600080fd5b6120a88b838c01611cbd565b935060e08a01359150808211156120be57600080fd5b506120cb8a828b01611cbd565b91505092959891949750929550565b60008060008060008060008060008060006101808c8e0312156120fc57600080fd5b6121058c611c34565b9a506001600160401b038060208e0135111561212057600080fd5b6121308e60208f01358f01611cbd565b9a5061213f8e60408f01611d2a565b995061214d60808e01611d13565b985061215b60a08e01611d13565b97508060c08e0135111561216e57600080fd5b61217e8e60c08f01358f01611cbd565b96508060e08e0135111561219157600080fd5b6121a18e60e08f01358f01611cbd565b9550806101008e013511156121b557600080fd5b6121c68e6101008f01358f01611cbd565b9450806101208e013511156121da57600080fd5b506121ec8d6101208e01358e01611cbd565b92506121fb6101408d01611d13565b91506101608c013590509295989b509295989b9093969950565b60008060006080848603121561222a57600080fd5b61223384611c34565b925060208401356001600160401b0381111561224e57600080fd5b61225a86828701611cbd565b92505061226a8560408601611d2a565b90509250925092565b600080600080600080600080610120898b03121561229057600080fd5b61229989611c34565b975060208901356001600160401b03808211156122b557600080fd5b6122c18c838d01611cbd565b98506122d08c60408d01611d2a565b975060808b01359150808211156122e657600080fd5b6122f28c838d01611cbd565b965060a08b013591508082111561230857600080fd5b6123148c838d01611cbd565b955060c08b013591508082111561232a57600080fd5b6123368c838d01611cbd565b945060e08b013591508082111561234c57600080fd5b6123588c838d01611cbd565b93506101008b0135915080821115611fc957600080fd5b6000806040838503121561238257600080fd5b61238b83611c34565b915060208301356001600160401b038111156123a657600080fd5b6123b285828601611cbd565b9150509250929050565b606081016123e0828580516001600160401b03908116835260209182015116910152565b82151560408301529392505050565b6000806000806080858703121561240557600080fd5b61240e85611c34565b935060208501356001600160401b038082111561242a57600080fd5b61243688838901611cbd565b9450604087013591508082111561244c57600080fd5b61245888838901611cbd565b9350606087013591508082111561246e57600080fd5b5061247b87828801611cbd565b91505092959194509250565b60005b838110156124a257818101518382015260200161248a565b50506000910152565b600081518084526124c3816020860160208601612487565b601f01601f19169290920160200192915050565b6080815260006124ea60808301866124ab565b82810360208401526124fc81866124ab565b84516001600160401b039081166040860152602086015116606085015291506113529050565b825180516001600160401b0390811683526020918201511690820152606081016123e0565b60608152600061255a60608301856124ab565b9050611159602083018480516001600160401b03908116835260209182015116910152565b6000806040838503121561259257600080fd5b82516001600160401b038111156125a857600080fd5b8301601f810185136125b957600080fd5b80516125c7611cdc82611c96565b8181528660208385010111156125dc57600080fd5b6125ed826020830160208601612487565b8094505050506020830151801515811461260657600080fd5b809150509250929050565b60208082526019908201527f636f6e73656e737573207374617465206e6f7420666f756e6400000000000000604082015260600190565b602081526000610cfa60208301846124ab565b60006020828403121561266d57600080fd5b5051919050565b60008251612686818460208701612487565b9190910192915050565b634e487b7160e01b600052601160045260246000fd5b80820180821115610cfd57610cfd612690565b634e487b7160e01b600052602160045260246000fd5b81810381811115610cfd57610cfd612690565b6000826126ff57634e487b7160e01b600052601260045260246000fd5b500490565b634e487b7160e01b600052600160045260246000fd5b600181815b8085111561275557816000190482111561273b5761273b612690565b8085161561274857918102915b93841c939080029061271f565b509250929050565b60008261276c57506001610cfd565b8161277957506000610cfd565b816001811461278f5760028114612799576127b5565b6001915050610cfd565b60ff8411156127aa576127aa612690565b50506001821b610cfd565b5060208310610133831016604e8410600b84101617156127d8575081810a610cfd565b6127e2838361271a565b80600019048211156127f6576127f6612690565b029392505050565b6000610cfa838361275d56fe2f6962632e6c69676874636c69656e74732e6d6f636b2e76312e436f6e73656e7375735374617465a2646970667358221220e405a94ccfe8d4888ad96d4a043fc9d1b25bc1cdd64d98788e71cde5a5c2a14b64736f6c63430008150033",
    "linkReferences": {}
  },
  "methodIdentifiers": {
    "checkHeaderAndUpdateState(address,string,bytes,bytes)": "fe4391fd",
    "getClientState(address,string)": "ff33b3e6",
    "getConsensusState(address,string,(uint64,uint64))": "dd8dd65f",
    "getLatestHeight(address,string)": "fe017750",
    "getTimestampAtHeight(address,string,(uint64,uint64))": "a65a0aba",
    "verifyChannelState(address,string,(uint64,uint64),bytes,bytes,string,string,bytes)": "c9f13d26",
    "verifyClientConsensusState(address,string,(uint64,uint64),string,(uint64,uint64),bytes,bytes,bytes)": "8eaa4a38",
    "verifyClientState(address,string,(uint64,uint64),bytes,string,bytes,bytes)": "9e6671bd",
    "verifyConnectionState(address,string,(uint64,uint64),bytes,bytes,string,bytes)": "a8432fa1",
    "verifyPacketAcknowledgement(address,string,(uint64,uint64),uint64,uint64,bytes,bytes,string,string,uint64,bytes)": "54596a36",
    "verifyPacketCommitment(address,string,(uint64,uint64),uint64,uint64,bytes,bytes,string,string,uint64,bytes32)": "a0aaade7"
  },
  "id": 39
}