{
  "abi": [
    {
      "inputs": [
        {
          "internalType": "contract IBCHost",
          "name": "host",
          "type": "IBCHost"
        },
        {
          "internalType": "string",
          "name": "clientId",
          "type": "string"
        }
      ],
      "name": "getClient",
      "outputs": [
        {
          "internalType": "contract IClient",
          "name": "",
          "type": "IClient"
        }
      ],
      "stateMutability": "view",
      "type": "function"
    },
    {
      "inputs": [
        {
          "internalType": "contract IBCHost",
          "name": "",
          "type": "IBCHost"
        },
        {
          "internalType": "bytes",
          "name": "",
          "type": "bytes"
        }
      ],
      "name": "validateSelfClient",
      "outputs": [
        {
          "internalType": "bool",
          "name": "",
          "type": "bool"
        }
      ],
      "stateMutability": "view",
      "type": "function"
    }
  ],
  "bytecode": {
    "object": "0x61244b61003a600b82828239805160001a60731461002d57634e487b7160e01b600052600060045260246000fd5b30600052607381538281f3fe73000000000000000000000000000000000000000030146080604052600436106100be5760003560e01c8063653890ac1161007b578063653890ac14610198578063803223dc146101b8578063854414f0146101e75780639eab4ae214610207578063a68c51bd14610227578063fb9ed89c1461024757600080fd5b806314e86239146100c35780632747cfee146100f85780632b37b7c1146101235780633f4a27221461014557806340f5a1e9146101655780635ed8077d14610178575b600080fd5b8180156100cf57600080fd5b506100e36100de3660046111b0565b610267565b60405190151581526020015b60405180910390f35b61010b610106366004611308565b610362565b6040516001600160a01b0390911681526020016100ef565b81801561012f57600080fd5b5061014361013e366004611357565b610436565b005b81801561015157600080fd5b506100e36101603660046113ba565b6104ec565b6100e36101733660046114ef565b6105db565b81801561018457600080fd5b506100e3610193366004611543565b6105e5565b8180156101a457600080fd5b506100e36101b336600461164a565b6106d7565b8180156101c457600080fd5b506101d86101d3366004611746565b610716565b6040516100ef93929190611830565b8180156101f357600080fd5b50610143610202366004611883565b61081a565b81801561021357600080fd5b506101436102223660046118d9565b610b97565b81801561023357600080fd5b506100e3610242366004611924565b610f21565b81801561025357600080fd5b506100e3610262366004611a00565b610f60565b60008060006102768e8e610362565b6001600160a01b03166354596a3660e01b8f8f8f8f8f8f8f8f8f8f8f6040516024016102ac9b9a99989796959493929190611b3b565b60408051601f198184030181529181526020820180516001600160e01b03166001600160e01b03199094169390931790925290516102ea9190611c12565b600060405180830381855af49150503d8060008114610325576040519150601f19603f3d011682016040523d82523d6000602084013e61032a565b606091505b50915091508161033c5761033c611c2e565b808060200190518101906103509190611c54565b9e9d5050505050505050505050505050565b60008060006103e185866001600160a01b03166384515f5d876040518263ffffffff1660e01b81526004016103979190611c6f565b600060405180830381865afa1580156103b4573d6000803e3d6000fd5b505050506040513d6000823e601f3d908101601f191682016040526103dc9190810190611cb2565b610fa5565b915091508061042e5760405162461bcd60e51b815260206004820152601460248201527318db1a595b9d125b5c1b081b9bdd08199bdd5b9960621b60448201526064015b60405180910390fd5b509392505050565b826001600160a01b0316631649a4f76040518163ffffffff1660e01b815260040160006040518083038186803b15801561046f57600080fd5b505afa158015610483573d6000803e3d6000fd5b50506040516309d0b76560e41b81526001600160a01b0386169250639d0b765091506104b59085908590600401611cfa565b600060405180830381600087803b1580156104cf57600080fd5b505af11580156104e3573d6000803e3d6000fd5b50505050505050565b60008060006104fb8a8a610362565b6001600160a01b0316639e6671bd60e01b8b8b8b8b8b8b8b6040516024016105299796959493929190611d24565b60408051601f198184030181529181526020820180516001600160e01b03166001600160e01b03199094169390931790925290516105679190611c12565b600060405180830381855af49150503d80600081146105a2576040519150601f19603f3d011682016040523d82523d6000602084013e6105a7565b606091505b5091509150816105b9576105b9611c2e565b808060200190518101906105cd9190611c54565b9a9950505050505050505050565b60015b9392505050565b60008060006105f48b8b610362565b6001600160a01b0316638eaa4a3860e01b8c8c8c8c8c8c8c8c604051602401610624989796959493929190611db6565b60408051601f198184030181529181526020820180516001600160e01b03166001600160e01b03199094169390931790925290516106629190611c12565b600060405180830381855af49150503d806000811461069d576040519150601f19603f3d011682016040523d82523d6000602084013e6106a2565b606091505b5091509150816106b4576106b4611c2e565b808060200190518101906106c89190611c54565b9b9a5050505050505050505050565b60008060006106e68b8b610362565b6001600160a01b031663c9f13d2660e01b8c8c8c8c8c8c8c8c604051602401610624989796959493929190611e67565b6040805180820190915260008082526020820152606090819060008061073c8989610362565b6001600160a01b031663fe4391fd60e01b8a8a8a8a6040516024016107649493929190611f0e565b60408051601f198184030181529181526020820180516001600160e01b03166001600160e01b03199094169390931790925290516107a29190611c12565b600060405180830381855af49150503d80600081146107dd576040519150601f19603f3d011682016040523d82523d6000602084013e6107e2565b606091505b5091509150816107f4576107f4611c2e565b808060200190518101906108089190611f83565b94509450945050509450945094915050565b816001600160a01b0316631649a4f76040518163ffffffff1660e01b815260040160006040518083038186803b15801561085357600080fd5b505afa158015610867573d6000803e3d6000fd5b505060408051808201909152600080825260208201526060925082915060006001600160a01b0386166376c81c4261089f878061202c565b6040518363ffffffff1660e01b81526004016108bc92919061209b565b600060405180830381865afa1580156108d9573d6000803e3d6000fd5b505050506040513d6000823e601f3d908101601f1916820160405261090191908101906120af565b90945090508061094b5760405162461bcd60e51b815260206004820152601560248201527418db1a595b9d14dd185d19481b9bdd08199bdd5b99605a1b6044820152606401610425565b6109d786610959878061202c565b8080601f01602080910402602001604051908101604052809392919081815260200183838082843760009201919091525089925061099d91505060208a018a61202c565b8080601f01602080910402602001604051908101604052809392919081815260200183838082843760009201919091525061071692505050565b919550935091506001600160a01b038616630838f56d6109f7878061202c565b876040518463ffffffff1660e01b8152600401610a16939291906120fc565b600060405180830381600087803b158015610a3057600080fd5b505af1158015610a44573d6000803e3d6000fd5b5050506001600160a01b038716905063c48baca4610a62878061202c565b85876040518563ffffffff1660e01b8152600401610a83949392919061212c565b600060405180830381600087803b158015610a9d57600080fd5b505af1158015610ab1573d6000803e3d6000fd5b5050506001600160a01b0387169050639760630e610acf878061202c565b85426040518563ffffffff1660e01b8152600401610af09493929190612175565b600060405180830381600087803b158015610b0a57600080fd5b505af1158015610b1e573d6000803e3d6000fd5b5050506001600160a01b038716905063abadb184610b3c878061202c565b85436040518563ffffffff1660e01b8152600401610b5d9493929190612175565b600060405180830381600087803b158015610b7757600080fd5b505af1158015610b8b573d6000803e3d6000fd5b50505050505050505050565b816001600160a01b0316631649a4f76040518163ffffffff1660e01b815260040160006040518083038186803b158015610bd057600080fd5b505afa158015610be4573d6000803e3d6000fd5b5060009250610c359150849050610bfb848061202c565b8080601f016020809104026020016040519081016040528093929190818152602001838380828437600092019190915250610fa592505050565b91505080610c855760405162461bcd60e51b815260206004820152601860248201527f756e7265676973746572656420636c69656e74207479706500000000000000006044820152606401610425565b60006001600160a01b0384166322c99536610ca0858061202c565b6040518363ffffffff1660e01b8152600401610cbd92919061209b565b6000604051808303816000875af1158015610cdc573d6000803e3d6000fd5b505050506040513d6000823e601f3d908101601f19168201604052610d049190810190611cb2565b90506001600160a01b0384166378338a1782610d20868061202c565b6040518463ffffffff1660e01b8152600401610d3e939291906121bd565b600060405180830381600087803b158015610d5857600080fd5b505af1158015610d6c573d6000803e3d6000fd5b5050506001600160a01b0385169050630838f56d82610d8e606087018761202c565b6040518463ffffffff1660e01b8152600401610dac939291906121bd565b600060405180830381600087803b158015610dc657600080fd5b505af1158015610dda573d6000803e3d6000fd5b5050506001600160a01b038516905063c48baca48260208601610e00608088018861202c565b6040518563ffffffff1660e01b8152600401610e1f9493929190612218565b600060405180830381600087803b158015610e3957600080fd5b505af1158015610e4d573d6000803e3d6000fd5b5050604051634bb0318760e11b81526001600160a01b0387169250639760630e9150610e849084906020880190429060040161224b565b600060405180830381600087803b158015610e9e57600080fd5b505af1158015610eb2573d6000803e3d6000fd5b5050604051632aeb6c6160e21b81526001600160a01b038716925063abadb1849150610ee99084906020880190439060040161224b565b600060405180830381600087803b158015610f0357600080fd5b505af1158015610f17573d6000803e3d6000fd5b5050505050505050565b6000806000610f308b8b610362565b6001600160a01b031663a8432fa160e01b8c8c8c8c8c8c8c8c60405160240161062498979695949392919061227b565b6000806000610f6f8e8e610362565b6001600160a01b031663a0aaade760e01b8f8f8f8f8f8f8f8f8f8f8f6040516024016102ac9b9a9998979695949392919061230e565b600080600080856001600160a01b031663bfe7aa66866040518263ffffffff1660e01b8152600401610fd79190611c6f565b6040805180830381865afa158015610ff3573d6000803e3d6000fd5b505050506040513d601f19601f8201168201806040525081019061101791906123e9565b915091508061102c5750600091506110349050565b509150600190505b9250929050565b6001600160a01b038116811461105057600080fd5b50565b803561105e8161103b565b919050565b634e487b7160e01b600052604160045260246000fd5b604080519081016001600160401b038111828210171561109b5761109b611063565b60405290565b604051601f8201601f191681016001600160401b03811182821017156110c9576110c9611063565b604052919050565b60006001600160401b038211156110ea576110ea611063565b50601f01601f191660200190565b600082601f83011261110957600080fd5b813561111c611117826110d1565b6110a1565b81815284602083860101111561113157600080fd5b816020850160208301376000918101602001919091529392505050565b6001600160401b038116811461105057600080fd5b803561105e8161114e565b60006040828403121561118057600080fd5b611188611079565b905081356111958161114e565b815260208201356111a58161114e565b602082015292915050565b60008060008060008060008060008060006101808c8e0312156111d257600080fd5b6111db8c611053565b9a506001600160401b038060208e013511156111f657600080fd5b6112068e60208f01358f016110f8565b9a506112158e60408f0161116e565b995061122360808e01611163565b985061123160a08e01611163565b97508060c08e0135111561124457600080fd5b6112548e60c08f01358f016110f8565b96508060e08e0135111561126757600080fd5b6112778e60e08f01358f016110f8565b9550806101008e0135111561128b57600080fd5b61129c8e6101008f01358f016110f8565b9450806101208e013511156112b057600080fd5b6112c18e6101208f01358f016110f8565b93506112d06101408e01611163565b9250806101608e013511156112e457600080fd5b506112f68d6101608e01358e016110f8565b90509295989b509295989b9093969950565b6000806040838503121561131b57600080fd5b82356113268161103b565b915060208301356001600160401b0381111561134157600080fd5b61134d858286016110f8565b9150509250929050565b60008060006060848603121561136c57600080fd5b83356113778161103b565b925060208401356001600160401b0381111561139257600080fd5b61139e868287016110f8565b92505060408401356113af8161103b565b809150509250925092565b6000806000806000806000610100888a0312156113d657600080fd5b6113df88611053565b965060208801356001600160401b03808211156113fb57600080fd5b6114078b838c016110f8565b97506114168b60408c0161116e565b965060808a013591508082111561142c57600080fd5b6114388b838c016110f8565b955060a08a013591508082111561144e57600080fd5b61145a8b838c016110f8565b945060c08a013591508082111561147057600080fd5b61147c8b838c016110f8565b935060e08a013591508082111561149257600080fd5b5061149f8a828b016110f8565b91505092959891949750929550565b60008083601f8401126114c057600080fd5b5081356001600160401b038111156114d757600080fd5b60208301915083602082850101111561103457600080fd5b60008060006040848603121561150457600080fd5b833561150f8161103b565b925060208401356001600160401b0381111561152a57600080fd5b611536868287016114ae565b9497909650939450505050565b600080600080600080600080610140898b03121561156057600080fd5b61156989611053565b975060208901356001600160401b038082111561158557600080fd5b6115918c838d016110f8565b98506115a08c60408d0161116e565b975060808b01359150808211156115b657600080fd5b6115c28c838d016110f8565b96506115d18c60a08d0161116e565b955060e08b01359150808211156115e757600080fd5b6115f38c838d016110f8565b94506101008b013591508082111561160a57600080fd5b6116168c838d016110f8565b93506101208b013591508082111561162d57600080fd5b5061163a8b828c016110f8565b9150509295985092959890939650565b600080600080600080600080610120898b03121561166757600080fd5b61167089611053565b975060208901356001600160401b038082111561168c57600080fd5b6116988c838d016110f8565b98506116a78c60408d0161116e565b975060808b01359150808211156116bd57600080fd5b6116c98c838d016110f8565b965060a08b01359150808211156116df57600080fd5b6116eb8c838d016110f8565b955060c08b013591508082111561170157600080fd5b61170d8c838d016110f8565b945060e08b013591508082111561172357600080fd5b61172f8c838d016110f8565b93506101008b013591508082111561162d57600080fd5b6000806000806080858703121561175c57600080fd5b84356117678161103b565b935060208501356001600160401b038082111561178357600080fd5b61178f888389016110f8565b945060408701359150808211156117a557600080fd5b6117b1888389016110f8565b935060608701359150808211156117c757600080fd5b506117d4878288016110f8565b91505092959194509250565b60005b838110156117fb5781810151838201526020016117e3565b50506000910152565b6000815180845261181c8160208601602086016117e0565b601f01601f19169290920160200192915050565b6080815260006118436080830186611804565b82810360208401526118558186611804565b84516001600160401b0390811660408601526020860151166060850152915061187b9050565b949350505050565b6000806040838503121561189657600080fd5b82356118a18161103b565b915060208301356001600160401b038111156118bc57600080fd5b8301604081860312156118ce57600080fd5b809150509250929050565b600080604083850312156118ec57600080fd5b82356118f78161103b565b915060208301356001600160401b0381111561191257600080fd5b830160a081860312156118ce57600080fd5b600080600080600080600080610100898b03121561194157600080fd5b61194a89611053565b975060208901356001600160401b038082111561196657600080fd5b6119728c838d016110f8565b98506119818c60408d0161116e565b975060808b013591508082111561199757600080fd5b6119a38c838d016114ae565b909750955060a08b01359150808211156119bc57600080fd5b6119c88c838d016110f8565b945060c08b01359150808211156119de57600080fd5b6119ea8c838d016110f8565b935060e08b013591508082111561162d57600080fd5b60008060008060008060008060008060006101808c8e031215611a2257600080fd5b611a2b8c611053565b9a506001600160401b038060208e01351115611a4657600080fd5b611a568e60208f01358f016110f8565b9a50611a658e60408f0161116e565b9950611a7360808e01611163565b9850611a8160a08e01611163565b97508060c08e01351115611a9457600080fd5b611aa48e60c08f01358f016110f8565b96508060e08e01351115611ab757600080fd5b611ac78e60e08f01358f016110f8565b9550806101008e01351115611adb57600080fd5b611aec8e6101008f01358f016110f8565b9450806101208e01351115611b0057600080fd5b50611b128d6101208e01358e016110f8565b9250611b216101408d01611163565b91506101608c013590509295989b509295989b9093969950565b6001600160a01b038c16815261018060208201819052600090611b608382018e611804565b8c516001600160401b03908116604086015260208e015116606085015290506001600160401b038b1660808401526001600160401b038a1660a084015282810360c0840152611baf818a611804565b905082810360e0840152611bc38189611804565b9050828103610100840152611bd88188611804565b9050828103610120840152611bed8187611804565b6001600160401b03861661014085015290508281036101608401526103508185611804565b60008251611c248184602087016117e0565b9190910192915050565b634e487b7160e01b600052600160045260246000fd5b8051801515811461105e57600080fd5b600060208284031215611c6657600080fd5b6105de82611c44565b6020815260006105de6020830184611804565b6000611c90611117846110d1565b9050828152838383011115611ca457600080fd5b6105de8360208301846117e0565b600060208284031215611cc457600080fd5b81516001600160401b03811115611cda57600080fd5b8201601f81018413611ceb57600080fd5b61187b84825160208401611c82565b604081526000611d0d6040830185611804565b905060018060a01b03831660208301529392505050565b6001600160a01b038816815261010060208201819052600090611d498382018a611804565b88516001600160401b03908116604086015260208a015116606085015290508281036080840152611d7a8188611804565b905082810360a0840152611d8e8187611804565b905082810360c0840152611da28186611804565b905082810360e08401526105cd8185611804565b6001600160a01b038916815261014060208201819052600090611ddb8382018b611804565b89516001600160401b03908116604086015260208b015116606085015290508281036080840152611e0c8189611804565b87516001600160401b0390811660a086015260208901511660c0850152905082810360e0840152611e3d8187611804565b9050828103610100840152611e528186611804565b90508281036101208401526106c88185611804565b6001600160a01b038916815261012060208201819052600090611e8c8382018b611804565b89516001600160401b03908116604086015260208b015116606085015290508281036080840152611ebd8189611804565b905082810360a0840152611ed18188611804565b905082810360c0840152611ee58187611804565b905082810360e0840152611ef98186611804565b90508281036101008401526106c88185611804565b6001600160a01b0385168152608060208201819052600090611f3290830186611804565b8281036040840152611f448186611804565b90508281036060840152611f588185611804565b979650505050505050565b600082601f830112611f7457600080fd5b6105de83835160208501611c82565b60008060008385036080811215611f9957600080fd5b84516001600160401b0380821115611fb057600080fd5b611fbc88838901611f63565b95506020870151915080821115611fd257600080fd5b50611fdf87828801611f63565b9350506040603f1982011215611ff457600080fd5b50611ffd611079565b604085015161200b8161114e565b8152606085015161201b8161114e565b602082015292959194509192509050565b6000808335601e1984360301811261204357600080fd5b8301803591506001600160401b0382111561205d57600080fd5b60200191503681900382131561103457600080fd5b81835281816020850137506000828201602090810191909152601f909101601f19169091010190565b60208152600061187b602083018486612072565b600080604083850312156120c257600080fd5b82516001600160401b038111156120d857600080fd5b6120e485828601611f63565b9250506120f360208401611c44565b90509250929050565b604081526000612110604083018587612072565b82810360208401526121228185611804565b9695505050505050565b608081526000612140608083018688612072565b612163602084018680516001600160401b03908116835260209182015116910152565b8281036060840152611f588185611804565b608081526000612189608083018688612072565b90506121ae602083018580516001600160401b03908116835260209182015116910152565b82606083015295945050505050565b6040815260006121d06040830186611804565b8281036020840152612122818587612072565b80356121ee8161114e565b6001600160401b03908116835260208201359061220a8261114e565b808216602085015250505050565b60808152600061222b6080830187611804565b61223860208401876121e3565b8281036060840152611f58818587612072565b60808152600061225e6080830186611804565b905061226d60208301856121e3565b826060830152949350505050565b6001600160a01b0389168152610100602082018190526000906122a08382018b611804565b89516001600160401b03908116604086015260208b0151166060850152905082810360808401526122d281888a612072565b905082810360a08401526122e68187611804565b905082810360c08401526122fa8186611804565b905082810360e08401526106c88185611804565b6001600160a01b038c168152610180602082018190526000906123338382018e611804565b8c516001600160401b03908116604086015260208e015116606085015290506001600160401b038b811660808501528a1660a084015282810360c084015261237b818a611804565b905082810360e084015261238f8189611804565b90508281036101008401526123a48188611804565b90508281036101208401526123b98187611804565b9150506123d26101408301856001600160401b03169052565b826101608301529c9b505050505050505050505050565b600080604083850312156123fc57600080fd5b82516124078161103b565b91506120f360208401611c4456fea2646970667358221220158a4760f0f8591362d99dd1195a744b00ed8356d5f644cd9667a70806f6c74b64736f6c63430008150033",
    "linkReferences": {}
  },
  "methodIdentifiers": {
    "checkHeaderAndUpdateState(IBCHost,string,bytes,bytes)": "803223dc",
    "createClient(IBCHost,IBCMsgs.MsgCreateClient)": "9eab4ae2",
    "getClient(IBCHost,string)": "2747cfee",
    "registerClient(IBCHost,string,IClient)": "2b37b7c1",
    "updateClient(IBCHost,IBCMsgs.MsgUpdateClient)": "854414f0",
    "validateSelfClient(IBCHost,bytes)": "40f5a1e9",
    "verifyChannelState(IBCHost,string,Height.Data,bytes,bytes,string,string,bytes)": "653890ac",
    "verifyClientConsensusState(IBCHost,string,Height.Data,string,Height.Data,bytes,bytes,bytes)": "5ed8077d",
    "verifyClientState(IBCHost,string,Height.Data,bytes,string,bytes,bytes)": "3f4a2722",
    "verifyConnectionState(IBCHost,string,Height.Data,bytes,bytes,string,bytes)": "a68c51bd",
    "verifyPacketAcknowledgement(IBCHost,string,Height.Data,uint64,uint64,bytes,bytes,string,string,uint64,bytes)": "14e86239",
    "verifyPacketCommitment(IBCHost,string,Height.Data,uint64,uint64,bytes,bytes,string,string,uint64,bytes32)": "fb9ed89c"
  },
  "id": 29
}