{
  "abi": [
    {
      "inputs": [
        {
          "internalType": "string",
          "name": "portId",
          "type": "string"
        },
        {
          "internalType": "string",
          "name": "channelId",
          "type": "string"
        }
      ],
      "name": "channelCapabilityPath",
      "outputs": [
        {
          "internalType": "bytes",
          "name": "",
          "type": "bytes"
        }
      ],
      "stateMutability": "pure",
      "type": "function"
    },
    {
      "inputs": [
        {
          "internalType": "string",
          "name": "portId",
          "type": "string"
        },
        {
          "internalType": "string",
          "name": "channelId",
          "type": "string"
        }
      ],
      "name": "channelCommitmentKey",
      "outputs": [
        {
          "internalType": "bytes32",
          "name": "",
          "type": "bytes32"
        }
      ],
      "stateMutability": "pure",
      "type": "function"
    },
    {
      "inputs": [
        {
          "internalType": "string",
          "name": "portId",
          "type": "string"
        },
        {
          "internalType": "string",
          "name": "channelId",
          "type": "string"
        }
      ],
      "name": "channelCommitmentSlot",
      "outputs": [
        {
          "internalType": "bytes32",
          "name": "",
          "type": "bytes32"
        }
      ],
      "stateMutability": "pure",
      "type": "function"
    },
    {
      "inputs": [
        {
          "internalType": "string",
          "name": "clientId",
          "type": "string"
        }
      ],
      "name": "clientCommitmentKey",
      "outputs": [
        {
          "internalType": "bytes32",
          "name": "",
          "type": "bytes32"
        }
      ],
      "stateMutability": "pure",
      "type": "function"
    },
    {
      "inputs": [
        {
          "internalType": "string",
          "name": "clientId",
          "type": "string"
        }
      ],
      "name": "clientStateCommitmentSlot",
      "outputs": [
        {
          "internalType": "bytes32",
          "name": "",
          "type": "bytes32"
        }
      ],
      "stateMutability": "pure",
      "type": "function"
    },
    {
      "inputs": [
        {
          "internalType": "string",
          "name": "connectionId",
          "type": "string"
        }
      ],
      "name": "connectionCommitmentKey",
      "outputs": [
        {
          "internalType": "bytes32",
          "name": "",
          "type": "bytes32"
        }
      ],
      "stateMutability": "pure",
      "type": "function"
    },
    {
      "inputs": [
        {
          "internalType": "string",
          "name": "connectionId",
          "type": "string"
        }
      ],
      "name": "connectionCommitmentSlot",
      "outputs": [
        {
          "internalType": "bytes32",
          "name": "",
          "type": "bytes32"
        }
      ],
      "stateMutability": "pure",
      "type": "function"
    },
    {
      "inputs": [
        {
          "internalType": "string",
          "name": "clientId",
          "type": "string"
        },
        {
          "internalType": "uint64",
          "name": "revisionNumber",
          "type": "uint64"
        },
        {
          "internalType": "uint64",
          "name": "revisionHeight",
          "type": "uint64"
        }
      ],
      "name": "consensusCommitmentKey",
      "outputs": [
        {
          "internalType": "bytes32",
          "name": "",
          "type": "bytes32"
        }
      ],
      "stateMutability": "pure",
      "type": "function"
    },
    {
      "inputs": [
        {
          "internalType": "string",
          "name": "clientId",
          "type": "string"
        },
        {
          "internalType": "uint64",
          "name": "revisionNumber",
          "type": "uint64"
        },
        {
          "internalType": "uint64",
          "name": "revisionHeight",
          "type": "uint64"
        }
      ],
      "name": "consensusStateCommitmentSlot",
      "outputs": [
        {
          "internalType": "bytes32",
          "name": "",
          "type": "bytes32"
        }
      ],
      "stateMutability": "pure",
      "type": "function"
    },
    {
      "inputs": [
        {
          "internalType": "string",
          "name": "portId",
          "type": "string"
        },
        {
          "internalType": "string",
          "name": "channelId",
          "type": "string"
        }
      ],
      "name": "nextSequenceRecvCommitmentKey",
      "outputs": [
        {
          "internalType": "bytes32",
          "name": "",
          "type": "bytes32"
        }
      ],
      "stateMutability": "pure",
      "type": "function"
    },
    {
      "inputs": [
        {
          "internalType": "string",
          "name": "portId",
          "type": "string"
        },
        {
          "internalType": "string",
          "name": "channelId",
          "type": "string"
        }
      ],
      "name": "nextSequenceRecvCommitmentSlot",
      "outputs": [
        {
          "internalType": "bytes32",
          "name": "",
          "type": "bytes32"
        }
      ],
      "stateMutability": "pure",
      "type": "function"
    },
    {
      "inputs": [
        {
          "internalType": "string",
          "name": "portId",
          "type": "string"
        },
        {
          "internalType": "string",
          "name": "channelId",
          "type": "string"
        },
        {
          "internalType": "uint64",
          "name": "sequence",
          "type": "uint64"
        }
      ],
      "name": "packetAcknowledgementCommitmentKey",
      "outputs": [
        {
          "internalType": "bytes32",
          "name": "",
          "type": "bytes32"
        }
      ],
      "stateMutability": "pure",
      "type": "function"
    },
    {
      "inputs": [
        {
          "internalType": "string",
          "name": "portId",
          "type": "string"
        },
        {
          "internalType": "string",
          "name": "channelId",
          "type": "string"
        },
        {
          "internalType": "uint64",
          "name": "sequence",
          "type": "uint64"
        }
      ],
      "name": "packetAcknowledgementCommitmentSlot",
      "outputs": [
        {
          "internalType": "bytes32",
          "name": "",
          "type": "bytes32"
        }
      ],
      "stateMutability": "pure",
      "type": "function"
    },
    {
      "inputs": [
        {
          "internalType": "string",
          "name": "portId",
          "type": "string"
        },
        {
          "internalType": "string",
          "name": "channelId",
          "type": "string"
        },
        {
          "internalType": "uint64",
          "name": "sequence",
          "type": "uint64"
        }
      ],
      "name": "packetCommitmentKey",
      "outputs": [
        {
          "internalType": "bytes32",
          "name": "",
          "type": "bytes32"
        }
      ],
      "stateMutability": "pure",
      "type": "function"
    },
    {
      "inputs": [
        {
          "internalType": "string",
          "name": "portId",
          "type": "string"
        },
        {
          "internalType": "string",
          "name": "channelId",
          "type": "string"
        },
        {
          "internalType": "uint64",
          "name": "sequence",
          "type": "uint64"
        }
      ],
      "name": "packetCommitmentSlot",
      "outputs": [
        {
          "internalType": "bytes32",
          "name": "",
          "type": "bytes32"
        }
      ],
      "stateMutability": "pure",
      "type": "function"
    },
    {
      "inputs": [
        {
          "internalType": "string",
          "name": "portId",
          "type": "string"
        },
        {
          "internalType": "string",
          "name": "channelId",
          "type": "string"
        },
        {
          "internalType": "uint64",
          "name": "sequence",
          "type": "uint64"
        }
      ],
      "name": "packetReceiptCommitmentKey",
      "outputs": [
        {
          "internalType": "bytes32",
          "name": "",
          "type": "bytes32"
        }
      ],
      "stateMutability": "pure",
      "type": "function"
    },
    {
      "inputs": [
        {
          "internalType": "string",
          "name": "portId",
          "type": "string"
        },
        {
          "internalType": "string",
          "name": "channelId",
          "type": "string"
        },
        {
          "internalType": "uint64",
          "name": "sequence",
          "type": "uint64"
        }
      ],
      "name": "packetReceiptCommitmentSlot",
      "outputs": [
        {
          "internalType": "bytes32",
          "name": "",
          "type": "bytes32"
        }
      ],
      "stateMutability": "pure",
      "type": "function"
    },
    {
      "inputs": [
        {
          "internalType": "string",
          "name": "portId",
          "type": "string"
        }
      ],
      "name": "portCapabilityPath",
      "outputs": [
        {
          "internalType": "bytes",
          "name": "",
          "type": "bytes"
        }
      ],
      "stateMutability": "pure",
      "type": "function"
    }
  ],
  "bytecode": {
    "object": "0x61124161003a600b82828239805160001a60731461002d57634e487b7160e01b600052600060045260246000fd5b30600052607381538281f3fe73000000000000000000000000000000000000000030146080604052600436106101205760003560e01c8063b0cbb120116100ac578063c6c9159c1161007b578063c6c9159c1461023c578063c7ddc6061461024f578063dae1b0f814610262578063e334f11b14610275578063fceb03ab1461028857600080fd5b8063b0cbb120146101f0578063b0db45ba14610203578063c138de2314610216578063c50839ec1461022957600080fd5b80635370d4d3116100f35780635370d4d3146101915780637af6aa78146101a457806383c28eac146101b75780638b89bf24146101ca578063a9dd3eb3146101dd57600080fd5b806324cf0804146101255780632570dae01461014b5780633560a02d1461016b5780633bc3339f1461017e575b600080fd5b61013861013336600461097b565b61029b565b6040519081526020015b60405180910390f35b61015e6101593660046109fb565b610348565b6040516101429190610a60565b610138610179366004610a93565b610375565b61015e61018c366004610a93565b61041f565b61013861019f366004610a93565b610451565b6101386101b2366004610ba0565b6104c6565b6101386101c5366004610bfd565b61050c565b6101386101d83660046109fb565b61052b565b6101386101eb366004610c67565b6105a0565b6101386101fe3660046109fb565b6105d0565b61013861021136600461097b565b610611565b610138610224366004610ca3565b610688565b61013861023736600461097b565b6106cd565b61013861024a366004610d07565b610744565b61013861025d366004610c67565b610759565b610138610270366004610bfd565b61076c565b610138610283366004610bfd565b61078b565b610138610296366004610d07565b6107aa565b600061031286868080601f01602080910402602001604051908101604052809392919081815260200183838082843760009201919091525050604080516020601f8a01819004810282018101909252888152925088915087908190840183828082843760009201919091525087925061050c915050565b60408051602081019290925260009082015260600160405160208183030381529060405280519060200120905095945050505050565b6060828260405160200161035d929190610d6a565b60405160208183030381529060405290505b92915050565b60006103ea85858080601f01602080910402602001604051908101604052809392919081815260200183838082843760009201919091525050604080516020601f8901819004810282018101909252878152925087915086908190840183828082843760009201919091525061074492505050565b604080516020810192909252600090820152606001604051602081830303815290604052805190602001209050949350505050565b6060848484846040516020016104389493929190610d7a565b6040516020818303038152906040529050949350505050565b60006103ea85858080601f01602080910402602001604051908101604052809392919081815260200183838082843760009201919091525050604080516020601f890181900481028201810190925287815292508791508690819084018382808284376000920191909152506107aa92505050565b6000836104d2846107bf565b6104db846107bf565b6040516020016104ed93929190610da5565b6040516020818303038152906040528051906020012090509392505050565b60008383610519846107bf565b6040516020016104ed93929190610e28565b600061056c83838080601f0160208091040260200160405190810160405280939291908181526020018383808284376000920191909152506105a092505050565b6040805160208101929092526000908201526060015b60405160208183030381529060405280519060200120905092915050565b6000816040516020016105b39190610eb5565b604051602081830303815290604052805190602001209050919050565b600061056c83838080601f01602080910402602001604051908101604052809392919081815260200183838082843760009201919091525061075992505050565b600061031286868080601f01602080910402602001604051908101604052809392919081815260200183838082843760009201919091525050604080516020601f8a01819004810282018101909252888152925088915087908190840183828082843760009201919091525087925061076c915050565b60006103ea85858080601f0160208091040260200160405190810160405280939291908181526020018383808284376000920191909152508792508691506104c69050565b600061031286868080601f01602080910402602001604051908101604052809392919081815260200183838082843760009201919091525050604080516020601f8a01819004810282018101909252888152925088915087908190840183828082843760009201919091525087925061078b915050565b60008282604051602001610582929190610ee9565b6000816040516020016105b39190610f4c565b60008383610779846107bf565b6040516020016104ed93929190610f92565b60008383610798846107bf565b6040516020016104ed93929190611022565b600082826040516020016105829291906110ac565b6060816001600160401b03166000036107ef5750506040805180820190915260018152600360fc1b602082015290565b8160005b6001600160401b03821615610822578061080c81611130565b915061081b9050600a83611156565b91506107f3565b6000816001600160401b03166001600160401b0381111561084557610845610afe565b6040519080825280601f01601f19166020018201604052801561086f576020820181803683370190505b509050815b6001600160401b0386161561090e5761088e60018261118a565b9050600061089d600a88611156565b6108a890600a6111b1565b6108b2908861118a565b6108bd9060306111dc565b905060008160f81b90508084846001600160401b0316815181106108e3576108e36111f5565b60200101906001600160f81b031916908160001a905350610905600a89611156565b97505050610874565b50949350505050565b60008083601f84011261092957600080fd5b5081356001600160401b0381111561094057600080fd5b60208301915083602082850101111561095857600080fd5b9250929050565b80356001600160401b038116811461097657600080fd5b919050565b60008060008060006060868803121561099357600080fd5b85356001600160401b03808211156109aa57600080fd5b6109b689838a01610917565b909750955060208801359150808211156109cf57600080fd5b506109dc88828901610917565b90945092506109ef90506040870161095f565b90509295509295909350565b60008060208385031215610a0e57600080fd5b82356001600160401b03811115610a2457600080fd5b610a3085828601610917565b90969095509350505050565b60005b83811015610a57578181015183820152602001610a3f565b50506000910152565b6020815260008251806020840152610a7f816040850160208701610a3c565b601f01601f19169190910160400192915050565b60008060008060408587031215610aa957600080fd5b84356001600160401b0380821115610ac057600080fd5b610acc88838901610917565b90965094506020870135915080821115610ae557600080fd5b50610af287828801610917565b95989497509550505050565b634e487b7160e01b600052604160045260246000fd5b600082601f830112610b2557600080fd5b81356001600160401b0380821115610b3f57610b3f610afe565b604051601f8301601f19908116603f01168101908282118183101715610b6757610b67610afe565b81604052838152866020858801011115610b8057600080fd5b836020870160208301376000602085830101528094505050505092915050565b600080600060608486031215610bb557600080fd5b83356001600160401b03811115610bcb57600080fd5b610bd786828701610b14565b935050610be66020850161095f565b9150610bf46040850161095f565b90509250925092565b600080600060608486031215610c1257600080fd5b83356001600160401b0380821115610c2957600080fd5b610c3587838801610b14565b94506020860135915080821115610c4b57600080fd5b50610c5886828701610b14565b925050610bf46040850161095f565b600060208284031215610c7957600080fd5b81356001600160401b03811115610c8f57600080fd5b610c9b84828501610b14565b949350505050565b60008060008060608587031215610cb957600080fd5b84356001600160401b03811115610ccf57600080fd5b610cdb87828801610917565b9095509350610cee90506020860161095f565b9150610cfc6040860161095f565b905092959194509250565b60008060408385031215610d1a57600080fd5b82356001600160401b0380821115610d3157600080fd5b610d3d86838701610b14565b93506020850135915080821115610d5357600080fd5b50610d6085828601610b14565b9150509250929050565b8183823760009101908152919050565b838582376000848201602f60f81b815283856001830137600093016001019283525090949350505050565b67636c69656e74732f60c01b815260008451610dc8816008850160208901610a3c565b702f636f6e73656e7375735374617465732f60781b6008918401918201528451610df9816019840160208901610a3c565b602d60f81b601992909101918201528351610e1b81601a840160208801610a3c565b01601a0195945050505050565b6e72656365697074732f706f7274732f60881b815260008451610e5281600f850160208901610a3c565b692f6368616e6e656c732f60b01b600f918401918201528451610e7c816019840160208901610a3c565b6a2f73657175656e6365732f60a81b601992909101918201528351610ea8816024840160208801610a3c565b0160240195945050505050565b6b636f6e6e656374696f6e732f60a01b815260008251610edc81600c850160208701610a3c565b91909101600c0192915050565b716368616e6e656c456e64732f706f7274732f60701b815260008351610f16816012850160208801610a3c565b692f6368616e6e656c732f60b01b6012918401918201528351610f4081601c840160208801610a3c565b01601c01949350505050565b67636c69656e74732f60c01b815260008251610f6f816008850160208701610a3c565b6b2f636c69656e74537461746560a01b6008939091019283015250601401919050565b71636f6d6d69746d656e74732f706f7274732f60701b815260008451610fbf816012850160208901610a3c565b692f6368616e6e656c732f60b01b6012918401918201528451610fe981601c840160208901610a3c565b6a2f73657175656e6365732f60a81b601c92909101918201528351611015816027840160208801610a3c565b0160270195945050505050565b6a61636b732f706f7274732f60a81b81526000845161104881600b850160208901610a3c565b692f6368616e6e656c732f60b01b600b918401918201528451611072816015840160208901610a3c565b8082019150506a2f73657175656e6365732f60a81b6015820152835161109f816020840160208801610a3c565b0160200195945050505050565b7f6e65787453657175656e6365526563762f706f7274732f0000000000000000008152600083516110e4816017850160208801610a3c565b692f6368616e6e656c732f60b01b601791840191820152835161110e816021840160208801610a3c565b01602101949350505050565b634e487b7160e01b600052601160045260246000fd5b60006001600160401b0380831681810361114c5761114c61111a565b6001019392505050565b60006001600160401b038084168061117e57634e487b7160e01b600052601260045260246000fd5b92169190910492915050565b6001600160401b038281168282160390808211156111aa576111aa61111a565b5092915050565b6001600160401b038181168382160280821691908281146111d4576111d461111a565b505092915050565b60ff818116838216019081111561036f5761036f61111a565b634e487b7160e01b600052603260045260246000fdfea2646970667358221220a8e8947a0d22218ba43539c5b880e5cc00d4741b251b82ef87dcd8ebe2383b4164736f6c63430008150033",
    "linkReferences": {}
  },
  "methodIdentifiers": {
    "channelCapabilityPath(string,string)": "3bc3339f",
    "channelCommitmentKey(string,string)": "c6c9159c",
    "channelCommitmentSlot(string,string)": "3560a02d",
    "clientCommitmentKey(string)": "c7ddc606",
    "clientStateCommitmentSlot(string)": "b0cbb120",
    "connectionCommitmentKey(string)": "a9dd3eb3",
    "connectionCommitmentSlot(string)": "8b89bf24",
    "consensusCommitmentKey(string,uint64,uint64)": "7af6aa78",
    "consensusStateCommitmentSlot(string,uint64,uint64)": "c138de23",
    "nextSequenceRecvCommitmentKey(string,string)": "fceb03ab",
    "nextSequenceRecvCommitmentSlot(string,string)": "5370d4d3",
    "packetAcknowledgementCommitmentKey(string,string,uint64)": "e334f11b",
    "packetAcknowledgementCommitmentSlot(string,string,uint64)": "c50839ec",
    "packetCommitmentKey(string,string,uint64)": "dae1b0f8",
    "packetCommitmentSlot(string,string,uint64)": "b0db45ba",
    "packetReceiptCommitmentKey(string,string,uint64)": "83c28eac",
    "packetReceiptCommitmentSlot(string,string,uint64)": "24cf0804",
    "portCapabilityPath(string)": "2570dae0"
  },
  "id": 34
}