{
  "abi": [
    {
      "inputs": [
        {
          "internalType": "contract Vm",
          "name": "newVm",
          "type": "address"
        }
      ],
      "stateMutability": "nonpayable",
      "type": "constructor"
    },
    {
      "inputs": [
        {
          "internalType": "uint256",
          "name": "userNum",
          "type": "uint256"
        }
      ],
      "name": "createUsers",
      "outputs": [
        {
          "internalType": "address payable[]",
          "name": "",
          "type": "address[]"
        }
      ],
      "stateMutability": "nonpayable",
      "type": "function"
    },
    {
      "inputs": [],
      "name": "getNextUserAddress",
      "outputs": [
        {
          "internalType": "address payable",
          "name": "",
          "type": "address"
        }
      ],
      "stateMutability": "nonpayable",
      "type": "function"
    },
    {
      "inputs": [
        {
          "internalType": "uint256",
          "name": "numBlocks",
          "type": "uint256"
        }
      ],
      "name": "mineBlocks",
      "outputs": [],
      "stateMutability": "nonpayable",
      "type": "function"
    }
  ],
  "bytecode": {
    "object": "0x6b75736572206164647265737360a01b60a052600c60805260ac6040527ffadd6953a0436e85528ded789af2e2b7e57c1cd7c68c5c3796d8ea67e0018db760015534801561004c57600080fd5b506040516104ae3803806104ae83398101604081905261006b91610090565b600080546001600160a01b0319166001600160a01b03929092169190911790556100c0565b6000602082840312156100a257600080fd5b81516001600160a01b03811681146100b957600080fd5b9392505050565b6103df806100cf6000396000f3fe608060405234801561001057600080fd5b50600436106100415760003560e01c8063792e11f514610046578063b90a68fa1461006f578063f82de7b0146100ac575b600080fd5b61005961005436600461029f565b6100c1565b60405161006691906102b8565b60405180910390f35b600180546040805160208082018490528251808303820181528284019384905280519101209093556001600160a01b039091169052606001610066565b6100bf6100ba36600461029f565b610230565b005b606060008267ffffffffffffffff8111156100de576100de610305565b604051908082528060200260200182016040528015610107578160200160208202803683370190505b50905060005b83811015610229576000306001600160a01b031663b90a68fa6040518163ffffffff1660e01b81526004016020604051808303816000875af1158015610157573d6000803e3d6000fd5b505050506040513d601f19601f8201168201806040525081019061017b919061031b565b60005460405163c88a5e6d60e01b81526001600160a01b03808416600483015268056bc75e2d63100000602483015292935091169063c88a5e6d90604401600060405180830381600087803b1580156101d357600080fd5b505af11580156101e7573d6000803e3d6000fd5b50505050808383815181106101fe576101fe61034b565b6001600160a01b0390921660209283029190910190910152508061022181610377565b91505061010d565b5092915050565b600061023c8243610390565b6000546040516301f7b4f360e41b8152600481018390529192506001600160a01b031690631f7b4f3090602401600060405180830381600087803b15801561028357600080fd5b505af1158015610297573d6000803e3d6000fd5b505050505050565b6000602082840312156102b157600080fd5b5035919050565b6020808252825182820181905260009190848201906040850190845b818110156102f95783516001600160a01b0316835292840192918401916001016102d4565b50909695505050505050565b634e487b7160e01b600052604160045260246000fd5b60006020828403121561032d57600080fd5b81516001600160a01b038116811461034457600080fd5b9392505050565b634e487b7160e01b600052603260045260246000fd5b634e487b7160e01b600052601160045260246000fd5b60006001820161038957610389610361565b5060010190565b808201808211156103a3576103a3610361565b9291505056fea2646970667358221220a2274d07e36421b6e6a0c4b508a32399fe34bcfa523043cf4038401074f4739564736f6c63430008150033",
    "linkReferences": {}
  },
  "methodIdentifiers": {
    "createUsers(uint256)": "792e11f5",
    "getNextUserAddress()": "b90a68fa",
    "mineBlocks(uint256)": "f82de7b0"
  },
  "id": 65
}