{
  "abi": [
    {
      "inputs": [
        {
          "internalType": "uint128",
          "name": "n",
          "type": "uint128"
        }
      ],
      "name": "generateAbsolute",
      "outputs": [
        {
          "internalType": "bytes",
          "name": "absolute",
          "type": "bytes"
        }
      ],
      "stateMutability": "pure",
      "type": "function"
    },
    {
      "inputs": [
        {
          "internalType": "bytes",
          "name": "_account",
          "type": "bytes"
        }
      ],
      "name": "generateAccount",
      "outputs": [
        {
          "internalType": "bytes",
          "name": "account",
          "type": "bytes"
        }
      ],
      "stateMutability": "pure",
      "type": "function"
    },
    {
      "inputs": [
        {
          "internalType": "bytes",
          "name": "_assetId",
          "type": "bytes"
        },
        {
          "internalType": "bytes",
          "name": "_balance",
          "type": "bytes"
        }
      ],
      "name": "generateAsset",
      "outputs": [
        {
          "internalType": "bytes",
          "name": "asset",
          "type": "bytes"
        }
      ],
      "stateMutability": "pure",
      "type": "function"
    },
    {
      "inputs": [
        {
          "internalType": "bytes",
          "name": "assetId",
          "type": "bytes"
        },
        {
          "internalType": "bytes",
          "name": "ratio",
          "type": "bytes"
        }
      ],
      "name": "generateAssetAmount",
      "outputs": [
        {
          "internalType": "bytes",
          "name": "assetAmount",
          "type": "bytes"
        }
      ],
      "stateMutability": "pure",
      "type": "function"
    },
    {
      "inputs": [
        {
          "internalType": "bytes",
          "name": "_globalId",
          "type": "bytes"
        }
      ],
      "name": "generateAssetIdByGlobalId",
      "outputs": [
        {
          "internalType": "bytes",
          "name": "assetId",
          "type": "bytes"
        }
      ],
      "stateMutability": "pure",
      "type": "function"
    },
    {
      "inputs": [
        {
          "internalType": "bytes",
          "name": "_localId",
          "type": "bytes"
        }
      ],
      "name": "generateAssetIdByLocalId",
      "outputs": [
        {
          "internalType": "bytes",
          "name": "assetId",
          "type": "bytes"
        }
      ],
      "stateMutability": "pure",
      "type": "function"
    },
    {
      "inputs": [
        {
          "internalType": "bytes",
          "name": "absolute",
          "type": "bytes"
        }
      ],
      "name": "generateBalanceByAbsolute",
      "outputs": [
        {
          "internalType": "bytes",
          "name": "balance",
          "type": "bytes"
        }
      ],
      "stateMutability": "pure",
      "type": "function"
    },
    {
      "inputs": [
        {
          "internalType": "bytes",
          "name": "ratio",
          "type": "bytes"
        }
      ],
      "name": "generateBalanceByRatio",
      "outputs": [
        {
          "internalType": "bytes",
          "name": "balance",
          "type": "bytes"
        }
      ],
      "stateMutability": "pure",
      "type": "function"
    },
    {
      "inputs": [
        {
          "internalType": "bytes",
          "name": "_unit",
          "type": "bytes"
        }
      ],
      "name": "generateBalanceByUnit",
      "outputs": [
        {
          "internalType": "bytes",
          "name": "balance",
          "type": "bytes"
        }
      ],
      "stateMutability": "pure",
      "type": "function"
    },
    {
      "inputs": [
        {
          "internalType": "uint32",
          "name": "position",
          "type": "uint32"
        },
        {
          "internalType": "bytes",
          "name": "_bindingValue",
          "type": "bytes"
        }
      ],
      "name": "generateBinding",
      "outputs": [
        {
          "internalType": "bytes",
          "name": "binding",
          "type": "bytes"
        }
      ],
      "stateMutability": "pure",
      "type": "function"
    },
    {
      "inputs": [
        {
          "internalType": "bytes",
          "name": "_assetAmount",
          "type": "bytes"
        }
      ],
      "name": "generateBindingValueByAssetAmount",
      "outputs": [
        {
          "internalType": "bytes",
          "name": "bindingValue",
          "type": "bytes"
        }
      ],
      "stateMutability": "pure",
      "type": "function"
    },
    {
      "inputs": [
        {
          "internalType": "bytes",
          "name": "_globalId",
          "type": "bytes"
        }
      ],
      "name": "generateBindingValueByGlobalId",
      "outputs": [
        {
          "internalType": "bytes",
          "name": "bindingValue",
          "type": "bytes"
        }
      ],
      "stateMutability": "pure",
      "type": "function"
    },
    {
      "inputs": [
        {
          "internalType": "bytes[]",
          "name": "_bindings",
          "type": "bytes[]"
        }
      ],
      "name": "generateBindings",
      "outputs": [
        {
          "internalType": "bytes",
          "name": "bindings",
          "type": "bytes"
        }
      ],
      "stateMutability": "pure",
      "type": "function"
    },
    {
      "inputs": [
        {
          "internalType": "bytes",
          "name": "_payload",
          "type": "bytes"
        },
        {
          "internalType": "bytes",
          "name": "_bindings",
          "type": "bytes"
        }
      ],
      "name": "generateCall",
      "outputs": [
        {
          "internalType": "bytes",
          "name": "call",
          "type": "bytes"
        }
      ],
      "stateMutability": "pure",
      "type": "function"
    },
    {
      "inputs": [
        {
          "internalType": "uint128",
          "name": "_globalId",
          "type": "uint128"
        }
      ],
      "name": "generateGlobalId",
      "outputs": [
        {
          "internalType": "bytes",
          "name": "globalId",
          "type": "bytes"
        }
      ],
      "stateMutability": "pure",
      "type": "function"
    },
    {
      "inputs": [
        {
          "internalType": "bytes",
          "name": "_call",
          "type": "bytes"
        }
      ],
      "name": "generateInstructionByCall",
      "outputs": [
        {
          "internalType": "bytes",
          "name": "instruction",
          "type": "bytes"
        }
      ],
      "stateMutability": "pure",
      "type": "function"
    },
    {
      "inputs": [
        {
          "internalType": "bytes",
          "name": "_query",
          "type": "bytes"
        }
      ],
      "name": "generateInstructionByQuery",
      "outputs": [
        {
          "internalType": "bytes",
          "name": "instruction",
          "type": "bytes"
        }
      ],
      "stateMutability": "pure",
      "type": "function"
    },
    {
      "inputs": [
        {
          "internalType": "bytes",
          "name": "_spawn",
          "type": "bytes"
        }
      ],
      "name": "generateInstructionBySpawn",
      "outputs": [
        {
          "internalType": "bytes",
          "name": "instruction",
          "type": "bytes"
        }
      ],
      "stateMutability": "pure",
      "type": "function"
    },
    {
      "inputs": [
        {
          "internalType": "bytes",
          "name": "_transfer",
          "type": "bytes"
        }
      ],
      "name": "generateInstructionByTransfer",
      "outputs": [
        {
          "internalType": "bytes",
          "name": "instruction",
          "type": "bytes"
        }
      ],
      "stateMutability": "pure",
      "type": "function"
    },
    {
      "inputs": [
        {
          "internalType": "bytes[]",
          "name": "_instructions",
          "type": "bytes[]"
        }
      ],
      "name": "generateInstructions",
      "outputs": [
        {
          "internalType": "bytes",
          "name": "instructions",
          "type": "bytes"
        }
      ],
      "stateMutability": "pure",
      "type": "function"
    },
    {
      "inputs": [
        {
          "internalType": "bytes",
          "name": "_localId",
          "type": "bytes"
        }
      ],
      "name": "generateLocalId",
      "outputs": [
        {
          "internalType": "bytes",
          "name": "localId",
          "type": "bytes"
        }
      ],
      "stateMutability": "pure",
      "type": "function"
    },
    {
      "inputs": [
        {
          "internalType": "uint128",
          "name": "_network",
          "type": "uint128"
        }
      ],
      "name": "generateNetwork",
      "outputs": [
        {
          "internalType": "bytes",
          "name": "network",
          "type": "bytes"
        }
      ],
      "stateMutability": "pure",
      "type": "function"
    },
    {
      "inputs": [
        {
          "internalType": "bytes",
          "name": "_tag",
          "type": "bytes"
        },
        {
          "internalType": "bytes",
          "name": "_instructions",
          "type": "bytes"
        }
      ],
      "name": "generateProgram",
      "outputs": [
        {
          "internalType": "bytes",
          "name": "program",
          "type": "bytes"
        }
      ],
      "stateMutability": "pure",
      "type": "function"
    },
    {
      "inputs": [
        {
          "internalType": "uint128",
          "name": "nominator",
          "type": "uint128"
        },
        {
          "internalType": "uint128",
          "name": "denominator",
          "type": "uint128"
        }
      ],
      "name": "generateRatio",
      "outputs": [
        {
          "internalType": "bytes",
          "name": "ratio",
          "type": "bytes"
        }
      ],
      "stateMutability": "pure",
      "type": "function"
    },
    {
      "inputs": [
        {
          "internalType": "uint32",
          "name": "_relayer",
          "type": "uint32"
        }
      ],
      "name": "generateRelayer",
      "outputs": [
        {
          "internalType": "bytes",
          "name": "relayer",
          "type": "bytes"
        }
      ],
      "stateMutability": "pure",
      "type": "function"
    },
    {
      "inputs": [
        {
          "internalType": "uint32",
          "name": "_result",
          "type": "uint32"
        }
      ],
      "name": "generateResult",
      "outputs": [
        {
          "internalType": "bytes",
          "name": "result",
          "type": "bytes"
        }
      ],
      "stateMutability": "pure",
      "type": "function"
    },
    {
      "inputs": [
        {
          "internalType": "bytes",
          "name": "_salt",
          "type": "bytes"
        }
      ],
      "name": "generateSalt",
      "outputs": [
        {
          "internalType": "bytes",
          "name": "salt",
          "type": "bytes"
        }
      ],
      "stateMutability": "pure",
      "type": "function"
    },
    {
      "inputs": [
        {
          "internalType": "uint32",
          "name": "_self",
          "type": "uint32"
        }
      ],
      "name": "generateSelf",
      "outputs": [
        {
          "internalType": "bytes",
          "name": "self",
          "type": "bytes"
        }
      ],
      "stateMutability": "pure",
      "type": "function"
    },
    {
      "inputs": [
        {
          "internalType": "bytes",
          "name": "_network",
          "type": "bytes"
        },
        {
          "internalType": "int32",
          "name": "_security",
          "type": "int32"
        },
        {
          "internalType": "bytes",
          "name": "_salt",
          "type": "bytes"
        },
        {
          "internalType": "bytes",
          "name": "_spawnedProgram",
          "type": "bytes"
        },
        {
          "internalType": "bytes[]",
          "name": "_assets",
          "type": "bytes[]"
        }
      ],
      "name": "generateSpawn",
      "outputs": [
        {
          "internalType": "bytes",
          "name": "spawn",
          "type": "bytes"
        }
      ],
      "stateMutability": "pure",
      "type": "function"
    },
    {
      "inputs": [
        {
          "internalType": "bytes",
          "name": "_account",
          "type": "bytes"
        },
        {
          "internalType": "bytes[]",
          "name": "_assets",
          "type": "bytes[]"
        }
      ],
      "name": "generateTransferByAccount",
      "outputs": [
        {
          "internalType": "bytes",
          "name": "transfer",
          "type": "bytes"
        }
      ],
      "stateMutability": "pure",
      "type": "function"
    },
    {
      "inputs": [
        {
          "internalType": "uint128",
          "name": "n",
          "type": "uint128"
        }
      ],
      "name": "generateUint128",
      "outputs": [
        {
          "internalType": "bytes",
          "name": "u128",
          "type": "bytes"
        }
      ],
      "stateMutability": "pure",
      "type": "function"
    },
    {
      "inputs": [
        {
          "internalType": "uint128",
          "name": "integer",
          "type": "uint128"
        },
        {
          "internalType": "bytes",
          "name": "ratio",
          "type": "bytes"
        }
      ],
      "name": "generateUnit",
      "outputs": [
        {
          "internalType": "bytes",
          "name": "unit",
          "type": "bytes"
        }
      ],
      "stateMutability": "pure",
      "type": "function"
    }
  ],
  "bytecode": {
    "object": "0x608060405234801561001057600080fd5b5061139c806100206000396000f3fe608060405234801561001057600080fd5b50600436106101f05760003560e01c80638e6f4bac1161010f578063b20e9e7d116100a2578063c97833fe11610071578063c97833fe1461041f578063d60490c514610432578063e0a5115714610445578063f0cbe21b1461045857600080fd5b8063b20e9e7d146103d3578063b7fd90e3146103e6578063be8ba65a146103f9578063c85da9801461040c57600080fd5b80639d020ae8116100de5780639d020ae814610387578063a0c9e1a81461039a578063a247e221146103ad578063a3538ebb146103c057600080fd5b80638e6f4bac1461033b5780639170895d1461034e5780639a6cd52b146103615780639a80b0041461037457600080fd5b806339d2b0f91161018757806382f9f3341161015657806382f9f334146102ef5780638425e70f146103025780638af4b9ef146103155780638d26e7a51461032857600080fd5b806339d2b0f9146102a3578063572b6dde146102b65780636da598ce146102c95780637bde48fe146102dc57600080fd5b8063313ff843116101c3578063313ff84314610257578063321ffbe81461026a57806333abe1601461027d57806338f89c821461029057600080fd5b80630522ecab146101f55780630ad6a6841461021e5780631ea6b5c614610231578063263a021114610244575b600080fd5b610208610203366004610db3565b61046b565b6040516102159190610e67565b60405180910390f35b61020861022c366004610e7a565b6104f3565b61020861023f366004610e7a565b610578565b610208610252366004610ed3565b6105b2565b610208610265366004610f8d565b6105f5565b610208610278366004610e7a565b610631565b61020861028b366004610db3565b61066b565b61020861029e366004610e7a565b6106a7565b6102086102b1366004610e7a565b6106e1565b6102086102c4366004610e7a565b61071b565b6102086102d7366004610fe7565b610755565b6102086102ea366004610e7a565b610791565b6102086102fd366004610e7a565b6107cb565b610208610310366004610ed3565b610805565b61020861032336600461103f565b610848565b610208610336366004610e7a565b610888565b61020861034936600461105a565b6108c2565b61020861035c366004610e7a565b610953565b61020861036f366004610ed3565b61098d565b61020861038236600461103f565b6109d0565b610208610395366004610e7a565b610a10565b6102086103a836600461103f565b610a4a565b6102086103bb366004611122565b610a8a565b6102086103ce366004611122565b610ac4565b6102086103e1366004611157565b610afe565b6102086103f4366004610db3565b610b3a565b610208610407366004611173565b610b76565b61020861041a366004610e7a565b610bc1565b61020861042d366004610e7a565b610bfb565b610208610440366004610ed3565b610c35565b610208610453366004610e7a565b610c78565b610208610466366004610db3565b610cb2565b604051630522ecab60e01b815260609073__$42fb3845ba15f249cc8cc72220d41e153f$__90630522ecab906104a790869086906004016111a6565b600060405180830381865af41580156104c4573d6000803e3d6000fd5b505050506040513d6000823e601f3d908101601f191682016040526104ec91908101906111d4565b9392505050565b6040516302b5a9a160e21b815260609073__$42fb3845ba15f249cc8cc72220d41e153f$__90630ad6a6849061052d908590600401610e67565b600060405180830381865af415801561054a573d6000803e3d6000fd5b505050506040513d6000823e601f3d908101601f1916820160405261057291908101906111d4565b92915050565b604051630f535ae360e11b815260609073__$42fb3845ba15f249cc8cc72220d41e153f$__90631ea6b5c69061052d908590600401610e67565b60405163263a021160e01b81526001600160801b038216600482015260609073__$42fb3845ba15f249cc8cc72220d41e153f$__9063263a02119060240161052d565b60405163313ff84360e01b815260609073__$42fb3845ba15f249cc8cc72220d41e153f$__9063313ff843906104a79086908690600401611297565b604051630643ff7d60e31b815260609073__$42fb3845ba15f249cc8cc72220d41e153f$__9063321ffbe89061052d908590600401610e67565b60405163019d5f0b60e51b815260609073__$42fb3845ba15f249cc8cc72220d41e153f$__906333abe160906104a790869086906004016111a6565b604051631c7c4e4160e11b815260609073__$42fb3845ba15f249cc8cc72220d41e153f$__906338f89c829061052d908590600401610e67565b6040516339d2b0f960e01b815260609073__$42fb3845ba15f249cc8cc72220d41e153f$__906339d2b0f99061052d908590600401610e67565b604051632b95b6ef60e11b815260609073__$42fb3845ba15f249cc8cc72220d41e153f$__9063572b6dde9061052d908590600401610e67565b6040516336d2cc6760e11b815260609073__$42fb3845ba15f249cc8cc72220d41e153f$__90636da598ce906104a790869086906004016112bc565b604051633def247f60e11b815260609073__$42fb3845ba15f249cc8cc72220d41e153f$__90637bde48fe9061052d908590600401610e67565b6040516320be7ccd60e21b815260609073__$42fb3845ba15f249cc8cc72220d41e153f$__906382f9f3349061052d908590600401610e67565b604051638425e70f60e01b81526001600160801b038216600482015260609073__$42fb3845ba15f249cc8cc72220d41e153f$__90638425e70f9060240161052d565b604051638af4b9ef60e01b815263ffffffff8216600482015260609073__$42fb3845ba15f249cc8cc72220d41e153f$__90638af4b9ef9060240161052d565b604051638d26e7a560e01b815260609073__$42fb3845ba15f249cc8cc72220d41e153f$__90638d26e7a59061052d908590600401610e67565b60405163239bd2eb60e21b815260609073__$42fb3845ba15f249cc8cc72220d41e153f$__90638e6f4bac9061090490899089908990899089906004016112de565b600060405180830381865af4158015610921573d6000803e3d6000fd5b505050506040513d6000823e601f3d908101601f1916820160405261094991908101906111d4565b9695505050505050565b604051639170895d60e01b815260609073__$42fb3845ba15f249cc8cc72220d41e153f$__90639170895d9061052d908590600401610e67565b604051639a6cd52b60e01b81526001600160801b038216600482015260609073__$42fb3845ba15f249cc8cc72220d41e153f$__90639a6cd52b9060240161052d565b6040516326a02c0160e21b815263ffffffff8216600482015260609073__$42fb3845ba15f249cc8cc72220d41e153f$__90639a80b0049060240161052d565b6040516313a0415d60e31b815260609073__$42fb3845ba15f249cc8cc72220d41e153f$__90639d020ae89061052d908590600401610e67565b6040516314193c3560e31b815263ffffffff8216600482015260609073__$42fb3845ba15f249cc8cc72220d41e153f$__9063a0c9e1a89060240161052d565b60405163a247e22160e01b815260609073__$42fb3845ba15f249cc8cc72220d41e153f$__9063a247e2219061052d908590600401611334565b60405163a3538ebb60e01b815260609073__$42fb3845ba15f249cc8cc72220d41e153f$__9063a3538ebb9061052d908590600401611334565b60405163b20e9e7d60e01b815260609073__$42fb3845ba15f249cc8cc72220d41e153f$__9063b20e9e7d906104a79086908690600401611347565b60405163b7fd90e360e01b815260609073__$42fb3845ba15f249cc8cc72220d41e153f$__9063b7fd90e3906104a790869086906004016111a6565b604051635f45d32d60e11b81526001600160801b0380841660048301528216602482015260609073__$42fb3845ba15f249cc8cc72220d41e153f$__9063be8ba65a906044016104a7565b604051630190bb5360e71b815260609073__$42fb3845ba15f249cc8cc72220d41e153f$__9063c85da9809061052d908590600401610e67565b6040516364bc19ff60e11b815260609073__$42fb3845ba15f249cc8cc72220d41e153f$__9063c97833fe9061052d908590600401610e67565b60405163d60490c560e01b81526001600160801b038216600482015260609073__$42fb3845ba15f249cc8cc72220d41e153f$__9063d60490c59060240161052d565b60405163e0a5115760e01b815260609073__$42fb3845ba15f249cc8cc72220d41e153f$__9063e0a511579061052d908590600401610e67565b60405163f0cbe21b60e01b815260609073__$42fb3845ba15f249cc8cc72220d41e153f$__9063f0cbe21b906104a790869086906004016111a6565b634e487b7160e01b600052604160045260246000fd5b604051601f8201601f1916810167ffffffffffffffff81118282101715610d2d57610d2d610cee565b604052919050565b600067ffffffffffffffff821115610d4f57610d4f610cee565b50601f01601f191660200190565b600082601f830112610d6e57600080fd5b8135610d81610d7c82610d35565b610d04565b818152846020838601011115610d9657600080fd5b816020850160208301376000918101602001919091529392505050565b60008060408385031215610dc657600080fd5b823567ffffffffffffffff80821115610dde57600080fd5b610dea86838701610d5d565b93506020850135915080821115610e0057600080fd5b50610e0d85828601610d5d565b9150509250929050565b60005b83811015610e32578181015183820152602001610e1a565b50506000910152565b60008151808452610e53816020860160208601610e17565b601f01601f19169290920160200192915050565b6020815260006104ec6020830184610e3b565b600060208284031215610e8c57600080fd5b813567ffffffffffffffff811115610ea357600080fd5b610eaf84828501610d5d565b949350505050565b80356001600160801b0381168114610ece57600080fd5b919050565b600060208284031215610ee557600080fd5b6104ec82610eb7565b600082601f830112610eff57600080fd5b8135602067ffffffffffffffff80831115610f1c57610f1c610cee565b8260051b610f2b838201610d04565b9384528581018301938381019088861115610f4557600080fd5b84880192505b85831015610f8157823584811115610f635760008081fd5b610f718a87838c0101610d5d565b8352509184019190840190610f4b565b98975050505050505050565b60008060408385031215610fa057600080fd5b823567ffffffffffffffff80821115610fb857600080fd5b610fc486838701610d5d565b93506020850135915080821115610fda57600080fd5b50610e0d85828601610eee565b60008060408385031215610ffa57600080fd5b61100383610eb7565b9150602083013567ffffffffffffffff81111561101f57600080fd5b610e0d85828601610d5d565b803563ffffffff81168114610ece57600080fd5b60006020828403121561105157600080fd5b6104ec8261102b565b600080600080600060a0868803121561107257600080fd5b853567ffffffffffffffff8082111561108a57600080fd5b61109689838a01610d5d565b9650602088013591508160030b82146110ae57600080fd5b909450604087013590808211156110c457600080fd5b6110d089838a01610d5d565b945060608801359150808211156110e657600080fd5b6110f289838a01610d5d565b9350608088013591508082111561110857600080fd5b5061111588828901610eee565b9150509295509295909350565b60006020828403121561113457600080fd5b813567ffffffffffffffff81111561114b57600080fd5b610eaf84828501610eee565b6000806040838503121561116a57600080fd5b6110038361102b565b6000806040838503121561118657600080fd5b61118f83610eb7565b915061119d60208401610eb7565b90509250929050565b6040815260006111b96040830185610e3b565b82810360208401526111cb8185610e3b565b95945050505050565b6000602082840312156111e657600080fd5b815167ffffffffffffffff8111156111fd57600080fd5b8201601f8101841361120e57600080fd5b805161121c610d7c82610d35565b81815285602083850101111561123157600080fd5b6111cb826020830160208601610e17565b600081518084526020808501808196508360051b8101915082860160005b8581101561128a578284038952611278848351610e3b565b98850198935090840190600101611260565b5091979650505050505050565b6040815260006112aa6040830185610e3b565b82810360208401526111cb8185611242565b6001600160801b0383168152604060208201526000610eaf6040830184610e3b565b60a0815260006112f160a0830188610e3b565b8660030b6020840152828103604084015261130c8187610e3b565b905082810360608401526113208186610e3b565b90508281036080840152610f818185611242565b6020815260006104ec6020830184611242565b63ffffffff83168152604060208201526000610eaf6040830184610e3b56fea26469706673582212205b98b87b0e37218d3f98686b0f3e8476ebe1c63ba5870c3e21b59bbb35e874e464736f6c63430008150033",
    "linkReferences": {
      "src/libraries/SDK.sol": {
        "SDK": [
          {
            "start": 1181,
            "length": 20
          },
          {
            "start": 1317,
            "length": 20
          },
          {
            "start": 1450,
            "length": 20
          },
          {
            "start": 1523,
            "length": 20
          },
          {
            "start": 1575,
            "length": 20
          },
          {
            "start": 1635,
            "length": 20
          },
          {
            "start": 1693,
            "length": 20
          },
          {
            "start": 1753,
            "length": 20
          },
          {
            "start": 1811,
            "length": 20
          },
          {
            "start": 1869,
            "length": 20
          },
          {
            "start": 1927,
            "length": 20
          },
          {
            "start": 1987,
            "length": 20
          },
          {
            "start": 2045,
            "length": 20
          },
          {
            "start": 2118,
            "length": 20
          },
          {
            "start": 2182,
            "length": 20
          },
          {
            "start": 2234,
            "length": 20
          },
          {
            "start": 2292,
            "length": 20
          },
          {
            "start": 2437,
            "length": 20
          },
          {
            "start": 2510,
            "length": 20
          },
          {
            "start": 2574,
            "length": 20
          },
          {
            "start": 2626,
            "length": 20
          },
          {
            "start": 2696,
            "length": 20
          },
          {
            "start": 2748,
            "length": 20
          },
          {
            "start": 2806,
            "length": 20
          },
          {
            "start": 2864,
            "length": 20
          },
          {
            "start": 2924,
            "length": 20
          },
          {
            "start": 3007,
            "length": 20
          },
          {
            "start": 3059,
            "length": 20
          },
          {
            "start": 3117,
            "length": 20
          },
          {
            "start": 3190,
            "length": 20
          },
          {
            "start": 3242,
            "length": 20
          },
          {
            "start": 3300,
            "length": 20
          }
        ]
      }
    }
  },
  "methodIdentifiers": {
    "generateAbsolute(uint128)": "9a6cd52b",
    "generateAccount(bytes)": "8d26e7a5",
    "generateAsset(bytes,bytes)": "33abe160",
    "generateAssetAmount(bytes,bytes)": "0522ecab",
    "generateAssetIdByGlobalId(bytes)": "572b6dde",
    "generateAssetIdByLocalId(bytes)": "39d2b0f9",
    "generateBalanceByAbsolute(bytes)": "e0a51157",
    "generateBalanceByRatio(bytes)": "321ffbe8",
    "generateBalanceByUnit(bytes)": "0ad6a684",
    "generateBinding(uint32,bytes)": "b20e9e7d",
    "generateBindingValueByAssetAmount(bytes)": "c85da980",
    "generateBindingValueByGlobalId(bytes)": "1ea6b5c6",
    "generateBindings(bytes[])": "a3538ebb",
    "generateCall(bytes,bytes)": "b7fd90e3",
    "generateGlobalId(uint128)": "8425e70f",
    "generateInstructionByCall(bytes)": "9170895d",
    "generateInstructionByQuery(bytes)": "38f89c82",
    "generateInstructionBySpawn(bytes)": "7bde48fe",
    "generateInstructionByTransfer(bytes)": "c97833fe",
    "generateInstructions(bytes[])": "a247e221",
    "generateLocalId(bytes)": "82f9f334",
    "generateNetwork(uint128)": "d60490c5",
    "generateProgram(bytes,bytes)": "f0cbe21b",
    "generateRatio(uint128,uint128)": "be8ba65a",
    "generateRelayer(uint32)": "9a80b004",
    "generateResult(uint32)": "a0c9e1a8",
    "generateSalt(bytes)": "9d020ae8",
    "generateSelf(uint32)": "8af4b9ef",
    "generateSpawn(bytes,int32,bytes,bytes,bytes[])": "8e6f4bac",
    "generateTransferByAccount(bytes,bytes[])": "313ff843",
    "generateUint128(uint128)": "263a0211",
    "generateUnit(uint128,bytes)": "6da598ce"
  },
  "id": 61
}