{
  "abi": [
    {
      "inputs": [
        {
          "internalType": "contract IBCHost",
          "name": "host",
          "type": "address"
        },
        {
          "internalType": "string",
          "name": "clientId",
          "type": "string"
        },
        {
          "internalType": "bytes",
          "name": "clientStateBytes",
          "type": "bytes"
        },
        {
          "internalType": "bytes",
          "name": "headerBytes",
          "type": "bytes"
        }
      ],
      "name": "checkHeaderAndUpdateState",
      "outputs": [
        {
          "internalType": "bytes",
          "name": "newClientStateBytes",
          "type": "bytes"
        },
        {
          "internalType": "bytes",
          "name": "newConsensusStateBytes",
          "type": "bytes"
        },
        {
          "components": [
            {
              "internalType": "uint64",
              "name": "revision_number",
              "type": "uint64"
            },
            {
              "internalType": "uint64",
              "name": "revision_height",
              "type": "uint64"
            }
          ],
          "internalType": "struct Height.Data",
          "name": "height",
          "type": "tuple"
        }
      ],
      "stateMutability": "view",
      "type": "function"
    },
    {
      "inputs": [
        {
          "internalType": "contract IBCHost",
          "name": "host",
          "type": "address"
        },
        {
          "internalType": "string",
          "name": "clientId",
          "type": "string"
        }
      ],
      "name": "getClientState",
      "outputs": [
        {
          "components": [
            {
              "internalType": "string",
              "name": "chain_id",
              "type": "string"
            },
            {
              "internalType": "bytes",
              "name": "ibc_store_address",
              "type": "bytes"
            },
            {
              "components": [
                {
                  "internalType": "uint64",
                  "name": "revision_number",
                  "type": "uint64"
                },
                {
                  "internalType": "uint64",
                  "name": "revision_height",
                  "type": "uint64"
                }
              ],
              "internalType": "struct Height.Data",
              "name": "latest_height",
              "type": "tuple"
            }
          ],
          "internalType": "struct IbcLightclientsIbft2V1ClientState.Data",
          "name": "clientState",
          "type": "tuple"
        },
        {
          "internalType": "bool",
          "name": "found",
          "type": "bool"
        }
      ],
      "stateMutability": "view",
      "type": "function"
    },
    {
      "inputs": [
        {
          "internalType": "contract IBCHost",
          "name": "host",
          "type": "address"
        },
        {
          "internalType": "string",
          "name": "clientId",
          "type": "string"
        },
        {
          "components": [
            {
              "internalType": "uint64",
              "name": "revision_number",
              "type": "uint64"
            },
            {
              "internalType": "uint64",
              "name": "revision_height",
              "type": "uint64"
            }
          ],
          "internalType": "struct Height.Data",
          "name": "height",
          "type": "tuple"
        }
      ],
      "name": "getConsensusState",
      "outputs": [
        {
          "components": [
            {
              "internalType": "uint64",
              "name": "timestamp",
              "type": "uint64"
            },
            {
              "internalType": "bytes",
              "name": "root",
              "type": "bytes"
            },
            {
              "internalType": "bytes[]",
              "name": "validators",
              "type": "bytes[]"
            }
          ],
          "internalType": "struct IbcLightclientsIbft2V1ConsensusState.Data",
          "name": "consensusState",
          "type": "tuple"
        },
        {
          "internalType": "bool",
          "name": "found",
          "type": "bool"
        }
      ],
      "stateMutability": "view",
      "type": "function"
    },
    {
      "inputs": [
        {
          "internalType": "contract IBCHost",
          "name": "host",
          "type": "address"
        },
        {
          "internalType": "string",
          "name": "clientId",
          "type": "string"
        }
      ],
      "name": "getLatestHeight",
      "outputs": [
        {
          "components": [
            {
              "internalType": "uint64",
              "name": "revision_number",
              "type": "uint64"
            },
            {
              "internalType": "uint64",
              "name": "revision_height",
              "type": "uint64"
            }
          ],
          "internalType": "struct Height.Data",
          "name": "",
          "type": "tuple"
        },
        {
          "internalType": "bool",
          "name": "",
          "type": "bool"
        }
      ],
      "stateMutability": "view",
      "type": "function"
    },
    {
      "inputs": [
        {
          "internalType": "contract IBCHost",
          "name": "host",
          "type": "address"
        },
        {
          "internalType": "string",
          "name": "clientId",
          "type": "string"
        },
        {
          "components": [
            {
              "internalType": "uint64",
              "name": "revision_number",
              "type": "uint64"
            },
            {
              "internalType": "uint64",
              "name": "revision_height",
              "type": "uint64"
            }
          ],
          "internalType": "struct Height.Data",
          "name": "height",
          "type": "tuple"
        }
      ],
      "name": "getTimestampAtHeight",
      "outputs": [
        {
          "internalType": "uint64",
          "name": "",
          "type": "uint64"
        },
        {
          "internalType": "bool",
          "name": "",
          "type": "bool"
        }
      ],
      "stateMutability": "view",
      "type": "function"
    },
    {
      "inputs": [
        {
          "internalType": "contract IBCHost",
          "name": "host",
          "type": "address"
        },
        {
          "internalType": "string",
          "name": "clientId",
          "type": "string"
        },
        {
          "components": [
            {
              "internalType": "uint64",
              "name": "revision_number",
              "type": "uint64"
            },
            {
              "internalType": "uint64",
              "name": "revision_height",
              "type": "uint64"
            }
          ],
          "internalType": "struct Height.Data",
          "name": "height",
          "type": "tuple"
        },
        {
          "internalType": "bytes",
          "name": "prefix",
          "type": "bytes"
        },
        {
          "internalType": "bytes",
          "name": "proof",
          "type": "bytes"
        },
        {
          "internalType": "string",
          "name": "portId",
          "type": "string"
        },
        {
          "internalType": "string",
          "name": "channelId",
          "type": "string"
        },
        {
          "internalType": "bytes",
          "name": "channelBytes",
          "type": "bytes"
        }
      ],
      "name": "verifyChannelState",
      "outputs": [
        {
          "internalType": "bool",
          "name": "",
          "type": "bool"
        }
      ],
      "stateMutability": "view",
      "type": "function"
    },
    {
      "inputs": [
        {
          "internalType": "contract IBCHost",
          "name": "host",
          "type": "address"
        },
        {
          "internalType": "string",
          "name": "clientId",
          "type": "string"
        },
        {
          "components": [
            {
              "internalType": "uint64",
              "name": "revision_number",
              "type": "uint64"
            },
            {
              "internalType": "uint64",
              "name": "revision_height",
              "type": "uint64"
            }
          ],
          "internalType": "struct Height.Data",
          "name": "height",
          "type": "tuple"
        },
        {
          "internalType": "string",
          "name": "counterpartyClientIdentifier",
          "type": "string"
        },
        {
          "components": [
            {
              "internalType": "uint64",
              "name": "revision_number",
              "type": "uint64"
            },
            {
              "internalType": "uint64",
              "name": "revision_height",
              "type": "uint64"
            }
          ],
          "internalType": "struct Height.Data",
          "name": "consensusHeight",
          "type": "tuple"
        },
        {
          "internalType": "bytes",
          "name": "prefix",
          "type": "bytes"
        },
        {
          "internalType": "bytes",
          "name": "proof",
          "type": "bytes"
        },
        {
          "internalType": "bytes",
          "name": "consensusStateBytes",
          "type": "bytes"
        }
      ],
      "name": "verifyClientConsensusState",
      "outputs": [
        {
          "internalType": "bool",
          "name": "",
          "type": "bool"
        }
      ],
      "stateMutability": "view",
      "type": "function"
    },
    {
      "inputs": [
        {
          "internalType": "contract IBCHost",
          "name": "host",
          "type": "address"
        },
        {
          "internalType": "string",
          "name": "clientId",
          "type": "string"
        },
        {
          "components": [
            {
              "internalType": "uint64",
              "name": "revision_number",
              "type": "uint64"
            },
            {
              "internalType": "uint64",
              "name": "revision_height",
              "type": "uint64"
            }
          ],
          "internalType": "struct Height.Data",
          "name": "height",
          "type": "tuple"
        },
        {
          "internalType": "bytes",
          "name": "prefix",
          "type": "bytes"
        },
        {
          "internalType": "string",
          "name": "counterpartyClientIdentifier",
          "type": "string"
        },
        {
          "internalType": "bytes",
          "name": "proof",
          "type": "bytes"
        },
        {
          "internalType": "bytes",
          "name": "clientStateBytes",
          "type": "bytes"
        }
      ],
      "name": "verifyClientState",
      "outputs": [
        {
          "internalType": "bool",
          "name": "",
          "type": "bool"
        }
      ],
      "stateMutability": "view",
      "type": "function"
    },
    {
      "inputs": [
        {
          "internalType": "contract IBCHost",
          "name": "host",
          "type": "address"
        },
        {
          "internalType": "string",
          "name": "clientId",
          "type": "string"
        },
        {
          "components": [
            {
              "internalType": "uint64",
              "name": "revision_number",
              "type": "uint64"
            },
            {
              "internalType": "uint64",
              "name": "revision_height",
              "type": "uint64"
            }
          ],
          "internalType": "struct Height.Data",
          "name": "height",
          "type": "tuple"
        },
        {
          "internalType": "bytes",
          "name": "prefix",
          "type": "bytes"
        },
        {
          "internalType": "bytes",
          "name": "proof",
          "type": "bytes"
        },
        {
          "internalType": "string",
          "name": "connectionId",
          "type": "string"
        },
        {
          "internalType": "bytes",
          "name": "connectionBytes",
          "type": "bytes"
        }
      ],
      "name": "verifyConnectionState",
      "outputs": [
        {
          "internalType": "bool",
          "name": "",
          "type": "bool"
        }
      ],
      "stateMutability": "view",
      "type": "function"
    },
    {
      "inputs": [
        {
          "internalType": "contract IBCHost",
          "name": "host",
          "type": "address"
        },
        {
          "internalType": "string",
          "name": "clientId",
          "type": "string"
        },
        {
          "components": [
            {
              "internalType": "uint64",
              "name": "revision_number",
              "type": "uint64"
            },
            {
              "internalType": "uint64",
              "name": "revision_height",
              "type": "uint64"
            }
          ],
          "internalType": "struct Height.Data",
          "name": "height",
          "type": "tuple"
        },
        {
          "internalType": "uint64",
          "name": "delayPeriodTime",
          "type": "uint64"
        },
        {
          "internalType": "uint64",
          "name": "delayPeriodBlocks",
          "type": "uint64"
        },
        {
          "internalType": "bytes",
          "name": "prefix",
          "type": "bytes"
        },
        {
          "internalType": "bytes",
          "name": "proof",
          "type": "bytes"
        },
        {
          "internalType": "string",
          "name": "portId",
          "type": "string"
        },
        {
          "internalType": "string",
          "name": "channelId",
          "type": "string"
        },
        {
          "internalType": "uint64",
          "name": "sequence",
          "type": "uint64"
        },
        {
          "internalType": "bytes",
          "name": "acknowledgement",
          "type": "bytes"
        }
      ],
      "name": "verifyPacketAcknowledgement",
      "outputs": [
        {
          "internalType": "bool",
          "name": "",
          "type": "bool"
        }
      ],
      "stateMutability": "view",
      "type": "function"
    },
    {
      "inputs": [
        {
          "internalType": "contract IBCHost",
          "name": "host",
          "type": "address"
        },
        {
          "internalType": "string",
          "name": "clientId",
          "type": "string"
        },
        {
          "components": [
            {
              "internalType": "uint64",
              "name": "revision_number",
              "type": "uint64"
            },
            {
              "internalType": "uint64",
              "name": "revision_height",
              "type": "uint64"
            }
          ],
          "internalType": "struct Height.Data",
          "name": "height",
          "type": "tuple"
        },
        {
          "internalType": "uint64",
          "name": "delayPeriodTime",
          "type": "uint64"
        },
        {
          "internalType": "uint64",
          "name": "delayPeriodBlocks",
          "type": "uint64"
        },
        {
          "internalType": "bytes",
          "name": "prefix",
          "type": "bytes"
        },
        {
          "internalType": "bytes",
          "name": "proof",
          "type": "bytes"
        },
        {
          "internalType": "string",
          "name": "portId",
          "type": "string"
        },
        {
          "internalType": "string",
          "name": "channelId",
          "type": "string"
        },
        {
          "internalType": "uint64",
          "name": "sequence",
          "type": "uint64"
        },
        {
          "internalType": "bytes32",
          "name": "commitmentBytes",
          "type": "bytes32"
        }
      ],
      "name": "verifyPacketCommitment",
      "outputs": [
        {
          "internalType": "bool",
          "name": "",
          "type": "bool"
        }
      ],
      "stateMutability": "view",
      "type": "function"
    }
  ],
  "bytecode": {
    "object": "0x608060405234801561001057600080fd5b50614d84806100206000396000f3fe608060405234801561001057600080fd5b50600436106100a95760003560e01c8063a8432fa111610071578063a8432fa114610141578063c9f13d2614610154578063dd8dd65f14610167578063fe01775014610188578063fe4391fd146101a9578063ff33b3e6146101cb57600080fd5b806354596a36146100ae5780638eaa4a38146100d65780639e6671bd146100e9578063a0aaade7146100fc578063a65a0aba1461010f575b600080fd5b6100c16100bc36600461400d565b6101ec565b60405190151581526020015b60405180910390f35b6100c16100e4366004614165565b61035f565b6100c16100f736600461426c565b610484565b6100c161010a366004614360565b610550565b61012261011d36600461449b565b610686565b604080516001600160401b0390931683529015156020830152016100cd565b6100c161014f36600461426c565b6106bf565b6100c16101623660046144f9565b61077a565b61017a61017536600461449b565b610837565b6040516100cd929190614645565b61019b6101963660046146e2565b6108eb565b6040516100cd92919061472f565b6101bc6101b7366004614762565b61094c565b6040516100cd939291906147fa565b6101de6101d93660046146e2565b610c23565b6040516100cd929190614845565b6000806101f98d8d610cd4565b9050610207818c8a8a610d3d565b610215576000915050610350565b6102228d8d8d8d8d610d8a565b610230576000915050610350565b60006102496102408f8f8f610e46565b60200151610eb8565b9050600073__$e8d25bfa17c0068737354d2e5fba1521b0$__63c50839ec8989896040518463ffffffff1660e01b8152600401610288939291906148bd565b602060405180830381865af41580156102a5573d6000803e3d6000fd5b505050506040513d601f19601f820116820180604052508101906102c991906148fc565b905060008f6001600160a01b0316638a889658876040518263ffffffff1660e01b81526004016102f99190614915565b602060405180830381865afa158015610316573d6000803e3d6000fd5b505050506040513d601f19601f8201168201806040525081019061033a91906148fc565b90506103498a848d8585610f13565b9450505050505b9b9a5050505050505050505050565b6000610369613d73565b610371613dab565b600061037d8c8c610c23565b9093509050806103935760009350505050610478565b61039f838b8989610d3d565b6103af5760009350505050610478565b6103ba8c8c8c610837565b9092509050806103d05760009350505050610478565b610472866103e18460200151610eb8565b8973__$e8d25bfa17c0068737354d2e5fba1521b0$__63c138de238e8e600001518f602001516040518463ffffffff1660e01b815260040161042593929190614928565b602060405180830381865af4158015610442573d6000803e3d6000fd5b505050506040513d601f19601f8201168201806040525081019061046691906148fc565b895160208b0120610f13565b93505050505b98975050505050505050565b600061048e613d73565b610496613dab565b60006104a28b8b610c23565b9093509050806104b85760009350505050610545565b6104c4838a8a89610d3d565b6104d45760009350505050610545565b6104df8b8b8b610837565b9092509050806104f55760009350505050610545565b61053f866105068460200151610eb8565b6040516305865d8960e51b81528b9073__$e8d25bfa17c0068737354d2e5fba1521b0$__9063b0cbb12090610425908e90600401614915565b93505050505b979650505050505050565b600061055a613d73565b610562613dab565b600061056e8f8f610c23565b9093509050806105845760009350505050610350565b610590838e8c8c610d3d565b6105a05760009350505050610350565b6105ad8f8f8f8f8f610d8a565b6105bd5760009350505050610350565b6105c88f8f8f610837565b9092509050806105de5760009350505050610350565b610673896105ef8460200151610eb8565b60405163586da2dd60e11b81528d9073__$e8d25bfa17c0068737354d2e5fba1521b0$__9063b0db45ba9061062c908f908f908f906004016148bd565b602060405180830381865af4158015610649573d6000803e3d6000fd5b505050506040513d601f19601f8201168201806040525081019061066d91906148fc565b89610f13565b9f9e505050505050505050505050505050565b600080600080610697878787610837565b91509150806106ae576000809350935050506106b7565b50519150600190505b935093915050565b60006106c9613d73565b6106d1613dab565b60006106dd8b8b610c23565b9093509050806106f35760009350505050610545565b6106ff838a8a8a610d3d565b61070f5760009350505050610545565b61071a8b8b8b610837565b9092509050806107305760009350505050610545565b61053f876107418460200151610eb8565b6040516322e26fc960e21b81528b9073__$e8d25bfa17c0068737354d2e5fba1521b0$__90638b89bf2490610425908d90600401614915565b6000610784613d73565b61078c613dab565b60006107988c8c610c23565b9093509050806107ae5760009350505050610478565b6107ba838b8b8b610d3d565b6107ca5760009350505050610478565b6107d58c8c8c610837565b9092509050806107eb5760009350505050610478565b610472886107fc8460200151610eb8565b604051633560a02d60e01b81528c9073__$e8d25bfa17c0068737354d2e5fba1521b0$__90633560a02d90610425908e908e9060040161495b565b61083f613dab565b60006060856001600160a01b0316636cf44bf486866040518363ffffffff1660e01b8152600401610871929190614980565b600060405180830381865afa15801561088e573d6000803e3d6000fd5b505050506040513d6000823e601f3d908101601f191682016040526108b691908101906149c8565b92509050816108c95750600090506106b7565b6108de6108d582610f79565b60200151610fa4565b9660019650945050505050565b6040805180820190915260008082526020820152600080600061090e8686610c23565b9150915080610939575050604080518082019091526000808252602082018190529092509050610945565b50604001519150600190505b9250929050565b606080610969604080518082019091526000808252602082015290565b610971613dd5565b610979613d73565b610981613dab565b6060600061098e8a610fbb565b9094509050806109e55760405162461bcd60e51b815260206004820152601760248201527f636c69656e7420737461746520697320696e76616c696400000000000000000060448201526064015b60405180910390fd5b6109ee89611078565b909550905080610a345760405162461bcd60e51b81526020600482015260116024820152701a195859195c881a5cc81a5b9d985b1a59607a1b60448201526064016109dc565b610a438c8c8760400151610837565b909350905080610a955760405162461bcd60e51b815260206004820152601860248201527f636f6e73656e7375735374617465206e6f7420666f756e64000000000000000060448201526064016109dc565b6000610aa086611125565b9050610abd866040015182602001516112e490919063ffffffff16565b610b195760405162461bcd60e51b815260206004820152602760248201527f68656164657220686569676874203c3d20636f6e73656e737573207374617465604482015266081a195a59da1d60ca1b60648201526084016109dc565b610b238482611333565b909350915081610b755760405162461bcd60e51b815260206004820152601b60248201527f6661696c656420746f207665726966792074686520686561646572000000000060448201526064016109dc565b60608101516001600160401b031684526020850151610ba690610b97906113a0565b826040015188606001516113fb565b604051602001610bb891815260200190565b60408051601f1981840301815291815260208681019290925285810185905286015190820151610be7916112e4565b15610bf757602081015160408601525b610c0085611474565b610c09856114c5565b602090920151909e919d509b509950505050505050505050565b610c2b613d73565b60006060846001600160a01b03166376c81c42856040518263ffffffff1660e01b8152600401610c5b9190614915565b600060405180830381865afa158015610c78573d6000803e3d6000fd5b505050506040513d6000823e601f3d908101601f19168201604052610ca091908101906149c8565b9250905081610cb3575060009050610945565b610cc8610cbf82610f79565b60200151611508565b95600195509350505050565b610cdc613d73565b600080610ce98585610c23565b9150915080610d335760405162461bcd60e51b815260206004820152601660248201527518db1a595b9d081cdd185d19481b9bdd08199bdd5b9960521b60448201526064016109dc565b5090505b92915050565b6040840151600090610d4f908561151f565b15610d5c57506000610d82565b8251600003610d6d57506000610d82565b8151600003610d7e57506000610d82565b5060015b949350505050565b600080610d99426103e8614a66565b610da5906103e8614a66565b610db1906103e8614a66565b9050600084610dc189898961156e565b610dcb9190614a7d565b9050806001600160401b0316826001600160401b03161015610df257600092505050610e3d565b43600085610e018b8b8b611656565b610e0b9190614a7d565b9050806001600160401b0316826001600160401b03161015610e34576000945050505050610e3d565b60019450505050505b95945050505050565b610e4e613dab565b600080610e5c868686610837565b9150915080610ead5760405162461bcd60e51b815260206004820152601960248201527f636f6e73656e737573207374617465206e6f7420666f756e640000000000000060448201526064016109dc565b5090505b9392505050565b60008151602014610f0b5760405162461bcd60e51b815260206004820152601b60248201527f63616e6e6f7420636f6e7665727420696e746f2061646472657373000000000060448201526064016109dc565b506020015190565b60008083604051602001610f2991815260200190565b60408051601f19818403018152919052805160209091012090506000610f5088888461171a565b9050610f6b610f66610f6183611c35565b611c89565b610eb8565b909314979650505050505050565b60408051808201909152606080825260208201526000610f9c6020848551611d22565b509392505050565b610fac613dab565b6000610f9c6020848551611ebe565b610fc3613d73565b600080610fcf84610f79565b9050604051602001611013907f2f6962632e6c69676874636c69656e74732e69626674322e76312e436c69656e81526574537461746560d01b602082015260260190565b60408051601f198184030181529082905280516020918201208351909261103a9201614a9d565b604051602081830303815290604052805190602001201461106057509092600092509050565b61106d8160200151611508565b946001945092505050565b611080613dd5565b60008061108c84610f79565b90506040516020016110cb907f2f6962632e6c69676874636c69656e74732e69626674322e76312e48656164658152603960f91b602082015260210190565b60408051601f19818403018152908290528051602091820120835190926110f29201614a9d565b604051602081830303815290604052805190602001201461111857509092600092509050565b61106d816020015161203b565b61112d613e15565b611135613e15565b828152825160009061114f9061114a90611c35565b612052565b9050611177610f668260038151811061116a5761116a614ab9565b6020026020010151611c89565b826040018181525050604051806040016040528060006001600160401b031681526020016111be836008815181106111b1576111b1614ab9565b60200260200101516121b9565b6001600160401b0316905260208301528051600f1461121f5760405162461bcd60e51b815260206004820152601760248201527f6974656d73206c656e677468206d75737420626520313500000000000000000060448201526064016109dc565b61123581600b815181106111b1576111b1614ab9565b6001600160401b0316606083015280516112699061114a90611264908490600c90811061116a5761116a614ab9565b611c35565b905080516004146112b55760405162461bcd60e51b8152602060048201526016602482015275195e1d1c98481b195b99dd1a081b5d5cdd081899480d60521b60448201526064016109dc565b6112d8816001815181106112cb576112cb614ab9565b6020026020010151612052565b60808301525092915050565b805182516000916001600160401b0390811691161180610eb15750815183516001600160401b039081169116148015610eb15750506020908101519101516001600160401b0391821691161190565b8051805180516020918201206040808601519383015181518083019092526001825260039382019390935260609360009361136f928490612207565b61137d575060009050610945565b6113948460800151856000015160200151836123b3565b92509250509250929050565b600081516014146113f35760405162461bcd60e51b815260206004820152601b60248201527f63616e6e6f7420636f6e7665727420696e746f2061646472657373000000000060448201526064016109dc565b506014015190565b6040516bffffffffffffffffffffffff19606085901b166020820152600090819060340160408051601f1981840301815291905280516020909101209050600061144684868461171a565b905061146a61145761114a83611c35565b805160029081106111b1576111b1614ab9565b9695505050505050565b6060611493604051806040016040528060608152602001606081525090565b604051806060016040528060268152602001614d006026913981526114b7836124f9565b6020820152610eb181612561565b60606114e4604051806040016040528060608152602001606081525090565b604051806060016040528060298152602001614d266029913981526114b7836125c0565b611510613d73565b6000610f9c602084855161261f565b805182516000916001600160401b0390811691161080610eb15750815183516001600160401b039081169116148015610eb15750506020908101519101516001600160401b0391821691161090565b6000806000856001600160a01b031663c040ff7586866040518363ffffffff1660e01b81526004016115a1929190614980565b6040805180830381865afa1580156115bd573d6000803e3d6000fd5b505050506040513d601f19601f820116820180604052508101906115e19190614acf565b91509150806116325760405162461bcd60e51b815260206004820152601860248201527f70726f6365737365642074696d65206e6f7420666f756e64000000000000000060448201526064016109dc565b61163e826103e8614af2565b61164a906103e8614af2565b61146a906103e8614af2565b6000806000856001600160a01b0316631172938a86866040518363ffffffff1660e01b8152600401611689929190614980565b6040805180830381865afa1580156116a5573d6000803e3d6000fd5b505050506040513d601f19601f820116820180604052508101906116c99190614acf565b9150915080610ead5760405162461bcd60e51b815260206004820152601a60248201527f70726f63657373656420686569676874206e6f7420666f756e6400000000000060448201526064016109dc565b604080516020808252818301909252606091600091906020820181803683370190505090508260208201526117508160006126cc565b9050600061176061114a87611c35565b90506000611781604051806040016040528060008152602001600081525090565b600080845160000361180b577f56e81f171bcc55a6ff8345e692c0f86e5b48e01b996cadc001622fb5e363b42189146117ee5760405162461bcd60e51b815260206004820152600f60248201526e2130b21032b6b83a3c90383937b7b360891b60448201526064016109dc565b50506040805160008152602081019091529450610eb19350505050565b60005b8551811015611c1f57600061183b87838151811061182e5761182e614ab9565b60200260200101516128eb565b90508160000361189657805160208201208b146118915760405162461bcd60e51b815260206004820152601460248201527310985908199a5c9cdd081c1c9bdbd9881c185c9d60621b60448201526064016109dc565b6118d6565b8051602082012083146118d65760405162461bcd60e51b8152602060048201526008602482015267084c2c840d0c2e6d60c31b60448201526064016109dc565b60006118ed8884815181106112cb576112cb614ab9565b90508051600203611a0f5760006119186119138360008151811061116a5761116a614ab9565b61295a565b9050611925868b83612a0f565b61192f9087614b15565b95506001895161193f9190614b28565b84036119bc57895186146119955760405162461bcd60e51b815260206004820152601e60248201527f556e657870656374656420656e64206f662070726f6f6620286c65616629000060448201526064016109dc565b6119ab8260018151811061116a5761116a614ab9565b9a5050505050505050505050610eb1565b816001815181106119cf576119cf614ab9565b602002602001015196506119e287612a9a565b6119f6576119ef87612ac5565b9450611a09565b6119ff876128eb565b8051906020012094505b50611c0a565b8051601114611a565760405162461bcd60e51b8152602060048201526013602482015272092dcecc2d8d2c840dcdec8ca40d8cadccee8d606b1b60448201526064016109dc565b60018851611a649190614b28565b8303611b44578851611a77866001614b15565b03611aa257611a928160108151811061116a5761116a614ab9565b9950505050505050505050610eb1565b611aac8b86612b1d565b9650808760ff1681518110611ac357611ac3614ab9565b60200260200101519550611ad686611c89565b5115611b245760405162461bcd60e51b815260206004820152601760248201527f496e76616c6964206578636c7573696f6e2070726f6f6600000000000000000060448201526064016109dc565b50506040805160008152602081019091529750610eb19650505050505050565b88518510611ba05760405162461bcd60e51b815260206004820152602360248201527f436f6e74696e75696e67206272616e636820686173206465706c6574656420706044820152620c2e8d60eb1b60648201526084016109dc565b611baa8b86612b1d565b9650808760ff1681518110611bc157611bc1614ab9565b60200260200101519550600185611bd89190614b15565b9450611be386612a9a565b611bf757611bf086612ac5565b9350611c0a565b611c00866128eb565b8051906020012093505b50508080611c1790614b3b565b91505061180e565b50611c28614b54565b5050505050509392505050565b60408051808201909152600080825260208201528151600003611c6b575050604080518082019091526000808252602082015290565b50604080518082019091528151815260209182019181019190915290565b60606000611c9a8360200151612ba9565b90506000818460000151611cae9190614b28565b90506000816001600160401b03811115611cca57611cca613ed6565b6040519080825280601f01601f191660200182016040528015611cf4576020820181803683370190505b5090506000816020019050611d19848760200151611d129190614b15565b8285612c2a565b50949350505050565b60408051808201909152606080825260208201526000611d55604051806040016040528060608152602001606081525090565b611d5d613e60565b6000808089805b611d6e8a83614b15565b811015611eac57611d7f818c612c9c565b91965094509250611d908382614b15565b905084600103611db757611da6818c8989612ce7565b611db09082614b15565b9050611d64565b84600203611dcb57611da6818c8989612d55565b6001846005811115611ddf57611ddf614b6a565b03611e02576000611df0828d612d9a565b9150611dfe90508183614b15565b9150505b6005846005811115611e1657611e16614b6a565b03611e39576000611e27828d612db9565b9150611e3590508183614b15565b9150505b6000846005811115611e4d57611e4d614b6a565b03611e70576000611e5e828d612dcb565b9150611e6c90508183614b15565b9150505b6002846005811115611e8457611e84614b6a565b03611ea7576000611e95828d612eb4565b9150611ea390508183614b15565b9150505b611d64565b50949a97995096975050505050505050565b611ec6613dab565b6000611ed0613dab565b611ed8613e7e565b6000808089805b611ee98a83614b15565b811015611f6a57611efa818c612c9c565b91965094509250611f0b8382614b15565b905084600103611f3157611f20818c89612f76565b611f2a9082614b15565b9050611edf565b84600203611f4457611f20818c89612f9d565b84600303611f5f57611f20818c611f59612fbd565b89612fcb565b611f2084828d613032565b506060850151819015611fdd5760408701515115611f8757600080fd5b60608601516001600160401b03811115611fa357611fa3613ed6565b604051908082528060200260200182016040528015611fd657816020015b6060815260200190600190039081611fc15790505b5060408801525b611fe78a83614b15565b811015611eac57611ff8818c612c9c565b919650945092506120098382614b15565b9050846003036120305761201f818c8989612fcb565b6120299082614b15565b9050611fdd565b61201f84828d613032565b612043613dd5565b6000610f9c60208485516130e8565b606061205d82612a9a565b6120bc5760405162461bcd60e51b815260206004820152602a60248201527f43616e6e6f7420636f6e7665727420746f206c6973742061206e6f6e2d6c69736044820152693a1029262824ba32b69760b11b60648201526084016109dc565b60006120c783613278565b9050806001600160401b038111156120e1576120e1613ed6565b60405190808252806020026020018201604052801561212657816020015b60408051808201909152600080825260208201528152602001906001900390816120ff5790505b50915060006121388460200151612ba9565b84602001516121479190614b15565b90506000805b838110156121b05761215e836132f0565b915060405180604001604052808381526020018481525085828151811061218757612187614ab9565b602090810291909101015261219c8284614b15565b9250806121a881614b3b565b91505061214d565b50505050919050565b6000806121c98360200151612ba9565b905060008184600001516121dd9190614b28565b905060008285602001516121f19190614b15565b516020929092036101000a909104949350505050565b60008060009050600086516001600160401b0381111561222957612229613ed6565b604051908082528060200260200182016040528015612252578160200160208202803683370190505b50905060005b865181101561236e5786818151811061227357612273614ab9565b6020026020010151516000031561235c5760006122a98789848151811061229c5761229c614ab9565b602002602001015161337f565b905060005b8951811015612359578381815181106122c9576122c9614ab9565b60200260200101511580156123105750816001600160a01b03166123058b83815181106122f8576122f8614ab9565b60200260200101516113a0565b6001600160a01b0316145b15612347578461231f81614b80565b955050600184828151811061233657612336614ab9565b911515602092830291909101909101525b8061235181614b3b565b9150506122ae565b50505b8061236681614b3b565b915050612258565b5083602001516001600160401b031684600001516001600160401b031688516123979190614a66565b6123a19190614bb5565b8260ff16101592505050949350505050565b606060008085516001600160401b038111156123d1576123d1613ed6565b60405190808252806020026020018201604052801561240457816020015b60608152602001906001900390816123ef5790505b5090506000805b86518110156124cb5761242988828151811061116a5761116a614ab9565b83828151811061243b5761243b614ab9565b602002602001018190525086818151811061245857612458614ab9565b602002602001015151600003156124b95761247f8688838151811061229c5761229c614ab9565b6001600160a01b031661249d8483815181106122f8576122f8614ab9565b6001600160a01b0316036124b957816124b581614b80565b9250505b806124c381614b3b565b91505061240b565b50816003885160026124dd9190614a66565b6124e79190614bb5565b909860ff909216119650945050505050565b6060600061250683613456565b6001600160401b0381111561251d5761251d613ed6565b6040519080825280601f01601f191660200182016040528015612547576020820181803683370190505b5090506000612558846020846134cd565b82525092915050565b6060600061256e83613591565b6001600160401b0381111561258557612585613ed6565b6040519080825280601f01601f1916602001820160405280156125af576020820181803683370190505b5090506000612558846020846135c7565b606060006125cd83613628565b6001600160401b038111156125e4576125e4613ed6565b6040519080825280601f01601f19166020018201604052801561260e576020820181803683370190505b5090506000612558846020846136d8565b612627613d73565b6000612631613d73565b6000808088805b6126428983614b15565b8110156126bb57612653818b612c9c565b919650945092506126648382614b15565b90508460010361268a57612679818b886137ed565b6126839082614b15565b9050612638565b8460020361269d57612679818b88612f9d565b846003036126b057612679818b88613808565b61267984828c613032565b509399969850959650505050505050565b606060008351116127135760405162461bcd60e51b8152602060048201526011602482015270456d70747920627974657320617272617960781b60448201526064016109dc565b6000835160026127239190614a66565b9050808311156127755760405162461bcd60e51b815260206004820152601d60248201527f536b6970206e6962626c657320616d6f756e7420746f6f206c6172676500000060448201526064016109dc565b61277f8382614b28565b9050806001600160401b0381111561279957612799613ed6565b6040519080825280601f01601f1916602001820160405280156127c3576020820181803683370190505b5091506000835b6127d48386614b15565b8110156128d2576127e6600282614bc9565b600003612852576004866127fb600284614bb5565b8151811061280b5761280b614ab9565b602001015160f81c60f81b60f81c60ff16901c600f1660f81b84838151811061283657612836614ab9565b60200101906001600160f81b031916908160001a9053506128b3565b600086612860600284614bb5565b8151811061287057612870614ab9565b602001015160f81c60f81b60f81c60ff16901c600f1660f81b84838151811061289b5761289b614ab9565b60200101906001600160f81b031916908160001a9053505b6128be600183614b15565b91506128cb600182614b15565b90506127ca565b50825181146128e3576128e3614b54565b505092915050565b6060600082600001516001600160401b0381111561290b5761290b613ed6565b6040519080825280601f01601f191660200182016040528015612935576020820181803683370190505b50905060008160200190506129538460200151828660000151612c2a565b5092915050565b606060008251116129a15760405162461bcd60e51b8152602060048201526011602482015270456d70747920627974657320617272617960781b60448201526064016109dc565b60006004836000815181106129b8576129b8614ab9565b60209101015160f81c901c600f16905060008181036129d957506002612a05565b816001036129e957506001612a05565b816002036129f957506002612a05565b816003036100a9575060015b610d8284826126cc565b6000805b8351612a1f8683614b15565b108015612a2c5750825181105b15610d8257828181518110612a4357612a43614ab9565b01602001516001600160f81b03191684612a5d8784614b15565b81518110612a6d57612a6d614ab9565b01602001516001600160f81b03191614612a88579050610eb1565b80612a9281614b3b565b915050612a13565b6020810151805160009190821a9060c0821015612abb575060009392505050565b5060019392505050565b600080612ad183611c89565b90508051602014612b135760405162461bcd60e51b815260206004820152600c60248201526b496e76616c6964206e6f646560a01b60448201526064016109dc565b6020015192915050565b600060408210612b6f5760405162461bcd60e51b815260206004820152601760248201527f496e76616c6964206e6962626c6520706f736974696f6e00000000000000000060448201526064016109dc565b60008215612b9557612b82600184614b28565b612b8d906004614a66565b84901b612b9b565b600484901c5b60f81c600f16949350505050565b8051600090811a6080811015612bc25750600092915050565b60b8811080612bdd575060c08110801590612bdd575060f881105b15612beb5750600192915050565b60c0811015612c1857612c00600160b8614bdd565b612c0d9060ff1682614b28565b610eb1906001614b15565b612c00600160f8614bdd565b50919050565b6020811115612c635782518252612c42602084614b15565b9250612c4f602083614b15565b9150612c5c602082614b28565b9050612c2a565b60006001612c72836020614b28565b612c7e90610100614cda565b612c889190614b28565b935183518516941916939093179091525050565b6000806000806000612cae8787612dcb565b915091506000826007166005811115612cc957612cc9614b6a565b90506000612cd8600885614bb5565b99919850919650945050505050565b6000806000612cf68787613828565b91509150612d02851590565b15612d2557600184815b60200201818151612d1d9190614b15565b90525061146a565b81855260208401511561146a57600184815b60200201818151612d489190614b28565b9052509695505050505050565b6000806000612d648787613839565b91509150612d70851590565b15612d7f576001846002612d0c565b6020850182905260408401511561146a576001846002612d37565b600080600080612dac86866008613852565b9097909650945050505050565b600080600080612dac86866004613852565b600080600080600060208651612de19190614b15565b96860196905060805b60808116608003612ea7578688038211612e2e5762461bcd60e51b6000526020600452600f6024526e6c656e677468206f766572666c6f7760881b60445260536000fd5b875160005b60208110608084166080141615612ea057888a038411612e7d5762461bcd60e51b6000526020600452600f6024526e6c656e677468206f766572666c6f7760881b60445260536000fd5b6001998a019982821a607f8116600788021b979097179695810195935001612e33565b5050612dea565b5091969095509350505050565b60606000806000612ec58686612dcb565b915091506000826001600160401b03811115612ee357612ee3613ed6565b6040519080825280601f01601f191660200182016040528015612f0d576020820181803683370190505b509050600060208751612f209190614b15565b90508084612f2e858b614b15565b612f389190614b15565b1115612f4657612f46614b54565b868801830160208301612f5a8282886138bf565b83612f658787614b15565b975097505050505050509250929050565b6000806000612f858686613905565b6001600160401b039091168552925050509392505050565b6000806000612fac8686613839565b602095909501525091949350505050565b612fc5613dab565b50600090565b6000806000612fda8787613839565b91509150612fe6851590565b15612ff5576001846003612d0c565b60408501516060850151815184929161300d91614b28565b8151811061301d5761301d614ab9565b60209081029190910101526001846003612d37565b6000600184600581111561304857613048614b6a565b0361305557506008610eb1565b600584600581111561306957613069614b6a565b0361307657506004610eb1565b600084600581111561308a5761308a614b6a565b036130a557600061309b8484612dcb565b9250610eb1915050565b60028460058111156130b9576130b9614b6a565b146130c357600080fd5b6000806130d08585612dcb565b90925090506130df8282614b15565b92505050610eb1565b6130f0613dd5565b60006130fa613dd5565b613102613e9c565b6000808089805b6131138a83614b15565b8110156131a757613124818c612c9c565b919650945092506131358382614b15565b90508460010361315b5761314a818c89613915565b6131549082614b15565b9050613109565b846002036131765761314a818c613170613924565b8961392c565b846003036131895761314a818c89613808565b8460040361319c5761314a818c89613993565b61314a84828d613032565b50604085015181901561321a57602087015151156131c457600080fd5b60408601516001600160401b038111156131e0576131e0613ed6565b60405190808252806020026020018201604052801561321357816020015b60608152602001906001900390816131fe5790505b5060208801525b6132248a83614b15565b811015611eac57613235818c612c9c565b919650945092506132468382614b15565b90508460020361326d5761325c818c898961392c565b6132669082614b15565b905061321a565b61325c84828d613032565b60008060009050600061328e8460200151612ba9565b846020015161329d9190614b15565b90506000846000015185602001516132b59190614b15565b90505b808210156132e7576132c9826132f0565b6132d39083614b15565b9150826132df81614b3b565b9350506132b8565b50909392505050565b8051600090811a60808110156133095750600192915050565b60b881101561331d57612c0d608082614b28565b60c081101561334a5760b78103600184019350806020036101000a84510460018201810193505050612c24565b60f881101561335e57612c0d60c082614b28565b60019290920151602083900360f7016101000a900490910160f51901919050565b600080600080845160411461339a5760009350505050610d37565b50505060208201516040830151606084015160001a601b8110156133c6576133c3601b82614ce6565b90505b8060ff16601b141580156133de57508060ff16601c14155b156133ef5760009350505050610d37565b60408051600081526020810180835288905260ff831691810191909152606081018490526080810183905260019060a0016020604051602081039080840390855afa158015613442573d6000803e3d6000fd5b505050602060405103519350505050610d37565b6000806134678360000151516139b3565b613472906001614b15565b61347c9082614b15565b905061348c8360200151516139b3565b613497906001614b15565b6134a19082614b15565b90506134b86134b384604001516139c8565b6139b3565b6134c3906001614b15565b610eb19082614b15565b8251516000908390819015613512576134ea6001600283876139fc565b6134f49082614b15565b905061350586600001518286613a12565b61350f9082614b15565b90505b602086015151156135525761352a60028083876139fc565b6135349082614b15565b905061354586602001518286613a1b565b61354f9082614b15565b90505b6135606003600283876139fc565b61356a9082614b15565b905061357b86604001518286613a66565b6135859082614b15565b905061146a8282614b28565b6000806135a28360000151516139b3565b6135ad906001614b15565b6135b79082614b15565b90506134b88360200151516139b3565b600082806135d96001600283876139fc565b6135e39082614b15565b90506135f486600001518286613a12565b6135fe9082614b15565b905061360d60028083876139fc565b6136179082614b15565b905061357b86602001518286613a1b565b600080600061363a8460000151613b27565b613645906001614b15565b61364f9083614b15565b915061365f8460200151516139b3565b61366a906001614b15565b6136749083614b15565b9150600090505b836040015151811015612953576136af846040015182815181106136a1576136a1614ab9565b6020026020010151516139b3565b6136ba906001614b15565b6136c49083614b15565b9150806136d081614b3b565b91505061367b565b82516000908390819083906001600160401b031615613727576136ff6001600084886139fc565b6137099083614b15565b915061371a87600001518387613b3b565b6137249083614b15565b91505b602087015151156137675761373f60028084886139fc565b6137499083614b15565b915061375a87602001518387613a1b565b6137649083614b15565b91505b604087015151156137e3575060005b8660400151518110156137e3576137916003600284886139fc565b61379b9083614b15565b91506137c5876040015182815181106137b6576137b6614ab9565b60200260200101518387613a1b565b6137cf9083614b15565b9150806137db81614b3b565b915050613776565b6105458383614b28565b60008060006137fc8686613828565b94525091949350505050565b60008060006138178686613b51565b604095909501525091949350505050565b60606000806000612dac8686612eb4565b606060006138478484612eb4565b915091509250929050565b600080600080602086516138669190614b15565b9050806138738689614b15565b111561388157613881614b54565b6000878701975087515b868210156138b05780821a826008021b8417935060018901985060018201915061388b565b50919794965093945050505050565b806000036138cc57505050565b6020811115612c6357825182526138e4602083614b15565b91506138f1602084614b15565b92506138fe602082614b28565b90506138cc565b600080600080612dac8686612dcb565b60008060006137fc8686613839565b612fc5613dd5565b600080600061393b8787613839565b91509150613947851590565b15613956576001846002612d0c565b60208501516040850151815184929161396e91614b28565b8151811061397e5761397e614ab9565b60209081029190910101526001846002612d37565b60008060006139a28686613839565b606095909501525091949350505050565b60006139be82613baf565b610d379083614b15565b6000806139d88360000151613b27565b6139e3906001614b15565b6139ed9082614b15565b90506134b88360200151613b27565b600060088502600785161761146a818585613bcc565b6000610d828484845b825160009081613a2c828686613bcc565b905060008186018501602088015b84831015613a5957805160001a82536001928301929182019101613a3a565b5061054590508183614b15565b6000828082613a74876139c8565b6001600160401b03811115613a8b57613a8b613ed6565b6040519080825280601f01601f191660200182016040528015613ab5576020820181803683370190505b50905080856000613ac88a602085613c0f565b9050613ad581868a613bcc565b613adf9086614b15565b9450613aff613aef846020614b15565b613af98785614b15565b836138bf565b613b098186614b15565b945060609350613b198686614b28565b9a9950505050505050505050565b6000610d37826001600160401b0316613baf565b6000610d82846001600160401b03168484613bcc565b60408051808201909152600080825260208201526000838180613b748387612dcb565b9092509050613b838184614b15565b92506000613b92848885613ca2565b50905080613ba08385614b15565b95509550505050509250929050565b60071c600060015b8215610d375760079290921c91600101613bb7565b600080828401607f86165b600787901c15613bff578060801782535060079590951c9460019182019101607f8616613bd7565b8082535050600101949350505050565b8251600090839081906001600160401b031615613c5c57613c346001600083876139fc565b613c3e9082614b15565b9050613c4f86600001518286613b3b565b613c599082614b15565b90505b60208601516001600160401b031615613c9857613c7d6002600083876139fc565b613c879082614b15565b905061357b86602001518286613b3b565b61146a8282614b28565b60408051808201909152600080825260208201526000613cd2604080518082019091526000808252602082015290565b6000808088805b613ce38983614b15565b8110156126bb57613cf4818b612c9c565b91965094509250613d058382614b15565b905084600103613d2b57613d1a818b88612f76565b613d249082614b15565b9050613cd9565b84600203613d3e57613d1a818b88613d49565b613d1a84828c613032565b6000806000613d588686613905565b6001600160401b039091166020860152925050509392505050565b60405180606001604052806060815260200160608152602001613da6604080518082019091526000808252602082015290565b905290565b604051806060016040528060006001600160401b0316815260200160608152602001606081525090565b60405180608001604052806060815260200160608152602001613e08604080518082019091526000808252602082015290565b8152602001606081525090565b6040518060a00160405280613e28613dd5565b8152602001613e47604080518082019091526000808252602082015290565b8152600060208201819052604082015260609081015290565b60405180606001604052806003906020820280368337509192915050565b60405180608001604052806004906020820280368337509192915050565b6040518060a001604052806005906020820280368337509192915050565b80356001600160a01b0381168114613ed157600080fd5b919050565b634e487b7160e01b600052604160045260246000fd5b604051601f8201601f191681016001600160401b0381118282101715613f1457613f14613ed6565b604052919050565b60006001600160401b03821115613f3557613f35613ed6565b50601f01601f191660200190565b600082601f830112613f5457600080fd5b8135613f67613f6282613f1c565b613eec565b818152846020838601011115613f7c57600080fd5b816020850160208301376000918101602001919091529392505050565b80356001600160401b0381168114613ed157600080fd5b600060408284031215613fc257600080fd5b604051604081018181106001600160401b0382111715613fe457613fe4613ed6565b604052905080613ff383613f99565b815261400160208401613f99565b60208201525092915050565b60008060008060008060008060008060006101808c8e03121561402f57600080fd5b6140388c613eba565b9a506001600160401b038060208e0135111561405357600080fd5b6140638e60208f01358f01613f43565b9a506140728e60408f01613fb0565b995061408060808e01613f99565b985061408e60a08e01613f99565b97508060c08e013511156140a157600080fd5b6140b18e60c08f01358f01613f43565b96508060e08e013511156140c457600080fd5b6140d48e60e08f01358f01613f43565b9550806101008e013511156140e857600080fd5b6140f98e6101008f01358f01613f43565b9450806101208e0135111561410d57600080fd5b61411e8e6101208f01358f01613f43565b935061412d6101408e01613f99565b9250806101608e0135111561414157600080fd5b506141538d6101608e01358e01613f43565b90509295989b509295989b9093969950565b600080600080600080600080610140898b03121561418257600080fd5b61418b89613eba565b975060208901356001600160401b03808211156141a757600080fd5b6141b38c838d01613f43565b98506141c28c60408d01613fb0565b975060808b01359150808211156141d857600080fd5b6141e48c838d01613f43565b96506141f38c60a08d01613fb0565b955060e08b013591508082111561420957600080fd5b6142158c838d01613f43565b94506101008b013591508082111561422c57600080fd5b6142388c838d01613f43565b93506101208b013591508082111561424f57600080fd5b5061425c8b828c01613f43565b9150509295985092959890939650565b6000806000806000806000610100888a03121561428857600080fd5b61429188613eba565b965060208801356001600160401b03808211156142ad57600080fd5b6142b98b838c01613f43565b97506142c88b60408c01613fb0565b965060808a01359150808211156142de57600080fd5b6142ea8b838c01613f43565b955060a08a013591508082111561430057600080fd5b61430c8b838c01613f43565b945060c08a013591508082111561432257600080fd5b61432e8b838c01613f43565b935060e08a013591508082111561434457600080fd5b506143518a828b01613f43565b91505092959891949750929550565b60008060008060008060008060008060006101808c8e03121561438257600080fd5b61438b8c613eba565b9a506001600160401b038060208e013511156143a657600080fd5b6143b68e60208f01358f01613f43565b9a506143c58e60408f01613fb0565b99506143d360808e01613f99565b98506143e160a08e01613f99565b97508060c08e013511156143f457600080fd5b6144048e60c08f01358f01613f43565b96508060e08e0135111561441757600080fd5b6144278e60e08f01358f01613f43565b9550806101008e0135111561443b57600080fd5b61444c8e6101008f01358f01613f43565b9450806101208e0135111561446057600080fd5b506144728d6101208e01358e01613f43565b92506144816101408d01613f99565b91506101608c013590509295989b509295989b9093969950565b6000806000608084860312156144b057600080fd5b6144b984613eba565b925060208401356001600160401b038111156144d457600080fd5b6144e086828701613f43565b9250506144f08560408601613fb0565b90509250925092565b600080600080600080600080610120898b03121561451657600080fd5b61451f89613eba565b975060208901356001600160401b038082111561453b57600080fd5b6145478c838d01613f43565b98506145568c60408d01613fb0565b975060808b013591508082111561456c57600080fd5b6145788c838d01613f43565b965060a08b013591508082111561458e57600080fd5b61459a8c838d01613f43565b955060c08b01359150808211156145b057600080fd5b6145bc8c838d01613f43565b945060e08b01359150808211156145d257600080fd5b6145de8c838d01613f43565b93506101008b013591508082111561424f57600080fd5b60005b838110156146105781810151838201526020016145f8565b50506000910152565b600081518084526146318160208601602086016145f5565b601f01601f19169290920160200192915050565b604081526001600160401b038351166040820152600060208085015160608085015261467460a0850182614619565b6040870151858203603f19016080870152805180835291925083019083830190600581901b8401850160005b828110156146ce57601f198683030184526146bc828651614619565b948701949387019391506001016146a0565b50881515888701529550610f9c9350505050565b600080604083850312156146f557600080fd5b6146fe83613eba565b915060208301356001600160401b0381111561471957600080fd5b61472585828601613f43565b9150509250929050565b60608101614753828580516001600160401b03908116835260209182015116910152565b82151560408301529392505050565b6000806000806080858703121561477857600080fd5b61478185613eba565b935060208501356001600160401b038082111561479d57600080fd5b6147a988838901613f43565b945060408701359150808211156147bf57600080fd5b6147cb88838901613f43565b935060608701359150808211156147e157600080fd5b506147ee87828801613f43565b91505092959194509250565b60808152600061480d6080830186614619565b828103602084015261481f8186614619565b84516001600160401b03908116604086015260208601511660608501529150610d829050565b60408152600083516080604084015261486160c0840182614619565b90506020850151603f1984830301606085015261487e8282614619565b91505060408501516148a9608085018280516001600160401b03908116835260209182015116910152565b508091505082151560208301529392505050565b6060815260006148d06060830186614619565b82810360208401526148e28186614619565b9150506001600160401b0383166040830152949350505050565b60006020828403121561490e57600080fd5b5051919050565b602081526000610eb16020830184614619565b60608152600061493b6060830186614619565b6001600160401b0394851660208401529290931660409091015292915050565b60408152600061496e6040830185614619565b8281036020840152610e3d8185614619565b6060815260006149936060830185614619565b9050610eb1602083018480516001600160401b03908116835260209182015116910152565b80518015158114613ed157600080fd5b600080604083850312156149db57600080fd5b82516001600160401b038111156149f157600080fd5b8301601f81018513614a0257600080fd5b8051614a10613f6282613f1c565b818152866020838501011115614a2557600080fd5b614a368260208301602086016145f5565b9350614a47915050602084016149b8565b90509250929050565b634e487b7160e01b600052601160045260246000fd5b8082028115828204841417610d3757610d37614a50565b6001600160401b0381811683821601908082111561295357612953614a50565b60008251614aaf8184602087016145f5565b9190910192915050565b634e487b7160e01b600052603260045260246000fd5b60008060408385031215614ae257600080fd5b82519150614a47602084016149b8565b6001600160401b038181168382160280821691908281146128e3576128e3614a50565b80820180821115610d3757610d37614a50565b81810381811115610d3757610d37614a50565b600060018201614b4d57614b4d614a50565b5060010190565b634e487b7160e01b600052600160045260246000fd5b634e487b7160e01b600052602160045260246000fd5b600060ff821660ff8103614b9657614b96614a50565b60010192915050565b634e487b7160e01b600052601260045260246000fd5b600082614bc457614bc4614b9f565b500490565b600082614bd857614bd8614b9f565b500690565b60ff8281168282160390811115610d3757610d37614a50565b600181815b80851115614c31578160001904821115614c1757614c17614a50565b80851615614c2457918102915b93841c9390800290614bfb565b509250929050565b600082614c4857506001610d37565b81614c5557506000610d37565b8160018114614c6b5760028114614c7557614c91565b6001915050610d37565b60ff841115614c8657614c86614a50565b50506001821b610d37565b5060208310610133831016604e8410600b8410161715614cb4575081810a610d37565b614cbe8383614bf6565b8060001904821115614cd257614cd2614a50565b029392505050565b6000610eb18383614c39565b60ff8181168382160190811115610d3757610d37614a5056fe2f6962632e6c69676874636c69656e74732e69626674322e76312e436c69656e7453746174652f6962632e6c69676874636c69656e74732e69626674322e76312e436f6e73656e7375735374617465a264697066735822122051df1875d2825fb26b1b787c804db66ee55584f33eb49a9f9dcf5a891174dc8a64736f6c63430008150033",
    "linkReferences": {
      "src/ibc/core/IBCIdentifier.sol": {
        "IBCIdentifier": [
          {
            "start": 623,
            "length": 20
          },
          {
            "start": 1028,
            "length": 20
          },
          {
            "start": 1335,
            "length": 20
          },
          {
            "start": 1568,
            "length": 20
          },
          {
            "start": 1906,
            "length": 20
          },
          {
            "start": 2093,
            "length": 20
          }
        ]
      }
    }
  },
  "methodIdentifiers": {
    "checkHeaderAndUpdateState(address,string,bytes,bytes)": "fe4391fd",
    "getClientState(address,string)": "ff33b3e6",
    "getConsensusState(address,string,(uint64,uint64))": "dd8dd65f",
    "getLatestHeight(address,string)": "fe017750",
    "getTimestampAtHeight(address,string,(uint64,uint64))": "a65a0aba",
    "verifyChannelState(address,string,(uint64,uint64),bytes,bytes,string,string,bytes)": "c9f13d26",
    "verifyClientConsensusState(address,string,(uint64,uint64),string,(uint64,uint64),bytes,bytes,bytes)": "8eaa4a38",
    "verifyClientState(address,string,(uint64,uint64),bytes,string,bytes,bytes)": "9e6671bd",
    "verifyConnectionState(address,string,(uint64,uint64),bytes,bytes,string,bytes)": "a8432fa1",
    "verifyPacketAcknowledgement(address,string,(uint64,uint64),uint64,uint64,bytes,bytes,string,string,uint64,bytes)": "54596a36",
    "verifyPacketCommitment(address,string,(uint64,uint64),uint64,uint64,bytes,bytes,string,string,uint64,bytes32)": "a0aaade7"
  },
  "id": 37
}