{
  "abi": [
    {
      "inputs": [
        {
          "internalType": "address",
          "name": "router",
          "type": "address"
        },
        {
          "components": [
            {
              "internalType": "uint128",
              "name": "networkId",
              "type": "uint128"
            },
            {
              "internalType": "bytes",
              "name": "account",
              "type": "bytes"
            }
          ],
          "internalType": "struct IRouter.Origin",
          "name": "origin",
          "type": "tuple"
        },
        {
          "internalType": "bytes",
          "name": "salt",
          "type": "bytes"
        },
        {
          "internalType": "bytes",
          "name": "program",
          "type": "bytes"
        },
        {
          "internalType": "address[]",
          "name": "_assets",
          "type": "address[]"
        },
        {
          "internalType": "uint256[]",
          "name": "_amounts",
          "type": "uint256[]"
        }
      ],
      "name": "runProgram",
      "outputs": [],
      "stateMutability": "nonpayable",
      "type": "function"
    },
    {
      "inputs": [
        {
          "internalType": "bytes",
          "name": "account",
          "type": "bytes"
        },
        {
          "internalType": "uint128",
          "name": "networkId",
          "type": "uint128"
        },
        {
          "internalType": "bytes",
          "name": "salt",
          "type": "bytes"
        },
        {
          "internalType": "bytes",
          "name": "spawnedProgram",
          "type": "bytes"
        },
        {
          "internalType": "uint128[]",
          "name": "assetIds",
          "type": "uint128[]"
        },
        {
          "internalType": "uint256[]",
          "name": "amounts",
          "type": "uint256[]"
        }
      ],
      "name": "sendProgram",
      "outputs": [],
      "stateMutability": "nonpayable",
      "type": "function"
    }
  ],
  "bytecode": {
    "object": "0x608060405234801561001057600080fd5b506106bd806100206000396000f3fe608060405234801561001057600080fd5b50600436106100365760003560e01c806340e705a71461003b578063cb412c7c14610053575b600080fd5b6100516100493660046102a5565b505050505050565b005b610051610061366004610475565b60405163b5881b3f60e01b81526001600160a01b0387169063b5881b3f9061009590889088908890889088906004016105a7565b6020604051808303816000875af11580156100b4573d6000803e3d6000fd5b505050506040513d601f19601f820116820180604052508101906100d8919061065e565b50505050505050565b634e487b7160e01b600052604160045260246000fd5b604051601f8201601f1916810167ffffffffffffffff81118282101715610120576101206100e1565b604052919050565b600082601f83011261013957600080fd5b813567ffffffffffffffff811115610153576101536100e1565b610166601f8201601f19166020016100f7565b81815284602083860101111561017b57600080fd5b816020850160208301376000918101602001919091529392505050565b80356001600160801b03811681146101af57600080fd5b919050565b600067ffffffffffffffff8211156101ce576101ce6100e1565b5060051b60200190565b600082601f8301126101e957600080fd5b813560206101fe6101f9836101b4565b6100f7565b82815260059290921b8401810191818101908684111561021d57600080fd5b8286015b8481101561023f5761023281610198565b8352918301918301610221565b509695505050505050565b600082601f83011261025b57600080fd5b8135602061026b6101f9836101b4565b82815260059290921b8401810191818101908684111561028a57600080fd5b8286015b8481101561023f578035835291830191830161028e565b60008060008060008060c087890312156102be57600080fd5b863567ffffffffffffffff808211156102d657600080fd5b6102e28a838b01610128565b97506102f060208a01610198565b9650604089013591508082111561030657600080fd5b6103128a838b01610128565b9550606089013591508082111561032857600080fd5b6103348a838b01610128565b9450608089013591508082111561034a57600080fd5b6103568a838b016101d8565b935060a089013591508082111561036c57600080fd5b5061037989828a0161024a565b9150509295509295509295565b80356001600160a01b03811681146101af57600080fd5b6000604082840312156103af57600080fd5b6040516040810167ffffffffffffffff82821081831117156103d3576103d36100e1565b816040528293506103e385610198565b835260208501359150808211156103f957600080fd5b5061040685828601610128565b6020830152505092915050565b600082601f83011261042457600080fd5b813560206104346101f9836101b4565b82815260059290921b8401810191818101908684111561045357600080fd5b8286015b8481101561023f5761046881610386565b8352918301918301610457565b60008060008060008060c0878903121561048e57600080fd5b61049787610386565b9550602087013567ffffffffffffffff808211156104b457600080fd5b6104c08a838b0161039d565b965060408901359150808211156104d657600080fd5b6104e28a838b01610128565b955060608901359150808211156104f857600080fd5b6105048a838b01610128565b9450608089013591508082111561051a57600080fd5b6103568a838b01610413565b6000815180845260005b8181101561054c57602081850181015186830182015201610530565b506000602082860101526020601f19601f83011685010191505092915050565b600081518084526020808501945080840160005b8381101561059c57815187529582019590820190600101610580565b509495945050505050565b60a081526001600160801b0386511660a08201526000602080880151604060c08501526105d760e0850182610526565b9050838103828501526105ea8189610526565b905083810360408501526105fe8188610526565b8481036060860152865180825283880192509083019060005b8181101561063c5783516001600160a01b031683529284019291840191600101610617565b50508481036080860152610650818761056c565b9a9950505050505050505050565b60006020828403121561067057600080fd5b8151801515811461068057600080fd5b939250505056fea2646970667358221220590b50d29a4262937df11c8f2f0469a5e0209d466ea397173218a916279e60b664736f6c63430008150033",
    "linkReferences": {}
  },
  "methodIdentifiers": {
    "runProgram(address,(uint128,bytes),bytes,bytes,address[],uint256[])": "cb412c7c",
    "sendProgram(bytes,uint128,bytes,bytes,uint128[],uint256[])": "40e705a7"
  },
  "id": 60
}